{
  "_format": "hh-sol-artifact-1",
  "contractName": "ProductiveMiner",
  "sourceName": "contracts/ProductiveMiner.sol",
  "abi": [
    {
      "inputs": [],
      "stateMutability": "nonpayable",
      "type": "constructor"
    },
    {
      "inputs": [
        {
          "internalType": "address",
          "name": "owner",
          "type": "address"
        }
      ],
      "name": "OwnableInvalidOwner",
      "type": "error"
    },
    {
      "inputs": [
        {
          "internalType": "address",
          "name": "account",
          "type": "address"
        }
      ],
      "name": "OwnableUnauthorizedAccount",
      "type": "error"
    },
    {
      "inputs": [],
      "name": "ReentrancyGuardReentrantCall",
      "type": "error"
    },
    {
      "anonymous": false,
      "inputs": [
        {
          "indexed": true,
          "internalType": "bytes32",
          "name": "discoveryId",
          "type": "bytes32"
        },
        {
          "indexed": true,
          "internalType": "address",
          "name": "miner",
          "type": "address"
        },
        {
          "indexed": false,
          "internalType": "string",
          "name": "workType",
          "type": "string"
        },
        {
          "indexed": false,
          "internalType": "uint256",
          "name": "difficulty",
          "type": "uint256"
        },
        {
          "indexed": false,
          "internalType": "uint256",
          "name": "reward",
          "type": "uint256"
        }
      ],
      "name": "DiscoverySubmitted",
      "type": "event"
    },
    {
      "anonymous": false,
      "inputs": [
        {
          "indexed": true,
          "internalType": "address",
          "name": "miner",
          "type": "address"
        },
        {
          "indexed": false,
          "internalType": "string",
          "name": "workType",
          "type": "string"
        },
        {
          "indexed": false,
          "internalType": "uint256",
          "name": "difficulty",
          "type": "uint256"
        }
      ],
      "name": "MiningSessionCompleted",
      "type": "event"
    },
    {
      "anonymous": false,
      "inputs": [
        {
          "indexed": true,
          "internalType": "address",
          "name": "miner",
          "type": "address"
        },
        {
          "indexed": false,
          "internalType": "string",
          "name": "workType",
          "type": "string"
        },
        {
          "indexed": false,
          "internalType": "uint256",
          "name": "difficulty",
          "type": "uint256"
        }
      ],
      "name": "MiningSessionStarted",
      "type": "event"
    },
    {
      "anonymous": false,
      "inputs": [
        {
          "indexed": true,
          "internalType": "address",
          "name": "previousOwner",
          "type": "address"
        },
        {
          "indexed": true,
          "internalType": "address",
          "name": "newOwner",
          "type": "address"
        }
      ],
      "name": "OwnershipTransferred",
      "type": "event"
    },
    {
      "inputs": [
        {
          "internalType": "string",
          "name": "_workType",
          "type": "string"
        }
      ],
      "name": "addWorkType",
      "outputs": [],
      "stateMutability": "nonpayable",
      "type": "function"
    },
    {
      "inputs": [],
      "name": "baseReward",
      "outputs": [
        {
          "internalType": "uint256",
          "name": "",
          "type": "uint256"
        }
      ],
      "stateMutability": "view",
      "type": "function"
    },
    {
      "inputs": [],
      "name": "blockTime",
      "outputs": [
        {
          "internalType": "uint256",
          "name": "",
          "type": "uint256"
        }
      ],
      "stateMutability": "view",
      "type": "function"
    },
    {
      "inputs": [
        {
          "internalType": "uint256",
          "name": "_difficulty",
          "type": "uint256"
        },
        {
          "internalType": "uint256",
          "name": "_quantumSecurity",
          "type": "uint256"
        }
      ],
      "name": "calculateReward",
      "outputs": [
        {
          "internalType": "uint256",
          "name": "",
          "type": "uint256"
        }
      ],
      "stateMutability": "view",
      "type": "function"
    },
    {
      "inputs": [
        {
          "internalType": "uint256",
          "name": "_sessionIndex",
          "type": "uint256"
        }
      ],
      "name": "completeMiningSession",
      "outputs": [],
      "stateMutability": "nonpayable",
      "type": "function"
    },
    {
      "inputs": [
        {
          "internalType": "bytes32",
          "name": "",
          "type": "bytes32"
        }
      ],
      "name": "discoveries",
      "outputs": [
        {
          "internalType": "address",
          "name": "miner",
          "type": "address"
        },
        {
          "internalType": "string",
          "name": "workType",
          "type": "string"
        },
        {
          "internalType": "uint256",
          "name": "difficulty",
          "type": "uint256"
        },
        {
          "internalType": "string",
          "name": "result",
          "type": "string"
        },
        {
          "internalType": "string",
          "name": "proofOfWork",
          "type": "string"
        },
        {
          "internalType": "uint256",
          "name": "quantumSecurity",
          "type": "uint256"
        },
        {
          "internalType": "uint256",
          "name": "timestamp",
          "type": "uint256"
        },
        {
          "internalType": "uint256",
          "name": "reward",
          "type": "uint256"
        },
        {
          "internalType": "bool",
          "name": "verified",
          "type": "bool"
        }
      ],
      "stateMutability": "view",
      "type": "function"
    },
    {
      "inputs": [
        {
          "internalType": "bytes32",
          "name": "_discoveryId",
          "type": "bytes32"
        }
      ],
      "name": "getDiscovery",
      "outputs": [
        {
          "components": [
            {
              "internalType": "address",
              "name": "miner",
              "type": "address"
            },
            {
              "internalType": "string",
              "name": "workType",
              "type": "string"
            },
            {
              "internalType": "uint256",
              "name": "difficulty",
              "type": "uint256"
            },
            {
              "internalType": "string",
              "name": "result",
              "type": "string"
            },
            {
              "internalType": "string",
              "name": "proofOfWork",
              "type": "string"
            },
            {
              "internalType": "uint256",
              "name": "quantumSecurity",
              "type": "uint256"
            },
            {
              "internalType": "uint256",
              "name": "timestamp",
              "type": "uint256"
            },
            {
              "internalType": "uint256",
              "name": "reward",
              "type": "uint256"
            },
            {
              "internalType": "bool",
              "name": "verified",
              "type": "bool"
            }
          ],
          "internalType": "struct ProductiveMiner.Discovery",
          "name": "",
          "type": "tuple"
        }
      ],
      "stateMutability": "view",
      "type": "function"
    },
    {
      "inputs": [
        {
          "internalType": "address",
          "name": "_miner",
          "type": "address"
        }
      ],
      "name": "getMinerRewards",
      "outputs": [
        {
          "internalType": "uint256",
          "name": "",
          "type": "uint256"
        }
      ],
      "stateMutability": "view",
      "type": "function"
    },
    {
      "inputs": [
        {
          "internalType": "address",
          "name": "_miner",
          "type": "address"
        }
      ],
      "name": "getMiningSessions",
      "outputs": [
        {
          "components": [
            {
              "internalType": "address",
              "name": "miner",
              "type": "address"
            },
            {
              "internalType": "string",
              "name": "workType",
              "type": "string"
            },
            {
              "internalType": "uint256",
              "name": "difficulty",
              "type": "uint256"
            },
            {
              "internalType": "uint256",
              "name": "startTime",
              "type": "uint256"
            },
            {
              "internalType": "uint256",
              "name": "endTime",
              "type": "uint256"
            },
            {
              "internalType": "uint256",
              "name": "progress",
              "type": "uint256"
            },
            {
              "internalType": "bool",
              "name": "active",
              "type": "bool"
            }
          ],
          "internalType": "struct ProductiveMiner.MiningSession[]",
          "name": "",
          "type": "tuple[]"
        }
      ],
      "stateMutability": "view",
      "type": "function"
    },
    {
      "inputs": [],
      "name": "maxDifficulty",
      "outputs": [
        {
          "internalType": "uint256",
          "name": "",
          "type": "uint256"
        }
      ],
      "stateMutability": "view",
      "type": "function"
    },
    {
      "inputs": [
        {
          "internalType": "address",
          "name": "",
          "type": "address"
        }
      ],
      "name": "minerRewards",
      "outputs": [
        {
          "internalType": "uint256",
          "name": "",
          "type": "uint256"
        }
      ],
      "stateMutability": "view",
      "type": "function"
    },
    {
      "inputs": [
        {
          "internalType": "address",
          "name": "",
          "type": "address"
        },
        {
          "internalType": "uint256",
          "name": "",
          "type": "uint256"
        }
      ],
      "name": "miningSessions",
      "outputs": [
        {
          "internalType": "address",
          "name": "miner",
          "type": "address"
        },
        {
          "internalType": "string",
          "name": "workType",
          "type": "string"
        },
        {
          "internalType": "uint256",
          "name": "difficulty",
          "type": "uint256"
        },
        {
          "internalType": "uint256",
          "name": "startTime",
          "type": "uint256"
        },
        {
          "internalType": "uint256",
          "name": "endTime",
          "type": "uint256"
        },
        {
          "internalType": "uint256",
          "name": "progress",
          "type": "uint256"
        },
        {
          "internalType": "bool",
          "name": "active",
          "type": "bool"
        }
      ],
      "stateMutability": "view",
      "type": "function"
    },
    {
      "inputs": [],
      "name": "owner",
      "outputs": [
        {
          "internalType": "address",
          "name": "",
          "type": "address"
        }
      ],
      "stateMutability": "view",
      "type": "function"
    },
    {
      "inputs": [],
      "name": "quantumSecurityLevel",
      "outputs": [
        {
          "internalType": "uint256",
          "name": "",
          "type": "uint256"
        }
      ],
      "stateMutability": "view",
      "type": "function"
    },
    {
      "inputs": [
        {
          "internalType": "string",
          "name": "_workType",
          "type": "string"
        }
      ],
      "name": "removeWorkType",
      "outputs": [],
      "stateMutability": "nonpayable",
      "type": "function"
    },
    {
      "inputs": [],
      "name": "renounceOwnership",
      "outputs": [],
      "stateMutability": "nonpayable",
      "type": "function"
    },
    {
      "inputs": [
        {
          "internalType": "uint256",
          "name": "_baseReward",
          "type": "uint256"
        }
      ],
      "name": "setBaseReward",
      "outputs": [],
      "stateMutability": "nonpayable",
      "type": "function"
    },
    {
      "inputs": [
        {
          "internalType": "uint256",
          "name": "_blockTime",
          "type": "uint256"
        }
      ],
      "name": "setBlockTime",
      "outputs": [],
      "stateMutability": "nonpayable",
      "type": "function"
    },
    {
      "inputs": [
        {
          "internalType": "uint256",
          "name": "_maxDifficulty",
          "type": "uint256"
        }
      ],
      "name": "setMaxDifficulty",
      "outputs": [],
      "stateMutability": "nonpayable",
      "type": "function"
    },
    {
      "inputs": [
        {
          "internalType": "uint256",
          "name": "_level",
          "type": "uint256"
        }
      ],
      "name": "setQuantumSecurityLevel",
      "outputs": [],
      "stateMutability": "nonpayable",
      "type": "function"
    },
    {
      "inputs": [
        {
          "internalType": "string",
          "name": "_workType",
          "type": "string"
        },
        {
          "internalType": "uint256",
          "name": "_difficulty",
          "type": "uint256"
        }
      ],
      "name": "startMiningSession",
      "outputs": [],
      "stateMutability": "nonpayable",
      "type": "function"
    },
    {
      "inputs": [
        {
          "internalType": "string",
          "name": "_workType",
          "type": "string"
        },
        {
          "internalType": "uint256",
          "name": "_difficulty",
          "type": "uint256"
        },
        {
          "internalType": "string",
          "name": "_result",
          "type": "string"
        },
        {
          "internalType": "string",
          "name": "_proofOfWork",
          "type": "string"
        },
        {
          "internalType": "uint256",
          "name": "_quantumSecurity",
          "type": "uint256"
        }
      ],
      "name": "submitDiscovery",
      "outputs": [],
      "stateMutability": "nonpayable",
      "type": "function"
    },
    {
      "inputs": [],
      "name": "totalDiscoveries",
      "outputs": [
        {
          "internalType": "uint256",
          "name": "",
          "type": "uint256"
        }
      ],
      "stateMutability": "view",
      "type": "function"
    },
    {
      "inputs": [],
      "name": "totalRewardsDistributed",
      "outputs": [
        {
          "internalType": "uint256",
          "name": "",
          "type": "uint256"
        }
      ],
      "stateMutability": "view",
      "type": "function"
    },
    {
      "inputs": [
        {
          "internalType": "address",
          "name": "newOwner",
          "type": "address"
        }
      ],
      "name": "transferOwnership",
      "outputs": [],
      "stateMutability": "nonpayable",
      "type": "function"
    },
    {
      "inputs": [
        {
          "internalType": "string",
          "name": "",
          "type": "string"
        }
      ],
      "name": "workTypes",
      "outputs": [
        {
          "internalType": "bool",
          "name": "",
          "type": "bool"
        }
      ],
      "stateMutability": "view",
      "type": "function"
    }
  ],
  "bytecode": "0x60806040908082523461028057331561026a575060008054336001600160a01b031982168117835583519290916001600160a01b0316907f8be0079c531659141344cd1fd0a4f28419497f9722a3daafe3b4186f6b6457e09080a3600180805560326008556064600955601e600a55610100600b557f5072696d65205061747465726e20446973636f76657279000000000000000000825260346037600593846017820152209260ff19938385825416179055603885517f5269656d616e6e205a65726f20436f6d7075746174696f6e00000000000000008152826018820152208385825416179055603785517f59616e672d4d696c6c73204669656c64205468656f727900000000000000000081528260178201522083858254161790558480517f476f6c646261636820436f6e6a65637475726520566572696669636174696f6e8152826020820152208385825416179055603885517f4e61766965722d53746f6b65732053696d756c6174696f6e00000000000000008152826018820152208385825416179055603585517f42697263682d5377696e6e6572746f6e2d4479657200000000000000000000008152826015820152208385825416179055603b85517f456c6c69707469632043757276652043727970746f6772617068790000000000815282601b8201522083858254161790558185517f4c6174746963652043727970746f67726170687900000000000000000000000081528260148201522083858254161790558451907f506f696e636172c3a920436f6e6a656374757265000000000000000000000000825260148201522091825416179055516118dc90816102868239f35b631e4fbdf760e01b815260006004820152602490fd5b600080fdfe608080604052600436101561001357600080fd5b60e0600035811c9182630333052814611552575081630373a23a1461153157816305f4b26f146114e357816311c50d261461085a57816313ed0846146114ba57816348b151661461149c57816356ae8fb314610dcb5781635ffecc3f14610cf75781636b0eae8114610b76578163715018a614610b1d578163758b1ce314610afc57816376ad03bc14610ade5781637ada463a14610ac05781638d1771c214610a725781638da5cb5b14610a495781639a99745314610a2b578163a48458fe14610894578163a56c94ec1461085a578163ce93734b146107a857508063eb802edf14610742578063eda057f114610470578063ee17254614610452578063f1997dc914610214578063f2fde38b14610186578063f4ce57b5146101655763f7eb7ac81461013f57600080fd5b346101605760203660031901126101605761015861178b565b600435600b55005b600080fd5b346101605760203660031901126101605761017e61178b565b600435600855005b346101605760203660031901126101605761019f61161b565b6101a761178b565b6001600160a01b039081169081156101fb57600054826bffffffffffffffffffffffff60a01b821617600055167f8be0079c531659141344cd1fd0a4f28419497f9722a3daafe3b4186f6b6457e0600080a3005b604051631e4fbdf760e01b815260006004820152602490fd5b34610160576020806003193601126101605760043533600052600390818352604060002054811015610415573360005281835260ff6006610259836040600020611759565b50015416156103db5733600052818352610277816040600020611759565b50600442910155336000528183526006610295826040600020611759565b500160ff19908181541690553360005282845260026102d36102bb846040600020611759565b50936001809501953360005287526040600020611759565b50015490604051926040845260009480546102ed81611631565b93846040880152838216918260001461039a57505060011461033b575b5050507feb041a4400a9d2511c288dfb9cb88f79eccaf9216f6d26cbaa0f6866ca7f5d5c92938201528033930390a2005b9094506000528460002093856000955b838710610385575050505060607feb041a4400a9d2511c288dfb9cb88f79eccaf9216f6d26cbaa0f6866ca7f5d5c9383010192858061030a565b8054868801606001529501948690820161034b565b915091507feb041a4400a9d2511c288dfb9cb88f79eccaf9216f6d26cbaa0f6866ca7f5d5c965060609392501682850152151560051b83010192858061030a565b60405162461bcd60e51b815260048101849052601260248201527153657373696f6e206e6f742061637469766560701b6044820152606490fd5b60405162461bcd60e51b8152600481018490526015602482015274092dcecc2d8d2c840e6cae6e6d2dedc40d2dcc8caf605b1b6044820152606490fd5b34610160576000366003190112610160576020600754604051908152f35b34610160576040366003190112610160576001600160401b03600435818111610160576104a19036906004016115c5565b6104cc60ff60405160208185516104bb8183858a01611711565b8101600581520301902054166117b7565b6104dc6008546024351115611803565b6040516104e881611589565b3381526020810190828252602435604082015242606082015260006080820152600060a0820152600160c082015233600052600360205260406000208054680100000000000000008110156107165761054691600182018155611759565b92909261072c57815183546001600160a01b0319166001600160a01b039190911617835551805190948111610716576105826001840154611631565b601f81116106cf575b506020601f821160011461065757918160c092600694610605979860009261064c575b50508160011b916000199060031b1c19161760018501555b60408101516002850155606081015160038501556080810151600485015560a081015160058501550151151591019060ff801983541691151516179055565b7f7406477a70c638aff8ba441e8046f297acd46e688a168afc38e98cf96703d43661063b60405192604084526040840190611734565b9160243560208201528033930390a2005b0151905088806105ae565b6001840160005260206000209560005b601f19841681106106b757508261060596976006959360019360c096601f1981161061069e575b505050811b0160018501556105c6565b015160001960f88460031b161c1916905588808061068e565b82820151885560019097019660209283019201610667565b600184016000526020600020601f830160051c81016020841061070f575b601f830160051c8201811061070357505061058b565b600081556001016106ed565b50806106ed565b634e487b7160e01b600052604160045260246000fd5b634e487b7160e01b600052600060045260246000fd5b34610160576020366003190112610160576004356001600160401b0381116101605760206107776107929236906004016115c5565b61077f61178b565b8160405193828580945193849201611711565b600590820190815203019020805460ff19169055005b34610160576040366003190112610160576107c161161b565b6001600160a01b039081166000908152600360205260409020805460243590811015610160576107f091611759565b5090815416906108026001820161166b565b600282015491600381015460048201549061083a60ff60066005860154950154169460405198899889528060208a0152880190611734565b9460408701526060860152608085015260a0840152151560c08301520390f35b34610160576020366003190112610160576001600160a01b0361087b61161b565b1660005260046020526020604060002054604051908152f35b3461016057602080600319360112610160576001600160a01b0390816108b861161b565b166000526003928382526040600020918254916001600160401b0383116107165794939190604051916005956108f28383891b01856115a4565b81845260009586528286208385019691875b8484106109b5575050505050604051948186019282875251809352604083818801921b87010194936000975b84891061093d5787870388f35b9091929394958480600192603f198b820301875289519086825116815261096f83830151878584015287830190611734565b9160408101516040830152606080820151908301526080808201519083015260a0808201519083015260c080910151151591015298019401980197919094939294610930565b6007866001928a8d9e999a9b9d604051916109cf83611589565b88541682526109df86890161166b565b84830152600288015460408301528688015460608301526004880154608083015287015460a082015260ff600688015416151560c0820152815201930193019291999896959499610904565b34610160576000366003190112610160576020600854604051908152f35b34610160576000366003190112610160576000546040516001600160a01b039091168152602090f35b34610160576020366003190112610160576004356001600160401b0381116101605760ff610aaa602061077f819436906004016115c5565b8101600581520301902054166040519015158152f35b34610160576000366003190112610160576020600b54604051908152f35b34610160576000366003190112610160576020600954604051908152f35b3461016057602036600319011261016057610b1561178b565b600435600a55005b3461016057600036600319011261016057610b3661178b565b600080546001600160a01b0319811682556001600160a01b03167f8be0079c531659141344cd1fd0a4f28419497f9722a3daafe3b4186f6b6457e08280a3005b34610160576020806003193601126101605760405190610b958261156d565b6000825260609081818401526040830160009052818084015281608084015260a083016000905260c083016000905283830160009052610100809301600090526004356000526002815260406000209360405193610bf28561156d565b85546001600160a01b03908116865295610c0e6001820161166b565b928487019384526002820154956040880196875260038301610c2f9061166b565b88820190815296610c426004850161166b565b60808a0190815260058501549860a08b01998a5260068601549360c08c01948552600787015496868d019788526008015460ff1698888d019915158a528a6040519e8f9e8f9d8e525116908c0152516101206040819c01526101408d01610ca891611734565b9351908c015251601f1992838c82030160808d0152610cc691611734565b9051918a82030160a08b0152610cdb91611734565b965160c089015251908701525190850152511515908301520390f35b3461016057602036600319011261016057600435600090815260026020526040902080546001600160a01b031690610d316001820161166b565b92600282015491610d446003820161166b565b91610d516004830161166b565b93610db1600584015495610da360068601549360ff600860078901549801541697610d906040519c8d9c8d5260208d61012091829101528d0190611734565b9160408c01528a820360608c0152611734565b9088820360808a0152611734565b9460a087015260c086015284015215156101008301520390f35b346101605760a0366003190112610160576004356001600160401b03811161016057610dfb9036906004016115c5565b906044356001600160401b03811161016057610e1b9036906004016115c5565b916064356001600160401b03811161016057610e3b9036906004016115c5565b9260026001541461148a57600260015560405193610e6960ff845196602081818801996104bb81838d611711565b610e796008546024351115611803565b600b549460843595861061144557604051610efa60948260208101943360601b8652610eac895180926034850190611711565b81016024356034820152875190610eca826054830160208c01611711565b01865190610edf826054830160208b01611711565b018a60548201524260748201520360748101845201826115a4565b5190209384600052600260205260066040600020015461140057610f2086602435611852565b9560405192610f2e8461156d565b338452602084019486865260243560408601526060850152608084015260a08301524260c08301528581830152600061010083015284600052600260205260406000209260018060a01b038351166bffffffffffffffffffffffff60a01b855416178455518051906001600160401b038211610716578190610fb36001870154611631565b601f81116113ad575b50602090601f831160011461133b57600092611330575b50508160011b916000199060031b1c19161760018401555b6040820151600284015560608201518051906001600160401b03821161071657819061101a6003870154611631565b601f81116112dd575b50602090601f831160011461126b57600092611260575b50508160011b916000199060031b1c19161760038401555b60808201518051906001600160401b038211610716576110756004860154611631565b601f8111611219575b50602090601f831160011461119e579282610100936110ef979693600896600092611193575b50508160011b916000199060031b1c19161760048601555b60a0820151600586015560c0820151600686015581015160078501550151151591019060ff801983541691151516179055565b3360005260046020526040600020611108848254611845565b905560065490600019821461117d5760017fbd7e5621a2494f67860219e20703b5b8587517922edb04e4808bf12862f43721920160065561114b84600754611845565b60075561116360405191606083526060830190611734565b93602435602083015260408201528033940390a360018055005b634e487b7160e01b600052601160045260246000fd5b015190508b806110a4565b906004860160005260206000209160005b601f19851681106112015750836110ef9796936008969360019361010097601f198116106111e8575b505050811b0160048601556110bc565b015160001960f88460031b161c191690558b80806111d8565b919260206001819286850151815501940192016111af565b600486016000526020600020601f840160051c810160208510611259575b601f830160051c8201811061124d57505061107e565b60008155600101611237565b5080611237565b01519050888061103a565b9250600386016000526020600020906000935b601f19841685106112c2576001945083601f198116106112a9575b505050811b016003840155611052565b015160001960f88460031b161c19169055888080611299565b8181015183556020948501946001909301929091019061127e565b909150600386016000526020600020601f840160051c810160208510611329575b90849392915b601f830160051c8201811061131a575050611023565b60008155859450600101611304565b50806112fe565b015190508880610fd3565b9250600186016000526020600020906000935b601f1984168510611392576001945083601f19811610611379575b505050811b016001840155610feb565b015160001960f88460031b161c19169055888080611369565b8181015183556020948501946001909301929091019061134e565b909150600186016000526020600020601f840160051c8101602085106113f9575b90849392915b601f830160051c820181106113ea575050610fbc565b600081558594506001016113d4565b50806113ce565b60405162461bcd60e51b815260206004820152601860248201527f446973636f7665727920616c72656164792065786973747300000000000000006044820152606490fd5b60405162461bcd60e51b815260206004820152601d60248201527f496e73756666696369656e74207175616e74756d2073656375726974790000006044820152606490fd5b604051633ee5aeb560e01b8152600490fd5b34610160576000366003190112610160576020600a54604051908152f35b346101605760403660031901126101605760206114db602435600435611852565b604051908152f35b34610160576020366003190112610160576004356001600160401b0381116101605760206107776115189236906004016115c5565b600590820190815203019020805460ff19166001179055005b346101605760203660031901126101605761154a61178b565b600435600955005b34610160576000366003190112610160576020906006548152f35b61012081019081106001600160401b0382111761071657604052565b60e081019081106001600160401b0382111761071657604052565b90601f801991011681019081106001600160401b0382111761071657604052565b81601f82011215610160578035906001600160401b03821161071657604051926115f9601f8401601f1916602001856115a4565b8284526020838301011161016057816000926020809301838601378301015290565b600435906001600160a01b038216820361016057565b90600182811c92168015611661575b602083101461164b57565b634e487b7160e01b600052602260045260246000fd5b91607f1691611640565b906040519182600082549261167f84611631565b9081845260019485811690816000146116ee57506001146116ab575b50506116a9925003836115a4565b565b9093915060005260209081600020936000915b8183106116d65750506116a99350820101388061169b565b855488840185015294850194879450918301916116be565b9150506116a994506020925060ff191682840152151560051b820101388061169b565b60005b8381106117245750506000910152565b8181015183820152602001611714565b9060209161174d81518092818552858086019101611711565b601f01601f1916010190565b8054821015611775576000526007602060002091020190600090565b634e487b7160e01b600052603260045260246000fd5b6000546001600160a01b0316330361179f57565b60405163118cdaa760e01b8152336004820152602490fd5b156117be57565b60405162461bcd60e51b815260206004820152601760248201527f576f726b2074797065206e6f7420737570706f727465640000000000000000006044820152606490fd5b1561180a57565b60405162461bcd60e51b8152602060048201526013602482015272088d2ccccd2c6ead8e8f240e8dede40d0d2ced606b1b6044820152606490fd5b9190820180921161117d57565b9060095482810292818404149015171561117d57600b549081156118905704600a810290808204600a149015171561117d5761188d91611845565b90565b634e487b7160e01b600052601260045260246000fdfea264697066735822122080507c41cba5503c6cfa851de99a037c4b47061e2161ffc7378f189e2b10e6a764736f6c63430008140033",
  "linkReferences": {},
  "deployedLinkReferences": {}
}