{"contracts/ProductiveMinerAdaptive.sol":{"ProductiveMinerAdaptive":{"abi":[{"inputs":[],"stateMutability":"nonpayable","type":"constructor"},{"inputs":[{"internalType":"address","name":"owner","type":"address"}],"name":"OwnableInvalidOwner","type":"error"},{"inputs":[{"internalType":"address","name":"account","type":"address"}],"name":"OwnableUnauthorizedAccount","type":"error"},{"inputs":[],"name":"ReentrancyGuardReentrantCall","type":"error"},{"anonymous":false,"inputs":[{"indexed":false,"internalType":"uint256","name":"blockNumber","type":"uint256"},{"indexed":false,"internalType":"uint256","name":"algorithmEfficiency","type":"uint256"},{"indexed":false,"internalType":"uint256","name":"securityStrength","type":"uint256"},{"indexed":false,"internalType":"uint256","name":"consensusTime","type":"uint256"},{"indexed":false,"internalType":"uint256","name":"learningRate","type":"uint256"}],"name":"AdaptiveLearningUpdated","type":"event"},{"anonymous":false,"inputs":[{"indexed":true,"internalType":"uint256","name":"blockNumber","type":"uint256"},{"indexed":true,"internalType":"address","name":"miner","type":"address"},{"indexed":false,"internalType":"string","name":"workType","type":"string"},{"indexed":false,"internalType":"uint256","name":"difficulty","type":"uint256"},{"indexed":false,"internalType":"uint256","name":"algorithmEfficiency","type":"uint256"},{"indexed":false,"internalType":"uint256","name":"securityStrength","type":"uint256"},{"indexed":false,"internalType":"uint256","name":"adaptiveScore","type":"uint256"},{"indexed":false,"internalType":"bool","name":"successful","type":"bool"}],"name":"BlockCreated","type":"event"},{"anonymous":false,"inputs":[{"indexed":true,"internalType":"bytes32","name":"discoveryId","type":"bytes32"},{"indexed":true,"internalType":"bytes32","name":"validationTaskId","type":"bytes32"},{"indexed":false,"internalType":"bool","name":"finalDecision","type":"bool"},{"indexed":false,"internalType":"uint256","name":"approvalCount","type":"uint256"},{"indexed":false,"internalType":"uint256","name":"rejectionCount","type":"uint256"},{"indexed":false,"internalType":"uint256","name":"blockNumber","type":"uint256"},{"indexed":false,"internalType":"uint256","name":"consensusTime","type":"uint256"}],"name":"ConsensusReached","type":"event"},{"anonymous":false,"inputs":[{"indexed":true,"internalType":"bytes32","name":"discoveryId","type":"bytes32"},{"indexed":true,"internalType":"address","name":"miner","type":"address"},{"indexed":false,"internalType":"string","name":"workType","type":"string"},{"indexed":false,"internalType":"uint256","name":"difficulty","type":"uint256"},{"indexed":false,"internalType":"uint256","name":"reward","type":"uint256"},{"indexed":false,"internalType":"uint256","name":"stakeContribution","type":"uint256"},{"indexed":false,"internalType":"uint256","name":"adaptiveScore","type":"uint256"},{"indexed":false,"internalType":"uint256","name":"blockNumber","type":"uint256"},{"indexed":false,"internalType":"uint256","name":"algorithmEfficiency","type":"uint256"},{"indexed":false,"internalType":"uint256","name":"securityStrength","type":"uint256"}],"name":"DiscoverySubmitted","type":"event"},{"anonymous":false,"inputs":[{"indexed":true,"internalType":"address","name":"miner","type":"address"},{"indexed":false,"internalType":"string","name":"workType","type":"string"},{"indexed":false,"internalType":"uint256","name":"difficulty","type":"uint256"},{"indexed":false,"internalType":"uint256","name":"adaptiveScore","type":"uint256"},{"indexed":false,"internalType":"uint256","name":"blockNumber","type":"uint256"},{"indexed":false,"internalType":"uint256","name":"learningCycles","type":"uint256"}],"name":"MiningSessionCompleted","type":"event"},{"anonymous":false,"inputs":[{"indexed":true,"internalType":"address","name":"miner","type":"address"},{"indexed":false,"internalType":"string","name":"workType","type":"string"},{"indexed":false,"internalType":"uint256","name":"difficulty","type":"uint256"},{"indexed":false,"internalType":"uint256","name":"stakeAmount","type":"uint256"},{"indexed":false,"internalType":"uint256","name":"adaptiveDifficulty","type":"uint256"},{"indexed":false,"internalType":"uint256","name":"blockNumber","type":"uint256"},{"indexed":false,"internalType":"uint256","name":"algorithmEfficiency","type":"uint256"}],"name":"MiningSessionStarted","type":"event"},{"anonymous":false,"inputs":[{"indexed":true,"internalType":"address","name":"previousOwner","type":"address"},{"indexed":true,"internalType":"address","name":"newOwner","type":"address"}],"name":"OwnershipTransferred","type":"event"},{"anonymous":false,"inputs":[{"indexed":true,"internalType":"address","name":"staker","type":"address"},{"indexed":false,"internalType":"uint256","name":"amount","type":"uint256"},{"indexed":false,"internalType":"uint256","name":"totalStaked","type":"uint256"}],"name":"StakeDeposited","type":"event"},{"anonymous":false,"inputs":[{"indexed":true,"internalType":"address","name":"staker","type":"address"},{"indexed":false,"internalType":"uint256","name":"amount","type":"uint256"},{"indexed":false,"internalType":"uint256","name":"remainingStake","type":"uint256"}],"name":"StakeWithdrawn","type":"event"},{"anonymous":false,"inputs":[{"indexed":true,"internalType":"bytes32","name":"validationTaskId","type":"bytes32"},{"indexed":true,"internalType":"address","name":"validator","type":"address"},{"indexed":false,"internalType":"bool","name":"approved","type":"bool"},{"indexed":false,"internalType":"string","name":"reason","type":"string"},{"indexed":false,"internalType":"uint256","name":"validationTime","type":"uint256"},{"indexed":false,"internalType":"uint256","name":"algorithmEfficiency","type":"uint256"},{"indexed":false,"internalType":"uint256","name":"securityStrength","type":"uint256"}],"name":"ValidationSubmitted","type":"event"},{"anonymous":false,"inputs":[{"indexed":true,"internalType":"bytes32","name":"discoveryId","type":"bytes32"},{"indexed":true,"internalType":"bytes32","name":"validationTaskId","type":"bytes32"},{"indexed":false,"internalType":"address[]","name":"validators","type":"address[]"},{"indexed":false,"internalType":"uint256","name":"consensusThreshold","type":"uint256"},{"indexed":false,"internalType":"uint256","name":"blockNumber","type":"uint256"},{"indexed":false,"internalType":"uint256","name":"algorithmEfficiency","type":"uint256"}],"name":"ValidationTaskCreated","type":"event"},{"anonymous":false,"inputs":[{"indexed":true,"internalType":"address","name":"validator","type":"address"},{"indexed":false,"internalType":"uint256","name":"stakeAmount","type":"uint256"},{"indexed":false,"internalType":"uint256","name":"reputation","type":"uint256"},{"indexed":false,"internalType":"uint256","name":"algorithmLearningScore","type":"uint256"},{"indexed":false,"internalType":"bool","name":"quantumResistant","type":"bool"}],"name":"ValidatorRegistered","type":"event"},{"anonymous":false,"inputs":[{"indexed":true,"internalType":"address","name":"validator","type":"address"},{"indexed":false,"internalType":"uint256","name":"reward","type":"uint256"},{"indexed":false,"internalType":"uint256","name":"reputationGain","type":"uint256"},{"indexed":false,"internalType":"uint256","name":"learningScore","type":"uint256"}],"name":"ValidatorRewarded","type":"event"},{"anonymous":false,"inputs":[{"indexed":true,"internalType":"address","name":"validator","type":"address"},{"indexed":false,"internalType":"uint256","name":"penalty","type":"uint256"},{"indexed":false,"internalType":"string","name":"reason","type":"string"},{"indexed":false,"internalType":"uint256","name":"learningPenalty","type":"uint256"}],"name":"ValidatorSlashed","type":"event"},{"inputs":[],"name":"adaptiveLearningRate","outputs":[{"internalType":"uint256","name":"","type":"uint256"}],"stateMutability":"view","type":"function"},{"inputs":[],"name":"adaptiveState","outputs":[{"internalType":"uint256","name":"totalBlocks","type":"uint256"},{"internalType":"uint256","name":"successfulBlocks","type":"uint256"},{"internalType":"uint256","name":"failedBlocks","type":"uint256"},{"internalType":"uint256","name":"averageAlgorithmEfficiency","type":"uint256"},{"internalType":"uint256","name":"averageSecurityStrength","type":"uint256"},{"internalType":"uint256","name":"currentLearningRate","type":"uint256"},{"internalType":"uint256","name":"currentSecurityLevel","type":"uint256"},{"internalType":"uint256","name":"lastBlockNumber","type":"uint256"},{"internalType":"uint256","name":"lastUpdateTime","type":"uint256"},{"internalType":"uint256","name":"algorithmAdaptationRate","type":"uint256"},{"internalType":"uint256","name":"securityAdaptationRate","type":"uint256"},{"internalType":"uint256","name":"consensusAdaptationRate","type":"uint256"},{"internalType":"uint256","name":"difficultyAdjustmentRate","type":"uint256"}],"stateMutability":"view","type":"function"},{"inputs":[{"internalType":"string","name":"_workType","type":"string"}],"name":"addWorkType","outputs":[],"stateMutability":"nonpayable","type":"function"},{"inputs":[],"name":"algorithmLearningRate","outputs":[{"internalType":"uint256","name":"","type":"uint256"}],"stateMutability":"view","type":"function"},{"inputs":[],"name":"baseReward","outputs":[{"internalType":"uint256","name":"","type":"uint256"}],"stateMutability":"view","type":"function"},{"inputs":[{"internalType":"uint256","name":"","type":"uint256"}],"name":"blockAlgorithmEfficiency","outputs":[{"internalType":"uint256","name":"","type":"uint256"}],"stateMutability":"view","type":"function"},{"inputs":[{"internalType":"uint256","name":"","type":"uint256"}],"name":"blockConsensusTime","outputs":[{"internalType":"uint256","name":"","type":"uint256"}],"stateMutability":"view","type":"function"},{"inputs":[],"name":"blockLearningWindow","outputs":[{"internalType":"uint256","name":"","type":"uint256"}],"stateMutability":"view","type":"function"},{"inputs":[{"internalType":"uint256","name":"","type":"uint256"}],"name":"blockSecurityStrength","outputs":[{"internalType":"uint256","name":"","type":"uint256"}],"stateMutability":"view","type":"function"},{"inputs":[],"name":"blockTime","outputs":[{"internalType":"uint256","name":"","type":"uint256"}],"stateMutability":"view","type":"function"},{"inputs":[{"internalType":"uint256","name":"","type":"uint256"}],"name":"blockValidatorParticipation","outputs":[{"internalType":"uint256","name":"","type":"uint256"}],"stateMutability":"view","type":"function"},{"inputs":[{"internalType":"uint256","name":"","type":"uint256"}],"name":"blocks","outputs":[{"internalType":"uint256","name":"blockNumber","type":"uint256"},{"internalType":"uint256","name":"timestamp","type":"uint256"},{"internalType":"bytes32","name":"blockHash","type":"bytes32"},{"internalType":"address","name":"miner","type":"address"},{"internalType":"string","name":"workType","type":"string"},{"internalType":"uint256","name":"difficulty","type":"uint256"},{"internalType":"uint256","name":"quantumSecurity","type":"uint256"},{"internalType":"uint256","name":"algorithmEfficiency","type":"uint256"},{"internalType":"uint256","name":"securityStrength","type":"uint256"},{"internalType":"uint256","name":"adaptiveScore","type":"uint256"},{"internalType":"bool","name":"successful","type":"bool"},{"internalType":"uint256","name":"gasUsed","type":"uint256"},{"internalType":"uint256","name":"reward","type":"uint256"},{"internalType":"uint256","name":"algorithmLearningRate","type":"uint256"},{"internalType":"uint256","name":"securityLearningRate","type":"uint256"},{"internalType":"uint256","name":"consensusTime","type":"uint256"},{"internalType":"uint256","name":"validatorParticipation","type":"uint256"}],"stateMutability":"view","type":"function"},{"inputs":[{"internalType":"string","name":"_workType","type":"string"}],"name":"calculateAdaptiveDifficulty","outputs":[{"internalType":"uint256","name":"","type":"uint256"}],"stateMutability":"view","type":"function"},{"inputs":[{"internalType":"uint256","name":"_sessionIndex","type":"uint256"}],"name":"completeMiningSession","outputs":[],"stateMutability":"nonpayable","type":"function"},{"inputs":[],"name":"consensusLearningRate","outputs":[{"internalType":"uint256","name":"","type":"uint256"}],"stateMutability":"view","type":"function"},{"inputs":[],"name":"consensusThreshold","outputs":[{"internalType":"uint256","name":"","type":"uint256"}],"stateMutability":"view","type":"function"},{"inputs":[{"internalType":"string","name":"_workType","type":"string"},{"internalType":"uint256","name":"_difficulty","type":"uint256"},{"internalType":"uint256","name":"_quantumSecurity","type":"uint256"},{"internalType":"bool","name":"_successful","type":"bool"}],"name":"createBlock","outputs":[{"internalType":"uint256","name":"","type":"uint256"}],"stateMutability":"nonpayable","type":"function"},{"inputs":[],"name":"currentBlockNumber","outputs":[{"internalType":"uint256","name":"","type":"uint256"}],"stateMutability":"view","type":"function"},{"inputs":[],"name":"difficultyAdjustmentInterval","outputs":[{"internalType":"uint256","name":"","type":"uint256"}],"stateMutability":"view","type":"function"},{"inputs":[{"internalType":"bytes32","name":"","type":"bytes32"}],"name":"discoveries","outputs":[{"internalType":"address","name":"miner","type":"address"},{"internalType":"string","name":"workType","type":"string"},{"internalType":"uint256","name":"difficulty","type":"uint256"},{"internalType":"string","name":"result","type":"string"},{"internalType":"string","name":"proofOfWork","type":"string"},{"internalType":"uint256","name":"quantumSecurity","type":"uint256"},{"internalType":"uint256","name":"timestamp","type":"uint256"},{"internalType":"uint256","name":"reward","type":"uint256"},{"internalType":"bool","name":"verified","type":"bool"},{"internalType":"uint256","name":"stakeContribution","type":"uint256"},{"internalType":"uint256","name":"adaptiveScore","type":"uint256"},{"internalType":"uint256","name":"blockNumber","type":"uint256"},{"internalType":"uint256","name":"algorithmEfficiency","type":"uint256"},{"internalType":"uint256","name":"securityStrength","type":"uint256"},{"internalType":"uint256","name":"consensusTime","type":"uint256"},{"internalType":"uint256","name":"validatorParticipation","type":"uint256"},{"internalType":"bytes32","name":"adaptiveHash","type":"bytes32"},{"internalType":"uint256","name":"approvalCount","type":"uint256"},{"internalType":"uint256","name":"requiredApprovals","type":"uint256"},{"internalType":"bool","name":"consensusReached","type":"bool"},{"internalType":"uint256","name":"consensusTimestamp","type":"uint256"}],"stateMutability":"view","type":"function"},{"inputs":[{"internalType":"bytes32","name":"","type":"bytes32"},{"internalType":"address","name":"","type":"address"}],"name":"discoveryValidatorApprovals","outputs":[{"internalType":"bool","name":"","type":"bool"}],"stateMutability":"view","type":"function"},{"inputs":[],"name":"getAdaptiveLearningState","outputs":[{"internalType":"uint256","name":"totalBlocks","type":"uint256"},{"internalType":"uint256","name":"successfulBlocks","type":"uint256"},{"internalType":"uint256","name":"averageAlgorithmEfficiency","type":"uint256"},{"internalType":"uint256","name":"averageSecurityStrength","type":"uint256"},{"internalType":"uint256","name":"currentLearningRate","type":"uint256"},{"internalType":"uint256","name":"_algorithmLearningRate","type":"uint256"},{"internalType":"uint256","name":"_securityLearningRate","type":"uint256"},{"internalType":"uint256","name":"_consensusLearningRate","type":"uint256"}],"stateMutability":"view","type":"function"},{"inputs":[{"internalType":"uint256","name":"_blockNumber","type":"uint256"}],"name":"getBlockLearningMetrics","outputs":[{"internalType":"uint256","name":"algorithmEfficiency","type":"uint256"},{"internalType":"uint256","name":"securityStrength","type":"uint256"},{"internalType":"uint256","name":"consensusTime","type":"uint256"},{"internalType":"uint256","name":"validatorParticipation","type":"uint256"}],"stateMutability":"view","type":"function"},{"inputs":[{"internalType":"bytes32","name":"_discoveryId","type":"bytes32"}],"name":"getDiscovery","outputs":[{"components":[{"internalType":"address","name":"miner","type":"address"},{"internalType":"string","name":"workType","type":"string"},{"internalType":"uint256","name":"difficulty","type":"uint256"},{"internalType":"string","name":"result","type":"string"},{"internalType":"string","name":"proofOfWork","type":"string"},{"internalType":"uint256","name":"quantumSecurity","type":"uint256"},{"internalType":"uint256","name":"timestamp","type":"uint256"},{"internalType":"uint256","name":"reward","type":"uint256"},{"internalType":"bool","name":"verified","type":"bool"},{"internalType":"uint256","name":"stakeContribution","type":"uint256"},{"internalType":"uint256","name":"adaptiveScore","type":"uint256"},{"internalType":"uint256","name":"blockNumber","type":"uint256"},{"internalType":"uint256","name":"algorithmEfficiency","type":"uint256"},{"internalType":"uint256","name":"securityStrength","type":"uint256"},{"internalType":"uint256","name":"consensusTime","type":"uint256"},{"internalType":"uint256","name":"validatorParticipation","type":"uint256"},{"internalType":"bytes32","name":"adaptiveHash","type":"bytes32"},{"internalType":"uint256","name":"approvalCount","type":"uint256"},{"internalType":"uint256","name":"requiredApprovals","type":"uint256"},{"internalType":"bool","name":"consensusReached","type":"bool"},{"internalType":"uint256","name":"consensusTimestamp","type":"uint256"}],"internalType":"struct ProductiveMinerAdaptive.Discovery","name":"","type":"tuple"}],"stateMutability":"view","type":"function"},{"inputs":[{"internalType":"address","name":"_miner","type":"address"}],"name":"getMinerRewards","outputs":[{"internalType":"uint256","name":"","type":"uint256"}],"stateMutability":"view","type":"function"},{"inputs":[{"internalType":"address","name":"_miner","type":"address"}],"name":"getMiningSessions","outputs":[{"components":[{"internalType":"address","name":"miner","type":"address"},{"internalType":"string","name":"workType","type":"string"},{"internalType":"uint256","name":"difficulty","type":"uint256"},{"internalType":"uint256","name":"startTime","type":"uint256"},{"internalType":"uint256","name":"endTime","type":"uint256"},{"internalType":"uint256","name":"progress","type":"uint256"},{"internalType":"bool","name":"active","type":"bool"},{"internalType":"uint256","name":"stakeAmount","type":"uint256"},{"internalType":"uint256","name":"adaptiveDifficulty","type":"uint256"},{"internalType":"uint256","name":"blockNumber","type":"uint256"},{"internalType":"uint256","name":"algorithmEfficiency","type":"uint256"},{"internalType":"uint256","name":"securityStrength","type":"uint256"},{"internalType":"uint256","name":"learningCycles","type":"uint256"},{"internalType":"bool","name":"quantumResistant","type":"bool"}],"internalType":"struct ProductiveMinerAdaptive.MiningSession[]","name":"","type":"tuple[]"}],"stateMutability":"view","type":"function"},{"inputs":[],"name":"lastDifficultyAdjustment","outputs":[{"internalType":"uint256","name":"","type":"uint256"}],"stateMutability":"view","type":"function"},{"inputs":[],"name":"maxDifficulty","outputs":[{"internalType":"uint256","name":"","type":"uint256"}],"stateMutability":"view","type":"function"},{"inputs":[{"internalType":"address","name":"","type":"address"}],"name":"minerRewards","outputs":[{"internalType":"uint256","name":"","type":"uint256"}],"stateMutability":"view","type":"function"},{"inputs":[],"name":"minimumBlockConfidence","outputs":[{"internalType":"uint256","name":"","type":"uint256"}],"stateMutability":"view","type":"function"},{"inputs":[],"name":"minimumStake","outputs":[{"internalType":"uint256","name":"","type":"uint256"}],"stateMutability":"view","type":"function"},{"inputs":[{"internalType":"address","name":"","type":"address"},{"internalType":"uint256","name":"","type":"uint256"}],"name":"miningSessions","outputs":[{"internalType":"address","name":"miner","type":"address"},{"internalType":"string","name":"workType","type":"string"},{"internalType":"uint256","name":"difficulty","type":"uint256"},{"internalType":"uint256","name":"startTime","type":"uint256"},{"internalType":"uint256","name":"endTime","type":"uint256"},{"internalType":"uint256","name":"progress","type":"uint256"},{"internalType":"bool","name":"active","type":"bool"},{"internalType":"uint256","name":"stakeAmount","type":"uint256"},{"internalType":"uint256","name":"adaptiveDifficulty","type":"uint256"},{"internalType":"uint256","name":"blockNumber","type":"uint256"},{"internalType":"uint256","name":"algorithmEfficiency","type":"uint256"},{"internalType":"uint256","name":"securityStrength","type":"uint256"},{"internalType":"uint256","name":"learningCycles","type":"uint256"},{"internalType":"bool","name":"quantumResistant","type":"bool"}],"stateMutability":"view","type":"function"},{"inputs":[],"name":"owner","outputs":[{"internalType":"address","name":"","type":"address"}],"stateMutability":"view","type":"function"},{"inputs":[],"name":"quantumSecurityLevel","outputs":[{"internalType":"uint256","name":"","type":"uint256"}],"stateMutability":"view","type":"function"},{"inputs":[],"name":"registerAdaptiveValidator","outputs":[],"stateMutability":"nonpayable","type":"function"},{"inputs":[{"internalType":"string","name":"_workType","type":"string"}],"name":"removeWorkType","outputs":[],"stateMutability":"nonpayable","type":"function"},{"inputs":[],"name":"renounceOwnership","outputs":[],"stateMutability":"nonpayable","type":"function"},{"inputs":[],"name":"reputationDecayRate","outputs":[{"internalType":"uint256","name":"","type":"uint256"}],"stateMutability":"view","type":"function"},{"inputs":[{"internalType":"address","name":"","type":"address"}],"name":"reputationScores","outputs":[{"internalType":"uint256","name":"","type":"uint256"}],"stateMutability":"view","type":"function"},{"inputs":[],"name":"requiredValidators","outputs":[{"internalType":"uint256","name":"","type":"uint256"}],"stateMutability":"view","type":"function"},{"inputs":[],"name":"securityLearningRate","outputs":[{"internalType":"uint256","name":"","type":"uint256"}],"stateMutability":"view","type":"function"},{"inputs":[{"internalType":"uint256","name":"_rate","type":"uint256"}],"name":"setAlgorithmLearningRate","outputs":[],"stateMutability":"nonpayable","type":"function"},{"inputs":[{"internalType":"uint256","name":"_baseReward","type":"uint256"}],"name":"setBaseReward","outputs":[],"stateMutability":"nonpayable","type":"function"},{"inputs":[{"internalType":"uint256","name":"_window","type":"uint256"}],"name":"setBlockLearningWindow","outputs":[],"stateMutability":"nonpayable","type":"function"},{"inputs":[{"internalType":"uint256","name":"_blockTime","type":"uint256"}],"name":"setBlockTime","outputs":[],"stateMutability":"nonpayable","type":"function"},{"inputs":[{"internalType":"uint256","name":"_rate","type":"uint256"}],"name":"setConsensusLearningRate","outputs":[],"stateMutability":"nonpayable","type":"function"},{"inputs":[{"internalType":"uint256","name":"_maxDifficulty","type":"uint256"}],"name":"setMaxDifficulty","outputs":[],"stateMutability":"nonpayable","type":"function"},{"inputs":[{"internalType":"uint256","name":"_confidence","type":"uint256"}],"name":"setMinimumBlockConfidence","outputs":[],"stateMutability":"nonpayable","type":"function"},{"inputs":[{"internalType":"uint256","name":"_level","type":"uint256"}],"name":"setQuantumSecurityLevel","outputs":[],"stateMutability":"nonpayable","type":"function"},{"inputs":[{"internalType":"uint256","name":"_rate","type":"uint256"}],"name":"setSecurityLearningRate","outputs":[],"stateMutability":"nonpayable","type":"function"},{"inputs":[],"name":"slashingPenalty","outputs":[{"internalType":"uint256","name":"","type":"uint256"}],"stateMutability":"view","type":"function"},{"inputs":[],"name":"stake","outputs":[],"stateMutability":"payable","type":"function"},{"inputs":[{"internalType":"address","name":"","type":"address"}],"name":"stakedAmounts","outputs":[{"internalType":"uint256","name":"","type":"uint256"}],"stateMutability":"view","type":"function"},{"inputs":[{"internalType":"string","name":"_workType","type":"string"},{"internalType":"uint256","name":"_difficulty","type":"uint256"}],"name":"startMiningSession","outputs":[],"stateMutability":"nonpayable","type":"function"},{"inputs":[{"internalType":"string","name":"_workType","type":"string"},{"internalType":"uint256","name":"_difficulty","type":"uint256"},{"internalType":"string","name":"_result","type":"string"},{"internalType":"string","name":"_proofOfWork","type":"string"},{"internalType":"uint256","name":"_quantumSecurity","type":"uint256"}],"name":"submitDiscovery","outputs":[],"stateMutability":"nonpayable","type":"function"},{"inputs":[],"name":"totalDiscoveries","outputs":[{"internalType":"uint256","name":"","type":"uint256"}],"stateMutability":"view","type":"function"},{"inputs":[],"name":"totalRewardsDistributed","outputs":[{"internalType":"uint256","name":"","type":"uint256"}],"stateMutability":"view","type":"function"},{"inputs":[],"name":"totalStaked","outputs":[{"internalType":"uint256","name":"","type":"uint256"}],"stateMutability":"view","type":"function"},{"inputs":[{"internalType":"address","name":"newOwner","type":"address"}],"name":"transferOwnership","outputs":[],"stateMutability":"nonpayable","type":"function"},{"inputs":[{"internalType":"bytes32","name":"","type":"bytes32"},{"internalType":"address","name":"","type":"address"}],"name":"validationTaskResults","outputs":[{"internalType":"bool","name":"approved","type":"bool"},{"internalType":"string","name":"reason","type":"string"},{"internalType":"uint256","name":"validationTime","type":"uint256"},{"internalType":"uint256","name":"gasUsed","type":"uint256"},{"internalType":"bool","name":"isCorrect","type":"bool"},{"internalType":"uint256","name":"algorithmEfficiency","type":"uint256"},{"internalType":"uint256","name":"securityStrength","type":"uint256"},{"internalType":"uint256","name":"consensusTime","type":"uint256"},{"internalType":"uint256","name":"learningScore","type":"uint256"}],"stateMutability":"view","type":"function"},{"inputs":[{"internalType":"bytes32","name":"","type":"bytes32"}],"name":"validationTasks","outputs":[{"internalType":"bytes32","name":"discoveryId","type":"bytes32"},{"internalType":"address","name":"miner","type":"address"},{"internalType":"string","name":"workType","type":"string"},{"internalType":"uint256","name":"difficulty","type":"uint256"},{"internalType":"string","name":"result","type":"string"},{"internalType":"string","name":"proofOfWork","type":"string"},{"internalType":"uint256","name":"quantumSecurity","type":"uint256"},{"internalType":"uint256","name":"timestamp","type":"uint256"},{"internalType":"bool","name":"isCompleted","type":"bool"},{"internalType":"uint256","name":"consensusThreshold","type":"uint256"},{"internalType":"uint256","name":"approvalCount","type":"uint256"},{"internalType":"uint256","name":"rejectionCount","type":"uint256"},{"internalType":"bool","name":"finalDecision","type":"bool"},{"internalType":"uint256","name":"blockNumber","type":"uint256"},{"internalType":"uint256","name":"algorithmEfficiency","type":"uint256"},{"internalType":"uint256","name":"securityStrength","type":"uint256"},{"internalType":"uint256","name":"consensusTime","type":"uint256"},{"internalType":"uint256","name":"validatorParticipation","type":"uint256"}],"stateMutability":"view","type":"function"},{"inputs":[],"name":"validationTimeout","outputs":[{"internalType":"uint256","name":"","type":"uint256"}],"stateMutability":"view","type":"function"},{"inputs":[{"internalType":"address","name":"","type":"address"},{"internalType":"uint256","name":"","type":"uint256"}],"name":"validatorAssignments","outputs":[{"internalType":"bytes32","name":"","type":"bytes32"}],"stateMutability":"view","type":"function"},{"inputs":[],"name":"validatorReward","outputs":[{"internalType":"uint256","name":"","type":"uint256"}],"stateMutability":"view","type":"function"},{"inputs":[],"name":"validatorSelectionStake","outputs":[{"internalType":"uint256","name":"","type":"uint256"}],"stateMutability":"view","type":"function"},{"inputs":[{"internalType":"address","name":"","type":"address"}],"name":"validators","outputs":[{"internalType":"address","name":"validator","type":"address"},{"internalType":"uint256","name":"stake","type":"uint256"},{"internalType":"uint256","name":"reputation","type":"uint256"},{"internalType":"uint256","name":"totalValidations","type":"uint256"},{"internalType":"uint256","name":"successfulValidations","type":"uint256"},{"internalType":"uint256","name":"failedValidations","type":"uint256"},{"internalType":"bool","name":"isActive","type":"bool"},{"internalType":"uint256","name":"lastValidationTime","type":"uint256"},{"internalType":"uint256","name":"adaptiveScore","type":"uint256"},{"internalType":"uint256","name":"validationRewards","type":"uint256"},{"internalType":"uint256","name":"slashingPenalties","type":"uint256"},{"internalType":"uint256","name":"averageValidationTime","type":"uint256"},{"internalType":"uint256","name":"correctValidations","type":"uint256"},{"internalType":"uint256","name":"incorrectValidations","type":"uint256"},{"internalType":"uint256","name":"algorithmLearningScore","type":"uint256"},{"internalType":"uint256","name":"securityLearningScore","type":"uint256"},{"internalType":"uint256","name":"consensusLearningScore","type":"uint256"},{"internalType":"bool","name":"quantumResistant","type":"bool"}],"stateMutability":"view","type":"function"},{"inputs":[{"internalType":"uint256","name":"_amount","type":"uint256"}],"name":"withdrawStake","outputs":[],"stateMutability":"nonpayable","type":"function"},{"inputs":[{"internalType":"string","name":"","type":"string"}],"name":"workTypes","outputs":[{"internalType":"bool","name":"","type":"bool"}],"stateMutability":"view","type":"function"}],"evm":{"bytecode":{"linkReferences":{},"object":"60806040908082523461031e573315610308575060008054336001600160a01b0319821681178355835192916001600160a01b03167f8be0079c531659141344cd1fd0a4f28419497f9722a3daafe3b4186f6b6457e08380a360019081805560326014556064601555601e6016556101008060175581601855670de0b6b3a764000060195581601a55600a601b556032601c556003601d556002601e5561012c9384601f55671bc16d674ec800006020556103e89081602e556064602f556090603055836031556101f49485603255856033558660345560646035556103206036557f5072696d65205061747465726e20446973636f76657279000000000000000000825260346037600693846017820152209260ff1993838582541617905560388a517f5269656d616e6e205a65726f20436f6d7075746174696f6e0000000000000000815282601882015220838582541617905560378a517f59616e672d4d696c6c73204669656c64205468656f727900000000000000000081528260178201522083858254161790558980517f476f6c646261636820436f6e6a65637475726520566572696669636174696f6e815282602082015220838582541617905560388a517f4e61766965722d53746f6b65732053696d756c6174696f6e0000000000000000815282601882015220838582541617905560358a517f42697263682d5377696e6e6572746f6e2d4479657200000000000000000000008152826015820152208385825416179055603b8a517f456c6c69707469632043757276652043727970746f6772617068790000000000815282601b820152208385825416179055818a517f4c6174746963652043727970746f67726170687900000000000000000000000081528260148201522083858254161790558951907f506f696e636172c3a920436f6e6a65637475726500000000000000000000000082526014820152209182541617905582602155826022558260235580602455816025556026556027556028554260295580602a55602b55602c5560c8602d55516142949081620003248239f35b631e4fbdf760e01b815260006004820152602490fd5b600080fdfe61038080604052600436101561001457600080fd5b60003560e01c9081630333052814613ba2575080630373a23a14613b8157806305f4b26f14613b33578063064bad2314613b155780630ff8b57214613af757806310c1c10314613abd578063117fd6e81461391957806311c50d26146113fe57806317fa9923146138f857806325058e79146138da57806325d5971f1461372e578063378ec23b146137105780633a4b66f1146135cf5780633d777c3d1461354557806341bd60b514612e1257806348b1516614612df457806351f4205c14612d9a57806352ddb90614612d7c57806356ae8fb314611eae5780635ce8e33614611e825780635ffecc3f14611c9d57806364e5a67514611c7c57806366f0c7c514611c2b5780636b0eae8114611935578063715018a6146118dc578063758b1ce3146118bb57806375b941331461189d57806376ad03bc1461187f5780637ada463a1461186157806380c030bd14611843578063817b1cd214611825578063819cc83714611804578063880028ac146117d857806389f1ea64146117ba5780638d1771c21461176c5780638da5cb5b1461174357806393037e0b14611700578063960e6f88146116e257806397c875dd146116c45780639a997453146116a65780639c0a058e146116855780639f9784ae14611659578063a48458fe14611438578063a56c94ec146113fe578063aa6bb635146113e0578063ac22a69a14611388578063bcef7670146112c6578063bd97b14a146112a8578063bde0e23d1461125b578063ce93734b1461114e578063d4bfdd3314611122578063db94e94214611104578063e338824f14610e24578063eb802edf14610dbe578063ec5ffac214610da0578063eda057f1146109d8578063ee172546146109ba578063efa075cf14610999578063f1997dc914610701578063f25b3f99146105b4578063f288438514610596578063f2fde38b1461050d578063f4ce57b5146104ec578063f7eb7ac8146104cb578063f99dec4e146104ae578063f9b0b5b914610490578063fa52c7d81461034b5763fe0438b21461030c57600080fd5b34610346576020366003190112610346576001600160a01b0361032d613c93565b1660005260096020526020604060002054604051908152f35b600080fd5b34610346576020366003190112610346576001600160a01b038061036d613c93565b16600052600760205260406000208080928154166001820154610320526002820154600383015460048401546005850154600686015460ff16600787015490600888015492600989015494600a8a015496600b8b015498600c8c01549a600d8d01549c600e01549d600f01549e60108101546101a0526011015460ff16610260526040518060c052526103205160c0516020015260c0516040015260c0516060015260c0516080015260c05160a00152151560c05160c0015260c05160e0015260c051610100015260c051610120015260c051610140015260c051610160015260c051610180015260c0516101a0015260c0516101c0015260c0516101e001526101a05160c051610200015261026051151560c051610220015260c05161024090f35b34610346576000366003190112610346576020601e54604051908152f35b346103465760003660031901126103465760208054604051908152f35b34610346576020366003190112610346576104e4613e31565b600435601755005b3461034657602036600319011261034657610505613e31565b600435601455005b3461034657602036600319011261034657610526613c93565b61052e613e31565b6001600160a01b0390811690811561057d57600054826001600160601b0360a01b821617600055167f8be0079c531659141344cd1fd0a4f28419497f9722a3daafe3b4186f6b6457e0600080a3005b604051631e4fbdf760e01b815260006004820152602490fd5b34610346576000366003190112610346576020603054604051908152f35b3461034657602036600319011261034657600480356000908152600b60205260409020805460018201546102c05260028201546102a05260038201546001600160a01b03166103605291610609908201613cf9565b916005820154926006830154600784015460088501546009860154600a87015460ff1691600b88015493600c89015495600d8a015497600e8b015499600f8c01549b601001546101805260405180608052526102c051608051602001526102a05160805160400152610360516080516060015261022080608051608001526080510161069491613dc2565b9a60805160a0015260805160c0015260805160e001526080516101000152608051610120015215156080516101400152608051610160015260805161018001526080516101a001526080516101c001526080516101e0015261018051608051610200015260805180910390f35b346103465760208060031936011261034657600435336000526004825260406000205481101561095c57336000526004825260ff6006610745836040600020613e15565b5001541615610922573360005260048252610764816040600020613e15565b5060044291015533600052600482526006610783826040600020613e15565b500160ff19908181541690553360005260048352600a600c6107a9846040600020613e15565b50015533600052600483526107c2826040600020613e15565b5090600180920192336000526004855260026107e2826040600020613e15565b500154336000526009865260406000205490600c61080b6018549460048a526040600020613e15565b500154936040519560a08752600097805461082581613cbf565b938460a08b015283821691826000146108e1575050600114610882575b5050507f24692c01d14e1a496bf63b770eb1beebe2c6336ff154023c41a103a1ae72842295968501526040840152606083015260808201528033930390a2005b9097506000528760002096886000985b838a106108cc575050505060c07f24692c01d14e1a496bf63b770eb1beebe2c6336ff154023c41a103a1ae72842296860101958880610842565b8054898b0160c0015298019789908201610892565b915091507f24692c01d14e1a496bf63b770eb1beebe2c6336ff154023c41a103a1ae728422995060c09392501682880152151560051b860101958880610842565b60405162461bcd60e51b815260048101839052601260248201527153657373696f6e206e6f742061637469766560701b6044820152606490fd5b60405162461bcd60e51b8152600481018390526015602482015274092dcecc2d8d2c840e6cae6e6d2dedc40d2dcc8caf605b1b6044820152606490fd5b34610346576020366003190112610346576109b2613e31565b600435603655005b34610346576000366003190112610346576020601354604051908152f35b34610346576040366003190112610346576004356001600160401b03811161034657610a08903690600401613c4c565b610a3360ff6040516020818551610a228183858a01613d9f565b810160068152030190205416614109565b610a436014546024351115614155565b610a4b6141ba565b9033600052600860205260406000205490610a64613ee7565b60185493610a70613fc9565b60405195610a7d87613bd9565b338752846020880152602435604088015242606088015260006080880152600060a0880152600160c08801528560e08801528261010088015261012087015282610140870152610160860152600061018086015260016101a086015233600052600460205260406000208054600160401b811015610d7457610b0491600182018155613e15565b610d8a57855181546001600160a01b0319166001600160a01b0391909116178155602086015180519096906001600160401b038111610d7457610b4a6001840154613cbf565b601f8111610d34575b506020601f8211600114610c9957610c50939282600d936101a0937feb087411f0284de7d69b863b3cf3476d1359402ff42c8d65cfc995ea327d9f279b9c600092610c8e575b50508160011b916000199060031b1c19161760018501555b60408101516002850155606081015160038501556080810151600485015560a08101516005850155610bf860c08201511515600686019060ff801983541691151516179055565b60e0810151600785015561010081015160088501556101208101516009850155610140810151600a850155610160810151600b850155610180810151600c8501550151151591019060ff801983541691151516179055565b60185490610c696040519460c0865260c0860190613dc2565b95602435602086015260408501526060840152608083015260a08201528033930390a2005b015190508c80610b99565b6001840160005260206000209860005b601f1984168110610d1c5750926001837feb087411f0284de7d69b863b3cf3476d1359402ff42c8d65cfc995ea327d9f279a9b6101a094610c509897600d97601f19811610610d03575b505050811b016001850155610bb1565b015160001960f88460031b161c191690558c8080610cf3565b828201518b556001909a019960209283019201610ca9565b610d6490600185016000526020600020601f840160051c81019160208510610d6a575b601f0160051c0190613e6c565b88610b53565b9091508190610d57565b634e487b7160e01b600052604160045260246000fd5b634e487b7160e01b600052600060045260246000fd5b34610346576000366003190112610346576020601954604051908152f35b34610346576020366003190112610346576004356001600160401b038111610346576020610df3610e0e923690600401613c4c565b610dfb613e31565b8160405193828580945193849201613d9f565b600690820190815203019020805460ff19169055005b3461034657600036600319011261034657336000526008602052604060002054602054116110c05733600052600760205260ff6006604060002001541661107b573360005260086020526040600020546009602052604060002054604051906102408201928284106001600160401b03851117610d74576110249360405233835260208301528060408301526000606083015260006080830152600060a0830152600160c08301524260e0830152610100820152600061012082015260006101408201526000610160820152600061018082015260006101a082015260006101c082015260006101e082015260006102008201526001610220820152336000526007602052601161022060406000209260018060a01b038151166001600160601b0360a01b8554161784556020810151600185015560408101516002850155606081015160038501556080810151600485015560a08101516005850155610fa060c08201511515600686019060ff801983541691151516179055565b60e0810151600785015561010081015160088501556101208101516009850155610140810151600a850155610160810151600b850155610180810151600c8501556101a0810151600d8501556101c0810151600e8501556101e0810151600f85015561020081015160108501550151151591019060ff801983541691151516179055565b60086020526040600020546009602052604060002054604051918252602082015260006040820152600160608201527f438b591bacb7157bac1e3102c2515385b22f2fd1560551bde3925ee48d97c7ac60803392a2005b60405162461bcd60e51b815260206004820152601f60248201527f416c726561647920726567697374657265642061732076616c696461746f72006044820152606490fd5b606460405162461bcd60e51b815260206004820152602060248201527f496e73756666696369656e74207374616b6520666f722076616c696461746f726044820152fd5b34610346576000366003190112610346576020601f54604051908152f35b346103465760203660031901126103465760043560005260116020526020604060002054604051908152f35b3461034657604036600319011261034657611167613c93565b6001600160a01b0390811660009081526004602052604090208054602435908110156103465761119691613e15565b5090815416600182016111a890613cf9565b9060028301549260038101549060048101546005820154600683015460ff166007840154600885015490600986015492600a87015494600b88015496600c89015498600d015460ff16996040519d8e9d8e9d8e528d6101c0908160208201520161121191613dc2565b9c6040015260608d015260808c015260a08b0152151560c08a015260e089015261010088015261012087015261014086015261016085015261018084015215156101a08301520390f35b3461034657604036600319011261034657611274613ca9565b600435600052600c60205260406000209060018060a01b0316600052602052602060ff604060002054166040519015158152f35b34610346576000366003190112610346576020603354604051908152f35b34610346576040366003190112610346576112df613ca9565b600435600052600d60205260406000209060018060a01b0316600052602052604060002060ff81541661131460018301613cf9565b9160028101549060038101549060ff6004820154166005820154600683015491600860078501549401549461135d604051998a9915158a526101208060208c01528a0190613dc2565b96604089015260608801521515608087015260a086015260c085015260e08401526101008301520390f35b34610346576040366003190112610346576113a1613c93565b6001600160a01b03166000908152600a6020526040902080546024359190821015610346576020916113d291613de7565b90546040519160031b1c8152f35b34610346576000366003190112610346576020603554604051908152f35b34610346576020366003190112610346576001600160a01b0361141f613c93565b1660005260056020526020604060002054604051908152f35b3461034657602080600319360112610346576001600160a01b03908161145c613c93565b1660005260048152604060002080549161147583614247565b926114836040519485613c10565b8084528184018093600052826000206000915b8383106115975750505050604051928184019082855251809152604084019160408260051b86010193926000965b8388106114d15786860387f35b90919293948380600192603f198a8203018652885190858251168152611504838301516101c08086850152830190613dc2565b9160408101516040830152606080820151908301526080808201519083015260a0808201519083015260c08082015115159083015260e081015160e0830152610100808201519083015261012080820151908301526101408082015190830152610160808201519083015261018080820151908301526101a08091015115159101529701930197019690939291936114c4565b600e856001926040999799516115ac81613bd9565b8b86541681526115bd858701613cf9565b83820152600286015460408201526003860154606082015260048601546080820152600586015460a082015260ff80600688015416151560c0830152600787015460e083015260088701546101008301526009870154610120830152600a870154610140830152600b870154610160830152600c870154610180830152600d8701541615156101a0820152815201920192019190959395611496565b3461034657602036600319011261034657600435600052600e6020526020604060002054604051908152f35b346103465760203660031901126103465761169e613e31565b600435603355005b34610346576000366003190112610346576020601454604051908152f35b34610346576000366003190112610346576020601d54604051908152f35b34610346576000366003190112610346576020602f54604051908152f35b34610346576020366003190112610346576004356001600160401b03811161034657611730903690600401613c4c565b50602061173b6141ba565b604051908152f35b34610346576000366003190112610346576000546040516001600160a01b039091168152602090f35b34610346576020366003190112610346576004356001600160401b0381116103465760ff6117a46020610dfb81943690600401613c4c565b8101600681520301902054166040519015158152f35b34610346576000366003190112610346576020601c54604051908152f35b3461034657602036600319011261034657600435600052600f6020526020604060002054604051908152f35b346103465760203660031901126103465761181d613e31565b600435603255005b34610346576000366003190112610346576020601a54604051908152f35b34610346576000366003190112610346576020602e54604051908152f35b34610346576000366003190112610346576020601754604051908152f35b34610346576000366003190112610346576020601554604051908152f35b34610346576000366003190112610346576020601b54604051908152f35b34610346576020366003190112610346576118d4613e31565b600435601655005b34610346576000366003190112610346576118f5613e31565b600080546001600160a01b0319811682556001600160a01b03167f8be0079c531659141344cd1fd0a4f28419497f9722a3daafe3b4186f6b6457e08280a3005b3461034657602036600319011261034657600061028060405161195781613bbd565b82815260606020820152826040820152606080820152606060808201528260a08201528260c08201528260e08201528261010082015282610120820152826101408201528261016082015282610180820152826101a0820152826101c0820152826101e0820152826102008201528261022082015282610240820152826102608201520152600435600052600260205260406000206014604051916119fb83613bbd565b80546001600160a01b03168352611a1460018201613cf9565b602084015260028101546040840152611a2f60038201613cf9565b6060840152611a4060048201613cf9565b6080840152600581015460a0840152600681015460c0840152600781015460e084015260ff60088201541615156101008401526009810154610120840152600a810154610140840152600b810154610160840152600c810154610180840152600d8101546101a0840152600e8101546101c0840152600f8101546101e084015260108101546102008401526011810154610220840152601281015461024084015260ff6013820154161515610260840152015461028082015260405180916020825260018060a01b038151166020830152610280611b6d611b3260208401516102a060408701526102c0860190613dc2565b60408401516060860152611b58606085015191601f199283888303016080890152613dc2565b906080850151908683030160a0870152613dc2565b9160a081015160c085015260c081015160e085015260e081015161010085015261010081015115156101208501526101208101516101408501526101408101516101608501526101608101516101808501526101808101516101a08501526101a08101516101c08501526101c08101516101e08501526101e081015161020085015261020081015161022085015261022081015161024085015261024081015161026085015261026081015115158285015201516102a08301520390f35b3461034657602036600319011261034657600435600052600b602052608060406000206007810154906008810154906010600f82015491015491604051938452602084015260408301526060820152f35b3461034657602036600319011261034657611c95613e31565b600435603455005b3461034657602036600319011261034657600435600090815260026020526040902080546001600160a01b031690611cd760018201613cf9565b61014052600281015461034052611cf060038201613cf9565b61030052611d0060048201613cf9565b916005820154610240526006820154926007830154600884015460ff166009850154600a860154600b87015491600c88015493600d89015495600e8a015497600f8b01549960108c01549b60118101546101005260128101546102e052601381015460ff1660e05260140154610160526040518061028052526102a080610280516020015261028051016101405190611d9891613dc2565b6103405161028051604001526102805180820390606001526103005190611dbe91613dc2565b610280518082039060800152611dd391613dc2565b9a610240516102805160a001526102805160c001526102805160e001521515610280516101000152610280516101200152610280516101400152610280516101600152610280516101800152610280516101a00152610280516101c00152610280516101e00152610280516102000152610100516102805161022001526102e05161028051610240015260e0511515610280516102600152610160516102805161028001526102805180910390f35b346103465760203660031901126103465760043560005260106020526020604060002054604051908152f35b346103465760a0366003190112610346576004356001600160401b03811161034657611ede903690600401613c4c565b6044356001600160401b03811161034657611efd903690600401613c4c565b906064356001600160401b03811161034657611f1d903690600401613c4c565b91611f26614197565b611f4060ff6040516020818651610a228183858b01613d9f565b611f506014546024351115614155565b60175460843510612d3757611f63613ee7565b611f6b613fc9565b611f736141ba565b60243510612ce6576018549160405160208101903360601b8252611fff60b4828a8a51611fa8818d6020603487019101613d9f565b820160243560348201528a5190611fc7828d6020605485019101613d9f565b01611fdc825180936020605485019101613d9f565b016084356054820152886074820152426094820152036094810184520182613c10565b51902092836000526002602052600660406000200154612ca157336000526008602052604060002054906120316140a2565b906040518660208201528160408201528460608201528560808201526080815261205a81613bf5565b6020815191012090601e54926040519461207386613bbd565b3386528a602087015260243560408701528960608701528b608087015260843560a08701524260c0870152600060e0870152600061010087015261012086015261014085015261016084015283610180840152846101a084015260006101c084015260006101e084015261020083015260006102208301526102408201526000610260820152600061028082015283600052600260205260406000209060018060a01b038151166001600160601b0360a01b83541617825560208101518051906001600160401b038211610d745781906121506001860154613cbf565b601f8111612c6c575b50602090601f8311600114612bfa57600092612bef575b50508160011b916000199060031b1c19161760018301555b6040810151600283015560608101518051906001600160401b038211610d745781906121b76003860154613cbf565b601f8111612bba575b50602090601f8311600114612b4857600092612b3d575b50508160011b916000199060031b1c19161760038301555b60808101518051906001600160401b038211610d74576122126004850154613cbf565b601f8111612b08575b50602090601f8311600114612a925791806014949261028094600092612a87575b50508160011b916000199060031b1c19161760048501555b60a0810151600585015560c0810151600685015560e081015160078501556122926101008201511515600886019060ff801983541691151516179055565b6101208101516009850155610140810151600a850155610160810151600b850155610180810151600c8501556101a0810151600d8501556101c0810151600e8501556101e0810151600f8501556102008101516010850155610220810151601185015561024081015160128501556123206102608201511515601386019060ff801983541691151516179055565b01519101556018549360405160208101908582527f61646170746976655f76616c69646174696f6e5f7461736b000000000000000060408201528660588201524260788201526078815261237381613bf5565b51902096601d549561238487614247565b966123926040519889613c10565b8088526123a1601f1991614247565b01366020890137601e5487519260405194856102608101106001600160401b0361026088011117610d745761026086016040528886523360208701528a60408701526024356060870152608086015260a085015260843560c08501524260e08501526000610100850152876101208501526101408401526000610160840152600061018084015260006101a08401526101c0830152826101e0830152836102008301526000610220830152610240820152866000526003602052604060002090805182556001820160018060a01b036020830151166001600160601b0360a01b82541617905560408101518051906001600160401b038211610d745781906124ac6002860154613cbf565b601f8111612a52575b50602090601f83116001146129e0576000926129d5575b50508160011b916000199060031b1c19161760028301555b6060810151600383015560808101518051906001600160401b038211610d745781906125136004860154613cbf565b601f81116129a0575b50602090601f831160011461292e57600092612923575b50508160011b916000199060031b1c19161760048301555b60a08101518051906001600160401b038211610d745781906125706005860154613cbf565b601f81116128ee575b50602090601f831160011461287c57600092612871575b50508160011b916000199060031b1c19161760058301555b60c0810151600683015560e081015160078301556125dc6101008201511515600884019060ff801983541691151516179055565b6101208101518051906001600160401b038211610d7457600160401b8211610d74576020906009850154836009870155808410612851575b500160098401600052602060002060005b8381106128345750505050610240816101406012930151600a850155610160810151600b850155610180810151600c8501556126776101a08201511515600d86019060ff801983541691151516179055565b6101c0810151600e8501556101e0810151600f85015561020081015160108501556102208101516011850155015191015560005b84518110156127155760018060a01b0360208260051b8701015116600052600a602052604060002090815491600160401b831015610d7457826126f691600161271095018155613de7565b81549060031b908a821b91600019901b1916179055613e5d565b6126ab565b50859394612724601254613e5d565b601255336000526008602052837fc2ef7412e931822822703ec6e749ac21563f4df6b27e86dce03ded675051ea37604060002054926127616140a2565b956018549661277d604051936101008552610100850190613dc2565b95602435602085015260006040850152606084015260808301528660a08301528560c083015260e08201528033940390a3601e54916040519260808401608085528751809152602060a0860198019060005b818110612815575050506020840152604083015260608201527ff9b64bc4f55726d3ac9e187b1cd7e1a490973454418f085acbed3dffacc75bc89080850390a360018055005b82516001600160a01b03168a526020998a0199909201916001016127cf565b82516001600160a01b031681830155602090920191600101612625565b61286b906009870160005284846000209182019101613e6c565b8b612614565b015190508a80612590565b9250600585016000526020600020906000935b601f19841685106128d3576001945083601f198116106128ba575b505050811b0160058301556125a8565b015160001960f88460031b161c191690558a80806128aa565b8181015183556020948501946001909301929091019061288f565b61291d90600587016000526020600020601f850160051c81019160208610610d6a57601f0160051c0190613e6c565b8b612579565b015190508a80612533565b9250600485016000526020600020906000935b601f1984168510612985576001945083601f1981161061296c575b505050811b01600483015561254b565b015160001960f88460031b161c191690558a808061295c565b81810151835560209485019460019093019290910190612941565b6129cf90600487016000526020600020601f850160051c81019160208610610d6a57601f0160051c0190613e6c565b8b61251c565b015190508a806124cc565b9250600285016000526020600020906000935b601f1984168510612a37576001945083601f19811610612a1e575b505050811b0160028301556124e4565b015160001960f88460031b161c191690558a8080612a0e565b818101518355602094850194600190930192909101906129f3565b612a8190600287016000526020600020601f850160051c81019160208610610d6a57601f0160051c0190613e6c565b8b6124b5565b015190508c8061223c565b906004850160005260206000209160005b601f1985168110612af0575092601494926001926102809583601f19811610612ad7575b505050811b016004850155612254565b015160001960f88460031b161c191690558c8080612ac7565b91926020600181928685015181550194019201612aa3565b612b3790600486016000526020600020601f850160051c81019160208610610d6a57601f0160051c0190613e6c565b8a61221b565b015190508a806121d7565b9250600385016000526020600020906000935b601f1984168510612b9f576001945083601f19811610612b86575b505050811b0160038301556121ef565b015160001960f88460031b161c191690558a8080612b76565b81810151835560209485019460019093019290910190612b5b565b612be990600387016000526020600020601f850160051c81019160208610610d6a57601f0160051c0190613e6c565b8b6121c0565b015190508a80612170565b9250600185016000526020600020906000935b601f1984168510612c51576001945083601f19811610612c38575b505050811b016001830155612188565b015160001960f88460031b161c191690558a8080612c28565b81810151835560209485019460019093019290910190612c0d565b612c9b90600187016000526020600020601f850160051c81019160208610610d6a57601f0160051c0190613e6c565b8b612159565b60405162461bcd60e51b815260206004820152601860248201527f446973636f7665727920616c72656164792065786973747300000000000000006044820152606490fd5b60405162461bcd60e51b815260206004820152602360248201527f446966666963756c74792062656c6f77206164617074697665207468726573686044820152621bdb1960ea1b6064820152608490fd5b60405162461bcd60e51b815260206004820152601d60248201527f496e73756666696369656e74207175616e74756d2073656375726974790000006044820152606490fd5b34610346576000366003190112610346576020603154604051908152f35b3461034657600036600319011261034657610100602154602254602454602554602654603254916033549360345495604051978852602088015260408701526060860152608085015260a084015260c083015260e0820152f35b34610346576000366003190112610346576020601654604051908152f35b34610346576080366003190112610346576004356001600160401b03811161034657612e42903690600401613c4c565b60643590811515820361034657612e5a601854613e5d565b9182601855612e67613ee7565b90612e70613fc9565b90612e796140a2565b9360405160208101908782524260408201523360601b606082015260548152608081018181106001600160401b03821117610d745760405251902095612ec3602435601554613ed4565b612ed1601754604435613e9d565b80600a810204600a1481151715613358576103e887048060058102046005148115171561335857612f1292600a6005612f0d9302930290613e90565b613e90565b60325460335491604051998a6102208101106001600160401b036102208d011117610d74576102208b01604052848b524260208c015260408b01523360608b01528460808b015260243560a08b015260443560c08b01528760e08b0152866101008b0152886101208b01528515156101408b015260006101608b01526101808a01526101a08901526101c088015260006101e08801526000610200880152600052600b60205260406000208651815560208701516001820155604087015160028201556003810160018060a01b036060890151166001600160601b0360a01b82541617905560808701518051906001600160401b038211610d7457819061301c6004850154613cbf565b601f8111613510575b50602090601f831160011461349e57600092613493575b50508160011b916000199060031b1c19161760048201555b60a0870151600582015560c0870151600682015560e08701516007820155610100870151600882015561012087015160098201556130a86101408801511515600a83019060ff801983541691151516179055565b610160870151600b820155610180870151600c8201556101a0870151600d8201556101c0870151600e8201556101e0870151600f82015560106102008801519101556130f5602154613e5d565b6021558551602855426029556101408601511561348057613117602254613e5d565b6022555b613126602454613ebd565b60e087015190606482029180830460641490151715613358576127109161314c91613e90565b0460245561315b602554613ebd565b6101008701518060648102046064148115171561335857612710916064613183920290613e90565b0460255560e08601518651600052600e6020526040600020556101008601518651600052600f6020526040600020556101e0860151865160005260106020526040600020556102008601518651600052601160205260406000205560e08601516024541060001461345457603254603281018111613358576032016032555b610100860151602554101561342857603354603281018111613358576032016033555b61012c6101e08701511060001461336e5760345491601e8301809311613358577f621daeb75bcdb62a282d16f46b09d9068a04f063507b085b0839f43d812b4f3360a06020987fb3546ff1e0b491349a7a3db3e3547d7118128ca6c434d5f1ba8b9b185d6d3311956034555b6032546107d090818111156133535750805b6032556033548181111561334c57505b6033556034546105dc908181111561334557505b60345580519060e0810151906101e061010082015191015190602654926040519485528d850152604084015260608301526080820152a16018549586946133196040519460c0865260c0860190613dc2565b966024358a860152604085015260608401526080830152151560a08201528033940390a3604051908152f35b90506132c7565b90506132b3565b6132a3565b634e487b7160e01b600052601160045260246000fd5b6034549160648311156133d857601d198301928311613358577f621daeb75bcdb62a282d16f46b09d9068a04f063507b085b0839f43d812b4f3360a06020987fb3546ff1e0b491349a7a3db3e3547d7118128ca6c434d5f1ba8b9b185d6d3311955b603455613291565b7fb3546ff1e0b491349a7a3db3e3547d7118128ca6c434d5f1ba8b9b185d6d331192507f621daeb75bcdb62a282d16f46b09d9068a04f063507b085b0839f43d812b4f3360a060209860646133d0565b603354606481111561344c578060311981011161335857603119015b603355613225565b506064613444565b6032546064811115613478578060311981011161335857603119015b603255613202565b506064613470565b61348b602354613e5d565b60235561311b565b01519050898061303c565b9250600484016000526020600020906000935b601f19841685106134f5576001945083601f198116106134dc575b505050811b016004820155613054565b015160001960f88460031b161c191690558980806134cc565b818101518355602094850194600190930192909101906134b1565b61353f90600486016000526020600020601f850160051c81019160208610610d6a57601f0160051c0190613e6c565b8a613025565b34610346576000366003190112610346576101a06021546022546023546024546025546026546027546028549060295492602a5494602b5496602c5498602d549a6040519c8d5260208d015260408c015260608b015260808a015260a089015260c088015260e0870152610100860152610120850152610140840152610160830152610180820152f35b60003660031901126103465760195434106136d5573415613690573360005260086020526040600020613603348254613e90565b905561361134601a54613e90565b601a55670de0b6b3a764000034046064810290808204606414901517156133585733600052600960205261364b6040600020918254613e90565b90553360005260086020526040600020546040519034825260208201527f05cce4a371bf9816b1a7594f1d76c98eba4ed025ff3e471234ae598f17899bd460403392a2005b60405162461bcd60e51b815260206004820152601d60248201527f5374616b6520616d6f756e74206d75737420626520706f7369746976650000006044820152606490fd5b60405162461bcd60e51b81526020600482015260136024820152725374616b652062656c6f77206d696e696d756d60681b6044820152606490fd5b34610346576000366003190112610346576020601854604051908152f35b3461034657602080600319360112610346576004359061374c614197565b336000526008815281604060002054106138a1578115613852573360005260088152604060002061377e838254613e83565b905561378c82601a54613e83565b601a55600080808085335af13d1561384d573d6137a881613c31565b906137b66040519283613c10565b81526000833d92013e5b15613809573360005260088152604060002054906040519283528201527f933735aa8de6d7547d0126171b2f31b9c34dd00f3ecd4be85a0ba047db4fafef60403392a260018055005b6064906040519062461bcd60e51b82526004820152601760248201527f5374616b65207769746864726177616c206661696c65640000000000000000006044820152fd5b6137c0565b6084906040519062461bcd60e51b82526004820152602260248201527f5769746864726177616c20616d6f756e74206d75737420626520706f73697469604482015261766560f01b6064820152fd5b6064906040519062461bcd60e51b825260048201526012602482015271496e73756666696369656e74207374616b6560701b6044820152fd5b34610346576000366003190112610346576020603254604051908152f35b3461034657602036600319011261034657613911613e31565b600435603555005b3461034657602036600319011261034657600435600090815260036020526040902080546101e05260018101546001600160a01b03169061395c60028201613cf9565b6102005260038101546102205261397560048201613cf9565b9161398260058301613cf9565b926006830154936007840154600885015460ff16600a860154600b87015491600c88015493600d89015460ff1695600e8a015497600f8b01549960108c01549b601181015460a0526012015461012052604051806101c0526101e05190526101c05160200152610240806101c051604001526101c051016102005190613a0791613dc2565b610220516101c051606001526101c0518082039060800152613a2891613dc2565b6101c0518082039060a00152613a3d91613dc2565b996101c05160c001526101c05160e0015215156101c05161010001526101c05161012001526101c05161014001526101c051610160015215156101c05161018001526101c0516101a001526101c0516101c001526101c0516101e0015260a0516101c0516102000152610120516101c05161022001526101c05180910390f35b34610346576020366003190112610346576001600160a01b03613ade613c93565b1660005260086020526020604060002054604051908152f35b34610346576000366003190112610346576020603654604051908152f35b34610346576000366003190112610346576020603454604051908152f35b34610346576020366003190112610346576004356001600160401b038111610346576020610df3613b68923690600401613c4c565b600690820190815203019020805460ff19166001179055005b3461034657602036600319011261034657613b9a613e31565b600435601555005b34610346576000366003190112610346576020906012548152f35b6102a081019081106001600160401b03821117610d7457604052565b6101c081019081106001600160401b03821117610d7457604052565b60a081019081106001600160401b03821117610d7457604052565b90601f801991011681019081106001600160401b03821117610d7457604052565b6001600160401b038111610d7457601f01601f191660200190565b81601f8201121561034657803590613c6382613c31565b92613c716040519485613c10565b8284526020838301011161034657816000926020809301838601378301015290565b600435906001600160a01b038216820361034657565b602435906001600160a01b038216820361034657565b90600182811c92168015613cef575b6020831014613cd957565b634e487b7160e01b600052602260045260246000fd5b91607f1691613cce565b9060405191826000825492613d0d84613cbf565b908184526001948581169081600014613d7c5750600114613d39575b5050613d3792500383613c10565b565b9093915060005260209081600020936000915b818310613d64575050613d3793508201013880613d29565b85548884018501529485019487945091830191613d4c565b915050613d3794506020925060ff191682840152151560051b8201013880613d29565b60005b838110613db25750506000910152565b8181015183820152602001613da2565b90602091613ddb81518092818552858086019101613d9f565b601f01601f1916010190565b8054821015613dff5760005260206000200190600090565b634e487b7160e01b600052603260045260246000fd5b8054821015613dff57600052600e602060002091020190600090565b6000546001600160a01b03163303613e4557565b60405163118cdaa760e01b8152336004820152602490fd5b60001981146133585760010190565b818110613e77575050565b60008155600101613e6c565b9190820391821161335857565b9190820180921161335857565b8115613ea7570490565b634e487b7160e01b600052601260045260246000fd5b906126ac9182810292818404149015171561335857565b8181029291811591840414171561335857565b602154908115613fc25790600080819360355493602854955b85811080613fb9575b15613f7d57613f188188613e83565b80151580613f66575b613f35575b50613f3090613e5d565b613f00565b613f59613f30929596613f5f92600052600b60205260076040600020015490613e90565b95613e5d565b9390613f26565b5080600052600b6020526040600020541515613f21565b5050935091508115613fb157613fa5613f9c613fae9361271093613e9d565b60325490613ed4565b04602454613e90565b90565b505060245490565b50818110613f09565b6103e89150565b60215490811561409b5790600080819360355493602854955b85811080614092575b1561405957613ffa8188613e83565b80151580614042575b614017575b5061401290613e5d565b613fe2565b613f5961401292959661403b92600052600b60205260086040600020015490613e90565b9390614008565b5080600052600b6020526040600020541515614003565b505093509150811561408a57614081614078613fae9361271093613e9d565b60335490613ed4565b04602554613e90565b505060255490565b50818110613feb565b6017549150565b6140aa613ee7565b6140b2613fc9565b90602c5491610190908183029280840483149015171561335857818102918183041490151715613358576140e591613e90565b60c882029180830460c81490151715613358576103e89161410591613e90565b0490565b1561411057565b60405162461bcd60e51b815260206004820152601760248201527f576f726b2074797065206e6f7420737570706f727465640000000000000000006044820152606490fd5b1561415c57565b60405162461bcd60e51b8152602060048201526013602482015272088d2ccccd2c6ead8e8f240e8dede40d0d2ced606b1b6044820152606490fd5b6002600154146141a8576002600155565b604051633ee5aeb560e01b8152600490fd5b613fae602860245404612f0d6141d560255460175490613e9d565b6141ee6103e8602c5404916141e86141f3565b94613ed4565b613ed4565b602154600a81106142415760225490612710918281029281840414901517156133585761421f91613e9d565b611f4081111561422f5750600590565b611b581161423c57600090565b600090565b50600090565b6001600160401b038111610d745760051b6020019056fea2646970667358221220f99cca53f893ad2e06facf7372ba3636983b63327f13fc9692cff2a40b8b631b64736f6c63430008140033","opcodes":"PUSH1 0x80 PUSH1 0x40 SWAP1 DUP1 DUP3 MSTORE CALLVALUE PUSH2 0x31E JUMPI CALLER ISZERO PUSH2 0x308 JUMPI POP PUSH1 0x0 DUP1 SLOAD CALLER PUSH1 0x1 PUSH1 0x1 PUSH1 0xA0 SHL SUB NOT DUP3 AND DUP2 OR DUP4 SSTORE DUP4 MLOAD SWAP3 SWAP2 PUSH1 0x1 PUSH1 0x1 PUSH1 0xA0 SHL SUB AND PUSH32 0x8BE0079C531659141344CD1FD0A4F28419497F9722A3DAAFE3B4186F6B6457E0 DUP4 DUP1 LOG3 PUSH1 0x1 SWAP1 DUP2 DUP1 SSTORE PUSH1 0x32 PUSH1 0x14 SSTORE PUSH1 0x64 PUSH1 0x15 SSTORE PUSH1 0x1E PUSH1 0x16 SSTORE PUSH2 0x100 DUP1 PUSH1 0x17 SSTORE DUP2 PUSH1 0x18 SSTORE PUSH8 0xDE0B6B3A7640000 PUSH1 0x19 SSTORE DUP2 PUSH1 0x1A SSTORE PUSH1 0xA PUSH1 0x1B SSTORE PUSH1 0x32 PUSH1 0x1C SSTORE PUSH1 0x3 PUSH1 0x1D SSTORE PUSH1 0x2 PUSH1 0x1E SSTORE PUSH2 0x12C SWAP4 DUP5 PUSH1 0x1F SSTORE PUSH8 0x1BC16D674EC80000 PUSH1 0x20 SSTORE PUSH2 0x3E8 SWAP1 DUP2 PUSH1 0x2E SSTORE PUSH1 0x64 PUSH1 0x2F SSTORE PUSH1 0x90 PUSH1 0x30 SSTORE DUP4 PUSH1 0x31 SSTORE PUSH2 0x1F4 SWAP5 DUP6 PUSH1 0x32 SSTORE DUP6 PUSH1 0x33 SSTORE DUP7 PUSH1 0x34 SSTORE PUSH1 0x64 PUSH1 0x35 SSTORE PUSH2 0x320 PUSH1 0x36 SSTORE PUSH32 0x5072696D65205061747465726E20446973636F76657279000000000000000000 DUP3 MSTORE PUSH1 0x34 PUSH1 0x37 PUSH1 0x6 SWAP4 DUP5 PUSH1 0x17 DUP3 ADD MSTORE KECCAK256 SWAP3 PUSH1 0xFF NOT SWAP4 DUP4 DUP6 DUP3 SLOAD AND OR SWAP1 SSTORE PUSH1 0x38 DUP11 MLOAD PUSH32 0x5269656D616E6E205A65726F20436F6D7075746174696F6E0000000000000000 DUP2 MSTORE DUP3 PUSH1 0x18 DUP3 ADD MSTORE KECCAK256 DUP4 DUP6 DUP3 SLOAD AND OR SWAP1 SSTORE PUSH1 0x37 DUP11 MLOAD PUSH32 0x59616E672D4D696C6C73204669656C64205468656F7279000000000000000000 DUP2 MSTORE DUP3 PUSH1 0x17 DUP3 ADD MSTORE KECCAK256 DUP4 DUP6 DUP3 SLOAD AND OR SWAP1 SSTORE DUP10 DUP1 MLOAD PUSH32 0x476F6C646261636820436F6E6A65637475726520566572696669636174696F6E DUP2 MSTORE DUP3 PUSH1 0x20 DUP3 ADD MSTORE KECCAK256 DUP4 DUP6 DUP3 SLOAD AND OR SWAP1 SSTORE PUSH1 0x38 DUP11 MLOAD PUSH32 0x4E61766965722D53746F6B65732053696D756C6174696F6E0000000000000000 DUP2 MSTORE DUP3 PUSH1 0x18 DUP3 ADD MSTORE KECCAK256 DUP4 DUP6 DUP3 SLOAD AND OR SWAP1 SSTORE PUSH1 0x35 DUP11 MLOAD PUSH32 0x42697263682D5377696E6E6572746F6E2D447965720000000000000000000000 DUP2 MSTORE DUP3 PUSH1 0x15 DUP3 ADD MSTORE KECCAK256 DUP4 DUP6 DUP3 SLOAD AND OR SWAP1 SSTORE PUSH1 0x3B DUP11 MLOAD PUSH32 0x456C6C69707469632043757276652043727970746F6772617068790000000000 DUP2 MSTORE DUP3 PUSH1 0x1B DUP3 ADD MSTORE KECCAK256 DUP4 DUP6 DUP3 SLOAD AND OR SWAP1 SSTORE DUP2 DUP11 MLOAD PUSH32 0x4C6174746963652043727970746F677261706879000000000000000000000000 DUP2 MSTORE DUP3 PUSH1 0x14 DUP3 ADD MSTORE KECCAK256 DUP4 DUP6 DUP3 SLOAD AND OR SWAP1 SSTORE DUP10 MLOAD SWAP1 PUSH32 0x506F696E636172C3A920436F6E6A656374757265000000000000000000000000 DUP3 MSTORE PUSH1 0x14 DUP3 ADD MSTORE KECCAK256 SWAP2 DUP3 SLOAD AND OR SWAP1 SSTORE DUP3 PUSH1 0x21 SSTORE DUP3 PUSH1 0x22 SSTORE DUP3 PUSH1 0x23 SSTORE DUP1 PUSH1 0x24 SSTORE DUP2 PUSH1 0x25 SSTORE PUSH1 0x26 SSTORE PUSH1 0x27 SSTORE PUSH1 0x28 SSTORE TIMESTAMP PUSH1 0x29 SSTORE DUP1 PUSH1 0x2A SSTORE PUSH1 0x2B SSTORE PUSH1 0x2C SSTORE PUSH1 0xC8 PUSH1 0x2D SSTORE MLOAD PUSH2 0x4294 SWAP1 DUP2 PUSH3 0x324 DUP3 CODECOPY RETURN JUMPDEST PUSH4 0x1E4FBDF7 PUSH1 0xE0 SHL DUP2 MSTORE PUSH1 0x0 PUSH1 0x4 DUP3 ADD MSTORE PUSH1 0x24 SWAP1 REVERT JUMPDEST PUSH1 0x0 DUP1 REVERT INVALID PUSH2 0x380 DUP1 PUSH1 0x40 MSTORE PUSH1 0x4 CALLDATASIZE LT ISZERO PUSH2 0x14 JUMPI PUSH1 0x0 DUP1 REVERT JUMPDEST PUSH1 0x0 CALLDATALOAD PUSH1 0xE0 SHR SWAP1 DUP2 PUSH4 0x3330528 EQ PUSH2 0x3BA2 JUMPI POP DUP1 PUSH4 0x373A23A EQ PUSH2 0x3B81 JUMPI DUP1 PUSH4 0x5F4B26F EQ PUSH2 0x3B33 JUMPI DUP1 PUSH4 0x64BAD23 EQ PUSH2 0x3B15 JUMPI DUP1 PUSH4 0xFF8B572 EQ PUSH2 0x3AF7 JUMPI DUP1 PUSH4 0x10C1C103 EQ PUSH2 0x3ABD JUMPI DUP1 PUSH4 0x117FD6E8 EQ PUSH2 0x3919 JUMPI DUP1 PUSH4 0x11C50D26 EQ PUSH2 0x13FE JUMPI DUP1 PUSH4 0x17FA9923 EQ PUSH2 0x38F8 JUMPI DUP1 PUSH4 0x25058E79 EQ PUSH2 0x38DA JUMPI DUP1 PUSH4 0x25D5971F EQ PUSH2 0x372E JUMPI DUP1 PUSH4 0x378EC23B EQ PUSH2 0x3710 JUMPI DUP1 PUSH4 0x3A4B66F1 EQ PUSH2 0x35CF JUMPI DUP1 PUSH4 0x3D777C3D EQ PUSH2 0x3545 JUMPI DUP1 PUSH4 0x41BD60B5 EQ PUSH2 0x2E12 JUMPI DUP1 PUSH4 0x48B15166 EQ PUSH2 0x2DF4 JUMPI DUP1 PUSH4 0x51F4205C EQ PUSH2 0x2D9A JUMPI DUP1 PUSH4 0x52DDB906 EQ PUSH2 0x2D7C JUMPI DUP1 PUSH4 0x56AE8FB3 EQ PUSH2 0x1EAE JUMPI DUP1 PUSH4 0x5CE8E336 EQ PUSH2 0x1E82 JUMPI DUP1 PUSH4 0x5FFECC3F EQ PUSH2 0x1C9D JUMPI DUP1 PUSH4 0x64E5A675 EQ PUSH2 0x1C7C JUMPI DUP1 PUSH4 0x66F0C7C5 EQ PUSH2 0x1C2B JUMPI DUP1 PUSH4 0x6B0EAE81 EQ PUSH2 0x1935 JUMPI DUP1 PUSH4 0x715018A6 EQ PUSH2 0x18DC JUMPI DUP1 PUSH4 0x758B1CE3 EQ PUSH2 0x18BB JUMPI DUP1 PUSH4 0x75B94133 EQ PUSH2 0x189D JUMPI DUP1 PUSH4 0x76AD03BC EQ PUSH2 0x187F JUMPI DUP1 PUSH4 0x7ADA463A EQ PUSH2 0x1861 JUMPI DUP1 PUSH4 0x80C030BD EQ PUSH2 0x1843 JUMPI DUP1 PUSH4 0x817B1CD2 EQ PUSH2 0x1825 JUMPI DUP1 PUSH4 0x819CC837 EQ PUSH2 0x1804 JUMPI DUP1 PUSH4 0x880028AC EQ PUSH2 0x17D8 JUMPI DUP1 PUSH4 0x89F1EA64 EQ PUSH2 0x17BA JUMPI DUP1 PUSH4 0x8D1771C2 EQ PUSH2 0x176C JUMPI DUP1 PUSH4 0x8DA5CB5B EQ PUSH2 0x1743 JUMPI DUP1 PUSH4 0x93037E0B EQ PUSH2 0x1700 JUMPI DUP1 PUSH4 0x960E6F88 EQ PUSH2 0x16E2 JUMPI DUP1 PUSH4 0x97C875DD EQ PUSH2 0x16C4 JUMPI DUP1 PUSH4 0x9A997453 EQ PUSH2 0x16A6 JUMPI DUP1 PUSH4 0x9C0A058E EQ PUSH2 0x1685 JUMPI DUP1 PUSH4 0x9F9784AE EQ PUSH2 0x1659 JUMPI DUP1 PUSH4 0xA48458FE EQ PUSH2 0x1438 JUMPI DUP1 PUSH4 0xA56C94EC EQ PUSH2 0x13FE JUMPI DUP1 PUSH4 0xAA6BB635 EQ PUSH2 0x13E0 JUMPI DUP1 PUSH4 0xAC22A69A EQ PUSH2 0x1388 JUMPI DUP1 PUSH4 0xBCEF7670 EQ PUSH2 0x12C6 JUMPI DUP1 PUSH4 0xBD97B14A EQ PUSH2 0x12A8 JUMPI DUP1 PUSH4 0xBDE0E23D EQ PUSH2 0x125B JUMPI DUP1 PUSH4 0xCE93734B EQ PUSH2 0x114E JUMPI DUP1 PUSH4 0xD4BFDD33 EQ PUSH2 0x1122 JUMPI DUP1 PUSH4 0xDB94E942 EQ PUSH2 0x1104 JUMPI DUP1 PUSH4 0xE338824F EQ PUSH2 0xE24 JUMPI DUP1 PUSH4 0xEB802EDF EQ PUSH2 0xDBE JUMPI DUP1 PUSH4 0xEC5FFAC2 EQ PUSH2 0xDA0 JUMPI DUP1 PUSH4 0xEDA057F1 EQ PUSH2 0x9D8 JUMPI DUP1 PUSH4 0xEE172546 EQ PUSH2 0x9BA JUMPI DUP1 PUSH4 0xEFA075CF EQ PUSH2 0x999 JUMPI DUP1 PUSH4 0xF1997DC9 EQ PUSH2 0x701 JUMPI DUP1 PUSH4 0xF25B3F99 EQ PUSH2 0x5B4 JUMPI DUP1 PUSH4 0xF2884385 EQ PUSH2 0x596 JUMPI DUP1 PUSH4 0xF2FDE38B EQ PUSH2 0x50D JUMPI DUP1 PUSH4 0xF4CE57B5 EQ PUSH2 0x4EC JUMPI DUP1 PUSH4 0xF7EB7AC8 EQ PUSH2 0x4CB JUMPI DUP1 PUSH4 0xF99DEC4E EQ PUSH2 0x4AE JUMPI DUP1 PUSH4 0xF9B0B5B9 EQ PUSH2 0x490 JUMPI DUP1 PUSH4 0xFA52C7D8 EQ PUSH2 0x34B JUMPI PUSH4 0xFE0438B2 EQ PUSH2 0x30C JUMPI PUSH1 0x0 DUP1 REVERT JUMPDEST CALLVALUE PUSH2 0x346 JUMPI PUSH1 0x20 CALLDATASIZE PUSH1 0x3 NOT ADD SLT PUSH2 0x346 JUMPI PUSH1 0x1 PUSH1 0x1 PUSH1 0xA0 SHL SUB PUSH2 0x32D PUSH2 0x3C93 JUMP JUMPDEST AND PUSH1 0x0 MSTORE PUSH1 0x9 PUSH1 0x20 MSTORE PUSH1 0x20 PUSH1 0x40 PUSH1 0x0 KECCAK256 SLOAD PUSH1 0x40 MLOAD SWAP1 DUP2 MSTORE RETURN JUMPDEST PUSH1 0x0 DUP1 REVERT JUMPDEST CALLVALUE PUSH2 0x346 JUMPI PUSH1 0x20 CALLDATASIZE PUSH1 0x3 NOT ADD SLT PUSH2 0x346 JUMPI PUSH1 0x1 PUSH1 0x1 PUSH1 0xA0 SHL SUB DUP1 PUSH2 0x36D PUSH2 0x3C93 JUMP JUMPDEST AND PUSH1 0x0 MSTORE PUSH1 0x7 PUSH1 0x20 MSTORE PUSH1 0x40 PUSH1 0x0 KECCAK256 DUP1 DUP1 SWAP3 DUP2 SLOAD AND PUSH1 0x1 DUP3 ADD SLOAD PUSH2 0x320 MSTORE PUSH1 0x2 DUP3 ADD SLOAD PUSH1 0x3 DUP4 ADD SLOAD PUSH1 0x4 DUP5 ADD SLOAD PUSH1 0x5 DUP6 ADD SLOAD PUSH1 0x6 DUP7 ADD SLOAD PUSH1 0xFF AND PUSH1 0x7 DUP8 ADD SLOAD SWAP1 PUSH1 0x8 DUP9 ADD SLOAD SWAP3 PUSH1 0x9 DUP10 ADD SLOAD SWAP5 PUSH1 0xA DUP11 ADD SLOAD SWAP7 PUSH1 0xB DUP12 ADD SLOAD SWAP9 PUSH1 0xC DUP13 ADD SLOAD SWAP11 PUSH1 0xD DUP14 ADD SLOAD SWAP13 PUSH1 0xE ADD SLOAD SWAP14 PUSH1 0xF ADD SLOAD SWAP15 PUSH1 0x10 DUP2 ADD SLOAD PUSH2 0x1A0 MSTORE PUSH1 0x11 ADD SLOAD PUSH1 0xFF AND PUSH2 0x260 MSTORE PUSH1 0x40 MLOAD DUP1 PUSH1 0xC0 MSTORE MSTORE PUSH2 0x320 MLOAD PUSH1 0xC0 MLOAD PUSH1 0x20 ADD MSTORE PUSH1 0xC0 MLOAD PUSH1 0x40 ADD MSTORE PUSH1 0xC0 MLOAD PUSH1 0x60 ADD MSTORE PUSH1 0xC0 MLOAD PUSH1 0x80 ADD MSTORE PUSH1 0xC0 MLOAD PUSH1 0xA0 ADD MSTORE ISZERO ISZERO PUSH1 0xC0 MLOAD PUSH1 0xC0 ADD MSTORE PUSH1 0xC0 MLOAD PUSH1 0xE0 ADD MSTORE PUSH1 0xC0 MLOAD PUSH2 0x100 ADD MSTORE PUSH1 0xC0 MLOAD PUSH2 0x120 ADD MSTORE PUSH1 0xC0 MLOAD PUSH2 0x140 ADD MSTORE PUSH1 0xC0 MLOAD PUSH2 0x160 ADD MSTORE PUSH1 0xC0 MLOAD PUSH2 0x180 ADD MSTORE PUSH1 0xC0 MLOAD PUSH2 0x1A0 ADD MSTORE PUSH1 0xC0 MLOAD PUSH2 0x1C0 ADD MSTORE PUSH1 0xC0 MLOAD PUSH2 0x1E0 ADD MSTORE PUSH2 0x1A0 MLOAD PUSH1 0xC0 MLOAD PUSH2 0x200 ADD MSTORE PUSH2 0x260 MLOAD ISZERO ISZERO PUSH1 0xC0 MLOAD PUSH2 0x220 ADD MSTORE PUSH1 0xC0 MLOAD PUSH2 0x240 SWAP1 RETURN JUMPDEST CALLVALUE PUSH2 0x346 JUMPI PUSH1 0x0 CALLDATASIZE PUSH1 0x3 NOT ADD SLT PUSH2 0x346 JUMPI PUSH1 0x20 PUSH1 0x1E SLOAD PUSH1 0x40 MLOAD SWAP1 DUP2 MSTORE RETURN JUMPDEST CALLVALUE PUSH2 0x346 JUMPI PUSH1 0x0 CALLDATASIZE PUSH1 0x3 NOT ADD SLT PUSH2 0x346 JUMPI PUSH1 0x20 DUP1 SLOAD PUSH1 0x40 MLOAD SWAP1 DUP2 MSTORE RETURN JUMPDEST CALLVALUE PUSH2 0x346 JUMPI PUSH1 0x20 CALLDATASIZE PUSH1 0x3 NOT ADD SLT PUSH2 0x346 JUMPI PUSH2 0x4E4 PUSH2 0x3E31 JUMP JUMPDEST PUSH1 0x4 CALLDATALOAD PUSH1 0x17 SSTORE STOP JUMPDEST CALLVALUE PUSH2 0x346 JUMPI PUSH1 0x20 CALLDATASIZE PUSH1 0x3 NOT ADD SLT PUSH2 0x346 JUMPI PUSH2 0x505 PUSH2 0x3E31 JUMP JUMPDEST PUSH1 0x4 CALLDATALOAD PUSH1 0x14 SSTORE STOP JUMPDEST CALLVALUE PUSH2 0x346 JUMPI PUSH1 0x20 CALLDATASIZE PUSH1 0x3 NOT ADD SLT PUSH2 0x346 JUMPI PUSH2 0x526 PUSH2 0x3C93 JUMP JUMPDEST PUSH2 0x52E PUSH2 0x3E31 JUMP JUMPDEST PUSH1 0x1 PUSH1 0x1 PUSH1 0xA0 SHL SUB SWAP1 DUP2 AND SWAP1 DUP2 ISZERO PUSH2 0x57D JUMPI PUSH1 0x0 SLOAD DUP3 PUSH1 0x1 PUSH1 0x1 PUSH1 0x60 SHL SUB PUSH1 0xA0 SHL DUP3 AND OR PUSH1 0x0 SSTORE AND PUSH32 0x8BE0079C531659141344CD1FD0A4F28419497F9722A3DAAFE3B4186F6B6457E0 PUSH1 0x0 DUP1 LOG3 STOP JUMPDEST PUSH1 0x40 MLOAD PUSH4 0x1E4FBDF7 PUSH1 0xE0 SHL DUP2 MSTORE PUSH1 0x0 PUSH1 0x4 DUP3 ADD MSTORE PUSH1 0x24 SWAP1 REVERT JUMPDEST CALLVALUE PUSH2 0x346 JUMPI PUSH1 0x0 CALLDATASIZE PUSH1 0x3 NOT ADD SLT PUSH2 0x346 JUMPI PUSH1 0x20 PUSH1 0x30 SLOAD PUSH1 0x40 MLOAD SWAP1 DUP2 MSTORE RETURN JUMPDEST CALLVALUE PUSH2 0x346 JUMPI PUSH1 0x20 CALLDATASIZE PUSH1 0x3 NOT ADD SLT PUSH2 0x346 JUMPI PUSH1 0x4 DUP1 CALLDATALOAD PUSH1 0x0 SWAP1 DUP2 MSTORE PUSH1 0xB PUSH1 0x20 MSTORE PUSH1 0x40 SWAP1 KECCAK256 DUP1 SLOAD PUSH1 0x1 DUP3 ADD SLOAD PUSH2 0x2C0 MSTORE PUSH1 0x2 DUP3 ADD SLOAD PUSH2 0x2A0 MSTORE PUSH1 0x3 DUP3 ADD SLOAD PUSH1 0x1 PUSH1 0x1 PUSH1 0xA0 SHL SUB AND PUSH2 0x360 MSTORE SWAP2 PUSH2 0x609 SWAP1 DUP3 ADD PUSH2 0x3CF9 JUMP JUMPDEST SWAP2 PUSH1 0x5 DUP3 ADD SLOAD SWAP3 PUSH1 0x6 DUP4 ADD SLOAD PUSH1 0x7 DUP5 ADD SLOAD PUSH1 0x8 DUP6 ADD SLOAD PUSH1 0x9 DUP7 ADD SLOAD PUSH1 0xA DUP8 ADD SLOAD PUSH1 0xFF AND SWAP2 PUSH1 0xB DUP9 ADD SLOAD SWAP4 PUSH1 0xC DUP10 ADD SLOAD SWAP6 PUSH1 0xD DUP11 ADD SLOAD SWAP8 PUSH1 0xE DUP12 ADD SLOAD SWAP10 PUSH1 0xF DUP13 ADD SLOAD SWAP12 PUSH1 0x10 ADD SLOAD PUSH2 0x180 MSTORE PUSH1 0x40 MLOAD DUP1 PUSH1 0x80 MSTORE MSTORE PUSH2 0x2C0 MLOAD PUSH1 0x80 MLOAD PUSH1 0x20 ADD MSTORE PUSH2 0x2A0 MLOAD PUSH1 0x80 MLOAD PUSH1 0x40 ADD MSTORE PUSH2 0x360 MLOAD PUSH1 0x80 MLOAD PUSH1 0x60 ADD MSTORE PUSH2 0x220 DUP1 PUSH1 0x80 MLOAD PUSH1 0x80 ADD MSTORE PUSH1 0x80 MLOAD ADD PUSH2 0x694 SWAP2 PUSH2 0x3DC2 JUMP JUMPDEST SWAP11 PUSH1 0x80 MLOAD PUSH1 0xA0 ADD MSTORE PUSH1 0x80 MLOAD PUSH1 0xC0 ADD MSTORE PUSH1 0x80 MLOAD PUSH1 0xE0 ADD MSTORE PUSH1 0x80 MLOAD PUSH2 0x100 ADD MSTORE PUSH1 0x80 MLOAD PUSH2 0x120 ADD MSTORE ISZERO ISZERO PUSH1 0x80 MLOAD PUSH2 0x140 ADD MSTORE PUSH1 0x80 MLOAD PUSH2 0x160 ADD MSTORE PUSH1 0x80 MLOAD PUSH2 0x180 ADD MSTORE PUSH1 0x80 MLOAD PUSH2 0x1A0 ADD MSTORE PUSH1 0x80 MLOAD PUSH2 0x1C0 ADD MSTORE PUSH1 0x80 MLOAD PUSH2 0x1E0 ADD MSTORE PUSH2 0x180 MLOAD PUSH1 0x80 MLOAD PUSH2 0x200 ADD MSTORE PUSH1 0x80 MLOAD DUP1 SWAP2 SUB SWAP1 RETURN JUMPDEST CALLVALUE PUSH2 0x346 JUMPI PUSH1 0x20 DUP1 PUSH1 0x3 NOT CALLDATASIZE ADD SLT PUSH2 0x346 JUMPI PUSH1 0x4 CALLDATALOAD CALLER PUSH1 0x0 MSTORE PUSH1 0x4 DUP3 MSTORE PUSH1 0x40 PUSH1 0x0 KECCAK256 SLOAD DUP2 LT ISZERO PUSH2 0x95C JUMPI CALLER PUSH1 0x0 MSTORE PUSH1 0x4 DUP3 MSTORE PUSH1 0xFF PUSH1 0x6 PUSH2 0x745 DUP4 PUSH1 0x40 PUSH1 0x0 KECCAK256 PUSH2 0x3E15 JUMP JUMPDEST POP ADD SLOAD AND ISZERO PUSH2 0x922 JUMPI CALLER PUSH1 0x0 MSTORE PUSH1 0x4 DUP3 MSTORE PUSH2 0x764 DUP2 PUSH1 0x40 PUSH1 0x0 KECCAK256 PUSH2 0x3E15 JUMP JUMPDEST POP PUSH1 0x4 TIMESTAMP SWAP2 ADD SSTORE CALLER PUSH1 0x0 MSTORE PUSH1 0x4 DUP3 MSTORE PUSH1 0x6 PUSH2 0x783 DUP3 PUSH1 0x40 PUSH1 0x0 KECCAK256 PUSH2 0x3E15 JUMP JUMPDEST POP ADD PUSH1 0xFF NOT SWAP1 DUP2 DUP2 SLOAD AND SWAP1 SSTORE CALLER PUSH1 0x0 MSTORE PUSH1 0x4 DUP4 MSTORE PUSH1 0xA PUSH1 0xC PUSH2 0x7A9 DUP5 PUSH1 0x40 PUSH1 0x0 KECCAK256 PUSH2 0x3E15 JUMP JUMPDEST POP ADD SSTORE CALLER PUSH1 0x0 MSTORE PUSH1 0x4 DUP4 MSTORE PUSH2 0x7C2 DUP3 PUSH1 0x40 PUSH1 0x0 KECCAK256 PUSH2 0x3E15 JUMP JUMPDEST POP SWAP1 PUSH1 0x1 DUP1 SWAP3 ADD SWAP3 CALLER PUSH1 0x0 MSTORE PUSH1 0x4 DUP6 MSTORE PUSH1 0x2 PUSH2 0x7E2 DUP3 PUSH1 0x40 PUSH1 0x0 KECCAK256 PUSH2 0x3E15 JUMP JUMPDEST POP ADD SLOAD CALLER PUSH1 0x0 MSTORE PUSH1 0x9 DUP7 MSTORE PUSH1 0x40 PUSH1 0x0 KECCAK256 SLOAD SWAP1 PUSH1 0xC PUSH2 0x80B PUSH1 0x18 SLOAD SWAP5 PUSH1 0x4 DUP11 MSTORE PUSH1 0x40 PUSH1 0x0 KECCAK256 PUSH2 0x3E15 JUMP JUMPDEST POP ADD SLOAD SWAP4 PUSH1 0x40 MLOAD SWAP6 PUSH1 0xA0 DUP8 MSTORE PUSH1 0x0 SWAP8 DUP1 SLOAD PUSH2 0x825 DUP2 PUSH2 0x3CBF JUMP JUMPDEST SWAP4 DUP5 PUSH1 0xA0 DUP12 ADD MSTORE DUP4 DUP3 AND SWAP2 DUP3 PUSH1 0x0 EQ PUSH2 0x8E1 JUMPI POP POP PUSH1 0x1 EQ PUSH2 0x882 JUMPI JUMPDEST POP POP POP PUSH32 0x24692C01D14E1A496BF63B770EB1BEEBE2C6336FF154023C41A103A1AE728422 SWAP6 SWAP7 DUP6 ADD MSTORE PUSH1 0x40 DUP5 ADD MSTORE PUSH1 0x60 DUP4 ADD MSTORE PUSH1 0x80 DUP3 ADD MSTORE DUP1 CALLER SWAP4 SUB SWAP1 LOG2 STOP JUMPDEST SWAP1 SWAP8 POP PUSH1 0x0 MSTORE DUP8 PUSH1 0x0 KECCAK256 SWAP7 DUP9 PUSH1 0x0 SWAP9 JUMPDEST DUP4 DUP11 LT PUSH2 0x8CC JUMPI POP POP POP POP PUSH1 0xC0 PUSH32 0x24692C01D14E1A496BF63B770EB1BEEBE2C6336FF154023C41A103A1AE728422 SWAP7 DUP7 ADD ADD SWAP6 DUP9 DUP1 PUSH2 0x842 JUMP JUMPDEST DUP1 SLOAD DUP10 DUP12 ADD PUSH1 0xC0 ADD MSTORE SWAP9 ADD SWAP8 DUP10 SWAP1 DUP3 ADD PUSH2 0x892 JUMP JUMPDEST SWAP2 POP SWAP2 POP PUSH32 0x24692C01D14E1A496BF63B770EB1BEEBE2C6336FF154023C41A103A1AE728422 SWAP10 POP PUSH1 0xC0 SWAP4 SWAP3 POP AND DUP3 DUP9 ADD MSTORE ISZERO ISZERO PUSH1 0x5 SHL DUP7 ADD ADD SWAP6 DUP9 DUP1 PUSH2 0x842 JUMP JUMPDEST PUSH1 0x40 MLOAD PUSH3 0x461BCD PUSH1 0xE5 SHL DUP2 MSTORE PUSH1 0x4 DUP2 ADD DUP4 SWAP1 MSTORE PUSH1 0x12 PUSH1 0x24 DUP3 ADD MSTORE PUSH18 0x53657373696F6E206E6F7420616374697665 PUSH1 0x70 SHL PUSH1 0x44 DUP3 ADD MSTORE PUSH1 0x64 SWAP1 REVERT JUMPDEST PUSH1 0x40 MLOAD PUSH3 0x461BCD PUSH1 0xE5 SHL DUP2 MSTORE PUSH1 0x4 DUP2 ADD DUP4 SWAP1 MSTORE PUSH1 0x15 PUSH1 0x24 DUP3 ADD MSTORE PUSH21 0x92DCECC2D8D2C840E6CAE6E6D2DEDC40D2DCC8CAF PUSH1 0x5B SHL PUSH1 0x44 DUP3 ADD MSTORE PUSH1 0x64 SWAP1 REVERT JUMPDEST CALLVALUE PUSH2 0x346 JUMPI PUSH1 0x20 CALLDATASIZE PUSH1 0x3 NOT ADD SLT PUSH2 0x346 JUMPI PUSH2 0x9B2 PUSH2 0x3E31 JUMP JUMPDEST PUSH1 0x4 CALLDATALOAD PUSH1 0x36 SSTORE STOP JUMPDEST CALLVALUE PUSH2 0x346 JUMPI PUSH1 0x0 CALLDATASIZE PUSH1 0x3 NOT ADD SLT PUSH2 0x346 JUMPI PUSH1 0x20 PUSH1 0x13 SLOAD PUSH1 0x40 MLOAD SWAP1 DUP2 MSTORE RETURN JUMPDEST CALLVALUE PUSH2 0x346 JUMPI PUSH1 0x40 CALLDATASIZE PUSH1 0x3 NOT ADD SLT PUSH2 0x346 JUMPI PUSH1 0x4 CALLDATALOAD PUSH1 0x1 PUSH1 0x1 PUSH1 0x40 SHL SUB DUP2 GT PUSH2 0x346 JUMPI PUSH2 0xA08 SWAP1 CALLDATASIZE SWAP1 PUSH1 0x4 ADD PUSH2 0x3C4C JUMP JUMPDEST PUSH2 0xA33 PUSH1 0xFF PUSH1 0x40 MLOAD PUSH1 0x20 DUP2 DUP6 MLOAD PUSH2 0xA22 DUP2 DUP4 DUP6 DUP11 ADD PUSH2 0x3D9F JUMP JUMPDEST DUP2 ADD PUSH1 0x6 DUP2 MSTORE SUB ADD SWAP1 KECCAK256 SLOAD AND PUSH2 0x4109 JUMP JUMPDEST PUSH2 0xA43 PUSH1 0x14 SLOAD PUSH1 0x24 CALLDATALOAD GT ISZERO PUSH2 0x4155 JUMP JUMPDEST PUSH2 0xA4B PUSH2 0x41BA JUMP JUMPDEST SWAP1 CALLER PUSH1 0x0 MSTORE PUSH1 0x8 PUSH1 0x20 MSTORE PUSH1 0x40 PUSH1 0x0 KECCAK256 SLOAD SWAP1 PUSH2 0xA64 PUSH2 0x3EE7 JUMP JUMPDEST PUSH1 0x18 SLOAD SWAP4 PUSH2 0xA70 PUSH2 0x3FC9 JUMP JUMPDEST PUSH1 0x40 MLOAD SWAP6 PUSH2 0xA7D DUP8 PUSH2 0x3BD9 JUMP JUMPDEST CALLER DUP8 MSTORE DUP5 PUSH1 0x20 DUP9 ADD MSTORE PUSH1 0x24 CALLDATALOAD PUSH1 0x40 DUP9 ADD MSTORE TIMESTAMP PUSH1 0x60 DUP9 ADD MSTORE PUSH1 0x0 PUSH1 0x80 DUP9 ADD MSTORE PUSH1 0x0 PUSH1 0xA0 DUP9 ADD MSTORE PUSH1 0x1 PUSH1 0xC0 DUP9 ADD MSTORE DUP6 PUSH1 0xE0 DUP9 ADD MSTORE DUP3 PUSH2 0x100 DUP9 ADD MSTORE PUSH2 0x120 DUP8 ADD MSTORE DUP3 PUSH2 0x140 DUP8 ADD MSTORE PUSH2 0x160 DUP7 ADD MSTORE PUSH1 0x0 PUSH2 0x180 DUP7 ADD MSTORE PUSH1 0x1 PUSH2 0x1A0 DUP7 ADD MSTORE CALLER PUSH1 0x0 MSTORE PUSH1 0x4 PUSH1 0x20 MSTORE PUSH1 0x40 PUSH1 0x0 KECCAK256 DUP1 SLOAD PUSH1 0x1 PUSH1 0x40 SHL DUP2 LT ISZERO PUSH2 0xD74 JUMPI PUSH2 0xB04 SWAP2 PUSH1 0x1 DUP3 ADD DUP2 SSTORE PUSH2 0x3E15 JUMP JUMPDEST PUSH2 0xD8A JUMPI DUP6 MLOAD DUP2 SLOAD PUSH1 0x1 PUSH1 0x1 PUSH1 0xA0 SHL SUB NOT AND PUSH1 0x1 PUSH1 0x1 PUSH1 0xA0 SHL SUB SWAP2 SWAP1 SWAP2 AND OR DUP2 SSTORE PUSH1 0x20 DUP7 ADD MLOAD DUP1 MLOAD SWAP1 SWAP7 SWAP1 PUSH1 0x1 PUSH1 0x1 PUSH1 0x40 SHL SUB DUP2 GT PUSH2 0xD74 JUMPI PUSH2 0xB4A PUSH1 0x1 DUP5 ADD SLOAD PUSH2 0x3CBF JUMP JUMPDEST PUSH1 0x1F DUP2 GT PUSH2 0xD34 JUMPI JUMPDEST POP PUSH1 0x20 PUSH1 0x1F DUP3 GT PUSH1 0x1 EQ PUSH2 0xC99 JUMPI PUSH2 0xC50 SWAP4 SWAP3 DUP3 PUSH1 0xD SWAP4 PUSH2 0x1A0 SWAP4 PUSH32 0xEB087411F0284DE7D69B863B3CF3476D1359402FF42C8D65CFC995EA327D9F27 SWAP12 SWAP13 PUSH1 0x0 SWAP3 PUSH2 0xC8E JUMPI JUMPDEST POP POP DUP2 PUSH1 0x1 SHL SWAP2 PUSH1 0x0 NOT SWAP1 PUSH1 0x3 SHL SHR NOT AND OR PUSH1 0x1 DUP6 ADD SSTORE JUMPDEST PUSH1 0x40 DUP2 ADD MLOAD PUSH1 0x2 DUP6 ADD SSTORE PUSH1 0x60 DUP2 ADD MLOAD PUSH1 0x3 DUP6 ADD SSTORE PUSH1 0x80 DUP2 ADD MLOAD PUSH1 0x4 DUP6 ADD SSTORE PUSH1 0xA0 DUP2 ADD MLOAD PUSH1 0x5 DUP6 ADD SSTORE PUSH2 0xBF8 PUSH1 0xC0 DUP3 ADD MLOAD ISZERO ISZERO PUSH1 0x6 DUP7 ADD SWAP1 PUSH1 0xFF DUP1 NOT DUP4 SLOAD AND SWAP2 ISZERO ISZERO AND OR SWAP1 SSTORE JUMP JUMPDEST PUSH1 0xE0 DUP2 ADD MLOAD PUSH1 0x7 DUP6 ADD SSTORE PUSH2 0x100 DUP2 ADD MLOAD PUSH1 0x8 DUP6 ADD SSTORE PUSH2 0x120 DUP2 ADD MLOAD PUSH1 0x9 DUP6 ADD SSTORE PUSH2 0x140 DUP2 ADD MLOAD PUSH1 0xA DUP6 ADD SSTORE PUSH2 0x160 DUP2 ADD MLOAD PUSH1 0xB DUP6 ADD SSTORE PUSH2 0x180 DUP2 ADD MLOAD PUSH1 0xC DUP6 ADD SSTORE ADD MLOAD ISZERO ISZERO SWAP2 ADD SWAP1 PUSH1 0xFF DUP1 NOT DUP4 SLOAD AND SWAP2 ISZERO ISZERO AND OR SWAP1 SSTORE JUMP JUMPDEST PUSH1 0x18 SLOAD SWAP1 PUSH2 0xC69 PUSH1 0x40 MLOAD SWAP5 PUSH1 0xC0 DUP7 MSTORE PUSH1 0xC0 DUP7 ADD SWAP1 PUSH2 0x3DC2 JUMP JUMPDEST SWAP6 PUSH1 0x24 CALLDATALOAD PUSH1 0x20 DUP7 ADD MSTORE PUSH1 0x40 DUP6 ADD MSTORE PUSH1 0x60 DUP5 ADD MSTORE PUSH1 0x80 DUP4 ADD MSTORE PUSH1 0xA0 DUP3 ADD MSTORE DUP1 CALLER SWAP4 SUB SWAP1 LOG2 STOP JUMPDEST ADD MLOAD SWAP1 POP DUP13 DUP1 PUSH2 0xB99 JUMP JUMPDEST PUSH1 0x1 DUP5 ADD PUSH1 0x0 MSTORE PUSH1 0x20 PUSH1 0x0 KECCAK256 SWAP9 PUSH1 0x0 JUMPDEST PUSH1 0x1F NOT DUP5 AND DUP2 LT PUSH2 0xD1C JUMPI POP SWAP3 PUSH1 0x1 DUP4 PUSH32 0xEB087411F0284DE7D69B863B3CF3476D1359402FF42C8D65CFC995EA327D9F27 SWAP11 SWAP12 PUSH2 0x1A0 SWAP5 PUSH2 0xC50 SWAP9 SWAP8 PUSH1 0xD SWAP8 PUSH1 0x1F NOT DUP2 AND LT PUSH2 0xD03 JUMPI JUMPDEST POP POP POP DUP2 SHL ADD PUSH1 0x1 DUP6 ADD SSTORE PUSH2 0xBB1 JUMP JUMPDEST ADD MLOAD PUSH1 0x0 NOT PUSH1 0xF8 DUP5 PUSH1 0x3 SHL AND SHR NOT AND SWAP1 SSTORE DUP13 DUP1 DUP1 PUSH2 0xCF3 JUMP JUMPDEST DUP3 DUP3 ADD MLOAD DUP12 SSTORE PUSH1 0x1 SWAP1 SWAP11 ADD SWAP10 PUSH1 0x20 SWAP3 DUP4 ADD SWAP3 ADD PUSH2 0xCA9 JUMP JUMPDEST PUSH2 0xD64 SWAP1 PUSH1 0x1 DUP6 ADD PUSH1 0x0 MSTORE PUSH1 0x20 PUSH1 0x0 KECCAK256 PUSH1 0x1F DUP5 ADD PUSH1 0x5 SHR DUP2 ADD SWAP2 PUSH1 0x20 DUP6 LT PUSH2 0xD6A JUMPI JUMPDEST PUSH1 0x1F ADD PUSH1 0x5 SHR ADD SWAP1 PUSH2 0x3E6C JUMP JUMPDEST DUP9 PUSH2 0xB53 JUMP JUMPDEST SWAP1 SWAP2 POP DUP2 SWAP1 PUSH2 0xD57 JUMP JUMPDEST PUSH4 0x4E487B71 PUSH1 0xE0 SHL PUSH1 0x0 MSTORE PUSH1 0x41 PUSH1 0x4 MSTORE PUSH1 0x24 PUSH1 0x0 REVERT JUMPDEST PUSH4 0x4E487B71 PUSH1 0xE0 SHL PUSH1 0x0 MSTORE PUSH1 0x0 PUSH1 0x4 MSTORE PUSH1 0x24 PUSH1 0x0 REVERT JUMPDEST CALLVALUE PUSH2 0x346 JUMPI PUSH1 0x0 CALLDATASIZE PUSH1 0x3 NOT ADD SLT PUSH2 0x346 JUMPI PUSH1 0x20 PUSH1 0x19 SLOAD PUSH1 0x40 MLOAD SWAP1 DUP2 MSTORE RETURN JUMPDEST CALLVALUE PUSH2 0x346 JUMPI PUSH1 0x20 CALLDATASIZE PUSH1 0x3 NOT ADD SLT PUSH2 0x346 JUMPI PUSH1 0x4 CALLDATALOAD PUSH1 0x1 PUSH1 0x1 PUSH1 0x40 SHL SUB DUP2 GT PUSH2 0x346 JUMPI PUSH1 0x20 PUSH2 0xDF3 PUSH2 0xE0E SWAP3 CALLDATASIZE SWAP1 PUSH1 0x4 ADD PUSH2 0x3C4C JUMP JUMPDEST PUSH2 0xDFB PUSH2 0x3E31 JUMP JUMPDEST DUP2 PUSH1 0x40 MLOAD SWAP4 DUP3 DUP6 DUP1 SWAP5 MLOAD SWAP4 DUP5 SWAP3 ADD PUSH2 0x3D9F JUMP JUMPDEST PUSH1 0x6 SWAP1 DUP3 ADD SWAP1 DUP2 MSTORE SUB ADD SWAP1 KECCAK256 DUP1 SLOAD PUSH1 0xFF NOT AND SWAP1 SSTORE STOP JUMPDEST CALLVALUE PUSH2 0x346 JUMPI PUSH1 0x0 CALLDATASIZE PUSH1 0x3 NOT ADD SLT PUSH2 0x346 JUMPI CALLER PUSH1 0x0 MSTORE PUSH1 0x8 PUSH1 0x20 MSTORE PUSH1 0x40 PUSH1 0x0 KECCAK256 SLOAD PUSH1 0x20 SLOAD GT PUSH2 0x10C0 JUMPI CALLER PUSH1 0x0 MSTORE PUSH1 0x7 PUSH1 0x20 MSTORE PUSH1 0xFF PUSH1 0x6 PUSH1 0x40 PUSH1 0x0 KECCAK256 ADD SLOAD AND PUSH2 0x107B JUMPI CALLER PUSH1 0x0 MSTORE PUSH1 0x8 PUSH1 0x20 MSTORE PUSH1 0x40 PUSH1 0x0 KECCAK256 SLOAD PUSH1 0x9 PUSH1 0x20 MSTORE PUSH1 0x40 PUSH1 0x0 KECCAK256 SLOAD PUSH1 0x40 MLOAD SWAP1 PUSH2 0x240 DUP3 ADD SWAP3 DUP3 DUP5 LT PUSH1 0x1 PUSH1 0x1 PUSH1 0x40 SHL SUB DUP6 GT OR PUSH2 0xD74 JUMPI PUSH2 0x1024 SWAP4 PUSH1 0x40 MSTORE CALLER DUP4 MSTORE PUSH1 0x20 DUP4 ADD MSTORE DUP1 PUSH1 0x40 DUP4 ADD MSTORE PUSH1 0x0 PUSH1 0x60 DUP4 ADD MSTORE PUSH1 0x0 PUSH1 0x80 DUP4 ADD MSTORE PUSH1 0x0 PUSH1 0xA0 DUP4 ADD MSTORE PUSH1 0x1 PUSH1 0xC0 DUP4 ADD MSTORE TIMESTAMP PUSH1 0xE0 DUP4 ADD MSTORE PUSH2 0x100 DUP3 ADD MSTORE PUSH1 0x0 PUSH2 0x120 DUP3 ADD MSTORE PUSH1 0x0 PUSH2 0x140 DUP3 ADD MSTORE PUSH1 0x0 PUSH2 0x160 DUP3 ADD MSTORE PUSH1 0x0 PUSH2 0x180 DUP3 ADD MSTORE PUSH1 0x0 PUSH2 0x1A0 DUP3 ADD MSTORE PUSH1 0x0 PUSH2 0x1C0 DUP3 ADD MSTORE PUSH1 0x0 PUSH2 0x1E0 DUP3 ADD MSTORE PUSH1 0x0 PUSH2 0x200 DUP3 ADD MSTORE PUSH1 0x1 PUSH2 0x220 DUP3 ADD MSTORE CALLER PUSH1 0x0 MSTORE PUSH1 0x7 PUSH1 0x20 MSTORE PUSH1 0x11 PUSH2 0x220 PUSH1 0x40 PUSH1 0x0 KECCAK256 SWAP3 PUSH1 0x1 DUP1 PUSH1 0xA0 SHL SUB DUP2 MLOAD AND PUSH1 0x1 PUSH1 0x1 PUSH1 0x60 SHL SUB PUSH1 0xA0 SHL DUP6 SLOAD AND OR DUP5 SSTORE PUSH1 0x20 DUP2 ADD MLOAD PUSH1 0x1 DUP6 ADD SSTORE PUSH1 0x40 DUP2 ADD MLOAD PUSH1 0x2 DUP6 ADD SSTORE PUSH1 0x60 DUP2 ADD MLOAD PUSH1 0x3 DUP6 ADD SSTORE PUSH1 0x80 DUP2 ADD MLOAD PUSH1 0x4 DUP6 ADD SSTORE PUSH1 0xA0 DUP2 ADD MLOAD PUSH1 0x5 DUP6 ADD SSTORE PUSH2 0xFA0 PUSH1 0xC0 DUP3 ADD MLOAD ISZERO ISZERO PUSH1 0x6 DUP7 ADD SWAP1 PUSH1 0xFF DUP1 NOT DUP4 SLOAD AND SWAP2 ISZERO ISZERO AND OR SWAP1 SSTORE JUMP JUMPDEST PUSH1 0xE0 DUP2 ADD MLOAD PUSH1 0x7 DUP6 ADD SSTORE PUSH2 0x100 DUP2 ADD MLOAD PUSH1 0x8 DUP6 ADD SSTORE PUSH2 0x120 DUP2 ADD MLOAD PUSH1 0x9 DUP6 ADD SSTORE PUSH2 0x140 DUP2 ADD MLOAD PUSH1 0xA DUP6 ADD SSTORE PUSH2 0x160 DUP2 ADD MLOAD PUSH1 0xB DUP6 ADD SSTORE PUSH2 0x180 DUP2 ADD MLOAD PUSH1 0xC DUP6 ADD SSTORE PUSH2 0x1A0 DUP2 ADD MLOAD PUSH1 0xD DUP6 ADD SSTORE PUSH2 0x1C0 DUP2 ADD MLOAD PUSH1 0xE DUP6 ADD SSTORE PUSH2 0x1E0 DUP2 ADD MLOAD PUSH1 0xF DUP6 ADD SSTORE PUSH2 0x200 DUP2 ADD MLOAD PUSH1 0x10 DUP6 ADD SSTORE ADD MLOAD ISZERO ISZERO SWAP2 ADD SWAP1 PUSH1 0xFF DUP1 NOT DUP4 SLOAD AND SWAP2 ISZERO ISZERO AND OR SWAP1 SSTORE JUMP JUMPDEST PUSH1 0x8 PUSH1 0x20 MSTORE PUSH1 0x40 PUSH1 0x0 KECCAK256 SLOAD PUSH1 0x9 PUSH1 0x20 MSTORE PUSH1 0x40 PUSH1 0x0 KECCAK256 SLOAD PUSH1 0x40 MLOAD SWAP2 DUP3 MSTORE PUSH1 0x20 DUP3 ADD MSTORE PUSH1 0x0 PUSH1 0x40 DUP3 ADD MSTORE PUSH1 0x1 PUSH1 0x60 DUP3 ADD MSTORE PUSH32 0x438B591BACB7157BAC1E3102C2515385B22F2FD1560551BDE3925EE48D97C7AC PUSH1 0x80 CALLER SWAP3 LOG2 STOP JUMPDEST PUSH1 0x40 MLOAD PUSH3 0x461BCD PUSH1 0xE5 SHL DUP2 MSTORE PUSH1 0x20 PUSH1 0x4 DUP3 ADD MSTORE PUSH1 0x1F PUSH1 0x24 DUP3 ADD MSTORE PUSH32 0x416C726561647920726567697374657265642061732076616C696461746F7200 PUSH1 0x44 DUP3 ADD MSTORE PUSH1 0x64 SWAP1 REVERT JUMPDEST PUSH1 0x64 PUSH1 0x40 MLOAD PUSH3 0x461BCD PUSH1 0xE5 SHL DUP2 MSTORE PUSH1 0x20 PUSH1 0x4 DUP3 ADD MSTORE PUSH1 0x20 PUSH1 0x24 DUP3 ADD MSTORE PUSH32 0x496E73756666696369656E74207374616B6520666F722076616C696461746F72 PUSH1 0x44 DUP3 ADD MSTORE REVERT JUMPDEST CALLVALUE PUSH2 0x346 JUMPI PUSH1 0x0 CALLDATASIZE PUSH1 0x3 NOT ADD SLT PUSH2 0x346 JUMPI PUSH1 0x20 PUSH1 0x1F SLOAD PUSH1 0x40 MLOAD SWAP1 DUP2 MSTORE RETURN JUMPDEST CALLVALUE PUSH2 0x346 JUMPI PUSH1 0x20 CALLDATASIZE PUSH1 0x3 NOT ADD SLT PUSH2 0x346 JUMPI PUSH1 0x4 CALLDATALOAD PUSH1 0x0 MSTORE PUSH1 0x11 PUSH1 0x20 MSTORE PUSH1 0x20 PUSH1 0x40 PUSH1 0x0 KECCAK256 SLOAD PUSH1 0x40 MLOAD SWAP1 DUP2 MSTORE RETURN JUMPDEST CALLVALUE PUSH2 0x346 JUMPI PUSH1 0x40 CALLDATASIZE PUSH1 0x3 NOT ADD SLT PUSH2 0x346 JUMPI PUSH2 0x1167 PUSH2 0x3C93 JUMP JUMPDEST PUSH1 0x1 PUSH1 0x1 PUSH1 0xA0 SHL SUB SWAP1 DUP2 AND PUSH1 0x0 SWAP1 DUP2 MSTORE PUSH1 0x4 PUSH1 0x20 MSTORE PUSH1 0x40 SWAP1 KECCAK256 DUP1 SLOAD PUSH1 0x24 CALLDATALOAD SWAP1 DUP2 LT ISZERO PUSH2 0x346 JUMPI PUSH2 0x1196 SWAP2 PUSH2 0x3E15 JUMP JUMPDEST POP SWAP1 DUP2 SLOAD AND PUSH1 0x1 DUP3 ADD PUSH2 0x11A8 SWAP1 PUSH2 0x3CF9 JUMP JUMPDEST SWAP1 PUSH1 0x2 DUP4 ADD SLOAD SWAP3 PUSH1 0x3 DUP2 ADD SLOAD SWAP1 PUSH1 0x4 DUP2 ADD SLOAD PUSH1 0x5 DUP3 ADD SLOAD PUSH1 0x6 DUP4 ADD SLOAD PUSH1 0xFF AND PUSH1 0x7 DUP5 ADD SLOAD PUSH1 0x8 DUP6 ADD SLOAD SWAP1 PUSH1 0x9 DUP7 ADD SLOAD SWAP3 PUSH1 0xA DUP8 ADD SLOAD SWAP5 PUSH1 0xB DUP9 ADD SLOAD SWAP7 PUSH1 0xC DUP10 ADD SLOAD SWAP9 PUSH1 0xD ADD SLOAD PUSH1 0xFF AND SWAP10 PUSH1 0x40 MLOAD SWAP14 DUP15 SWAP14 DUP15 SWAP14 DUP15 MSTORE DUP14 PUSH2 0x1C0 SWAP1 DUP2 PUSH1 0x20 DUP3 ADD MSTORE ADD PUSH2 0x1211 SWAP2 PUSH2 0x3DC2 JUMP JUMPDEST SWAP13 PUSH1 0x40 ADD MSTORE PUSH1 0x60 DUP14 ADD MSTORE PUSH1 0x80 DUP13 ADD MSTORE PUSH1 0xA0 DUP12 ADD MSTORE ISZERO ISZERO PUSH1 0xC0 DUP11 ADD MSTORE PUSH1 0xE0 DUP10 ADD MSTORE PUSH2 0x100 DUP9 ADD MSTORE PUSH2 0x120 DUP8 ADD MSTORE PUSH2 0x140 DUP7 ADD MSTORE PUSH2 0x160 DUP6 ADD MSTORE PUSH2 0x180 DUP5 ADD MSTORE ISZERO ISZERO PUSH2 0x1A0 DUP4 ADD MSTORE SUB SWAP1 RETURN JUMPDEST CALLVALUE PUSH2 0x346 JUMPI PUSH1 0x40 CALLDATASIZE PUSH1 0x3 NOT ADD SLT PUSH2 0x346 JUMPI PUSH2 0x1274 PUSH2 0x3CA9 JUMP JUMPDEST PUSH1 0x4 CALLDATALOAD PUSH1 0x0 MSTORE PUSH1 0xC PUSH1 0x20 MSTORE PUSH1 0x40 PUSH1 0x0 KECCAK256 SWAP1 PUSH1 0x1 DUP1 PUSH1 0xA0 SHL SUB AND PUSH1 0x0 MSTORE PUSH1 0x20 MSTORE PUSH1 0x20 PUSH1 0xFF PUSH1 0x40 PUSH1 0x0 KECCAK256 SLOAD AND PUSH1 0x40 MLOAD SWAP1 ISZERO ISZERO DUP2 MSTORE RETURN JUMPDEST CALLVALUE PUSH2 0x346 JUMPI PUSH1 0x0 CALLDATASIZE PUSH1 0x3 NOT ADD SLT PUSH2 0x346 JUMPI PUSH1 0x20 PUSH1 0x33 SLOAD PUSH1 0x40 MLOAD SWAP1 DUP2 MSTORE RETURN JUMPDEST CALLVALUE PUSH2 0x346 JUMPI PUSH1 0x40 CALLDATASIZE PUSH1 0x3 NOT ADD SLT PUSH2 0x346 JUMPI PUSH2 0x12DF PUSH2 0x3CA9 JUMP JUMPDEST PUSH1 0x4 CALLDATALOAD PUSH1 0x0 MSTORE PUSH1 0xD PUSH1 0x20 MSTORE PUSH1 0x40 PUSH1 0x0 KECCAK256 SWAP1 PUSH1 0x1 DUP1 PUSH1 0xA0 SHL SUB AND PUSH1 0x0 MSTORE PUSH1 0x20 MSTORE PUSH1 0x40 PUSH1 0x0 KECCAK256 PUSH1 0xFF DUP2 SLOAD AND PUSH2 0x1314 PUSH1 0x1 DUP4 ADD PUSH2 0x3CF9 JUMP JUMPDEST SWAP2 PUSH1 0x2 DUP2 ADD SLOAD SWAP1 PUSH1 0x3 DUP2 ADD SLOAD SWAP1 PUSH1 0xFF PUSH1 0x4 DUP3 ADD SLOAD AND PUSH1 0x5 DUP3 ADD SLOAD PUSH1 0x6 DUP4 ADD SLOAD SWAP2 PUSH1 0x8 PUSH1 0x7 DUP6 ADD SLOAD SWAP5 ADD SLOAD SWAP5 PUSH2 0x135D PUSH1 0x40 MLOAD SWAP10 DUP11 SWAP10 ISZERO ISZERO DUP11 MSTORE PUSH2 0x120 DUP1 PUSH1 0x20 DUP13 ADD MSTORE DUP11 ADD SWAP1 PUSH2 0x3DC2 JUMP JUMPDEST SWAP7 PUSH1 0x40 DUP10 ADD MSTORE PUSH1 0x60 DUP9 ADD MSTORE ISZERO ISZERO PUSH1 0x80 DUP8 ADD MSTORE PUSH1 0xA0 DUP7 ADD MSTORE PUSH1 0xC0 DUP6 ADD MSTORE PUSH1 0xE0 DUP5 ADD MSTORE PUSH2 0x100 DUP4 ADD MSTORE SUB SWAP1 RETURN JUMPDEST CALLVALUE PUSH2 0x346 JUMPI PUSH1 0x40 CALLDATASIZE PUSH1 0x3 NOT ADD SLT PUSH2 0x346 JUMPI PUSH2 0x13A1 PUSH2 0x3C93 JUMP JUMPDEST PUSH1 0x1 PUSH1 0x1 PUSH1 0xA0 SHL SUB AND PUSH1 0x0 SWAP1 DUP2 MSTORE PUSH1 0xA PUSH1 0x20 MSTORE PUSH1 0x40 SWAP1 KECCAK256 DUP1 SLOAD PUSH1 0x24 CALLDATALOAD SWAP2 SWAP1 DUP3 LT ISZERO PUSH2 0x346 JUMPI PUSH1 0x20 SWAP2 PUSH2 0x13D2 SWAP2 PUSH2 0x3DE7 JUMP JUMPDEST SWAP1 SLOAD PUSH1 0x40 MLOAD SWAP2 PUSH1 0x3 SHL SHR DUP2 MSTORE RETURN JUMPDEST CALLVALUE PUSH2 0x346 JUMPI PUSH1 0x0 CALLDATASIZE PUSH1 0x3 NOT ADD SLT PUSH2 0x346 JUMPI PUSH1 0x20 PUSH1 0x35 SLOAD PUSH1 0x40 MLOAD SWAP1 DUP2 MSTORE RETURN JUMPDEST CALLVALUE PUSH2 0x346 JUMPI PUSH1 0x20 CALLDATASIZE PUSH1 0x3 NOT ADD SLT PUSH2 0x346 JUMPI PUSH1 0x1 PUSH1 0x1 PUSH1 0xA0 SHL SUB PUSH2 0x141F PUSH2 0x3C93 JUMP JUMPDEST AND PUSH1 0x0 MSTORE PUSH1 0x5 PUSH1 0x20 MSTORE PUSH1 0x20 PUSH1 0x40 PUSH1 0x0 KECCAK256 SLOAD PUSH1 0x40 MLOAD SWAP1 DUP2 MSTORE RETURN JUMPDEST CALLVALUE PUSH2 0x346 JUMPI PUSH1 0x20 DUP1 PUSH1 0x3 NOT CALLDATASIZE ADD SLT PUSH2 0x346 JUMPI PUSH1 0x1 PUSH1 0x1 PUSH1 0xA0 SHL SUB SWAP1 DUP2 PUSH2 0x145C PUSH2 0x3C93 JUMP JUMPDEST AND PUSH1 0x0 MSTORE PUSH1 0x4 DUP2 MSTORE PUSH1 0x40 PUSH1 0x0 KECCAK256 DUP1 SLOAD SWAP2 PUSH2 0x1475 DUP4 PUSH2 0x4247 JUMP JUMPDEST SWAP3 PUSH2 0x1483 PUSH1 0x40 MLOAD SWAP5 DUP6 PUSH2 0x3C10 JUMP JUMPDEST DUP1 DUP5 MSTORE DUP2 DUP5 ADD DUP1 SWAP4 PUSH1 0x0 MSTORE DUP3 PUSH1 0x0 KECCAK256 PUSH1 0x0 SWAP2 JUMPDEST DUP4 DUP4 LT PUSH2 0x1597 JUMPI POP POP POP POP PUSH1 0x40 MLOAD SWAP3 DUP2 DUP5 ADD SWAP1 DUP3 DUP6 MSTORE MLOAD DUP1 SWAP2 MSTORE PUSH1 0x40 DUP5 ADD SWAP2 PUSH1 0x40 DUP3 PUSH1 0x5 SHL DUP7 ADD ADD SWAP4 SWAP3 PUSH1 0x0 SWAP7 JUMPDEST DUP4 DUP9 LT PUSH2 0x14D1 JUMPI DUP7 DUP7 SUB DUP8 RETURN JUMPDEST SWAP1 SWAP2 SWAP3 SWAP4 SWAP5 DUP4 DUP1 PUSH1 0x1 SWAP3 PUSH1 0x3F NOT DUP11 DUP3 SUB ADD DUP7 MSTORE DUP9 MLOAD SWAP1 DUP6 DUP3 MLOAD AND DUP2 MSTORE PUSH2 0x1504 DUP4 DUP4 ADD MLOAD PUSH2 0x1C0 DUP1 DUP7 DUP6 ADD MSTORE DUP4 ADD SWAP1 PUSH2 0x3DC2 JUMP JUMPDEST SWAP2 PUSH1 0x40 DUP2 ADD MLOAD PUSH1 0x40 DUP4 ADD MSTORE PUSH1 0x60 DUP1 DUP3 ADD MLOAD SWAP1 DUP4 ADD MSTORE PUSH1 0x80 DUP1 DUP3 ADD MLOAD SWAP1 DUP4 ADD MSTORE PUSH1 0xA0 DUP1 DUP3 ADD MLOAD SWAP1 DUP4 ADD MSTORE PUSH1 0xC0 DUP1 DUP3 ADD MLOAD ISZERO ISZERO SWAP1 DUP4 ADD MSTORE PUSH1 0xE0 DUP2 ADD MLOAD PUSH1 0xE0 DUP4 ADD MSTORE PUSH2 0x100 DUP1 DUP3 ADD MLOAD SWAP1 DUP4 ADD MSTORE PUSH2 0x120 DUP1 DUP3 ADD MLOAD SWAP1 DUP4 ADD MSTORE PUSH2 0x140 DUP1 DUP3 ADD MLOAD SWAP1 DUP4 ADD MSTORE PUSH2 0x160 DUP1 DUP3 ADD MLOAD SWAP1 DUP4 ADD MSTORE PUSH2 0x180 DUP1 DUP3 ADD MLOAD SWAP1 DUP4 ADD MSTORE PUSH2 0x1A0 DUP1 SWAP2 ADD MLOAD ISZERO ISZERO SWAP2 ADD MSTORE SWAP8 ADD SWAP4 ADD SWAP8 ADD SWAP7 SWAP1 SWAP4 SWAP3 SWAP2 SWAP4 PUSH2 0x14C4 JUMP JUMPDEST PUSH1 0xE DUP6 PUSH1 0x1 SWAP3 PUSH1 0x40 SWAP10 SWAP8 SWAP10 MLOAD PUSH2 0x15AC DUP2 PUSH2 0x3BD9 JUMP JUMPDEST DUP12 DUP7 SLOAD AND DUP2 MSTORE PUSH2 0x15BD DUP6 DUP8 ADD PUSH2 0x3CF9 JUMP JUMPDEST DUP4 DUP3 ADD MSTORE PUSH1 0x2 DUP7 ADD SLOAD PUSH1 0x40 DUP3 ADD MSTORE PUSH1 0x3 DUP7 ADD SLOAD PUSH1 0x60 DUP3 ADD MSTORE PUSH1 0x4 DUP7 ADD SLOAD PUSH1 0x80 DUP3 ADD MSTORE PUSH1 0x5 DUP7 ADD SLOAD PUSH1 0xA0 DUP3 ADD MSTORE PUSH1 0xFF DUP1 PUSH1 0x6 DUP9 ADD SLOAD AND ISZERO ISZERO PUSH1 0xC0 DUP4 ADD MSTORE PUSH1 0x7 DUP8 ADD SLOAD PUSH1 0xE0 DUP4 ADD MSTORE PUSH1 0x8 DUP8 ADD SLOAD PUSH2 0x100 DUP4 ADD MSTORE PUSH1 0x9 DUP8 ADD SLOAD PUSH2 0x120 DUP4 ADD MSTORE PUSH1 0xA DUP8 ADD SLOAD PUSH2 0x140 DUP4 ADD MSTORE PUSH1 0xB DUP8 ADD SLOAD PUSH2 0x160 DUP4 ADD MSTORE PUSH1 0xC DUP8 ADD SLOAD PUSH2 0x180 DUP4 ADD MSTORE PUSH1 0xD DUP8 ADD SLOAD AND ISZERO ISZERO PUSH2 0x1A0 DUP3 ADD MSTORE DUP2 MSTORE ADD SWAP3 ADD SWAP3 ADD SWAP2 SWAP1 SWAP6 SWAP4 SWAP6 PUSH2 0x1496 JUMP JUMPDEST CALLVALUE PUSH2 0x346 JUMPI PUSH1 0x20 CALLDATASIZE PUSH1 0x3 NOT ADD SLT PUSH2 0x346 JUMPI PUSH1 0x4 CALLDATALOAD PUSH1 0x0 MSTORE PUSH1 0xE PUSH1 0x20 MSTORE PUSH1 0x20 PUSH1 0x40 PUSH1 0x0 KECCAK256 SLOAD PUSH1 0x40 MLOAD SWAP1 DUP2 MSTORE RETURN JUMPDEST CALLVALUE PUSH2 0x346 JUMPI PUSH1 0x20 CALLDATASIZE PUSH1 0x3 NOT ADD SLT PUSH2 0x346 JUMPI PUSH2 0x169E PUSH2 0x3E31 JUMP JUMPDEST PUSH1 0x4 CALLDATALOAD PUSH1 0x33 SSTORE STOP JUMPDEST CALLVALUE PUSH2 0x346 JUMPI PUSH1 0x0 CALLDATASIZE PUSH1 0x3 NOT ADD SLT PUSH2 0x346 JUMPI PUSH1 0x20 PUSH1 0x14 SLOAD PUSH1 0x40 MLOAD SWAP1 DUP2 MSTORE RETURN JUMPDEST CALLVALUE PUSH2 0x346 JUMPI PUSH1 0x0 CALLDATASIZE PUSH1 0x3 NOT ADD SLT PUSH2 0x346 JUMPI PUSH1 0x20 PUSH1 0x1D SLOAD PUSH1 0x40 MLOAD SWAP1 DUP2 MSTORE RETURN JUMPDEST CALLVALUE PUSH2 0x346 JUMPI PUSH1 0x0 CALLDATASIZE PUSH1 0x3 NOT ADD SLT PUSH2 0x346 JUMPI PUSH1 0x20 PUSH1 0x2F SLOAD PUSH1 0x40 MLOAD SWAP1 DUP2 MSTORE RETURN JUMPDEST CALLVALUE PUSH2 0x346 JUMPI PUSH1 0x20 CALLDATASIZE PUSH1 0x3 NOT ADD SLT PUSH2 0x346 JUMPI PUSH1 0x4 CALLDATALOAD PUSH1 0x1 PUSH1 0x1 PUSH1 0x40 SHL SUB DUP2 GT PUSH2 0x346 JUMPI PUSH2 0x1730 SWAP1 CALLDATASIZE SWAP1 PUSH1 0x4 ADD PUSH2 0x3C4C JUMP JUMPDEST POP PUSH1 0x20 PUSH2 0x173B PUSH2 0x41BA JUMP JUMPDEST PUSH1 0x40 MLOAD SWAP1 DUP2 MSTORE RETURN JUMPDEST CALLVALUE PUSH2 0x346 JUMPI PUSH1 0x0 CALLDATASIZE PUSH1 0x3 NOT ADD SLT PUSH2 0x346 JUMPI PUSH1 0x0 SLOAD PUSH1 0x40 MLOAD PUSH1 0x1 PUSH1 0x1 PUSH1 0xA0 SHL SUB SWAP1 SWAP2 AND DUP2 MSTORE PUSH1 0x20 SWAP1 RETURN JUMPDEST CALLVALUE PUSH2 0x346 JUMPI PUSH1 0x20 CALLDATASIZE PUSH1 0x3 NOT ADD SLT PUSH2 0x346 JUMPI PUSH1 0x4 CALLDATALOAD PUSH1 0x1 PUSH1 0x1 PUSH1 0x40 SHL SUB DUP2 GT PUSH2 0x346 JUMPI PUSH1 0xFF PUSH2 0x17A4 PUSH1 0x20 PUSH2 0xDFB DUP2 SWAP5 CALLDATASIZE SWAP1 PUSH1 0x4 ADD PUSH2 0x3C4C JUMP JUMPDEST DUP2 ADD PUSH1 0x6 DUP2 MSTORE SUB ADD SWAP1 KECCAK256 SLOAD AND PUSH1 0x40 MLOAD SWAP1 ISZERO ISZERO DUP2 MSTORE RETURN JUMPDEST CALLVALUE PUSH2 0x346 JUMPI PUSH1 0x0 CALLDATASIZE PUSH1 0x3 NOT ADD SLT PUSH2 0x346 JUMPI PUSH1 0x20 PUSH1 0x1C SLOAD PUSH1 0x40 MLOAD SWAP1 DUP2 MSTORE RETURN JUMPDEST CALLVALUE PUSH2 0x346 JUMPI PUSH1 0x20 CALLDATASIZE PUSH1 0x3 NOT ADD SLT PUSH2 0x346 JUMPI PUSH1 0x4 CALLDATALOAD PUSH1 0x0 MSTORE PUSH1 0xF PUSH1 0x20 MSTORE PUSH1 0x20 PUSH1 0x40 PUSH1 0x0 KECCAK256 SLOAD PUSH1 0x40 MLOAD SWAP1 DUP2 MSTORE RETURN JUMPDEST CALLVALUE PUSH2 0x346 JUMPI PUSH1 0x20 CALLDATASIZE PUSH1 0x3 NOT ADD SLT PUSH2 0x346 JUMPI PUSH2 0x181D PUSH2 0x3E31 JUMP JUMPDEST PUSH1 0x4 CALLDATALOAD PUSH1 0x32 SSTORE STOP JUMPDEST CALLVALUE PUSH2 0x346 JUMPI PUSH1 0x0 CALLDATASIZE PUSH1 0x3 NOT ADD SLT PUSH2 0x346 JUMPI PUSH1 0x20 PUSH1 0x1A SLOAD PUSH1 0x40 MLOAD SWAP1 DUP2 MSTORE RETURN JUMPDEST CALLVALUE PUSH2 0x346 JUMPI PUSH1 0x0 CALLDATASIZE PUSH1 0x3 NOT ADD SLT PUSH2 0x346 JUMPI PUSH1 0x20 PUSH1 0x2E SLOAD PUSH1 0x40 MLOAD SWAP1 DUP2 MSTORE RETURN JUMPDEST CALLVALUE PUSH2 0x346 JUMPI PUSH1 0x0 CALLDATASIZE PUSH1 0x3 NOT ADD SLT PUSH2 0x346 JUMPI PUSH1 0x20 PUSH1 0x17 SLOAD PUSH1 0x40 MLOAD SWAP1 DUP2 MSTORE RETURN JUMPDEST CALLVALUE PUSH2 0x346 JUMPI PUSH1 0x0 CALLDATASIZE PUSH1 0x3 NOT ADD SLT PUSH2 0x346 JUMPI PUSH1 0x20 PUSH1 0x15 SLOAD PUSH1 0x40 MLOAD SWAP1 DUP2 MSTORE RETURN JUMPDEST CALLVALUE PUSH2 0x346 JUMPI PUSH1 0x0 CALLDATASIZE PUSH1 0x3 NOT ADD SLT PUSH2 0x346 JUMPI PUSH1 0x20 PUSH1 0x1B SLOAD PUSH1 0x40 MLOAD SWAP1 DUP2 MSTORE RETURN JUMPDEST CALLVALUE PUSH2 0x346 JUMPI PUSH1 0x20 CALLDATASIZE PUSH1 0x3 NOT ADD SLT PUSH2 0x346 JUMPI PUSH2 0x18D4 PUSH2 0x3E31 JUMP JUMPDEST PUSH1 0x4 CALLDATALOAD PUSH1 0x16 SSTORE STOP JUMPDEST CALLVALUE PUSH2 0x346 JUMPI PUSH1 0x0 CALLDATASIZE PUSH1 0x3 NOT ADD SLT PUSH2 0x346 JUMPI PUSH2 0x18F5 PUSH2 0x3E31 JUMP JUMPDEST PUSH1 0x0 DUP1 SLOAD PUSH1 0x1 PUSH1 0x1 PUSH1 0xA0 SHL SUB NOT DUP2 AND DUP3 SSTORE PUSH1 0x1 PUSH1 0x1 PUSH1 0xA0 SHL SUB AND PUSH32 0x8BE0079C531659141344CD1FD0A4F28419497F9722A3DAAFE3B4186F6B6457E0 DUP3 DUP1 LOG3 STOP JUMPDEST CALLVALUE PUSH2 0x346 JUMPI PUSH1 0x20 CALLDATASIZE PUSH1 0x3 NOT ADD SLT PUSH2 0x346 JUMPI PUSH1 0x0 PUSH2 0x280 PUSH1 0x40 MLOAD PUSH2 0x1957 DUP2 PUSH2 0x3BBD JUMP JUMPDEST DUP3 DUP2 MSTORE PUSH1 0x60 PUSH1 0x20 DUP3 ADD MSTORE DUP3 PUSH1 0x40 DUP3 ADD MSTORE PUSH1 0x60 DUP1 DUP3 ADD MSTORE PUSH1 0x60 PUSH1 0x80 DUP3 ADD MSTORE DUP3 PUSH1 0xA0 DUP3 ADD MSTORE DUP3 PUSH1 0xC0 DUP3 ADD MSTORE DUP3 PUSH1 0xE0 DUP3 ADD MSTORE DUP3 PUSH2 0x100 DUP3 ADD MSTORE DUP3 PUSH2 0x120 DUP3 ADD MSTORE DUP3 PUSH2 0x140 DUP3 ADD MSTORE DUP3 PUSH2 0x160 DUP3 ADD MSTORE DUP3 PUSH2 0x180 DUP3 ADD MSTORE DUP3 PUSH2 0x1A0 DUP3 ADD MSTORE DUP3 PUSH2 0x1C0 DUP3 ADD MSTORE DUP3 PUSH2 0x1E0 DUP3 ADD MSTORE DUP3 PUSH2 0x200 DUP3 ADD MSTORE DUP3 PUSH2 0x220 DUP3 ADD MSTORE DUP3 PUSH2 0x240 DUP3 ADD MSTORE DUP3 PUSH2 0x260 DUP3 ADD MSTORE ADD MSTORE PUSH1 0x4 CALLDATALOAD PUSH1 0x0 MSTORE PUSH1 0x2 PUSH1 0x20 MSTORE PUSH1 0x40 PUSH1 0x0 KECCAK256 PUSH1 0x14 PUSH1 0x40 MLOAD SWAP2 PUSH2 0x19FB DUP4 PUSH2 0x3BBD JUMP JUMPDEST DUP1 SLOAD PUSH1 0x1 PUSH1 0x1 PUSH1 0xA0 SHL SUB AND DUP4 MSTORE PUSH2 0x1A14 PUSH1 0x1 DUP3 ADD PUSH2 0x3CF9 JUMP JUMPDEST PUSH1 0x20 DUP5 ADD MSTORE PUSH1 0x2 DUP2 ADD SLOAD PUSH1 0x40 DUP5 ADD MSTORE PUSH2 0x1A2F PUSH1 0x3 DUP3 ADD PUSH2 0x3CF9 JUMP JUMPDEST PUSH1 0x60 DUP5 ADD MSTORE PUSH2 0x1A40 PUSH1 0x4 DUP3 ADD PUSH2 0x3CF9 JUMP JUMPDEST PUSH1 0x80 DUP5 ADD MSTORE PUSH1 0x5 DUP2 ADD SLOAD PUSH1 0xA0 DUP5 ADD MSTORE PUSH1 0x6 DUP2 ADD SLOAD PUSH1 0xC0 DUP5 ADD MSTORE PUSH1 0x7 DUP2 ADD SLOAD PUSH1 0xE0 DUP5 ADD MSTORE PUSH1 0xFF PUSH1 0x8 DUP3 ADD SLOAD AND ISZERO ISZERO PUSH2 0x100 DUP5 ADD MSTORE PUSH1 0x9 DUP2 ADD SLOAD PUSH2 0x120 DUP5 ADD MSTORE PUSH1 0xA DUP2 ADD SLOAD PUSH2 0x140 DUP5 ADD MSTORE PUSH1 0xB DUP2 ADD SLOAD PUSH2 0x160 DUP5 ADD MSTORE PUSH1 0xC DUP2 ADD SLOAD PUSH2 0x180 DUP5 ADD MSTORE PUSH1 0xD DUP2 ADD SLOAD PUSH2 0x1A0 DUP5 ADD MSTORE PUSH1 0xE DUP2 ADD SLOAD PUSH2 0x1C0 DUP5 ADD MSTORE PUSH1 0xF DUP2 ADD SLOAD PUSH2 0x1E0 DUP5 ADD MSTORE PUSH1 0x10 DUP2 ADD SLOAD PUSH2 0x200 DUP5 ADD MSTORE PUSH1 0x11 DUP2 ADD SLOAD PUSH2 0x220 DUP5 ADD MSTORE PUSH1 0x12 DUP2 ADD SLOAD PUSH2 0x240 DUP5 ADD MSTORE PUSH1 0xFF PUSH1 0x13 DUP3 ADD SLOAD AND ISZERO ISZERO PUSH2 0x260 DUP5 ADD MSTORE ADD SLOAD PUSH2 0x280 DUP3 ADD MSTORE PUSH1 0x40 MLOAD DUP1 SWAP2 PUSH1 0x20 DUP3 MSTORE PUSH1 0x1 DUP1 PUSH1 0xA0 SHL SUB DUP2 MLOAD AND PUSH1 0x20 DUP4 ADD MSTORE PUSH2 0x280 PUSH2 0x1B6D PUSH2 0x1B32 PUSH1 0x20 DUP5 ADD MLOAD PUSH2 0x2A0 PUSH1 0x40 DUP8 ADD MSTORE PUSH2 0x2C0 DUP7 ADD SWAP1 PUSH2 0x3DC2 JUMP JUMPDEST PUSH1 0x40 DUP5 ADD MLOAD PUSH1 0x60 DUP7 ADD MSTORE PUSH2 0x1B58 PUSH1 0x60 DUP6 ADD MLOAD SWAP2 PUSH1 0x1F NOT SWAP3 DUP4 DUP9 DUP4 SUB ADD PUSH1 0x80 DUP10 ADD MSTORE PUSH2 0x3DC2 JUMP JUMPDEST SWAP1 PUSH1 0x80 DUP6 ADD MLOAD SWAP1 DUP7 DUP4 SUB ADD PUSH1 0xA0 DUP8 ADD MSTORE PUSH2 0x3DC2 JUMP JUMPDEST SWAP2 PUSH1 0xA0 DUP2 ADD MLOAD PUSH1 0xC0 DUP6 ADD MSTORE PUSH1 0xC0 DUP2 ADD MLOAD PUSH1 0xE0 DUP6 ADD MSTORE PUSH1 0xE0 DUP2 ADD MLOAD PUSH2 0x100 DUP6 ADD MSTORE PUSH2 0x100 DUP2 ADD MLOAD ISZERO ISZERO PUSH2 0x120 DUP6 ADD MSTORE PUSH2 0x120 DUP2 ADD MLOAD PUSH2 0x140 DUP6 ADD MSTORE PUSH2 0x140 DUP2 ADD MLOAD PUSH2 0x160 DUP6 ADD MSTORE PUSH2 0x160 DUP2 ADD MLOAD PUSH2 0x180 DUP6 ADD MSTORE PUSH2 0x180 DUP2 ADD MLOAD PUSH2 0x1A0 DUP6 ADD MSTORE PUSH2 0x1A0 DUP2 ADD MLOAD PUSH2 0x1C0 DUP6 ADD MSTORE PUSH2 0x1C0 DUP2 ADD MLOAD PUSH2 0x1E0 DUP6 ADD MSTORE PUSH2 0x1E0 DUP2 ADD MLOAD PUSH2 0x200 DUP6 ADD MSTORE PUSH2 0x200 DUP2 ADD MLOAD PUSH2 0x220 DUP6 ADD MSTORE PUSH2 0x220 DUP2 ADD MLOAD PUSH2 0x240 DUP6 ADD MSTORE PUSH2 0x240 DUP2 ADD MLOAD PUSH2 0x260 DUP6 ADD MSTORE PUSH2 0x260 DUP2 ADD MLOAD ISZERO ISZERO DUP3 DUP6 ADD MSTORE ADD MLOAD PUSH2 0x2A0 DUP4 ADD MSTORE SUB SWAP1 RETURN JUMPDEST CALLVALUE PUSH2 0x346 JUMPI PUSH1 0x20 CALLDATASIZE PUSH1 0x3 NOT ADD SLT PUSH2 0x346 JUMPI PUSH1 0x4 CALLDATALOAD PUSH1 0x0 MSTORE PUSH1 0xB PUSH1 0x20 MSTORE PUSH1 0x80 PUSH1 0x40 PUSH1 0x0 KECCAK256 PUSH1 0x7 DUP2 ADD SLOAD SWAP1 PUSH1 0x8 DUP2 ADD SLOAD SWAP1 PUSH1 0x10 PUSH1 0xF DUP3 ADD SLOAD SWAP2 ADD SLOAD SWAP2 PUSH1 0x40 MLOAD SWAP4 DUP5 MSTORE PUSH1 0x20 DUP5 ADD MSTORE PUSH1 0x40 DUP4 ADD MSTORE PUSH1 0x60 DUP3 ADD MSTORE RETURN JUMPDEST CALLVALUE PUSH2 0x346 JUMPI PUSH1 0x20 CALLDATASIZE PUSH1 0x3 NOT ADD SLT PUSH2 0x346 JUMPI PUSH2 0x1C95 PUSH2 0x3E31 JUMP JUMPDEST PUSH1 0x4 CALLDATALOAD PUSH1 0x34 SSTORE STOP JUMPDEST CALLVALUE PUSH2 0x346 JUMPI PUSH1 0x20 CALLDATASIZE PUSH1 0x3 NOT ADD SLT PUSH2 0x346 JUMPI PUSH1 0x4 CALLDATALOAD PUSH1 0x0 SWAP1 DUP2 MSTORE PUSH1 0x2 PUSH1 0x20 MSTORE PUSH1 0x40 SWAP1 KECCAK256 DUP1 SLOAD PUSH1 0x1 PUSH1 0x1 PUSH1 0xA0 SHL SUB AND SWAP1 PUSH2 0x1CD7 PUSH1 0x1 DUP3 ADD PUSH2 0x3CF9 JUMP JUMPDEST PUSH2 0x140 MSTORE PUSH1 0x2 DUP2 ADD SLOAD PUSH2 0x340 MSTORE PUSH2 0x1CF0 PUSH1 0x3 DUP3 ADD PUSH2 0x3CF9 JUMP JUMPDEST PUSH2 0x300 MSTORE PUSH2 0x1D00 PUSH1 0x4 DUP3 ADD PUSH2 0x3CF9 JUMP JUMPDEST SWAP2 PUSH1 0x5 DUP3 ADD SLOAD PUSH2 0x240 MSTORE PUSH1 0x6 DUP3 ADD SLOAD SWAP3 PUSH1 0x7 DUP4 ADD SLOAD PUSH1 0x8 DUP5 ADD SLOAD PUSH1 0xFF AND PUSH1 0x9 DUP6 ADD SLOAD PUSH1 0xA DUP7 ADD SLOAD PUSH1 0xB DUP8 ADD SLOAD SWAP2 PUSH1 0xC DUP9 ADD SLOAD SWAP4 PUSH1 0xD DUP10 ADD SLOAD SWAP6 PUSH1 0xE DUP11 ADD SLOAD SWAP8 PUSH1 0xF DUP12 ADD SLOAD SWAP10 PUSH1 0x10 DUP13 ADD SLOAD SWAP12 PUSH1 0x11 DUP2 ADD SLOAD PUSH2 0x100 MSTORE PUSH1 0x12 DUP2 ADD SLOAD PUSH2 0x2E0 MSTORE PUSH1 0x13 DUP2 ADD SLOAD PUSH1 0xFF AND PUSH1 0xE0 MSTORE PUSH1 0x14 ADD SLOAD PUSH2 0x160 MSTORE PUSH1 0x40 MLOAD DUP1 PUSH2 0x280 MSTORE MSTORE PUSH2 0x2A0 DUP1 PUSH2 0x280 MLOAD PUSH1 0x20 ADD MSTORE PUSH2 0x280 MLOAD ADD PUSH2 0x140 MLOAD SWAP1 PUSH2 0x1D98 SWAP2 PUSH2 0x3DC2 JUMP JUMPDEST PUSH2 0x340 MLOAD PUSH2 0x280 MLOAD PUSH1 0x40 ADD MSTORE PUSH2 0x280 MLOAD DUP1 DUP3 SUB SWAP1 PUSH1 0x60 ADD MSTORE PUSH2 0x300 MLOAD SWAP1 PUSH2 0x1DBE SWAP2 PUSH2 0x3DC2 JUMP JUMPDEST PUSH2 0x280 MLOAD DUP1 DUP3 SUB SWAP1 PUSH1 0x80 ADD MSTORE PUSH2 0x1DD3 SWAP2 PUSH2 0x3DC2 JUMP JUMPDEST SWAP11 PUSH2 0x240 MLOAD PUSH2 0x280 MLOAD PUSH1 0xA0 ADD MSTORE PUSH2 0x280 MLOAD PUSH1 0xC0 ADD MSTORE PUSH2 0x280 MLOAD PUSH1 0xE0 ADD MSTORE ISZERO ISZERO PUSH2 0x280 MLOAD PUSH2 0x100 ADD MSTORE PUSH2 0x280 MLOAD PUSH2 0x120 ADD MSTORE PUSH2 0x280 MLOAD PUSH2 0x140 ADD MSTORE PUSH2 0x280 MLOAD PUSH2 0x160 ADD MSTORE PUSH2 0x280 MLOAD PUSH2 0x180 ADD MSTORE PUSH2 0x280 MLOAD PUSH2 0x1A0 ADD MSTORE PUSH2 0x280 MLOAD PUSH2 0x1C0 ADD MSTORE PUSH2 0x280 MLOAD PUSH2 0x1E0 ADD MSTORE PUSH2 0x280 MLOAD PUSH2 0x200 ADD MSTORE PUSH2 0x100 MLOAD PUSH2 0x280 MLOAD PUSH2 0x220 ADD MSTORE PUSH2 0x2E0 MLOAD PUSH2 0x280 MLOAD PUSH2 0x240 ADD MSTORE PUSH1 0xE0 MLOAD ISZERO ISZERO PUSH2 0x280 MLOAD PUSH2 0x260 ADD MSTORE PUSH2 0x160 MLOAD PUSH2 0x280 MLOAD PUSH2 0x280 ADD MSTORE PUSH2 0x280 MLOAD DUP1 SWAP2 SUB SWAP1 RETURN JUMPDEST CALLVALUE PUSH2 0x346 JUMPI PUSH1 0x20 CALLDATASIZE PUSH1 0x3 NOT ADD SLT PUSH2 0x346 JUMPI PUSH1 0x4 CALLDATALOAD PUSH1 0x0 MSTORE PUSH1 0x10 PUSH1 0x20 MSTORE PUSH1 0x20 PUSH1 0x40 PUSH1 0x0 KECCAK256 SLOAD PUSH1 0x40 MLOAD SWAP1 DUP2 MSTORE RETURN JUMPDEST CALLVALUE PUSH2 0x346 JUMPI PUSH1 0xA0 CALLDATASIZE PUSH1 0x3 NOT ADD SLT PUSH2 0x346 JUMPI PUSH1 0x4 CALLDATALOAD PUSH1 0x1 PUSH1 0x1 PUSH1 0x40 SHL SUB DUP2 GT PUSH2 0x346 JUMPI PUSH2 0x1EDE SWAP1 CALLDATASIZE SWAP1 PUSH1 0x4 ADD PUSH2 0x3C4C JUMP JUMPDEST PUSH1 0x44 CALLDATALOAD PUSH1 0x1 PUSH1 0x1 PUSH1 0x40 SHL SUB DUP2 GT PUSH2 0x346 JUMPI PUSH2 0x1EFD SWAP1 CALLDATASIZE SWAP1 PUSH1 0x4 ADD PUSH2 0x3C4C JUMP JUMPDEST SWAP1 PUSH1 0x64 CALLDATALOAD PUSH1 0x1 PUSH1 0x1 PUSH1 0x40 SHL SUB DUP2 GT PUSH2 0x346 JUMPI PUSH2 0x1F1D SWAP1 CALLDATASIZE SWAP1 PUSH1 0x4 ADD PUSH2 0x3C4C JUMP JUMPDEST SWAP2 PUSH2 0x1F26 PUSH2 0x4197 JUMP JUMPDEST PUSH2 0x1F40 PUSH1 0xFF PUSH1 0x40 MLOAD PUSH1 0x20 DUP2 DUP7 MLOAD PUSH2 0xA22 DUP2 DUP4 DUP6 DUP12 ADD PUSH2 0x3D9F JUMP JUMPDEST PUSH2 0x1F50 PUSH1 0x14 SLOAD PUSH1 0x24 CALLDATALOAD GT ISZERO PUSH2 0x4155 JUMP JUMPDEST PUSH1 0x17 SLOAD PUSH1 0x84 CALLDATALOAD LT PUSH2 0x2D37 JUMPI PUSH2 0x1F63 PUSH2 0x3EE7 JUMP JUMPDEST PUSH2 0x1F6B PUSH2 0x3FC9 JUMP JUMPDEST PUSH2 0x1F73 PUSH2 0x41BA JUMP JUMPDEST PUSH1 0x24 CALLDATALOAD LT PUSH2 0x2CE6 JUMPI PUSH1 0x18 SLOAD SWAP2 PUSH1 0x40 MLOAD PUSH1 0x20 DUP2 ADD SWAP1 CALLER PUSH1 0x60 SHL DUP3 MSTORE PUSH2 0x1FFF PUSH1 0xB4 DUP3 DUP11 DUP11 MLOAD PUSH2 0x1FA8 DUP2 DUP14 PUSH1 0x20 PUSH1 0x34 DUP8 ADD SWAP2 ADD PUSH2 0x3D9F JUMP JUMPDEST DUP3 ADD PUSH1 0x24 CALLDATALOAD PUSH1 0x34 DUP3 ADD MSTORE DUP11 MLOAD SWAP1 PUSH2 0x1FC7 DUP3 DUP14 PUSH1 0x20 PUSH1 0x54 DUP6 ADD SWAP2 ADD PUSH2 0x3D9F JUMP JUMPDEST ADD PUSH2 0x1FDC DUP3 MLOAD DUP1 SWAP4 PUSH1 0x20 PUSH1 0x54 DUP6 ADD SWAP2 ADD PUSH2 0x3D9F JUMP JUMPDEST ADD PUSH1 0x84 CALLDATALOAD PUSH1 0x54 DUP3 ADD MSTORE DUP9 PUSH1 0x74 DUP3 ADD MSTORE TIMESTAMP PUSH1 0x94 DUP3 ADD MSTORE SUB PUSH1 0x94 DUP2 ADD DUP5 MSTORE ADD DUP3 PUSH2 0x3C10 JUMP JUMPDEST MLOAD SWAP1 KECCAK256 SWAP3 DUP4 PUSH1 0x0 MSTORE PUSH1 0x2 PUSH1 0x20 MSTORE PUSH1 0x6 PUSH1 0x40 PUSH1 0x0 KECCAK256 ADD SLOAD PUSH2 0x2CA1 JUMPI CALLER PUSH1 0x0 MSTORE PUSH1 0x8 PUSH1 0x20 MSTORE PUSH1 0x40 PUSH1 0x0 KECCAK256 SLOAD SWAP1 PUSH2 0x2031 PUSH2 0x40A2 JUMP JUMPDEST SWAP1 PUSH1 0x40 MLOAD DUP7 PUSH1 0x20 DUP3 ADD MSTORE DUP2 PUSH1 0x40 DUP3 ADD MSTORE DUP5 PUSH1 0x60 DUP3 ADD MSTORE DUP6 PUSH1 0x80 DUP3 ADD MSTORE PUSH1 0x80 DUP2 MSTORE PUSH2 0x205A DUP2 PUSH2 0x3BF5 JUMP JUMPDEST PUSH1 0x20 DUP2 MLOAD SWAP2 ADD KECCAK256 SWAP1 PUSH1 0x1E SLOAD SWAP3 PUSH1 0x40 MLOAD SWAP5 PUSH2 0x2073 DUP7 PUSH2 0x3BBD JUMP JUMPDEST CALLER DUP7 MSTORE DUP11 PUSH1 0x20 DUP8 ADD MSTORE PUSH1 0x24 CALLDATALOAD PUSH1 0x40 DUP8 ADD MSTORE DUP10 PUSH1 0x60 DUP8 ADD MSTORE DUP12 PUSH1 0x80 DUP8 ADD MSTORE PUSH1 0x84 CALLDATALOAD PUSH1 0xA0 DUP8 ADD MSTORE TIMESTAMP PUSH1 0xC0 DUP8 ADD MSTORE PUSH1 0x0 PUSH1 0xE0 DUP8 ADD MSTORE PUSH1 0x0 PUSH2 0x100 DUP8 ADD MSTORE PUSH2 0x120 DUP7 ADD MSTORE PUSH2 0x140 DUP6 ADD MSTORE PUSH2 0x160 DUP5 ADD MSTORE DUP4 PUSH2 0x180 DUP5 ADD MSTORE DUP5 PUSH2 0x1A0 DUP5 ADD MSTORE PUSH1 0x0 PUSH2 0x1C0 DUP5 ADD MSTORE PUSH1 0x0 PUSH2 0x1E0 DUP5 ADD MSTORE PUSH2 0x200 DUP4 ADD MSTORE PUSH1 0x0 PUSH2 0x220 DUP4 ADD MSTORE PUSH2 0x240 DUP3 ADD MSTORE PUSH1 0x0 PUSH2 0x260 DUP3 ADD MSTORE PUSH1 0x0 PUSH2 0x280 DUP3 ADD MSTORE DUP4 PUSH1 0x0 MSTORE PUSH1 0x2 PUSH1 0x20 MSTORE PUSH1 0x40 PUSH1 0x0 KECCAK256 SWAP1 PUSH1 0x1 DUP1 PUSH1 0xA0 SHL SUB DUP2 MLOAD AND PUSH1 0x1 PUSH1 0x1 PUSH1 0x60 SHL SUB PUSH1 0xA0 SHL DUP4 SLOAD AND OR DUP3 SSTORE PUSH1 0x20 DUP2 ADD MLOAD DUP1 MLOAD SWAP1 PUSH1 0x1 PUSH1 0x1 PUSH1 0x40 SHL SUB DUP3 GT PUSH2 0xD74 JUMPI DUP2 SWAP1 PUSH2 0x2150 PUSH1 0x1 DUP7 ADD SLOAD PUSH2 0x3CBF JUMP JUMPDEST PUSH1 0x1F DUP2 GT PUSH2 0x2C6C JUMPI JUMPDEST POP PUSH1 0x20 SWAP1 PUSH1 0x1F DUP4 GT PUSH1 0x1 EQ PUSH2 0x2BFA JUMPI PUSH1 0x0 SWAP3 PUSH2 0x2BEF JUMPI JUMPDEST POP POP DUP2 PUSH1 0x1 SHL SWAP2 PUSH1 0x0 NOT SWAP1 PUSH1 0x3 SHL SHR NOT AND OR PUSH1 0x1 DUP4 ADD SSTORE JUMPDEST PUSH1 0x40 DUP2 ADD MLOAD PUSH1 0x2 DUP4 ADD SSTORE PUSH1 0x60 DUP2 ADD MLOAD DUP1 MLOAD SWAP1 PUSH1 0x1 PUSH1 0x1 PUSH1 0x40 SHL SUB DUP3 GT PUSH2 0xD74 JUMPI DUP2 SWAP1 PUSH2 0x21B7 PUSH1 0x3 DUP7 ADD SLOAD PUSH2 0x3CBF JUMP JUMPDEST PUSH1 0x1F DUP2 GT PUSH2 0x2BBA JUMPI JUMPDEST POP PUSH1 0x20 SWAP1 PUSH1 0x1F DUP4 GT PUSH1 0x1 EQ PUSH2 0x2B48 JUMPI PUSH1 0x0 SWAP3 PUSH2 0x2B3D JUMPI JUMPDEST POP POP DUP2 PUSH1 0x1 SHL SWAP2 PUSH1 0x0 NOT SWAP1 PUSH1 0x3 SHL SHR NOT AND OR PUSH1 0x3 DUP4 ADD SSTORE JUMPDEST PUSH1 0x80 DUP2 ADD MLOAD DUP1 MLOAD SWAP1 PUSH1 0x1 PUSH1 0x1 PUSH1 0x40 SHL SUB DUP3 GT PUSH2 0xD74 JUMPI PUSH2 0x2212 PUSH1 0x4 DUP6 ADD SLOAD PUSH2 0x3CBF JUMP JUMPDEST PUSH1 0x1F DUP2 GT PUSH2 0x2B08 JUMPI JUMPDEST POP PUSH1 0x20 SWAP1 PUSH1 0x1F DUP4 GT PUSH1 0x1 EQ PUSH2 0x2A92 JUMPI SWAP2 DUP1 PUSH1 0x14 SWAP5 SWAP3 PUSH2 0x280 SWAP5 PUSH1 0x0 SWAP3 PUSH2 0x2A87 JUMPI JUMPDEST POP POP DUP2 PUSH1 0x1 SHL SWAP2 PUSH1 0x0 NOT SWAP1 PUSH1 0x3 SHL SHR NOT AND OR PUSH1 0x4 DUP6 ADD SSTORE JUMPDEST PUSH1 0xA0 DUP2 ADD MLOAD PUSH1 0x5 DUP6 ADD SSTORE PUSH1 0xC0 DUP2 ADD MLOAD PUSH1 0x6 DUP6 ADD SSTORE PUSH1 0xE0 DUP2 ADD MLOAD PUSH1 0x7 DUP6 ADD SSTORE PUSH2 0x2292 PUSH2 0x100 DUP3 ADD MLOAD ISZERO ISZERO PUSH1 0x8 DUP7 ADD SWAP1 PUSH1 0xFF DUP1 NOT DUP4 SLOAD AND SWAP2 ISZERO ISZERO AND OR SWAP1 SSTORE JUMP JUMPDEST PUSH2 0x120 DUP2 ADD MLOAD PUSH1 0x9 DUP6 ADD SSTORE PUSH2 0x140 DUP2 ADD MLOAD PUSH1 0xA DUP6 ADD SSTORE PUSH2 0x160 DUP2 ADD MLOAD PUSH1 0xB DUP6 ADD SSTORE PUSH2 0x180 DUP2 ADD MLOAD PUSH1 0xC DUP6 ADD SSTORE PUSH2 0x1A0 DUP2 ADD MLOAD PUSH1 0xD DUP6 ADD SSTORE PUSH2 0x1C0 DUP2 ADD MLOAD PUSH1 0xE DUP6 ADD SSTORE PUSH2 0x1E0 DUP2 ADD MLOAD PUSH1 0xF DUP6 ADD SSTORE PUSH2 0x200 DUP2 ADD MLOAD PUSH1 0x10 DUP6 ADD SSTORE PUSH2 0x220 DUP2 ADD MLOAD PUSH1 0x11 DUP6 ADD SSTORE PUSH2 0x240 DUP2 ADD MLOAD PUSH1 0x12 DUP6 ADD SSTORE PUSH2 0x2320 PUSH2 0x260 DUP3 ADD MLOAD ISZERO ISZERO PUSH1 0x13 DUP7 ADD SWAP1 PUSH1 0xFF DUP1 NOT DUP4 SLOAD AND SWAP2 ISZERO ISZERO AND OR SWAP1 SSTORE JUMP JUMPDEST ADD MLOAD SWAP2 ADD SSTORE PUSH1 0x18 SLOAD SWAP4 PUSH1 0x40 MLOAD PUSH1 0x20 DUP2 ADD SWAP1 DUP6 DUP3 MSTORE PUSH32 0x61646170746976655F76616C69646174696F6E5F7461736B0000000000000000 PUSH1 0x40 DUP3 ADD MSTORE DUP7 PUSH1 0x58 DUP3 ADD MSTORE TIMESTAMP PUSH1 0x78 DUP3 ADD MSTORE PUSH1 0x78 DUP2 MSTORE PUSH2 0x2373 DUP2 PUSH2 0x3BF5 JUMP JUMPDEST MLOAD SWAP1 KECCAK256 SWAP7 PUSH1 0x1D SLOAD SWAP6 PUSH2 0x2384 DUP8 PUSH2 0x4247 JUMP JUMPDEST SWAP7 PUSH2 0x2392 PUSH1 0x40 MLOAD SWAP9 DUP10 PUSH2 0x3C10 JUMP JUMPDEST DUP1 DUP9 MSTORE PUSH2 0x23A1 PUSH1 0x1F NOT SWAP2 PUSH2 0x4247 JUMP JUMPDEST ADD CALLDATASIZE PUSH1 0x20 DUP10 ADD CALLDATACOPY PUSH1 0x1E SLOAD DUP8 MLOAD SWAP3 PUSH1 0x40 MLOAD SWAP5 DUP6 PUSH2 0x260 DUP2 ADD LT PUSH1 0x1 PUSH1 0x1 PUSH1 0x40 SHL SUB PUSH2 0x260 DUP9 ADD GT OR PUSH2 0xD74 JUMPI PUSH2 0x260 DUP7 ADD PUSH1 0x40 MSTORE DUP9 DUP7 MSTORE CALLER PUSH1 0x20 DUP8 ADD MSTORE DUP11 PUSH1 0x40 DUP8 ADD MSTORE PUSH1 0x24 CALLDATALOAD PUSH1 0x60 DUP8 ADD MSTORE PUSH1 0x80 DUP7 ADD MSTORE PUSH1 0xA0 DUP6 ADD MSTORE PUSH1 0x84 CALLDATALOAD PUSH1 0xC0 DUP6 ADD MSTORE TIMESTAMP PUSH1 0xE0 DUP6 ADD MSTORE PUSH1 0x0 PUSH2 0x100 DUP6 ADD MSTORE DUP8 PUSH2 0x120 DUP6 ADD MSTORE PUSH2 0x140 DUP5 ADD MSTORE PUSH1 0x0 PUSH2 0x160 DUP5 ADD MSTORE PUSH1 0x0 PUSH2 0x180 DUP5 ADD MSTORE PUSH1 0x0 PUSH2 0x1A0 DUP5 ADD MSTORE PUSH2 0x1C0 DUP4 ADD MSTORE DUP3 PUSH2 0x1E0 DUP4 ADD MSTORE DUP4 PUSH2 0x200 DUP4 ADD MSTORE PUSH1 0x0 PUSH2 0x220 DUP4 ADD MSTORE PUSH2 0x240 DUP3 ADD MSTORE DUP7 PUSH1 0x0 MSTORE PUSH1 0x3 PUSH1 0x20 MSTORE PUSH1 0x40 PUSH1 0x0 KECCAK256 SWAP1 DUP1 MLOAD DUP3 SSTORE PUSH1 0x1 DUP3 ADD PUSH1 0x1 DUP1 PUSH1 0xA0 SHL SUB PUSH1 0x20 DUP4 ADD MLOAD AND PUSH1 0x1 PUSH1 0x1 PUSH1 0x60 SHL SUB PUSH1 0xA0 SHL DUP3 SLOAD AND OR SWAP1 SSTORE PUSH1 0x40 DUP2 ADD MLOAD DUP1 MLOAD SWAP1 PUSH1 0x1 PUSH1 0x1 PUSH1 0x40 SHL SUB DUP3 GT PUSH2 0xD74 JUMPI DUP2 SWAP1 PUSH2 0x24AC PUSH1 0x2 DUP7 ADD SLOAD PUSH2 0x3CBF JUMP JUMPDEST PUSH1 0x1F DUP2 GT PUSH2 0x2A52 JUMPI JUMPDEST POP PUSH1 0x20 SWAP1 PUSH1 0x1F DUP4 GT PUSH1 0x1 EQ PUSH2 0x29E0 JUMPI PUSH1 0x0 SWAP3 PUSH2 0x29D5 JUMPI JUMPDEST POP POP DUP2 PUSH1 0x1 SHL SWAP2 PUSH1 0x0 NOT SWAP1 PUSH1 0x3 SHL SHR NOT AND OR PUSH1 0x2 DUP4 ADD SSTORE JUMPDEST PUSH1 0x60 DUP2 ADD MLOAD PUSH1 0x3 DUP4 ADD SSTORE PUSH1 0x80 DUP2 ADD MLOAD DUP1 MLOAD SWAP1 PUSH1 0x1 PUSH1 0x1 PUSH1 0x40 SHL SUB DUP3 GT PUSH2 0xD74 JUMPI DUP2 SWAP1 PUSH2 0x2513 PUSH1 0x4 DUP7 ADD SLOAD PUSH2 0x3CBF JUMP JUMPDEST PUSH1 0x1F DUP2 GT PUSH2 0x29A0 JUMPI JUMPDEST POP PUSH1 0x20 SWAP1 PUSH1 0x1F DUP4 GT PUSH1 0x1 EQ PUSH2 0x292E JUMPI PUSH1 0x0 SWAP3 PUSH2 0x2923 JUMPI JUMPDEST POP POP DUP2 PUSH1 0x1 SHL SWAP2 PUSH1 0x0 NOT SWAP1 PUSH1 0x3 SHL SHR NOT AND OR PUSH1 0x4 DUP4 ADD SSTORE JUMPDEST PUSH1 0xA0 DUP2 ADD MLOAD DUP1 MLOAD SWAP1 PUSH1 0x1 PUSH1 0x1 PUSH1 0x40 SHL SUB DUP3 GT PUSH2 0xD74 JUMPI DUP2 SWAP1 PUSH2 0x2570 PUSH1 0x5 DUP7 ADD SLOAD PUSH2 0x3CBF JUMP JUMPDEST PUSH1 0x1F DUP2 GT PUSH2 0x28EE JUMPI JUMPDEST POP PUSH1 0x20 SWAP1 PUSH1 0x1F DUP4 GT PUSH1 0x1 EQ PUSH2 0x287C JUMPI PUSH1 0x0 SWAP3 PUSH2 0x2871 JUMPI JUMPDEST POP POP DUP2 PUSH1 0x1 SHL SWAP2 PUSH1 0x0 NOT SWAP1 PUSH1 0x3 SHL SHR NOT AND OR PUSH1 0x5 DUP4 ADD SSTORE JUMPDEST PUSH1 0xC0 DUP2 ADD MLOAD PUSH1 0x6 DUP4 ADD SSTORE PUSH1 0xE0 DUP2 ADD MLOAD PUSH1 0x7 DUP4 ADD SSTORE PUSH2 0x25DC PUSH2 0x100 DUP3 ADD MLOAD ISZERO ISZERO PUSH1 0x8 DUP5 ADD SWAP1 PUSH1 0xFF DUP1 NOT DUP4 SLOAD AND SWAP2 ISZERO ISZERO AND OR SWAP1 SSTORE JUMP JUMPDEST PUSH2 0x120 DUP2 ADD MLOAD DUP1 MLOAD SWAP1 PUSH1 0x1 PUSH1 0x1 PUSH1 0x40 SHL SUB DUP3 GT PUSH2 0xD74 JUMPI PUSH1 0x1 PUSH1 0x40 SHL DUP3 GT PUSH2 0xD74 JUMPI PUSH1 0x20 SWAP1 PUSH1 0x9 DUP6 ADD SLOAD DUP4 PUSH1 0x9 DUP8 ADD SSTORE DUP1 DUP5 LT PUSH2 0x2851 JUMPI JUMPDEST POP ADD PUSH1 0x9 DUP5 ADD PUSH1 0x0 MSTORE PUSH1 0x20 PUSH1 0x0 KECCAK256 PUSH1 0x0 JUMPDEST DUP4 DUP2 LT PUSH2 0x2834 JUMPI POP POP POP POP PUSH2 0x240 DUP2 PUSH2 0x140 PUSH1 0x12 SWAP4 ADD MLOAD PUSH1 0xA DUP6 ADD SSTORE PUSH2 0x160 DUP2 ADD MLOAD PUSH1 0xB DUP6 ADD SSTORE PUSH2 0x180 DUP2 ADD MLOAD PUSH1 0xC DUP6 ADD SSTORE PUSH2 0x2677 PUSH2 0x1A0 DUP3 ADD MLOAD ISZERO ISZERO PUSH1 0xD DUP7 ADD SWAP1 PUSH1 0xFF DUP1 NOT DUP4 SLOAD AND SWAP2 ISZERO ISZERO AND OR SWAP1 SSTORE JUMP JUMPDEST PUSH2 0x1C0 DUP2 ADD MLOAD PUSH1 0xE DUP6 ADD SSTORE PUSH2 0x1E0 DUP2 ADD MLOAD PUSH1 0xF DUP6 ADD SSTORE PUSH2 0x200 DUP2 ADD MLOAD PUSH1 0x10 DUP6 ADD SSTORE PUSH2 0x220 DUP2 ADD MLOAD PUSH1 0x11 DUP6 ADD SSTORE ADD MLOAD SWAP2 ADD SSTORE PUSH1 0x0 JUMPDEST DUP5 MLOAD DUP2 LT ISZERO PUSH2 0x2715 JUMPI PUSH1 0x1 DUP1 PUSH1 0xA0 SHL SUB PUSH1 0x20 DUP3 PUSH1 0x5 SHL DUP8 ADD ADD MLOAD AND PUSH1 0x0 MSTORE PUSH1 0xA PUSH1 0x20 MSTORE PUSH1 0x40 PUSH1 0x0 KECCAK256 SWAP1 DUP2 SLOAD SWAP2 PUSH1 0x1 PUSH1 0x40 SHL DUP4 LT ISZERO PUSH2 0xD74 JUMPI DUP3 PUSH2 0x26F6 SWAP2 PUSH1 0x1 PUSH2 0x2710 SWAP6 ADD DUP2 SSTORE PUSH2 0x3DE7 JUMP JUMPDEST DUP2 SLOAD SWAP1 PUSH1 0x3 SHL SWAP1 DUP11 DUP3 SHL SWAP2 PUSH1 0x0 NOT SWAP1 SHL NOT AND OR SWAP1 SSTORE PUSH2 0x3E5D JUMP JUMPDEST PUSH2 0x26AB JUMP JUMPDEST POP DUP6 SWAP4 SWAP5 PUSH2 0x2724 PUSH1 0x12 SLOAD PUSH2 0x3E5D JUMP JUMPDEST PUSH1 0x12 SSTORE CALLER PUSH1 0x0 MSTORE PUSH1 0x8 PUSH1 0x20 MSTORE DUP4 PUSH32 0xC2EF7412E931822822703EC6E749AC21563F4DF6B27E86DCE03DED675051EA37 PUSH1 0x40 PUSH1 0x0 KECCAK256 SLOAD SWAP3 PUSH2 0x2761 PUSH2 0x40A2 JUMP JUMPDEST SWAP6 PUSH1 0x18 SLOAD SWAP7 PUSH2 0x277D PUSH1 0x40 MLOAD SWAP4 PUSH2 0x100 DUP6 MSTORE PUSH2 0x100 DUP6 ADD SWAP1 PUSH2 0x3DC2 JUMP JUMPDEST SWAP6 PUSH1 0x24 CALLDATALOAD PUSH1 0x20 DUP6 ADD MSTORE PUSH1 0x0 PUSH1 0x40 DUP6 ADD MSTORE PUSH1 0x60 DUP5 ADD MSTORE PUSH1 0x80 DUP4 ADD MSTORE DUP7 PUSH1 0xA0 DUP4 ADD MSTORE DUP6 PUSH1 0xC0 DUP4 ADD MSTORE PUSH1 0xE0 DUP3 ADD MSTORE DUP1 CALLER SWAP5 SUB SWAP1 LOG3 PUSH1 0x1E SLOAD SWAP2 PUSH1 0x40 MLOAD SWAP3 PUSH1 0x80 DUP5 ADD PUSH1 0x80 DUP6 MSTORE DUP8 MLOAD DUP1 SWAP2 MSTORE PUSH1 0x20 PUSH1 0xA0 DUP7 ADD SWAP9 ADD SWAP1 PUSH1 0x0 JUMPDEST DUP2 DUP2 LT PUSH2 0x2815 JUMPI POP POP POP PUSH1 0x20 DUP5 ADD MSTORE PUSH1 0x40 DUP4 ADD MSTORE PUSH1 0x60 DUP3 ADD MSTORE PUSH32 0xF9B64BC4F55726D3AC9E187B1CD7E1A490973454418F085ACBED3DFFACC75BC8 SWAP1 DUP1 DUP6 SUB SWAP1 LOG3 PUSH1 0x1 DUP1 SSTORE STOP JUMPDEST DUP3 MLOAD PUSH1 0x1 PUSH1 0x1 PUSH1 0xA0 SHL SUB AND DUP11 MSTORE PUSH1 0x20 SWAP10 DUP11 ADD SWAP10 SWAP1 SWAP3 ADD SWAP2 PUSH1 0x1 ADD PUSH2 0x27CF JUMP JUMPDEST DUP3 MLOAD PUSH1 0x1 PUSH1 0x1 PUSH1 0xA0 SHL SUB AND DUP2 DUP4 ADD SSTORE PUSH1 0x20 SWAP1 SWAP3 ADD SWAP2 PUSH1 0x1 ADD PUSH2 0x2625 JUMP JUMPDEST PUSH2 0x286B SWAP1 PUSH1 0x9 DUP8 ADD PUSH1 0x0 MSTORE DUP5 DUP5 PUSH1 0x0 KECCAK256 SWAP2 DUP3 ADD SWAP2 ADD PUSH2 0x3E6C JUMP JUMPDEST DUP12 PUSH2 0x2614 JUMP JUMPDEST ADD MLOAD SWAP1 POP DUP11 DUP1 PUSH2 0x2590 JUMP JUMPDEST SWAP3 POP PUSH1 0x5 DUP6 ADD PUSH1 0x0 MSTORE PUSH1 0x20 PUSH1 0x0 KECCAK256 SWAP1 PUSH1 0x0 SWAP4 JUMPDEST PUSH1 0x1F NOT DUP5 AND DUP6 LT PUSH2 0x28D3 JUMPI PUSH1 0x1 SWAP5 POP DUP4 PUSH1 0x1F NOT DUP2 AND LT PUSH2 0x28BA JUMPI JUMPDEST POP POP POP DUP2 SHL ADD PUSH1 0x5 DUP4 ADD SSTORE PUSH2 0x25A8 JUMP JUMPDEST ADD MLOAD PUSH1 0x0 NOT PUSH1 0xF8 DUP5 PUSH1 0x3 SHL AND SHR NOT AND SWAP1 SSTORE DUP11 DUP1 DUP1 PUSH2 0x28AA JUMP JUMPDEST DUP2 DUP2 ADD MLOAD DUP4 SSTORE PUSH1 0x20 SWAP5 DUP6 ADD SWAP5 PUSH1 0x1 SWAP1 SWAP4 ADD SWAP3 SWAP1 SWAP2 ADD SWAP1 PUSH2 0x288F JUMP JUMPDEST PUSH2 0x291D SWAP1 PUSH1 0x5 DUP8 ADD PUSH1 0x0 MSTORE PUSH1 0x20 PUSH1 0x0 KECCAK256 PUSH1 0x1F DUP6 ADD PUSH1 0x5 SHR DUP2 ADD SWAP2 PUSH1 0x20 DUP7 LT PUSH2 0xD6A JUMPI PUSH1 0x1F ADD PUSH1 0x5 SHR ADD SWAP1 PUSH2 0x3E6C JUMP JUMPDEST DUP12 PUSH2 0x2579 JUMP JUMPDEST ADD MLOAD SWAP1 POP DUP11 DUP1 PUSH2 0x2533 JUMP JUMPDEST SWAP3 POP PUSH1 0x4 DUP6 ADD PUSH1 0x0 MSTORE PUSH1 0x20 PUSH1 0x0 KECCAK256 SWAP1 PUSH1 0x0 SWAP4 JUMPDEST PUSH1 0x1F NOT DUP5 AND DUP6 LT PUSH2 0x2985 JUMPI PUSH1 0x1 SWAP5 POP DUP4 PUSH1 0x1F NOT DUP2 AND LT PUSH2 0x296C JUMPI JUMPDEST POP POP POP DUP2 SHL ADD PUSH1 0x4 DUP4 ADD SSTORE PUSH2 0x254B JUMP JUMPDEST ADD MLOAD PUSH1 0x0 NOT PUSH1 0xF8 DUP5 PUSH1 0x3 SHL AND SHR NOT AND SWAP1 SSTORE DUP11 DUP1 DUP1 PUSH2 0x295C JUMP JUMPDEST DUP2 DUP2 ADD MLOAD DUP4 SSTORE PUSH1 0x20 SWAP5 DUP6 ADD SWAP5 PUSH1 0x1 SWAP1 SWAP4 ADD SWAP3 SWAP1 SWAP2 ADD SWAP1 PUSH2 0x2941 JUMP JUMPDEST PUSH2 0x29CF SWAP1 PUSH1 0x4 DUP8 ADD PUSH1 0x0 MSTORE PUSH1 0x20 PUSH1 0x0 KECCAK256 PUSH1 0x1F DUP6 ADD PUSH1 0x5 SHR DUP2 ADD SWAP2 PUSH1 0x20 DUP7 LT PUSH2 0xD6A JUMPI PUSH1 0x1F ADD PUSH1 0x5 SHR ADD SWAP1 PUSH2 0x3E6C JUMP JUMPDEST DUP12 PUSH2 0x251C JUMP JUMPDEST ADD MLOAD SWAP1 POP DUP11 DUP1 PUSH2 0x24CC JUMP JUMPDEST SWAP3 POP PUSH1 0x2 DUP6 ADD PUSH1 0x0 MSTORE PUSH1 0x20 PUSH1 0x0 KECCAK256 SWAP1 PUSH1 0x0 SWAP4 JUMPDEST PUSH1 0x1F NOT DUP5 AND DUP6 LT PUSH2 0x2A37 JUMPI PUSH1 0x1 SWAP5 POP DUP4 PUSH1 0x1F NOT DUP2 AND LT PUSH2 0x2A1E JUMPI JUMPDEST POP POP POP DUP2 SHL ADD PUSH1 0x2 DUP4 ADD SSTORE PUSH2 0x24E4 JUMP JUMPDEST ADD MLOAD PUSH1 0x0 NOT PUSH1 0xF8 DUP5 PUSH1 0x3 SHL AND SHR NOT AND SWAP1 SSTORE DUP11 DUP1 DUP1 PUSH2 0x2A0E JUMP JUMPDEST DUP2 DUP2 ADD MLOAD DUP4 SSTORE PUSH1 0x20 SWAP5 DUP6 ADD SWAP5 PUSH1 0x1 SWAP1 SWAP4 ADD SWAP3 SWAP1 SWAP2 ADD SWAP1 PUSH2 0x29F3 JUMP JUMPDEST PUSH2 0x2A81 SWAP1 PUSH1 0x2 DUP8 ADD PUSH1 0x0 MSTORE PUSH1 0x20 PUSH1 0x0 KECCAK256 PUSH1 0x1F DUP6 ADD PUSH1 0x5 SHR DUP2 ADD SWAP2 PUSH1 0x20 DUP7 LT PUSH2 0xD6A JUMPI PUSH1 0x1F ADD PUSH1 0x5 SHR ADD SWAP1 PUSH2 0x3E6C JUMP JUMPDEST DUP12 PUSH2 0x24B5 JUMP JUMPDEST ADD MLOAD SWAP1 POP DUP13 DUP1 PUSH2 0x223C JUMP JUMPDEST SWAP1 PUSH1 0x4 DUP6 ADD PUSH1 0x0 MSTORE PUSH1 0x20 PUSH1 0x0 KECCAK256 SWAP2 PUSH1 0x0 JUMPDEST PUSH1 0x1F NOT DUP6 AND DUP2 LT PUSH2 0x2AF0 JUMPI POP SWAP3 PUSH1 0x14 SWAP5 SWAP3 PUSH1 0x1 SWAP3 PUSH2 0x280 SWAP6 DUP4 PUSH1 0x1F NOT DUP2 AND LT PUSH2 0x2AD7 JUMPI JUMPDEST POP POP POP DUP2 SHL ADD PUSH1 0x4 DUP6 ADD SSTORE PUSH2 0x2254 JUMP JUMPDEST ADD MLOAD PUSH1 0x0 NOT PUSH1 0xF8 DUP5 PUSH1 0x3 SHL AND SHR NOT AND SWAP1 SSTORE DUP13 DUP1 DUP1 PUSH2 0x2AC7 JUMP JUMPDEST SWAP2 SWAP3 PUSH1 0x20 PUSH1 0x1 DUP2 SWAP3 DUP7 DUP6 ADD MLOAD DUP2 SSTORE ADD SWAP5 ADD SWAP3 ADD PUSH2 0x2AA3 JUMP JUMPDEST PUSH2 0x2B37 SWAP1 PUSH1 0x4 DUP7 ADD PUSH1 0x0 MSTORE PUSH1 0x20 PUSH1 0x0 KECCAK256 PUSH1 0x1F DUP6 ADD PUSH1 0x5 SHR DUP2 ADD SWAP2 PUSH1 0x20 DUP7 LT PUSH2 0xD6A JUMPI PUSH1 0x1F ADD PUSH1 0x5 SHR ADD SWAP1 PUSH2 0x3E6C JUMP JUMPDEST DUP11 PUSH2 0x221B JUMP JUMPDEST ADD MLOAD SWAP1 POP DUP11 DUP1 PUSH2 0x21D7 JUMP JUMPDEST SWAP3 POP PUSH1 0x3 DUP6 ADD PUSH1 0x0 MSTORE PUSH1 0x20 PUSH1 0x0 KECCAK256 SWAP1 PUSH1 0x0 SWAP4 JUMPDEST PUSH1 0x1F NOT DUP5 AND DUP6 LT PUSH2 0x2B9F JUMPI PUSH1 0x1 SWAP5 POP DUP4 PUSH1 0x1F NOT DUP2 AND LT PUSH2 0x2B86 JUMPI JUMPDEST POP POP POP DUP2 SHL ADD PUSH1 0x3 DUP4 ADD SSTORE PUSH2 0x21EF JUMP JUMPDEST ADD MLOAD PUSH1 0x0 NOT PUSH1 0xF8 DUP5 PUSH1 0x3 SHL AND SHR NOT AND SWAP1 SSTORE DUP11 DUP1 DUP1 PUSH2 0x2B76 JUMP JUMPDEST DUP2 DUP2 ADD MLOAD DUP4 SSTORE PUSH1 0x20 SWAP5 DUP6 ADD SWAP5 PUSH1 0x1 SWAP1 SWAP4 ADD SWAP3 SWAP1 SWAP2 ADD SWAP1 PUSH2 0x2B5B JUMP JUMPDEST PUSH2 0x2BE9 SWAP1 PUSH1 0x3 DUP8 ADD PUSH1 0x0 MSTORE PUSH1 0x20 PUSH1 0x0 KECCAK256 PUSH1 0x1F DUP6 ADD PUSH1 0x5 SHR DUP2 ADD SWAP2 PUSH1 0x20 DUP7 LT PUSH2 0xD6A JUMPI PUSH1 0x1F ADD PUSH1 0x5 SHR ADD SWAP1 PUSH2 0x3E6C JUMP JUMPDEST DUP12 PUSH2 0x21C0 JUMP JUMPDEST ADD MLOAD SWAP1 POP DUP11 DUP1 PUSH2 0x2170 JUMP JUMPDEST SWAP3 POP PUSH1 0x1 DUP6 ADD PUSH1 0x0 MSTORE PUSH1 0x20 PUSH1 0x0 KECCAK256 SWAP1 PUSH1 0x0 SWAP4 JUMPDEST PUSH1 0x1F NOT DUP5 AND DUP6 LT PUSH2 0x2C51 JUMPI PUSH1 0x1 SWAP5 POP DUP4 PUSH1 0x1F NOT DUP2 AND LT PUSH2 0x2C38 JUMPI JUMPDEST POP POP POP DUP2 SHL ADD PUSH1 0x1 DUP4 ADD SSTORE PUSH2 0x2188 JUMP JUMPDEST ADD MLOAD PUSH1 0x0 NOT PUSH1 0xF8 DUP5 PUSH1 0x3 SHL AND SHR NOT AND SWAP1 SSTORE DUP11 DUP1 DUP1 PUSH2 0x2C28 JUMP JUMPDEST DUP2 DUP2 ADD MLOAD DUP4 SSTORE PUSH1 0x20 SWAP5 DUP6 ADD SWAP5 PUSH1 0x1 SWAP1 SWAP4 ADD SWAP3 SWAP1 SWAP2 ADD SWAP1 PUSH2 0x2C0D JUMP JUMPDEST PUSH2 0x2C9B SWAP1 PUSH1 0x1 DUP8 ADD PUSH1 0x0 MSTORE PUSH1 0x20 PUSH1 0x0 KECCAK256 PUSH1 0x1F DUP6 ADD PUSH1 0x5 SHR DUP2 ADD SWAP2 PUSH1 0x20 DUP7 LT PUSH2 0xD6A JUMPI PUSH1 0x1F ADD PUSH1 0x5 SHR ADD SWAP1 PUSH2 0x3E6C JUMP JUMPDEST DUP12 PUSH2 0x2159 JUMP JUMPDEST PUSH1 0x40 MLOAD PUSH3 0x461BCD PUSH1 0xE5 SHL DUP2 MSTORE PUSH1 0x20 PUSH1 0x4 DUP3 ADD MSTORE PUSH1 0x18 PUSH1 0x24 DUP3 ADD MSTORE PUSH32 0x446973636F7665727920616C7265616479206578697374730000000000000000 PUSH1 0x44 DUP3 ADD MSTORE PUSH1 0x64 SWAP1 REVERT JUMPDEST PUSH1 0x40 MLOAD PUSH3 0x461BCD PUSH1 0xE5 SHL DUP2 MSTORE PUSH1 0x20 PUSH1 0x4 DUP3 ADD MSTORE PUSH1 0x23 PUSH1 0x24 DUP3 ADD MSTORE PUSH32 0x446966666963756C74792062656C6F7720616461707469766520746872657368 PUSH1 0x44 DUP3 ADD MSTORE PUSH3 0x1BDB19 PUSH1 0xEA SHL PUSH1 0x64 DUP3 ADD MSTORE PUSH1 0x84 SWAP1 REVERT JUMPDEST PUSH1 0x40 MLOAD PUSH3 0x461BCD PUSH1 0xE5 SHL DUP2 MSTORE PUSH1 0x20 PUSH1 0x4 DUP3 ADD MSTORE PUSH1 0x1D PUSH1 0x24 DUP3 ADD MSTORE PUSH32 0x496E73756666696369656E74207175616E74756D207365637572697479000000 PUSH1 0x44 DUP3 ADD MSTORE PUSH1 0x64 SWAP1 REVERT JUMPDEST CALLVALUE PUSH2 0x346 JUMPI PUSH1 0x0 CALLDATASIZE PUSH1 0x3 NOT ADD SLT PUSH2 0x346 JUMPI PUSH1 0x20 PUSH1 0x31 SLOAD PUSH1 0x40 MLOAD SWAP1 DUP2 MSTORE RETURN JUMPDEST CALLVALUE PUSH2 0x346 JUMPI PUSH1 0x0 CALLDATASIZE PUSH1 0x3 NOT ADD SLT PUSH2 0x346 JUMPI PUSH2 0x100 PUSH1 0x21 SLOAD PUSH1 0x22 SLOAD PUSH1 0x24 SLOAD PUSH1 0x25 SLOAD PUSH1 0x26 SLOAD PUSH1 0x32 SLOAD SWAP2 PUSH1 0x33 SLOAD SWAP4 PUSH1 0x34 SLOAD SWAP6 PUSH1 0x40 MLOAD SWAP8 DUP9 MSTORE PUSH1 0x20 DUP9 ADD MSTORE PUSH1 0x40 DUP8 ADD MSTORE PUSH1 0x60 DUP7 ADD MSTORE PUSH1 0x80 DUP6 ADD MSTORE PUSH1 0xA0 DUP5 ADD MSTORE PUSH1 0xC0 DUP4 ADD MSTORE PUSH1 0xE0 DUP3 ADD MSTORE RETURN JUMPDEST CALLVALUE PUSH2 0x346 JUMPI PUSH1 0x0 CALLDATASIZE PUSH1 0x3 NOT ADD SLT PUSH2 0x346 JUMPI PUSH1 0x20 PUSH1 0x16 SLOAD PUSH1 0x40 MLOAD SWAP1 DUP2 MSTORE RETURN JUMPDEST CALLVALUE PUSH2 0x346 JUMPI PUSH1 0x80 CALLDATASIZE PUSH1 0x3 NOT ADD SLT PUSH2 0x346 JUMPI PUSH1 0x4 CALLDATALOAD PUSH1 0x1 PUSH1 0x1 PUSH1 0x40 SHL SUB DUP2 GT PUSH2 0x346 JUMPI PUSH2 0x2E42 SWAP1 CALLDATASIZE SWAP1 PUSH1 0x4 ADD PUSH2 0x3C4C JUMP JUMPDEST PUSH1 0x64 CALLDATALOAD SWAP1 DUP2 ISZERO ISZERO DUP3 SUB PUSH2 0x346 JUMPI PUSH2 0x2E5A PUSH1 0x18 SLOAD PUSH2 0x3E5D JUMP JUMPDEST SWAP2 DUP3 PUSH1 0x18 SSTORE PUSH2 0x2E67 PUSH2 0x3EE7 JUMP JUMPDEST SWAP1 PUSH2 0x2E70 PUSH2 0x3FC9 JUMP JUMPDEST SWAP1 PUSH2 0x2E79 PUSH2 0x40A2 JUMP JUMPDEST SWAP4 PUSH1 0x40 MLOAD PUSH1 0x20 DUP2 ADD SWAP1 DUP8 DUP3 MSTORE TIMESTAMP PUSH1 0x40 DUP3 ADD MSTORE CALLER PUSH1 0x60 SHL PUSH1 0x60 DUP3 ADD MSTORE PUSH1 0x54 DUP2 MSTORE PUSH1 0x80 DUP2 ADD DUP2 DUP2 LT PUSH1 0x1 PUSH1 0x1 PUSH1 0x40 SHL SUB DUP3 GT OR PUSH2 0xD74 JUMPI PUSH1 0x40 MSTORE MLOAD SWAP1 KECCAK256 SWAP6 PUSH2 0x2EC3 PUSH1 0x24 CALLDATALOAD PUSH1 0x15 SLOAD PUSH2 0x3ED4 JUMP JUMPDEST PUSH2 0x2ED1 PUSH1 0x17 SLOAD PUSH1 0x44 CALLDATALOAD PUSH2 0x3E9D JUMP JUMPDEST DUP1 PUSH1 0xA DUP2 MUL DIV PUSH1 0xA EQ DUP2 ISZERO OR ISZERO PUSH2 0x3358 JUMPI PUSH2 0x3E8 DUP8 DIV DUP1 PUSH1 0x5 DUP2 MUL DIV PUSH1 0x5 EQ DUP2 ISZERO OR ISZERO PUSH2 0x3358 JUMPI PUSH2 0x2F12 SWAP3 PUSH1 0xA PUSH1 0x5 PUSH2 0x2F0D SWAP4 MUL SWAP4 MUL SWAP1 PUSH2 0x3E90 JUMP JUMPDEST PUSH2 0x3E90 JUMP JUMPDEST PUSH1 0x32 SLOAD PUSH1 0x33 SLOAD SWAP2 PUSH1 0x40 MLOAD SWAP10 DUP11 PUSH2 0x220 DUP2 ADD LT PUSH1 0x1 PUSH1 0x1 PUSH1 0x40 SHL SUB PUSH2 0x220 DUP14 ADD GT OR PUSH2 0xD74 JUMPI PUSH2 0x220 DUP12 ADD PUSH1 0x40 MSTORE DUP5 DUP12 MSTORE TIMESTAMP PUSH1 0x20 DUP13 ADD MSTORE PUSH1 0x40 DUP12 ADD MSTORE CALLER PUSH1 0x60 DUP12 ADD MSTORE DUP5 PUSH1 0x80 DUP12 ADD MSTORE PUSH1 0x24 CALLDATALOAD PUSH1 0xA0 DUP12 ADD MSTORE PUSH1 0x44 CALLDATALOAD PUSH1 0xC0 DUP12 ADD MSTORE DUP8 PUSH1 0xE0 DUP12 ADD MSTORE DUP7 PUSH2 0x100 DUP12 ADD MSTORE DUP9 PUSH2 0x120 DUP12 ADD MSTORE DUP6 ISZERO ISZERO PUSH2 0x140 DUP12 ADD MSTORE PUSH1 0x0 PUSH2 0x160 DUP12 ADD MSTORE PUSH2 0x180 DUP11 ADD MSTORE PUSH2 0x1A0 DUP10 ADD MSTORE PUSH2 0x1C0 DUP9 ADD MSTORE PUSH1 0x0 PUSH2 0x1E0 DUP9 ADD MSTORE PUSH1 0x0 PUSH2 0x200 DUP9 ADD MSTORE PUSH1 0x0 MSTORE PUSH1 0xB PUSH1 0x20 MSTORE PUSH1 0x40 PUSH1 0x0 KECCAK256 DUP7 MLOAD DUP2 SSTORE PUSH1 0x20 DUP8 ADD MLOAD PUSH1 0x1 DUP3 ADD SSTORE PUSH1 0x40 DUP8 ADD MLOAD PUSH1 0x2 DUP3 ADD SSTORE PUSH1 0x3 DUP2 ADD PUSH1 0x1 DUP1 PUSH1 0xA0 SHL SUB PUSH1 0x60 DUP10 ADD MLOAD AND PUSH1 0x1 PUSH1 0x1 PUSH1 0x60 SHL SUB PUSH1 0xA0 SHL DUP3 SLOAD AND OR SWAP1 SSTORE PUSH1 0x80 DUP8 ADD MLOAD DUP1 MLOAD SWAP1 PUSH1 0x1 PUSH1 0x1 PUSH1 0x40 SHL SUB DUP3 GT PUSH2 0xD74 JUMPI DUP2 SWAP1 PUSH2 0x301C PUSH1 0x4 DUP6 ADD SLOAD PUSH2 0x3CBF JUMP JUMPDEST PUSH1 0x1F DUP2 GT PUSH2 0x3510 JUMPI JUMPDEST POP PUSH1 0x20 SWAP1 PUSH1 0x1F DUP4 GT PUSH1 0x1 EQ PUSH2 0x349E JUMPI PUSH1 0x0 SWAP3 PUSH2 0x3493 JUMPI JUMPDEST POP POP DUP2 PUSH1 0x1 SHL SWAP2 PUSH1 0x0 NOT SWAP1 PUSH1 0x3 SHL SHR NOT AND OR PUSH1 0x4 DUP3 ADD SSTORE JUMPDEST PUSH1 0xA0 DUP8 ADD MLOAD PUSH1 0x5 DUP3 ADD SSTORE PUSH1 0xC0 DUP8 ADD MLOAD PUSH1 0x6 DUP3 ADD SSTORE PUSH1 0xE0 DUP8 ADD MLOAD PUSH1 0x7 DUP3 ADD SSTORE PUSH2 0x100 DUP8 ADD MLOAD PUSH1 0x8 DUP3 ADD SSTORE PUSH2 0x120 DUP8 ADD MLOAD PUSH1 0x9 DUP3 ADD SSTORE PUSH2 0x30A8 PUSH2 0x140 DUP9 ADD MLOAD ISZERO ISZERO PUSH1 0xA DUP4 ADD SWAP1 PUSH1 0xFF DUP1 NOT DUP4 SLOAD AND SWAP2 ISZERO ISZERO AND OR SWAP1 SSTORE JUMP JUMPDEST PUSH2 0x160 DUP8 ADD MLOAD PUSH1 0xB DUP3 ADD SSTORE PUSH2 0x180 DUP8 ADD MLOAD PUSH1 0xC DUP3 ADD SSTORE PUSH2 0x1A0 DUP8 ADD MLOAD PUSH1 0xD DUP3 ADD SSTORE PUSH2 0x1C0 DUP8 ADD MLOAD PUSH1 0xE DUP3 ADD SSTORE PUSH2 0x1E0 DUP8 ADD MLOAD PUSH1 0xF DUP3 ADD SSTORE PUSH1 0x10 PUSH2 0x200 DUP9 ADD MLOAD SWAP2 ADD SSTORE PUSH2 0x30F5 PUSH1 0x21 SLOAD PUSH2 0x3E5D JUMP JUMPDEST PUSH1 0x21 SSTORE DUP6 MLOAD PUSH1 0x28 SSTORE TIMESTAMP PUSH1 0x29 SSTORE PUSH2 0x140 DUP7 ADD MLOAD ISZERO PUSH2 0x3480 JUMPI PUSH2 0x3117 PUSH1 0x22 SLOAD PUSH2 0x3E5D JUMP JUMPDEST PUSH1 0x22 SSTORE JUMPDEST PUSH2 0x3126 PUSH1 0x24 SLOAD PUSH2 0x3EBD JUMP JUMPDEST PUSH1 0xE0 DUP8 ADD MLOAD SWAP1 PUSH1 0x64 DUP3 MUL SWAP2 DUP1 DUP4 DIV PUSH1 0x64 EQ SWAP1 ISZERO OR ISZERO PUSH2 0x3358 JUMPI PUSH2 0x2710 SWAP2 PUSH2 0x314C SWAP2 PUSH2 0x3E90 JUMP JUMPDEST DIV PUSH1 0x24 SSTORE PUSH2 0x315B PUSH1 0x25 SLOAD PUSH2 0x3EBD JUMP JUMPDEST PUSH2 0x100 DUP8 ADD MLOAD DUP1 PUSH1 0x64 DUP2 MUL DIV PUSH1 0x64 EQ DUP2 ISZERO OR ISZERO PUSH2 0x3358 JUMPI PUSH2 0x2710 SWAP2 PUSH1 0x64 PUSH2 0x3183 SWAP3 MUL SWAP1 PUSH2 0x3E90 JUMP JUMPDEST DIV PUSH1 0x25 SSTORE PUSH1 0xE0 DUP7 ADD MLOAD DUP7 MLOAD PUSH1 0x0 MSTORE PUSH1 0xE PUSH1 0x20 MSTORE PUSH1 0x40 PUSH1 0x0 KECCAK256 SSTORE PUSH2 0x100 DUP7 ADD MLOAD DUP7 MLOAD PUSH1 0x0 MSTORE PUSH1 0xF PUSH1 0x20 MSTORE PUSH1 0x40 PUSH1 0x0 KECCAK256 SSTORE PUSH2 0x1E0 DUP7 ADD MLOAD DUP7 MLOAD PUSH1 0x0 MSTORE PUSH1 0x10 PUSH1 0x20 MSTORE PUSH1 0x40 PUSH1 0x0 KECCAK256 SSTORE PUSH2 0x200 DUP7 ADD MLOAD DUP7 MLOAD PUSH1 0x0 MSTORE PUSH1 0x11 PUSH1 0x20 MSTORE PUSH1 0x40 PUSH1 0x0 KECCAK256 SSTORE PUSH1 0xE0 DUP7 ADD MLOAD PUSH1 0x24 SLOAD LT PUSH1 0x0 EQ PUSH2 0x3454 JUMPI PUSH1 0x32 SLOAD PUSH1 0x32 DUP2 ADD DUP2 GT PUSH2 0x3358 JUMPI PUSH1 0x32 ADD PUSH1 0x32 SSTORE JUMPDEST PUSH2 0x100 DUP7 ADD MLOAD PUSH1 0x25 SLOAD LT ISZERO PUSH2 0x3428 JUMPI PUSH1 0x33 SLOAD PUSH1 0x32 DUP2 ADD DUP2 GT PUSH2 0x3358 JUMPI PUSH1 0x32 ADD PUSH1 0x33 SSTORE JUMPDEST PUSH2 0x12C PUSH2 0x1E0 DUP8 ADD MLOAD LT PUSH1 0x0 EQ PUSH2 0x336E JUMPI PUSH1 0x34 SLOAD SWAP2 PUSH1 0x1E DUP4 ADD DUP1 SWAP4 GT PUSH2 0x3358 JUMPI PUSH32 0x621DAEB75BCDB62A282D16F46B09D9068A04F063507B085B0839F43D812B4F33 PUSH1 0xA0 PUSH1 0x20 SWAP9 PUSH32 0xB3546FF1E0B491349A7A3DB3E3547D7118128CA6C434D5F1BA8B9B185D6D3311 SWAP6 PUSH1 0x34 SSTORE JUMPDEST PUSH1 0x32 SLOAD PUSH2 0x7D0 SWAP1 DUP2 DUP2 GT ISZERO PUSH2 0x3353 JUMPI POP DUP1 JUMPDEST PUSH1 0x32 SSTORE PUSH1 0x33 SLOAD DUP2 DUP2 GT ISZERO PUSH2 0x334C JUMPI POP JUMPDEST PUSH1 0x33 SSTORE PUSH1 0x34 SLOAD PUSH2 0x5DC SWAP1 DUP2 DUP2 GT ISZERO PUSH2 0x3345 JUMPI POP JUMPDEST PUSH1 0x34 SSTORE DUP1 MLOAD SWAP1 PUSH1 0xE0 DUP2 ADD MLOAD SWAP1 PUSH2 0x1E0 PUSH2 0x100 DUP3 ADD MLOAD SWAP2 ADD MLOAD SWAP1 PUSH1 0x26 SLOAD SWAP3 PUSH1 0x40 MLOAD SWAP5 DUP6 MSTORE DUP14 DUP6 ADD MSTORE PUSH1 0x40 DUP5 ADD MSTORE PUSH1 0x60 DUP4 ADD MSTORE PUSH1 0x80 DUP3 ADD MSTORE LOG1 PUSH1 0x18 SLOAD SWAP6 DUP7 SWAP5 PUSH2 0x3319 PUSH1 0x40 MLOAD SWAP5 PUSH1 0xC0 DUP7 MSTORE PUSH1 0xC0 DUP7 ADD SWAP1 PUSH2 0x3DC2 JUMP JUMPDEST SWAP7 PUSH1 0x24 CALLDATALOAD DUP11 DUP7 ADD MSTORE PUSH1 0x40 DUP6 ADD MSTORE PUSH1 0x60 DUP5 ADD MSTORE PUSH1 0x80 DUP4 ADD MSTORE ISZERO ISZERO PUSH1 0xA0 DUP3 ADD MSTORE DUP1 CALLER SWAP5 SUB SWAP1 LOG3 PUSH1 0x40 MLOAD SWAP1 DUP2 MSTORE RETURN JUMPDEST SWAP1 POP PUSH2 0x32C7 JUMP JUMPDEST SWAP1 POP PUSH2 0x32B3 JUMP JUMPDEST PUSH2 0x32A3 JUMP JUMPDEST PUSH4 0x4E487B71 PUSH1 0xE0 SHL PUSH1 0x0 MSTORE PUSH1 0x11 PUSH1 0x4 MSTORE PUSH1 0x24 PUSH1 0x0 REVERT JUMPDEST PUSH1 0x34 SLOAD SWAP2 PUSH1 0x64 DUP4 GT ISZERO PUSH2 0x33D8 JUMPI PUSH1 0x1D NOT DUP4 ADD SWAP3 DUP4 GT PUSH2 0x3358 JUMPI PUSH32 0x621DAEB75BCDB62A282D16F46B09D9068A04F063507B085B0839F43D812B4F33 PUSH1 0xA0 PUSH1 0x20 SWAP9 PUSH32 0xB3546FF1E0B491349A7A3DB3E3547D7118128CA6C434D5F1BA8B9B185D6D3311 SWAP6 JUMPDEST PUSH1 0x34 SSTORE PUSH2 0x3291 JUMP JUMPDEST PUSH32 0xB3546FF1E0B491349A7A3DB3E3547D7118128CA6C434D5F1BA8B9B185D6D3311 SWAP3 POP PUSH32 0x621DAEB75BCDB62A282D16F46B09D9068A04F063507B085B0839F43D812B4F33 PUSH1 0xA0 PUSH1 0x20 SWAP9 PUSH1 0x64 PUSH2 0x33D0 JUMP JUMPDEST PUSH1 0x33 SLOAD PUSH1 0x64 DUP2 GT ISZERO PUSH2 0x344C JUMPI DUP1 PUSH1 0x31 NOT DUP2 ADD GT PUSH2 0x3358 JUMPI PUSH1 0x31 NOT ADD JUMPDEST PUSH1 0x33 SSTORE PUSH2 0x3225 JUMP JUMPDEST POP PUSH1 0x64 PUSH2 0x3444 JUMP JUMPDEST PUSH1 0x32 SLOAD PUSH1 0x64 DUP2 GT ISZERO PUSH2 0x3478 JUMPI DUP1 PUSH1 0x31 NOT DUP2 ADD GT PUSH2 0x3358 JUMPI PUSH1 0x31 NOT ADD JUMPDEST PUSH1 0x32 SSTORE PUSH2 0x3202 JUMP JUMPDEST POP PUSH1 0x64 PUSH2 0x3470 JUMP JUMPDEST PUSH2 0x348B PUSH1 0x23 SLOAD PUSH2 0x3E5D JUMP JUMPDEST PUSH1 0x23 SSTORE PUSH2 0x311B JUMP JUMPDEST ADD MLOAD SWAP1 POP DUP10 DUP1 PUSH2 0x303C JUMP JUMPDEST SWAP3 POP PUSH1 0x4 DUP5 ADD PUSH1 0x0 MSTORE PUSH1 0x20 PUSH1 0x0 KECCAK256 SWAP1 PUSH1 0x0 SWAP4 JUMPDEST PUSH1 0x1F NOT DUP5 AND DUP6 LT PUSH2 0x34F5 JUMPI PUSH1 0x1 SWAP5 POP DUP4 PUSH1 0x1F NOT DUP2 AND LT PUSH2 0x34DC JUMPI JUMPDEST POP POP POP DUP2 SHL ADD PUSH1 0x4 DUP3 ADD SSTORE PUSH2 0x3054 JUMP JUMPDEST ADD MLOAD PUSH1 0x0 NOT PUSH1 0xF8 DUP5 PUSH1 0x3 SHL AND SHR NOT AND SWAP1 SSTORE DUP10 DUP1 DUP1 PUSH2 0x34CC JUMP JUMPDEST DUP2 DUP2 ADD MLOAD DUP4 SSTORE PUSH1 0x20 SWAP5 DUP6 ADD SWAP5 PUSH1 0x1 SWAP1 SWAP4 ADD SWAP3 SWAP1 SWAP2 ADD SWAP1 PUSH2 0x34B1 JUMP JUMPDEST PUSH2 0x353F SWAP1 PUSH1 0x4 DUP7 ADD PUSH1 0x0 MSTORE PUSH1 0x20 PUSH1 0x0 KECCAK256 PUSH1 0x1F DUP6 ADD PUSH1 0x5 SHR DUP2 ADD SWAP2 PUSH1 0x20 DUP7 LT PUSH2 0xD6A JUMPI PUSH1 0x1F ADD PUSH1 0x5 SHR ADD SWAP1 PUSH2 0x3E6C JUMP JUMPDEST DUP11 PUSH2 0x3025 JUMP JUMPDEST CALLVALUE PUSH2 0x346 JUMPI PUSH1 0x0 CALLDATASIZE PUSH1 0x3 NOT ADD SLT PUSH2 0x346 JUMPI PUSH2 0x1A0 PUSH1 0x21 SLOAD PUSH1 0x22 SLOAD PUSH1 0x23 SLOAD PUSH1 0x24 SLOAD PUSH1 0x25 SLOAD PUSH1 0x26 SLOAD PUSH1 0x27 SLOAD PUSH1 0x28 SLOAD SWAP1 PUSH1 0x29 SLOAD SWAP3 PUSH1 0x2A SLOAD SWAP5 PUSH1 0x2B SLOAD SWAP7 PUSH1 0x2C SLOAD SWAP9 PUSH1 0x2D SLOAD SWAP11 PUSH1 0x40 MLOAD SWAP13 DUP14 MSTORE PUSH1 0x20 DUP14 ADD MSTORE PUSH1 0x40 DUP13 ADD MSTORE PUSH1 0x60 DUP12 ADD MSTORE PUSH1 0x80 DUP11 ADD MSTORE PUSH1 0xA0 DUP10 ADD MSTORE PUSH1 0xC0 DUP9 ADD MSTORE PUSH1 0xE0 DUP8 ADD MSTORE PUSH2 0x100 DUP7 ADD MSTORE PUSH2 0x120 DUP6 ADD MSTORE PUSH2 0x140 DUP5 ADD MSTORE PUSH2 0x160 DUP4 ADD MSTORE PUSH2 0x180 DUP3 ADD MSTORE RETURN JUMPDEST PUSH1 0x0 CALLDATASIZE PUSH1 0x3 NOT ADD SLT PUSH2 0x346 JUMPI PUSH1 0x19 SLOAD CALLVALUE LT PUSH2 0x36D5 JUMPI CALLVALUE ISZERO PUSH2 0x3690 JUMPI CALLER PUSH1 0x0 MSTORE PUSH1 0x8 PUSH1 0x20 MSTORE PUSH1 0x40 PUSH1 0x0 KECCAK256 PUSH2 0x3603 CALLVALUE DUP3 SLOAD PUSH2 0x3E90 JUMP JUMPDEST SWAP1 SSTORE PUSH2 0x3611 CALLVALUE PUSH1 0x1A SLOAD PUSH2 0x3E90 JUMP JUMPDEST PUSH1 0x1A SSTORE PUSH8 0xDE0B6B3A7640000 CALLVALUE DIV PUSH1 0x64 DUP2 MUL SWAP1 DUP1 DUP3 DIV PUSH1 0x64 EQ SWAP1 ISZERO OR ISZERO PUSH2 0x3358 JUMPI CALLER PUSH1 0x0 MSTORE PUSH1 0x9 PUSH1 0x20 MSTORE PUSH2 0x364B PUSH1 0x40 PUSH1 0x0 KECCAK256 SWAP2 DUP3 SLOAD PUSH2 0x3E90 JUMP JUMPDEST SWAP1 SSTORE CALLER PUSH1 0x0 MSTORE PUSH1 0x8 PUSH1 0x20 MSTORE PUSH1 0x40 PUSH1 0x0 KECCAK256 SLOAD PUSH1 0x40 MLOAD SWAP1 CALLVALUE DUP3 MSTORE PUSH1 0x20 DUP3 ADD MSTORE PUSH32 0x5CCE4A371BF9816B1A7594F1D76C98EBA4ED025FF3E471234AE598F17899BD4 PUSH1 0x40 CALLER SWAP3 LOG2 STOP JUMPDEST PUSH1 0x40 MLOAD PUSH3 0x461BCD PUSH1 0xE5 SHL DUP2 MSTORE PUSH1 0x20 PUSH1 0x4 DUP3 ADD MSTORE PUSH1 0x1D PUSH1 0x24 DUP3 ADD MSTORE PUSH32 0x5374616B6520616D6F756E74206D75737420626520706F736974697665000000 PUSH1 0x44 DUP3 ADD MSTORE PUSH1 0x64 SWAP1 REVERT JUMPDEST PUSH1 0x40 MLOAD PUSH3 0x461BCD PUSH1 0xE5 SHL DUP2 MSTORE PUSH1 0x20 PUSH1 0x4 DUP3 ADD MSTORE PUSH1 0x13 PUSH1 0x24 DUP3 ADD MSTORE PUSH19 0x5374616B652062656C6F77206D696E696D756D PUSH1 0x68 SHL PUSH1 0x44 DUP3 ADD MSTORE PUSH1 0x64 SWAP1 REVERT JUMPDEST CALLVALUE PUSH2 0x346 JUMPI PUSH1 0x0 CALLDATASIZE PUSH1 0x3 NOT ADD SLT PUSH2 0x346 JUMPI PUSH1 0x20 PUSH1 0x18 SLOAD PUSH1 0x40 MLOAD SWAP1 DUP2 MSTORE RETURN JUMPDEST CALLVALUE PUSH2 0x346 JUMPI PUSH1 0x20 DUP1 PUSH1 0x3 NOT CALLDATASIZE ADD SLT PUSH2 0x346 JUMPI PUSH1 0x4 CALLDATALOAD SWAP1 PUSH2 0x374C PUSH2 0x4197 JUMP JUMPDEST CALLER PUSH1 0x0 MSTORE PUSH1 0x8 DUP2 MSTORE DUP2 PUSH1 0x40 PUSH1 0x0 KECCAK256 SLOAD LT PUSH2 0x38A1 JUMPI DUP2 ISZERO PUSH2 0x3852 JUMPI CALLER PUSH1 0x0 MSTORE PUSH1 0x8 DUP2 MSTORE PUSH1 0x40 PUSH1 0x0 KECCAK256 PUSH2 0x377E DUP4 DUP3 SLOAD PUSH2 0x3E83 JUMP JUMPDEST SWAP1 SSTORE PUSH2 0x378C DUP3 PUSH1 0x1A SLOAD PUSH2 0x3E83 JUMP JUMPDEST PUSH1 0x1A SSTORE PUSH1 0x0 DUP1 DUP1 DUP1 DUP6 CALLER GAS CALL RETURNDATASIZE ISZERO PUSH2 0x384D JUMPI RETURNDATASIZE PUSH2 0x37A8 DUP2 PUSH2 0x3C31 JUMP JUMPDEST SWAP1 PUSH2 0x37B6 PUSH1 0x40 MLOAD SWAP3 DUP4 PUSH2 0x3C10 JUMP JUMPDEST DUP2 MSTORE PUSH1 0x0 DUP4 RETURNDATASIZE SWAP3 ADD RETURNDATACOPY JUMPDEST ISZERO PUSH2 0x3809 JUMPI CALLER PUSH1 0x0 MSTORE PUSH1 0x8 DUP2 MSTORE PUSH1 0x40 PUSH1 0x0 KECCAK256 SLOAD SWAP1 PUSH1 0x40 MLOAD SWAP3 DUP4 MSTORE DUP3 ADD MSTORE PUSH32 0x933735AA8DE6D7547D0126171B2F31B9C34DD00F3ECD4BE85A0BA047DB4FAFEF PUSH1 0x40 CALLER SWAP3 LOG2 PUSH1 0x1 DUP1 SSTORE STOP JUMPDEST PUSH1 0x64 SWAP1 PUSH1 0x40 MLOAD SWAP1 PUSH3 0x461BCD PUSH1 0xE5 SHL DUP3 MSTORE PUSH1 0x4 DUP3 ADD MSTORE PUSH1 0x17 PUSH1 0x24 DUP3 ADD MSTORE PUSH32 0x5374616B65207769746864726177616C206661696C6564000000000000000000 PUSH1 0x44 DUP3 ADD MSTORE REVERT JUMPDEST PUSH2 0x37C0 JUMP JUMPDEST PUSH1 0x84 SWAP1 PUSH1 0x40 MLOAD SWAP1 PUSH3 0x461BCD PUSH1 0xE5 SHL DUP3 MSTORE PUSH1 0x4 DUP3 ADD MSTORE PUSH1 0x22 PUSH1 0x24 DUP3 ADD MSTORE PUSH32 0x5769746864726177616C20616D6F756E74206D75737420626520706F73697469 PUSH1 0x44 DUP3 ADD MSTORE PUSH2 0x7665 PUSH1 0xF0 SHL PUSH1 0x64 DUP3 ADD MSTORE REVERT JUMPDEST PUSH1 0x64 SWAP1 PUSH1 0x40 MLOAD SWAP1 PUSH3 0x461BCD PUSH1 0xE5 SHL DUP3 MSTORE PUSH1 0x4 DUP3 ADD MSTORE PUSH1 0x12 PUSH1 0x24 DUP3 ADD MSTORE PUSH18 0x496E73756666696369656E74207374616B65 PUSH1 0x70 SHL PUSH1 0x44 DUP3 ADD MSTORE REVERT JUMPDEST CALLVALUE PUSH2 0x346 JUMPI PUSH1 0x0 CALLDATASIZE PUSH1 0x3 NOT ADD SLT PUSH2 0x346 JUMPI PUSH1 0x20 PUSH1 0x32 SLOAD PUSH1 0x40 MLOAD SWAP1 DUP2 MSTORE RETURN JUMPDEST CALLVALUE PUSH2 0x346 JUMPI PUSH1 0x20 CALLDATASIZE PUSH1 0x3 NOT ADD SLT PUSH2 0x346 JUMPI PUSH2 0x3911 PUSH2 0x3E31 JUMP JUMPDEST PUSH1 0x4 CALLDATALOAD PUSH1 0x35 SSTORE STOP JUMPDEST CALLVALUE PUSH2 0x346 JUMPI PUSH1 0x20 CALLDATASIZE PUSH1 0x3 NOT ADD SLT PUSH2 0x346 JUMPI PUSH1 0x4 CALLDATALOAD PUSH1 0x0 SWAP1 DUP2 MSTORE PUSH1 0x3 PUSH1 0x20 MSTORE PUSH1 0x40 SWAP1 KECCAK256 DUP1 SLOAD PUSH2 0x1E0 MSTORE PUSH1 0x1 DUP2 ADD SLOAD PUSH1 0x1 PUSH1 0x1 PUSH1 0xA0 SHL SUB AND SWAP1 PUSH2 0x395C PUSH1 0x2 DUP3 ADD PUSH2 0x3CF9 JUMP JUMPDEST PUSH2 0x200 MSTORE PUSH1 0x3 DUP2 ADD SLOAD PUSH2 0x220 MSTORE PUSH2 0x3975 PUSH1 0x4 DUP3 ADD PUSH2 0x3CF9 JUMP JUMPDEST SWAP2 PUSH2 0x3982 PUSH1 0x5 DUP4 ADD PUSH2 0x3CF9 JUMP JUMPDEST SWAP3 PUSH1 0x6 DUP4 ADD SLOAD SWAP4 PUSH1 0x7 DUP5 ADD SLOAD PUSH1 0x8 DUP6 ADD SLOAD PUSH1 0xFF AND PUSH1 0xA DUP7 ADD SLOAD PUSH1 0xB DUP8 ADD SLOAD SWAP2 PUSH1 0xC DUP9 ADD SLOAD SWAP4 PUSH1 0xD DUP10 ADD SLOAD PUSH1 0xFF AND SWAP6 PUSH1 0xE DUP11 ADD SLOAD SWAP8 PUSH1 0xF DUP12 ADD SLOAD SWAP10 PUSH1 0x10 DUP13 ADD SLOAD SWAP12 PUSH1 0x11 DUP2 ADD SLOAD PUSH1 0xA0 MSTORE PUSH1 0x12 ADD SLOAD PUSH2 0x120 MSTORE PUSH1 0x40 MLOAD DUP1 PUSH2 0x1C0 MSTORE PUSH2 0x1E0 MLOAD SWAP1 MSTORE PUSH2 0x1C0 MLOAD PUSH1 0x20 ADD MSTORE PUSH2 0x240 DUP1 PUSH2 0x1C0 MLOAD PUSH1 0x40 ADD MSTORE PUSH2 0x1C0 MLOAD ADD PUSH2 0x200 MLOAD SWAP1 PUSH2 0x3A07 SWAP2 PUSH2 0x3DC2 JUMP JUMPDEST PUSH2 0x220 MLOAD PUSH2 0x1C0 MLOAD PUSH1 0x60 ADD MSTORE PUSH2 0x1C0 MLOAD DUP1 DUP3 SUB SWAP1 PUSH1 0x80 ADD MSTORE PUSH2 0x3A28 SWAP2 PUSH2 0x3DC2 JUMP JUMPDEST PUSH2 0x1C0 MLOAD DUP1 DUP3 SUB SWAP1 PUSH1 0xA0 ADD MSTORE PUSH2 0x3A3D SWAP2 PUSH2 0x3DC2 JUMP JUMPDEST SWAP10 PUSH2 0x1C0 MLOAD PUSH1 0xC0 ADD MSTORE PUSH2 0x1C0 MLOAD PUSH1 0xE0 ADD MSTORE ISZERO ISZERO PUSH2 0x1C0 MLOAD PUSH2 0x100 ADD MSTORE PUSH2 0x1C0 MLOAD PUSH2 0x120 ADD MSTORE PUSH2 0x1C0 MLOAD PUSH2 0x140 ADD MSTORE PUSH2 0x1C0 MLOAD PUSH2 0x160 ADD MSTORE ISZERO ISZERO PUSH2 0x1C0 MLOAD PUSH2 0x180 ADD MSTORE PUSH2 0x1C0 MLOAD PUSH2 0x1A0 ADD MSTORE PUSH2 0x1C0 MLOAD PUSH2 0x1C0 ADD MSTORE PUSH2 0x1C0 MLOAD PUSH2 0x1E0 ADD MSTORE PUSH1 0xA0 MLOAD PUSH2 0x1C0 MLOAD PUSH2 0x200 ADD MSTORE PUSH2 0x120 MLOAD PUSH2 0x1C0 MLOAD PUSH2 0x220 ADD MSTORE PUSH2 0x1C0 MLOAD DUP1 SWAP2 SUB SWAP1 RETURN JUMPDEST CALLVALUE PUSH2 0x346 JUMPI PUSH1 0x20 CALLDATASIZE PUSH1 0x3 NOT ADD SLT PUSH2 0x346 JUMPI PUSH1 0x1 PUSH1 0x1 PUSH1 0xA0 SHL SUB PUSH2 0x3ADE PUSH2 0x3C93 JUMP JUMPDEST AND PUSH1 0x0 MSTORE PUSH1 0x8 PUSH1 0x20 MSTORE PUSH1 0x20 PUSH1 0x40 PUSH1 0x0 KECCAK256 SLOAD PUSH1 0x40 MLOAD SWAP1 DUP2 MSTORE RETURN JUMPDEST CALLVALUE PUSH2 0x346 JUMPI PUSH1 0x0 CALLDATASIZE PUSH1 0x3 NOT ADD SLT PUSH2 0x346 JUMPI PUSH1 0x20 PUSH1 0x36 SLOAD PUSH1 0x40 MLOAD SWAP1 DUP2 MSTORE RETURN JUMPDEST CALLVALUE PUSH2 0x346 JUMPI PUSH1 0x0 CALLDATASIZE PUSH1 0x3 NOT ADD SLT PUSH2 0x346 JUMPI PUSH1 0x20 PUSH1 0x34 SLOAD PUSH1 0x40 MLOAD SWAP1 DUP2 MSTORE RETURN JUMPDEST CALLVALUE PUSH2 0x346 JUMPI PUSH1 0x20 CALLDATASIZE PUSH1 0x3 NOT ADD SLT PUSH2 0x346 JUMPI PUSH1 0x4 CALLDATALOAD PUSH1 0x1 PUSH1 0x1 PUSH1 0x40 SHL SUB DUP2 GT PUSH2 0x346 JUMPI PUSH1 0x20 PUSH2 0xDF3 PUSH2 0x3B68 SWAP3 CALLDATASIZE SWAP1 PUSH1 0x4 ADD PUSH2 0x3C4C JUMP JUMPDEST PUSH1 0x6 SWAP1 DUP3 ADD SWAP1 DUP2 MSTORE SUB ADD SWAP1 KECCAK256 DUP1 SLOAD PUSH1 0xFF NOT AND PUSH1 0x1 OR SWAP1 SSTORE STOP JUMPDEST CALLVALUE PUSH2 0x346 JUMPI PUSH1 0x20 CALLDATASIZE PUSH1 0x3 NOT ADD SLT PUSH2 0x346 JUMPI PUSH2 0x3B9A PUSH2 0x3E31 JUMP JUMPDEST PUSH1 0x4 CALLDATALOAD PUSH1 0x15 SSTORE STOP JUMPDEST CALLVALUE PUSH2 0x346 JUMPI PUSH1 0x0 CALLDATASIZE PUSH1 0x3 NOT ADD SLT PUSH2 0x346 JUMPI PUSH1 0x20 SWAP1 PUSH1 0x12 SLOAD DUP2 MSTORE RETURN JUMPDEST PUSH2 0x2A0 DUP2 ADD SWAP1 DUP2 LT PUSH1 0x1 PUSH1 0x1 PUSH1 0x40 SHL SUB DUP3 GT OR PUSH2 0xD74 JUMPI PUSH1 0x40 MSTORE JUMP JUMPDEST PUSH2 0x1C0 DUP2 ADD SWAP1 DUP2 LT PUSH1 0x1 PUSH1 0x1 PUSH1 0x40 SHL SUB DUP3 GT OR PUSH2 0xD74 JUMPI PUSH1 0x40 MSTORE JUMP JUMPDEST PUSH1 0xA0 DUP2 ADD SWAP1 DUP2 LT PUSH1 0x1 PUSH1 0x1 PUSH1 0x40 SHL SUB DUP3 GT OR PUSH2 0xD74 JUMPI PUSH1 0x40 MSTORE JUMP JUMPDEST SWAP1 PUSH1 0x1F DUP1 NOT SWAP2 ADD AND DUP2 ADD SWAP1 DUP2 LT PUSH1 0x1 PUSH1 0x1 PUSH1 0x40 SHL SUB DUP3 GT OR PUSH2 0xD74 JUMPI PUSH1 0x40 MSTORE JUMP JUMPDEST PUSH1 0x1 PUSH1 0x1 PUSH1 0x40 SHL SUB DUP2 GT PUSH2 0xD74 JUMPI PUSH1 0x1F ADD PUSH1 0x1F NOT AND PUSH1 0x20 ADD SWAP1 JUMP JUMPDEST DUP2 PUSH1 0x1F DUP3 ADD SLT ISZERO PUSH2 0x346 JUMPI DUP1 CALLDATALOAD SWAP1 PUSH2 0x3C63 DUP3 PUSH2 0x3C31 JUMP JUMPDEST SWAP3 PUSH2 0x3C71 PUSH1 0x40 MLOAD SWAP5 DUP6 PUSH2 0x3C10 JUMP JUMPDEST DUP3 DUP5 MSTORE PUSH1 0x20 DUP4 DUP4 ADD ADD GT PUSH2 0x346 JUMPI DUP2 PUSH1 0x0 SWAP3 PUSH1 0x20 DUP1 SWAP4 ADD DUP4 DUP7 ADD CALLDATACOPY DUP4 ADD ADD MSTORE SWAP1 JUMP JUMPDEST PUSH1 0x4 CALLDATALOAD SWAP1 PUSH1 0x1 PUSH1 0x1 PUSH1 0xA0 SHL SUB DUP3 AND DUP3 SUB PUSH2 0x346 JUMPI JUMP JUMPDEST PUSH1 0x24 CALLDATALOAD SWAP1 PUSH1 0x1 PUSH1 0x1 PUSH1 0xA0 SHL SUB DUP3 AND DUP3 SUB PUSH2 0x346 JUMPI JUMP JUMPDEST SWAP1 PUSH1 0x1 DUP3 DUP2 SHR SWAP3 AND DUP1 ISZERO PUSH2 0x3CEF JUMPI JUMPDEST PUSH1 0x20 DUP4 LT EQ PUSH2 0x3CD9 JUMPI JUMP JUMPDEST PUSH4 0x4E487B71 PUSH1 0xE0 SHL PUSH1 0x0 MSTORE PUSH1 0x22 PUSH1 0x4 MSTORE PUSH1 0x24 PUSH1 0x0 REVERT JUMPDEST SWAP2 PUSH1 0x7F AND SWAP2 PUSH2 0x3CCE JUMP JUMPDEST SWAP1 PUSH1 0x40 MLOAD SWAP2 DUP3 PUSH1 0x0 DUP3 SLOAD SWAP3 PUSH2 0x3D0D DUP5 PUSH2 0x3CBF JUMP JUMPDEST SWAP1 DUP2 DUP5 MSTORE PUSH1 0x1 SWAP5 DUP6 DUP2 AND SWAP1 DUP2 PUSH1 0x0 EQ PUSH2 0x3D7C JUMPI POP PUSH1 0x1 EQ PUSH2 0x3D39 JUMPI JUMPDEST POP POP PUSH2 0x3D37 SWAP3 POP SUB DUP4 PUSH2 0x3C10 JUMP JUMPDEST JUMP JUMPDEST SWAP1 SWAP4 SWAP2 POP PUSH1 0x0 MSTORE PUSH1 0x20 SWAP1 DUP2 PUSH1 0x0 KECCAK256 SWAP4 PUSH1 0x0 SWAP2 JUMPDEST DUP2 DUP4 LT PUSH2 0x3D64 JUMPI POP POP PUSH2 0x3D37 SWAP4 POP DUP3 ADD ADD CODESIZE DUP1 PUSH2 0x3D29 JUMP JUMPDEST DUP6 SLOAD DUP9 DUP5 ADD DUP6 ADD MSTORE SWAP5 DUP6 ADD SWAP5 DUP8 SWAP5 POP SWAP2 DUP4 ADD SWAP2 PUSH2 0x3D4C JUMP JUMPDEST SWAP2 POP POP PUSH2 0x3D37 SWAP5 POP PUSH1 0x20 SWAP3 POP PUSH1 0xFF NOT AND DUP3 DUP5 ADD MSTORE ISZERO ISZERO PUSH1 0x5 SHL DUP3 ADD ADD CODESIZE DUP1 PUSH2 0x3D29 JUMP JUMPDEST PUSH1 0x0 JUMPDEST DUP4 DUP2 LT PUSH2 0x3DB2 JUMPI POP POP PUSH1 0x0 SWAP2 ADD MSTORE JUMP JUMPDEST DUP2 DUP2 ADD MLOAD DUP4 DUP3 ADD MSTORE PUSH1 0x20 ADD PUSH2 0x3DA2 JUMP JUMPDEST SWAP1 PUSH1 0x20 SWAP2 PUSH2 0x3DDB DUP2 MLOAD DUP1 SWAP3 DUP2 DUP6 MSTORE DUP6 DUP1 DUP7 ADD SWAP2 ADD PUSH2 0x3D9F JUMP JUMPDEST PUSH1 0x1F ADD PUSH1 0x1F NOT AND ADD ADD SWAP1 JUMP JUMPDEST DUP1 SLOAD DUP3 LT ISZERO PUSH2 0x3DFF JUMPI PUSH1 0x0 MSTORE PUSH1 0x20 PUSH1 0x0 KECCAK256 ADD SWAP1 PUSH1 0x0 SWAP1 JUMP JUMPDEST PUSH4 0x4E487B71 PUSH1 0xE0 SHL PUSH1 0x0 MSTORE PUSH1 0x32 PUSH1 0x4 MSTORE PUSH1 0x24 PUSH1 0x0 REVERT JUMPDEST DUP1 SLOAD DUP3 LT ISZERO PUSH2 0x3DFF JUMPI PUSH1 0x0 MSTORE PUSH1 0xE PUSH1 0x20 PUSH1 0x0 KECCAK256 SWAP2 MUL ADD SWAP1 PUSH1 0x0 SWAP1 JUMP JUMPDEST PUSH1 0x0 SLOAD PUSH1 0x1 PUSH1 0x1 PUSH1 0xA0 SHL SUB AND CALLER SUB PUSH2 0x3E45 JUMPI JUMP JUMPDEST PUSH1 0x40 MLOAD PUSH4 0x118CDAA7 PUSH1 0xE0 SHL DUP2 MSTORE CALLER PUSH1 0x4 DUP3 ADD MSTORE PUSH1 0x24 SWAP1 REVERT JUMPDEST PUSH1 0x0 NOT DUP2 EQ PUSH2 0x3358 JUMPI PUSH1 0x1 ADD SWAP1 JUMP JUMPDEST DUP2 DUP2 LT PUSH2 0x3E77 JUMPI POP POP JUMP JUMPDEST PUSH1 0x0 DUP2 SSTORE PUSH1 0x1 ADD PUSH2 0x3E6C JUMP JUMPDEST SWAP2 SWAP1 DUP3 SUB SWAP2 DUP3 GT PUSH2 0x3358 JUMPI JUMP JUMPDEST SWAP2 SWAP1 DUP3 ADD DUP1 SWAP3 GT PUSH2 0x3358 JUMPI JUMP JUMPDEST DUP2 ISZERO PUSH2 0x3EA7 JUMPI DIV SWAP1 JUMP JUMPDEST PUSH4 0x4E487B71 PUSH1 0xE0 SHL PUSH1 0x0 MSTORE PUSH1 0x12 PUSH1 0x4 MSTORE PUSH1 0x24 PUSH1 0x0 REVERT JUMPDEST SWAP1 PUSH2 0x26AC SWAP2 DUP3 DUP2 MUL SWAP3 DUP2 DUP5 DIV EQ SWAP1 ISZERO OR ISZERO PUSH2 0x3358 JUMPI JUMP JUMPDEST DUP2 DUP2 MUL SWAP3 SWAP2 DUP2 ISZERO SWAP2 DUP5 DIV EQ OR ISZERO PUSH2 0x3358 JUMPI JUMP JUMPDEST PUSH1 0x21 SLOAD SWAP1 DUP2 ISZERO PUSH2 0x3FC2 JUMPI SWAP1 PUSH1 0x0 DUP1 DUP2 SWAP4 PUSH1 0x35 SLOAD SWAP4 PUSH1 0x28 SLOAD SWAP6 JUMPDEST DUP6 DUP2 LT DUP1 PUSH2 0x3FB9 JUMPI JUMPDEST ISZERO PUSH2 0x3F7D JUMPI PUSH2 0x3F18 DUP2 DUP9 PUSH2 0x3E83 JUMP JUMPDEST DUP1 ISZERO ISZERO DUP1 PUSH2 0x3F66 JUMPI JUMPDEST PUSH2 0x3F35 JUMPI JUMPDEST POP PUSH2 0x3F30 SWAP1 PUSH2 0x3E5D JUMP JUMPDEST PUSH2 0x3F00 JUMP JUMPDEST PUSH2 0x3F59 PUSH2 0x3F30 SWAP3 SWAP6 SWAP7 PUSH2 0x3F5F SWAP3 PUSH1 0x0 MSTORE PUSH1 0xB PUSH1 0x20 MSTORE PUSH1 0x7 PUSH1 0x40 PUSH1 0x0 KECCAK256 ADD SLOAD SWAP1 PUSH2 0x3E90 JUMP JUMPDEST SWAP6 PUSH2 0x3E5D JUMP JUMPDEST SWAP4 SWAP1 PUSH2 0x3F26 JUMP JUMPDEST POP DUP1 PUSH1 0x0 MSTORE PUSH1 0xB PUSH1 0x20 MSTORE PUSH1 0x40 PUSH1 0x0 KECCAK256 SLOAD ISZERO ISZERO PUSH2 0x3F21 JUMP JUMPDEST POP POP SWAP4 POP SWAP2 POP DUP2 ISZERO PUSH2 0x3FB1 JUMPI PUSH2 0x3FA5 PUSH2 0x3F9C PUSH2 0x3FAE SWAP4 PUSH2 0x2710 SWAP4 PUSH2 0x3E9D JUMP JUMPDEST PUSH1 0x32 SLOAD SWAP1 PUSH2 0x3ED4 JUMP JUMPDEST DIV PUSH1 0x24 SLOAD PUSH2 0x3E90 JUMP JUMPDEST SWAP1 JUMP JUMPDEST POP POP PUSH1 0x24 SLOAD SWAP1 JUMP JUMPDEST POP DUP2 DUP2 LT PUSH2 0x3F09 JUMP JUMPDEST PUSH2 0x3E8 SWAP2 POP JUMP JUMPDEST PUSH1 0x21 SLOAD SWAP1 DUP2 ISZERO PUSH2 0x409B JUMPI SWAP1 PUSH1 0x0 DUP1 DUP2 SWAP4 PUSH1 0x35 SLOAD SWAP4 PUSH1 0x28 SLOAD SWAP6 JUMPDEST DUP6 DUP2 LT DUP1 PUSH2 0x4092 JUMPI JUMPDEST ISZERO PUSH2 0x4059 JUMPI PUSH2 0x3FFA DUP2 DUP9 PUSH2 0x3E83 JUMP JUMPDEST DUP1 ISZERO ISZERO DUP1 PUSH2 0x4042 JUMPI JUMPDEST PUSH2 0x4017 JUMPI JUMPDEST POP PUSH2 0x4012 SWAP1 PUSH2 0x3E5D JUMP JUMPDEST PUSH2 0x3FE2 JUMP JUMPDEST PUSH2 0x3F59 PUSH2 0x4012 SWAP3 SWAP6 SWAP7 PUSH2 0x403B SWAP3 PUSH1 0x0 MSTORE PUSH1 0xB PUSH1 0x20 MSTORE PUSH1 0x8 PUSH1 0x40 PUSH1 0x0 KECCAK256 ADD SLOAD SWAP1 PUSH2 0x3E90 JUMP JUMPDEST SWAP4 SWAP1 PUSH2 0x4008 JUMP JUMPDEST POP DUP1 PUSH1 0x0 MSTORE PUSH1 0xB PUSH1 0x20 MSTORE PUSH1 0x40 PUSH1 0x0 KECCAK256 SLOAD ISZERO ISZERO PUSH2 0x4003 JUMP JUMPDEST POP POP SWAP4 POP SWAP2 POP DUP2 ISZERO PUSH2 0x408A JUMPI PUSH2 0x4081 PUSH2 0x4078 PUSH2 0x3FAE SWAP4 PUSH2 0x2710 SWAP4 PUSH2 0x3E9D JUMP JUMPDEST PUSH1 0x33 SLOAD SWAP1 PUSH2 0x3ED4 JUMP JUMPDEST DIV PUSH1 0x25 SLOAD PUSH2 0x3E90 JUMP JUMPDEST POP POP PUSH1 0x25 SLOAD SWAP1 JUMP JUMPDEST POP DUP2 DUP2 LT PUSH2 0x3FEB JUMP JUMPDEST PUSH1 0x17 SLOAD SWAP2 POP JUMP JUMPDEST PUSH2 0x40AA PUSH2 0x3EE7 JUMP JUMPDEST PUSH2 0x40B2 PUSH2 0x3FC9 JUMP JUMPDEST SWAP1 PUSH1 0x2C SLOAD SWAP2 PUSH2 0x190 SWAP1 DUP2 DUP4 MUL SWAP3 DUP1 DUP5 DIV DUP4 EQ SWAP1 ISZERO OR ISZERO PUSH2 0x3358 JUMPI DUP2 DUP2 MUL SWAP2 DUP2 DUP4 DIV EQ SWAP1 ISZERO OR ISZERO PUSH2 0x3358 JUMPI PUSH2 0x40E5 SWAP2 PUSH2 0x3E90 JUMP JUMPDEST PUSH1 0xC8 DUP3 MUL SWAP2 DUP1 DUP4 DIV PUSH1 0xC8 EQ SWAP1 ISZERO OR ISZERO PUSH2 0x3358 JUMPI PUSH2 0x3E8 SWAP2 PUSH2 0x4105 SWAP2 PUSH2 0x3E90 JUMP JUMPDEST DIV SWAP1 JUMP JUMPDEST ISZERO PUSH2 0x4110 JUMPI JUMP JUMPDEST PUSH1 0x40 MLOAD PUSH3 0x461BCD PUSH1 0xE5 SHL DUP2 MSTORE PUSH1 0x20 PUSH1 0x4 DUP3 ADD MSTORE PUSH1 0x17 PUSH1 0x24 DUP3 ADD MSTORE PUSH32 0x576F726B2074797065206E6F7420737570706F72746564000000000000000000 PUSH1 0x44 DUP3 ADD MSTORE PUSH1 0x64 SWAP1 REVERT JUMPDEST ISZERO PUSH2 0x415C JUMPI JUMP JUMPDEST PUSH1 0x40 MLOAD PUSH3 0x461BCD PUSH1 0xE5 SHL DUP2 MSTORE PUSH1 0x20 PUSH1 0x4 DUP3 ADD MSTORE PUSH1 0x13 PUSH1 0x24 DUP3 ADD MSTORE PUSH19 0x88D2CCCCD2C6EAD8E8F240E8DEDE40D0D2CED PUSH1 0x6B SHL PUSH1 0x44 DUP3 ADD MSTORE PUSH1 0x64 SWAP1 REVERT JUMPDEST PUSH1 0x2 PUSH1 0x1 SLOAD EQ PUSH2 0x41A8 JUMPI PUSH1 0x2 PUSH1 0x1 SSTORE JUMP JUMPDEST PUSH1 0x40 MLOAD PUSH4 0x3EE5AEB5 PUSH1 0xE0 SHL DUP2 MSTORE PUSH1 0x4 SWAP1 REVERT JUMPDEST PUSH2 0x3FAE PUSH1 0x28 PUSH1 0x24 SLOAD DIV PUSH2 0x2F0D PUSH2 0x41D5 PUSH1 0x25 SLOAD PUSH1 0x17 SLOAD SWAP1 PUSH2 0x3E9D JUMP JUMPDEST PUSH2 0x41EE PUSH2 0x3E8 PUSH1 0x2C SLOAD DIV SWAP2 PUSH2 0x41E8 PUSH2 0x41F3 JUMP JUMPDEST SWAP5 PUSH2 0x3ED4 JUMP JUMPDEST PUSH2 0x3ED4 JUMP JUMPDEST PUSH1 0x21 SLOAD PUSH1 0xA DUP2 LT PUSH2 0x4241 JUMPI PUSH1 0x22 SLOAD SWAP1 PUSH2 0x2710 SWAP2 DUP3 DUP2 MUL SWAP3 DUP2 DUP5 DIV EQ SWAP1 ISZERO OR ISZERO PUSH2 0x3358 JUMPI PUSH2 0x421F SWAP2 PUSH2 0x3E9D JUMP JUMPDEST PUSH2 0x1F40 DUP2 GT ISZERO PUSH2 0x422F JUMPI POP PUSH1 0x5 SWAP1 JUMP JUMPDEST PUSH2 0x1B58 GT PUSH2 0x423C JUMPI PUSH1 0x0 SWAP1 JUMP JUMPDEST PUSH1 0x0 SWAP1 JUMP JUMPDEST POP PUSH1 0x0 SWAP1 JUMP JUMPDEST PUSH1 0x1 PUSH1 0x1 PUSH1 0x40 SHL SUB DUP2 GT PUSH2 0xD74 JUMPI PUSH1 0x5 SHL PUSH1 0x20 ADD SWAP1 JUMP INVALID LOG2 PUSH5 0x6970667358 0x22 SLT KECCAK256 0xF9 SWAP13 0xCA MSTORE8 0xF8 SWAP4 0xAD 0x2E MOD STATICCALL 0xCF PUSH20 0x72BA3636983B63327F13FC9692CFF2A40B8B631B PUSH5 0x736F6C6343 STOP ADDMOD EQ STOP CALLER "},"methodIdentifiers":{"adaptiveLearningRate()":"80c030bd","adaptiveState()":"3d777c3d","addWorkType(string)":"05f4b26f","algorithmLearningRate()":"25058e79","baseReward()":"76ad03bc","blockAlgorithmEfficiency(uint256)":"9f9784ae","blockConsensusTime(uint256)":"5ce8e336","blockLearningWindow()":"aa6bb635","blockSecurityStrength(uint256)":"880028ac","blockTime()":"48b15166","blockValidatorParticipation(uint256)":"d4bfdd33","blocks(uint256)":"f25b3f99","calculateAdaptiveDifficulty(string)":"93037e0b","completeMiningSession(uint256)":"f1997dc9","consensusLearningRate()":"064bad23","consensusThreshold()":"f9b0b5b9","createBlock(string,uint256,uint256,bool)":"41bd60b5","currentBlockNumber()":"378ec23b","difficultyAdjustmentInterval()":"f2884385","discoveries(bytes32)":"5ffecc3f","discoveryValidatorApprovals(bytes32,address)":"bde0e23d","getAdaptiveLearningState()":"51f4205c","getBlockLearningMetrics(uint256)":"66f0c7c5","getDiscovery(bytes32)":"6b0eae81","getMinerRewards(address)":"11c50d26","getMiningSessions(address)":"a48458fe","lastDifficultyAdjustment()":"52ddb906","maxDifficulty()":"9a997453","minerRewards(address)":"a56c94ec","minimumBlockConfidence()":"0ff8b572","minimumStake()":"ec5ffac2","miningSessions(address,uint256)":"ce93734b","owner()":"8da5cb5b","quantumSecurityLevel()":"7ada463a","registerAdaptiveValidator()":"e338824f","removeWorkType(string)":"eb802edf","renounceOwnership()":"715018a6","reputationDecayRate()":"960e6f88","reputationScores(address)":"fe0438b2","requiredValidators()":"97c875dd","securityLearningRate()":"bd97b14a","setAlgorithmLearningRate(uint256)":"819cc837","setBaseReward(uint256)":"0373a23a","setBlockLearningWindow(uint256)":"17fa9923","setBlockTime(uint256)":"758b1ce3","setConsensusLearningRate(uint256)":"64e5a675","setMaxDifficulty(uint256)":"f4ce57b5","setMinimumBlockConfidence(uint256)":"efa075cf","setQuantumSecurityLevel(uint256)":"f7eb7ac8","setSecurityLearningRate(uint256)":"9c0a058e","slashingPenalty()":"89f1ea64","stake()":"3a4b66f1","stakedAmounts(address)":"10c1c103","startMiningSession(string,uint256)":"eda057f1","submitDiscovery(string,uint256,string,string,uint256)":"56ae8fb3","totalDiscoveries()":"03330528","totalRewardsDistributed()":"ee172546","totalStaked()":"817b1cd2","transferOwnership(address)":"f2fde38b","validationTaskResults(bytes32,address)":"bcef7670","validationTasks(bytes32)":"117fd6e8","validationTimeout()":"db94e942","validatorAssignments(address,uint256)":"ac22a69a","validatorReward()":"75b94133","validatorSelectionStake()":"f99dec4e","validators(address)":"fa52c7d8","withdrawStake(uint256)":"25d5971f","workTypes(string)":"8d1771c2"}}}}}