{"contracts/ProductiveMiner.sol":{"ProductiveMiner":{"abi":[{"inputs":[],"stateMutability":"nonpayable","type":"constructor"},{"inputs":[{"internalType":"address","name":"owner","type":"address"}],"name":"OwnableInvalidOwner","type":"error"},{"inputs":[{"internalType":"address","name":"account","type":"address"}],"name":"OwnableUnauthorizedAccount","type":"error"},{"inputs":[],"name":"ReentrancyGuardReentrantCall","type":"error"},{"anonymous":false,"inputs":[{"indexed":true,"internalType":"bytes32","name":"discoveryId","type":"bytes32"},{"indexed":true,"internalType":"address","name":"miner","type":"address"},{"indexed":false,"internalType":"string","name":"workType","type":"string"},{"indexed":false,"internalType":"uint256","name":"difficulty","type":"uint256"},{"indexed":false,"internalType":"uint256","name":"reward","type":"uint256"}],"name":"DiscoverySubmitted","type":"event"},{"anonymous":false,"inputs":[{"indexed":true,"internalType":"address","name":"miner","type":"address"},{"indexed":false,"internalType":"string","name":"workType","type":"string"},{"indexed":false,"internalType":"uint256","name":"difficulty","type":"uint256"}],"name":"MiningSessionCompleted","type":"event"},{"anonymous":false,"inputs":[{"indexed":true,"internalType":"address","name":"miner","type":"address"},{"indexed":false,"internalType":"string","name":"workType","type":"string"},{"indexed":false,"internalType":"uint256","name":"difficulty","type":"uint256"}],"name":"MiningSessionStarted","type":"event"},{"anonymous":false,"inputs":[{"indexed":true,"internalType":"address","name":"previousOwner","type":"address"},{"indexed":true,"internalType":"address","name":"newOwner","type":"address"}],"name":"OwnershipTransferred","type":"event"},{"inputs":[{"internalType":"string","name":"_workType","type":"string"}],"name":"addWorkType","outputs":[],"stateMutability":"nonpayable","type":"function"},{"inputs":[],"name":"baseReward","outputs":[{"internalType":"uint256","name":"","type":"uint256"}],"stateMutability":"view","type":"function"},{"inputs":[],"name":"blockTime","outputs":[{"internalType":"uint256","name":"","type":"uint256"}],"stateMutability":"view","type":"function"},{"inputs":[{"internalType":"uint256","name":"_difficulty","type":"uint256"},{"internalType":"uint256","name":"_quantumSecurity","type":"uint256"}],"name":"calculateReward","outputs":[{"internalType":"uint256","name":"","type":"uint256"}],"stateMutability":"view","type":"function"},{"inputs":[{"internalType":"uint256","name":"_sessionIndex","type":"uint256"}],"name":"completeMiningSession","outputs":[],"stateMutability":"nonpayable","type":"function"},{"inputs":[{"internalType":"bytes32","name":"","type":"bytes32"}],"name":"discoveries","outputs":[{"internalType":"address","name":"miner","type":"address"},{"internalType":"string","name":"workType","type":"string"},{"internalType":"uint256","name":"difficulty","type":"uint256"},{"internalType":"string","name":"result","type":"string"},{"internalType":"string","name":"proofOfWork","type":"string"},{"internalType":"uint256","name":"quantumSecurity","type":"uint256"},{"internalType":"uint256","name":"timestamp","type":"uint256"},{"internalType":"uint256","name":"reward","type":"uint256"},{"internalType":"bool","name":"verified","type":"bool"}],"stateMutability":"view","type":"function"},{"inputs":[{"internalType":"bytes32","name":"_discoveryId","type":"bytes32"}],"name":"getDiscovery","outputs":[{"components":[{"internalType":"address","name":"miner","type":"address"},{"internalType":"string","name":"workType","type":"string"},{"internalType":"uint256","name":"difficulty","type":"uint256"},{"internalType":"string","name":"result","type":"string"},{"internalType":"string","name":"proofOfWork","type":"string"},{"internalType":"uint256","name":"quantumSecurity","type":"uint256"},{"internalType":"uint256","name":"timestamp","type":"uint256"},{"internalType":"uint256","name":"reward","type":"uint256"},{"internalType":"bool","name":"verified","type":"bool"}],"internalType":"struct ProductiveMiner.Discovery","name":"","type":"tuple"}],"stateMutability":"view","type":"function"},{"inputs":[{"internalType":"address","name":"_miner","type":"address"}],"name":"getMinerRewards","outputs":[{"internalType":"uint256","name":"","type":"uint256"}],"stateMutability":"view","type":"function"},{"inputs":[{"internalType":"address","name":"_miner","type":"address"}],"name":"getMiningSessions","outputs":[{"components":[{"internalType":"address","name":"miner","type":"address"},{"internalType":"string","name":"workType","type":"string"},{"internalType":"uint256","name":"difficulty","type":"uint256"},{"internalType":"uint256","name":"startTime","type":"uint256"},{"internalType":"uint256","name":"endTime","type":"uint256"},{"internalType":"uint256","name":"progress","type":"uint256"},{"internalType":"bool","name":"active","type":"bool"}],"internalType":"struct ProductiveMiner.MiningSession[]","name":"","type":"tuple[]"}],"stateMutability":"view","type":"function"},{"inputs":[],"name":"maxDifficulty","outputs":[{"internalType":"uint256","name":"","type":"uint256"}],"stateMutability":"view","type":"function"},{"inputs":[{"internalType":"address","name":"","type":"address"}],"name":"minerRewards","outputs":[{"internalType":"uint256","name":"","type":"uint256"}],"stateMutability":"view","type":"function"},{"inputs":[{"internalType":"address","name":"","type":"address"},{"internalType":"uint256","name":"","type":"uint256"}],"name":"miningSessions","outputs":[{"internalType":"address","name":"miner","type":"address"},{"internalType":"string","name":"workType","type":"string"},{"internalType":"uint256","name":"difficulty","type":"uint256"},{"internalType":"uint256","name":"startTime","type":"uint256"},{"internalType":"uint256","name":"endTime","type":"uint256"},{"internalType":"uint256","name":"progress","type":"uint256"},{"internalType":"bool","name":"active","type":"bool"}],"stateMutability":"view","type":"function"},{"inputs":[],"name":"owner","outputs":[{"internalType":"address","name":"","type":"address"}],"stateMutability":"view","type":"function"},{"inputs":[],"name":"quantumSecurityLevel","outputs":[{"internalType":"uint256","name":"","type":"uint256"}],"stateMutability":"view","type":"function"},{"inputs":[{"internalType":"string","name":"_workType","type":"string"}],"name":"removeWorkType","outputs":[],"stateMutability":"nonpayable","type":"function"},{"inputs":[],"name":"renounceOwnership","outputs":[],"stateMutability":"nonpayable","type":"function"},{"inputs":[{"internalType":"uint256","name":"_baseReward","type":"uint256"}],"name":"setBaseReward","outputs":[],"stateMutability":"nonpayable","type":"function"},{"inputs":[{"internalType":"uint256","name":"_blockTime","type":"uint256"}],"name":"setBlockTime","outputs":[],"stateMutability":"nonpayable","type":"function"},{"inputs":[{"internalType":"uint256","name":"_maxDifficulty","type":"uint256"}],"name":"setMaxDifficulty","outputs":[],"stateMutability":"nonpayable","type":"function"},{"inputs":[{"internalType":"uint256","name":"_level","type":"uint256"}],"name":"setQuantumSecurityLevel","outputs":[],"stateMutability":"nonpayable","type":"function"},{"inputs":[{"internalType":"string","name":"_workType","type":"string"},{"internalType":"uint256","name":"_difficulty","type":"uint256"}],"name":"startMiningSession","outputs":[],"stateMutability":"nonpayable","type":"function"},{"inputs":[{"internalType":"string","name":"_workType","type":"string"},{"internalType":"uint256","name":"_difficulty","type":"uint256"},{"internalType":"string","name":"_result","type":"string"},{"internalType":"string","name":"_proofOfWork","type":"string"},{"internalType":"uint256","name":"_quantumSecurity","type":"uint256"}],"name":"submitDiscovery","outputs":[],"stateMutability":"nonpayable","type":"function"},{"inputs":[],"name":"totalDiscoveries","outputs":[{"internalType":"uint256","name":"","type":"uint256"}],"stateMutability":"view","type":"function"},{"inputs":[],"name":"totalRewardsDistributed","outputs":[{"internalType":"uint256","name":"","type":"uint256"}],"stateMutability":"view","type":"function"},{"inputs":[{"internalType":"address","name":"newOwner","type":"address"}],"name":"transferOwnership","outputs":[],"stateMutability":"nonpayable","type":"function"},{"inputs":[{"internalType":"string","name":"","type":"string"}],"name":"workTypes","outputs":[{"internalType":"bool","name":"","type":"bool"}],"stateMutability":"view","type":"function"}],"evm":{"bytecode":{"linkReferences":{},"object":"60806040908082523461028057331561026a575060008054336001600160a01b031982168117835583519290916001600160a01b0316907f8be0079c531659141344cd1fd0a4f28419497f9722a3daafe3b4186f6b6457e09080a3600180805560326008556064600955601e600a55610100600b557f5072696d65205061747465726e20446973636f76657279000000000000000000825260346037600593846017820152209260ff19938385825416179055603885517f5269656d616e6e205a65726f20436f6d7075746174696f6e00000000000000008152826018820152208385825416179055603785517f59616e672d4d696c6c73204669656c64205468656f727900000000000000000081528260178201522083858254161790558480517f476f6c646261636820436f6e6a65637475726520566572696669636174696f6e8152826020820152208385825416179055603885517f4e61766965722d53746f6b65732053696d756c6174696f6e00000000000000008152826018820152208385825416179055603585517f42697263682d5377696e6e6572746f6e2d4479657200000000000000000000008152826015820152208385825416179055603b85517f456c6c69707469632043757276652043727970746f6772617068790000000000815282601b8201522083858254161790558185517f4c6174746963652043727970746f67726170687900000000000000000000000081528260148201522083858254161790558451907f506f696e636172c3a920436f6e6a656374757265000000000000000000000000825260148201522091825416179055516118dc90816102868239f35b631e4fbdf760e01b815260006004820152602490fd5b600080fdfe608080604052600436101561001357600080fd5b60e0600035811c9182630333052814611552575081630373a23a1461153157816305f4b26f146114e357816311c50d261461085a57816313ed0846146114ba57816348b151661461149c57816356ae8fb314610dcb5781635ffecc3f14610cf75781636b0eae8114610b76578163715018a614610b1d578163758b1ce314610afc57816376ad03bc14610ade5781637ada463a14610ac05781638d1771c214610a725781638da5cb5b14610a495781639a99745314610a2b578163a48458fe14610894578163a56c94ec1461085a578163ce93734b146107a857508063eb802edf14610742578063eda057f114610470578063ee17254614610452578063f1997dc914610214578063f2fde38b14610186578063f4ce57b5146101655763f7eb7ac81461013f57600080fd5b346101605760203660031901126101605761015861178b565b600435600b55005b600080fd5b346101605760203660031901126101605761017e61178b565b600435600855005b346101605760203660031901126101605761019f61161b565b6101a761178b565b6001600160a01b039081169081156101fb57600054826bffffffffffffffffffffffff60a01b821617600055167f8be0079c531659141344cd1fd0a4f28419497f9722a3daafe3b4186f6b6457e0600080a3005b604051631e4fbdf760e01b815260006004820152602490fd5b34610160576020806003193601126101605760043533600052600390818352604060002054811015610415573360005281835260ff6006610259836040600020611759565b50015416156103db5733600052818352610277816040600020611759565b50600442910155336000528183526006610295826040600020611759565b500160ff19908181541690553360005282845260026102d36102bb846040600020611759565b50936001809501953360005287526040600020611759565b50015490604051926040845260009480546102ed81611631565b93846040880152838216918260001461039a57505060011461033b575b5050507feb041a4400a9d2511c288dfb9cb88f79eccaf9216f6d26cbaa0f6866ca7f5d5c92938201528033930390a2005b9094506000528460002093856000955b838710610385575050505060607feb041a4400a9d2511c288dfb9cb88f79eccaf9216f6d26cbaa0f6866ca7f5d5c9383010192858061030a565b8054868801606001529501948690820161034b565b915091507feb041a4400a9d2511c288dfb9cb88f79eccaf9216f6d26cbaa0f6866ca7f5d5c965060609392501682850152151560051b83010192858061030a565b60405162461bcd60e51b815260048101849052601260248201527153657373696f6e206e6f742061637469766560701b6044820152606490fd5b60405162461bcd60e51b8152600481018490526015602482015274092dcecc2d8d2c840e6cae6e6d2dedc40d2dcc8caf605b1b6044820152606490fd5b34610160576000366003190112610160576020600754604051908152f35b34610160576040366003190112610160576001600160401b03600435818111610160576104a19036906004016115c5565b6104cc60ff60405160208185516104bb8183858a01611711565b8101600581520301902054166117b7565b6104dc6008546024351115611803565b6040516104e881611589565b3381526020810190828252602435604082015242606082015260006080820152600060a0820152600160c082015233600052600360205260406000208054680100000000000000008110156107165761054691600182018155611759565b92909261072c57815183546001600160a01b0319166001600160a01b039190911617835551805190948111610716576105826001840154611631565b601f81116106cf575b506020601f821160011461065757918160c092600694610605979860009261064c575b50508160011b916000199060031b1c19161760018501555b60408101516002850155606081015160038501556080810151600485015560a081015160058501550151151591019060ff801983541691151516179055565b7f7406477a70c638aff8ba441e8046f297acd46e688a168afc38e98cf96703d43661063b60405192604084526040840190611734565b9160243560208201528033930390a2005b0151905088806105ae565b6001840160005260206000209560005b601f19841681106106b757508261060596976006959360019360c096601f1981161061069e575b505050811b0160018501556105c6565b015160001960f88460031b161c1916905588808061068e565b82820151885560019097019660209283019201610667565b600184016000526020600020601f830160051c81016020841061070f575b601f830160051c8201811061070357505061058b565b600081556001016106ed565b50806106ed565b634e487b7160e01b600052604160045260246000fd5b634e487b7160e01b600052600060045260246000fd5b34610160576020366003190112610160576004356001600160401b0381116101605760206107776107929236906004016115c5565b61077f61178b565b8160405193828580945193849201611711565b600590820190815203019020805460ff19169055005b34610160576040366003190112610160576107c161161b565b6001600160a01b039081166000908152600360205260409020805460243590811015610160576107f091611759565b5090815416906108026001820161166b565b600282015491600381015460048201549061083a60ff60066005860154950154169460405198899889528060208a0152880190611734565b9460408701526060860152608085015260a0840152151560c08301520390f35b34610160576020366003190112610160576001600160a01b0361087b61161b565b1660005260046020526020604060002054604051908152f35b3461016057602080600319360112610160576001600160a01b0390816108b861161b565b166000526003928382526040600020918254916001600160401b0383116107165794939190604051916005956108f28383891b01856115a4565b81845260009586528286208385019691875b8484106109b5575050505050604051948186019282875251809352604083818801921b87010194936000975b84891061093d5787870388f35b9091929394958480600192603f198b820301875289519086825116815261096f83830151878584015287830190611734565b9160408101516040830152606080820151908301526080808201519083015260a0808201519083015260c080910151151591015298019401980197919094939294610930565b6007866001928a8d9e999a9b9d604051916109cf83611589565b88541682526109df86890161166b565b84830152600288015460408301528688015460608301526004880154608083015287015460a082015260ff600688015416151560c0820152815201930193019291999896959499610904565b34610160576000366003190112610160576020600854604051908152f35b34610160576000366003190112610160576000546040516001600160a01b039091168152602090f35b34610160576020366003190112610160576004356001600160401b0381116101605760ff610aaa602061077f819436906004016115c5565b8101600581520301902054166040519015158152f35b34610160576000366003190112610160576020600b54604051908152f35b34610160576000366003190112610160576020600954604051908152f35b3461016057602036600319011261016057610b1561178b565b600435600a55005b3461016057600036600319011261016057610b3661178b565b600080546001600160a01b0319811682556001600160a01b03167f8be0079c531659141344cd1fd0a4f28419497f9722a3daafe3b4186f6b6457e08280a3005b34610160576020806003193601126101605760405190610b958261156d565b6000825260609081818401526040830160009052818084015281608084015260a083016000905260c083016000905283830160009052610100809301600090526004356000526002815260406000209360405193610bf28561156d565b85546001600160a01b03908116865295610c0e6001820161166b565b928487019384526002820154956040880196875260038301610c2f9061166b565b88820190815296610c426004850161166b565b60808a0190815260058501549860a08b01998a5260068601549360c08c01948552600787015496868d019788526008015460ff1698888d019915158a528a6040519e8f9e8f9d8e525116908c0152516101206040819c01526101408d01610ca891611734565b9351908c015251601f1992838c82030160808d0152610cc691611734565b9051918a82030160a08b0152610cdb91611734565b965160c089015251908701525190850152511515908301520390f35b3461016057602036600319011261016057600435600090815260026020526040902080546001600160a01b031690610d316001820161166b565b92600282015491610d446003820161166b565b91610d516004830161166b565b93610db1600584015495610da360068601549360ff600860078901549801541697610d906040519c8d9c8d5260208d61012091829101528d0190611734565b9160408c01528a820360608c0152611734565b9088820360808a0152611734565b9460a087015260c086015284015215156101008301520390f35b346101605760a0366003190112610160576004356001600160401b03811161016057610dfb9036906004016115c5565b906044356001600160401b03811161016057610e1b9036906004016115c5565b916064356001600160401b03811161016057610e3b9036906004016115c5565b9260026001541461148a57600260015560405193610e6960ff845196602081818801996104bb81838d611711565b610e796008546024351115611803565b600b549460843595861061144557604051610efa60948260208101943360601b8652610eac895180926034850190611711565b81016024356034820152875190610eca826054830160208c01611711565b01865190610edf826054830160208b01611711565b018a60548201524260748201520360748101845201826115a4565b5190209384600052600260205260066040600020015461140057610f2086602435611852565b9560405192610f2e8461156d565b338452602084019486865260243560408601526060850152608084015260a08301524260c08301528581830152600061010083015284600052600260205260406000209260018060a01b038351166bffffffffffffffffffffffff60a01b855416178455518051906001600160401b038211610716578190610fb36001870154611631565b601f81116113ad575b50602090601f831160011461133b57600092611330575b50508160011b916000199060031b1c19161760018401555b6040820151600284015560608201518051906001600160401b03821161071657819061101a6003870154611631565b601f81116112dd575b50602090601f831160011461126b57600092611260575b50508160011b916000199060031b1c19161760038401555b60808201518051906001600160401b038211610716576110756004860154611631565b601f8111611219575b50602090601f831160011461119e579282610100936110ef979693600896600092611193575b50508160011b916000199060031b1c19161760048601555b60a0820151600586015560c0820151600686015581015160078501550151151591019060ff801983541691151516179055565b3360005260046020526040600020611108848254611845565b905560065490600019821461117d5760017fbd7e5621a2494f67860219e20703b5b8587517922edb04e4808bf12862f43721920160065561114b84600754611845565b60075561116360405191606083526060830190611734565b93602435602083015260408201528033940390a360018055005b634e487b7160e01b600052601160045260246000fd5b015190508b806110a4565b906004860160005260206000209160005b601f19851681106112015750836110ef9796936008969360019361010097601f198116106111e8575b505050811b0160048601556110bc565b015160001960f88460031b161c191690558b80806111d8565b919260206001819286850151815501940192016111af565b600486016000526020600020601f840160051c810160208510611259575b601f830160051c8201811061124d57505061107e565b60008155600101611237565b5080611237565b01519050888061103a565b9250600386016000526020600020906000935b601f19841685106112c2576001945083601f198116106112a9575b505050811b016003840155611052565b015160001960f88460031b161c19169055888080611299565b8181015183556020948501946001909301929091019061127e565b909150600386016000526020600020601f840160051c810160208510611329575b90849392915b601f830160051c8201811061131a575050611023565b60008155859450600101611304565b50806112fe565b015190508880610fd3565b9250600186016000526020600020906000935b601f1984168510611392576001945083601f19811610611379575b505050811b016001840155610feb565b015160001960f88460031b161c19169055888080611369565b8181015183556020948501946001909301929091019061134e565b909150600186016000526020600020601f840160051c8101602085106113f9575b90849392915b601f830160051c820181106113ea575050610fbc565b600081558594506001016113d4565b50806113ce565b60405162461bcd60e51b815260206004820152601860248201527f446973636f7665727920616c72656164792065786973747300000000000000006044820152606490fd5b60405162461bcd60e51b815260206004820152601d60248201527f496e73756666696369656e74207175616e74756d2073656375726974790000006044820152606490fd5b604051633ee5aeb560e01b8152600490fd5b34610160576000366003190112610160576020600a54604051908152f35b346101605760403660031901126101605760206114db602435600435611852565b604051908152f35b34610160576020366003190112610160576004356001600160401b0381116101605760206107776115189236906004016115c5565b600590820190815203019020805460ff19166001179055005b346101605760203660031901126101605761154a61178b565b600435600955005b34610160576000366003190112610160576020906006548152f35b61012081019081106001600160401b0382111761071657604052565b60e081019081106001600160401b0382111761071657604052565b90601f801991011681019081106001600160401b0382111761071657604052565b81601f82011215610160578035906001600160401b03821161071657604051926115f9601f8401601f1916602001856115a4565b8284526020838301011161016057816000926020809301838601378301015290565b600435906001600160a01b038216820361016057565b90600182811c92168015611661575b602083101461164b57565b634e487b7160e01b600052602260045260246000fd5b91607f1691611640565b906040519182600082549261167f84611631565b9081845260019485811690816000146116ee57506001146116ab575b50506116a9925003836115a4565b565b9093915060005260209081600020936000915b8183106116d65750506116a99350820101388061169b565b855488840185015294850194879450918301916116be565b9150506116a994506020925060ff191682840152151560051b820101388061169b565b60005b8381106117245750506000910152565b8181015183820152602001611714565b9060209161174d81518092818552858086019101611711565b601f01601f1916010190565b8054821015611775576000526007602060002091020190600090565b634e487b7160e01b600052603260045260246000fd5b6000546001600160a01b0316330361179f57565b60405163118cdaa760e01b8152336004820152602490fd5b156117be57565b60405162461bcd60e51b815260206004820152601760248201527f576f726b2074797065206e6f7420737570706f727465640000000000000000006044820152606490fd5b1561180a57565b60405162461bcd60e51b8152602060048201526013602482015272088d2ccccd2c6ead8e8f240e8dede40d0d2ced606b1b6044820152606490fd5b9190820180921161117d57565b9060095482810292818404149015171561117d57600b549081156118905704600a810290808204600a149015171561117d5761188d91611845565b90565b634e487b7160e01b600052601260045260246000fdfea264697066735822122080507c41cba5503c6cfa851de99a037c4b47061e2161ffc7378f189e2b10e6a764736f6c63430008140033","opcodes":"PUSH1 0x80 PUSH1 0x40 SWAP1 DUP1 DUP3 MSTORE CALLVALUE PUSH2 0x280 JUMPI CALLER ISZERO PUSH2 0x26A JUMPI POP PUSH1 0x0 DUP1 SLOAD CALLER PUSH1 0x1 PUSH1 0x1 PUSH1 0xA0 SHL SUB NOT DUP3 AND DUP2 OR DUP4 SSTORE DUP4 MLOAD SWAP3 SWAP1 SWAP2 PUSH1 0x1 PUSH1 0x1 PUSH1 0xA0 SHL SUB AND SWAP1 PUSH32 0x8BE0079C531659141344CD1FD0A4F28419497F9722A3DAAFE3B4186F6B6457E0 SWAP1 DUP1 LOG3 PUSH1 0x1 DUP1 DUP1 SSTORE PUSH1 0x32 PUSH1 0x8 SSTORE PUSH1 0x64 PUSH1 0x9 SSTORE PUSH1 0x1E PUSH1 0xA SSTORE PUSH2 0x100 PUSH1 0xB SSTORE PUSH32 0x5072696D65205061747465726E20446973636F76657279000000000000000000 DUP3 MSTORE PUSH1 0x34 PUSH1 0x37 PUSH1 0x5 SWAP4 DUP5 PUSH1 0x17 DUP3 ADD MSTORE KECCAK256 SWAP3 PUSH1 0xFF NOT SWAP4 DUP4 DUP6 DUP3 SLOAD AND OR SWAP1 SSTORE PUSH1 0x38 DUP6 MLOAD PUSH32 0x5269656D616E6E205A65726F20436F6D7075746174696F6E0000000000000000 DUP2 MSTORE DUP3 PUSH1 0x18 DUP3 ADD MSTORE KECCAK256 DUP4 DUP6 DUP3 SLOAD AND OR SWAP1 SSTORE PUSH1 0x37 DUP6 MLOAD PUSH32 0x59616E672D4D696C6C73204669656C64205468656F7279000000000000000000 DUP2 MSTORE DUP3 PUSH1 0x17 DUP3 ADD MSTORE KECCAK256 DUP4 DUP6 DUP3 SLOAD AND OR SWAP1 SSTORE DUP5 DUP1 MLOAD PUSH32 0x476F6C646261636820436F6E6A65637475726520566572696669636174696F6E DUP2 MSTORE DUP3 PUSH1 0x20 DUP3 ADD MSTORE KECCAK256 DUP4 DUP6 DUP3 SLOAD AND OR SWAP1 SSTORE PUSH1 0x38 DUP6 MLOAD PUSH32 0x4E61766965722D53746F6B65732053696D756C6174696F6E0000000000000000 DUP2 MSTORE DUP3 PUSH1 0x18 DUP3 ADD MSTORE KECCAK256 DUP4 DUP6 DUP3 SLOAD AND OR SWAP1 SSTORE PUSH1 0x35 DUP6 MLOAD PUSH32 0x42697263682D5377696E6E6572746F6E2D447965720000000000000000000000 DUP2 MSTORE DUP3 PUSH1 0x15 DUP3 ADD MSTORE KECCAK256 DUP4 DUP6 DUP3 SLOAD AND OR SWAP1 SSTORE PUSH1 0x3B DUP6 MLOAD PUSH32 0x456C6C69707469632043757276652043727970746F6772617068790000000000 DUP2 MSTORE DUP3 PUSH1 0x1B DUP3 ADD MSTORE KECCAK256 DUP4 DUP6 DUP3 SLOAD AND OR SWAP1 SSTORE DUP2 DUP6 MLOAD PUSH32 0x4C6174746963652043727970746F677261706879000000000000000000000000 DUP2 MSTORE DUP3 PUSH1 0x14 DUP3 ADD MSTORE KECCAK256 DUP4 DUP6 DUP3 SLOAD AND OR SWAP1 SSTORE DUP5 MLOAD SWAP1 PUSH32 0x506F696E636172C3A920436F6E6A656374757265000000000000000000000000 DUP3 MSTORE PUSH1 0x14 DUP3 ADD MSTORE KECCAK256 SWAP2 DUP3 SLOAD AND OR SWAP1 SSTORE MLOAD PUSH2 0x18DC SWAP1 DUP2 PUSH2 0x286 DUP3 CODECOPY RETURN JUMPDEST PUSH4 0x1E4FBDF7 PUSH1 0xE0 SHL DUP2 MSTORE PUSH1 0x0 PUSH1 0x4 DUP3 ADD MSTORE PUSH1 0x24 SWAP1 REVERT JUMPDEST PUSH1 0x0 DUP1 REVERT INVALID PUSH1 0x80 DUP1 PUSH1 0x40 MSTORE PUSH1 0x4 CALLDATASIZE LT ISZERO PUSH2 0x13 JUMPI PUSH1 0x0 DUP1 REVERT JUMPDEST PUSH1 0xE0 PUSH1 0x0 CALLDATALOAD DUP2 SHR SWAP2 DUP3 PUSH4 0x3330528 EQ PUSH2 0x1552 JUMPI POP DUP2 PUSH4 0x373A23A EQ PUSH2 0x1531 JUMPI DUP2 PUSH4 0x5F4B26F EQ PUSH2 0x14E3 JUMPI DUP2 PUSH4 0x11C50D26 EQ PUSH2 0x85A JUMPI DUP2 PUSH4 0x13ED0846 EQ PUSH2 0x14BA JUMPI DUP2 PUSH4 0x48B15166 EQ PUSH2 0x149C JUMPI DUP2 PUSH4 0x56AE8FB3 EQ PUSH2 0xDCB JUMPI DUP2 PUSH4 0x5FFECC3F EQ PUSH2 0xCF7 JUMPI DUP2 PUSH4 0x6B0EAE81 EQ PUSH2 0xB76 JUMPI DUP2 PUSH4 0x715018A6 EQ PUSH2 0xB1D JUMPI DUP2 PUSH4 0x758B1CE3 EQ PUSH2 0xAFC JUMPI DUP2 PUSH4 0x76AD03BC EQ PUSH2 0xADE JUMPI DUP2 PUSH4 0x7ADA463A EQ PUSH2 0xAC0 JUMPI DUP2 PUSH4 0x8D1771C2 EQ PUSH2 0xA72 JUMPI DUP2 PUSH4 0x8DA5CB5B EQ PUSH2 0xA49 JUMPI DUP2 PUSH4 0x9A997453 EQ PUSH2 0xA2B JUMPI DUP2 PUSH4 0xA48458FE EQ PUSH2 0x894 JUMPI DUP2 PUSH4 0xA56C94EC EQ PUSH2 0x85A JUMPI DUP2 PUSH4 0xCE93734B EQ PUSH2 0x7A8 JUMPI POP DUP1 PUSH4 0xEB802EDF EQ PUSH2 0x742 JUMPI DUP1 PUSH4 0xEDA057F1 EQ PUSH2 0x470 JUMPI DUP1 PUSH4 0xEE172546 EQ PUSH2 0x452 JUMPI DUP1 PUSH4 0xF1997DC9 EQ PUSH2 0x214 JUMPI DUP1 PUSH4 0xF2FDE38B EQ PUSH2 0x186 JUMPI DUP1 PUSH4 0xF4CE57B5 EQ PUSH2 0x165 JUMPI PUSH4 0xF7EB7AC8 EQ PUSH2 0x13F JUMPI PUSH1 0x0 DUP1 REVERT JUMPDEST CALLVALUE PUSH2 0x160 JUMPI PUSH1 0x20 CALLDATASIZE PUSH1 0x3 NOT ADD SLT PUSH2 0x160 JUMPI PUSH2 0x158 PUSH2 0x178B JUMP JUMPDEST PUSH1 0x4 CALLDATALOAD PUSH1 0xB SSTORE STOP JUMPDEST PUSH1 0x0 DUP1 REVERT JUMPDEST CALLVALUE PUSH2 0x160 JUMPI PUSH1 0x20 CALLDATASIZE PUSH1 0x3 NOT ADD SLT PUSH2 0x160 JUMPI PUSH2 0x17E PUSH2 0x178B JUMP JUMPDEST PUSH1 0x4 CALLDATALOAD PUSH1 0x8 SSTORE STOP JUMPDEST CALLVALUE PUSH2 0x160 JUMPI PUSH1 0x20 CALLDATASIZE PUSH1 0x3 NOT ADD SLT PUSH2 0x160 JUMPI PUSH2 0x19F PUSH2 0x161B JUMP JUMPDEST PUSH2 0x1A7 PUSH2 0x178B JUMP JUMPDEST PUSH1 0x1 PUSH1 0x1 PUSH1 0xA0 SHL SUB SWAP1 DUP2 AND SWAP1 DUP2 ISZERO PUSH2 0x1FB JUMPI PUSH1 0x0 SLOAD DUP3 PUSH12 0xFFFFFFFFFFFFFFFFFFFFFFFF PUSH1 0xA0 SHL DUP3 AND OR PUSH1 0x0 SSTORE AND PUSH32 0x8BE0079C531659141344CD1FD0A4F28419497F9722A3DAAFE3B4186F6B6457E0 PUSH1 0x0 DUP1 LOG3 STOP JUMPDEST PUSH1 0x40 MLOAD PUSH4 0x1E4FBDF7 PUSH1 0xE0 SHL DUP2 MSTORE PUSH1 0x0 PUSH1 0x4 DUP3 ADD MSTORE PUSH1 0x24 SWAP1 REVERT JUMPDEST CALLVALUE PUSH2 0x160 JUMPI PUSH1 0x20 DUP1 PUSH1 0x3 NOT CALLDATASIZE ADD SLT PUSH2 0x160 JUMPI PUSH1 0x4 CALLDATALOAD CALLER PUSH1 0x0 MSTORE PUSH1 0x3 SWAP1 DUP2 DUP4 MSTORE PUSH1 0x40 PUSH1 0x0 KECCAK256 SLOAD DUP2 LT ISZERO PUSH2 0x415 JUMPI CALLER PUSH1 0x0 MSTORE DUP2 DUP4 MSTORE PUSH1 0xFF PUSH1 0x6 PUSH2 0x259 DUP4 PUSH1 0x40 PUSH1 0x0 KECCAK256 PUSH2 0x1759 JUMP JUMPDEST POP ADD SLOAD AND ISZERO PUSH2 0x3DB JUMPI CALLER PUSH1 0x0 MSTORE DUP2 DUP4 MSTORE PUSH2 0x277 DUP2 PUSH1 0x40 PUSH1 0x0 KECCAK256 PUSH2 0x1759 JUMP JUMPDEST POP PUSH1 0x4 TIMESTAMP SWAP2 ADD SSTORE CALLER PUSH1 0x0 MSTORE DUP2 DUP4 MSTORE PUSH1 0x6 PUSH2 0x295 DUP3 PUSH1 0x40 PUSH1 0x0 KECCAK256 PUSH2 0x1759 JUMP JUMPDEST POP ADD PUSH1 0xFF NOT SWAP1 DUP2 DUP2 SLOAD AND SWAP1 SSTORE CALLER PUSH1 0x0 MSTORE DUP3 DUP5 MSTORE PUSH1 0x2 PUSH2 0x2D3 PUSH2 0x2BB DUP5 PUSH1 0x40 PUSH1 0x0 KECCAK256 PUSH2 0x1759 JUMP JUMPDEST POP SWAP4 PUSH1 0x1 DUP1 SWAP6 ADD SWAP6 CALLER PUSH1 0x0 MSTORE DUP8 MSTORE PUSH1 0x40 PUSH1 0x0 KECCAK256 PUSH2 0x1759 JUMP JUMPDEST POP ADD SLOAD SWAP1 PUSH1 0x40 MLOAD SWAP3 PUSH1 0x40 DUP5 MSTORE PUSH1 0x0 SWAP5 DUP1 SLOAD PUSH2 0x2ED DUP2 PUSH2 0x1631 JUMP JUMPDEST SWAP4 DUP5 PUSH1 0x40 DUP9 ADD MSTORE DUP4 DUP3 AND SWAP2 DUP3 PUSH1 0x0 EQ PUSH2 0x39A JUMPI POP POP PUSH1 0x1 EQ PUSH2 0x33B JUMPI JUMPDEST POP POP POP PUSH32 0xEB041A4400A9D2511C288DFB9CB88F79ECCAF9216F6D26CBAA0F6866CA7F5D5C SWAP3 SWAP4 DUP3 ADD MSTORE DUP1 CALLER SWAP4 SUB SWAP1 LOG2 STOP JUMPDEST SWAP1 SWAP5 POP PUSH1 0x0 MSTORE DUP5 PUSH1 0x0 KECCAK256 SWAP4 DUP6 PUSH1 0x0 SWAP6 JUMPDEST DUP4 DUP8 LT PUSH2 0x385 JUMPI POP POP POP POP PUSH1 0x60 PUSH32 0xEB041A4400A9D2511C288DFB9CB88F79ECCAF9216F6D26CBAA0F6866CA7F5D5C SWAP4 DUP4 ADD ADD SWAP3 DUP6 DUP1 PUSH2 0x30A JUMP JUMPDEST DUP1 SLOAD DUP7 DUP9 ADD PUSH1 0x60 ADD MSTORE SWAP6 ADD SWAP5 DUP7 SWAP1 DUP3 ADD PUSH2 0x34B JUMP JUMPDEST SWAP2 POP SWAP2 POP PUSH32 0xEB041A4400A9D2511C288DFB9CB88F79ECCAF9216F6D26CBAA0F6866CA7F5D5C SWAP7 POP PUSH1 0x60 SWAP4 SWAP3 POP AND DUP3 DUP6 ADD MSTORE ISZERO ISZERO PUSH1 0x5 SHL DUP4 ADD ADD SWAP3 DUP6 DUP1 PUSH2 0x30A JUMP JUMPDEST PUSH1 0x40 MLOAD PUSH3 0x461BCD PUSH1 0xE5 SHL DUP2 MSTORE PUSH1 0x4 DUP2 ADD DUP5 SWAP1 MSTORE PUSH1 0x12 PUSH1 0x24 DUP3 ADD MSTORE PUSH18 0x53657373696F6E206E6F7420616374697665 PUSH1 0x70 SHL PUSH1 0x44 DUP3 ADD MSTORE PUSH1 0x64 SWAP1 REVERT JUMPDEST PUSH1 0x40 MLOAD PUSH3 0x461BCD PUSH1 0xE5 SHL DUP2 MSTORE PUSH1 0x4 DUP2 ADD DUP5 SWAP1 MSTORE PUSH1 0x15 PUSH1 0x24 DUP3 ADD MSTORE PUSH21 0x92DCECC2D8D2C840E6CAE6E6D2DEDC40D2DCC8CAF PUSH1 0x5B SHL PUSH1 0x44 DUP3 ADD MSTORE PUSH1 0x64 SWAP1 REVERT JUMPDEST CALLVALUE PUSH2 0x160 JUMPI PUSH1 0x0 CALLDATASIZE PUSH1 0x3 NOT ADD SLT PUSH2 0x160 JUMPI PUSH1 0x20 PUSH1 0x7 SLOAD PUSH1 0x40 MLOAD SWAP1 DUP2 MSTORE RETURN JUMPDEST CALLVALUE PUSH2 0x160 JUMPI PUSH1 0x40 CALLDATASIZE PUSH1 0x3 NOT ADD SLT PUSH2 0x160 JUMPI PUSH1 0x1 PUSH1 0x1 PUSH1 0x40 SHL SUB PUSH1 0x4 CALLDATALOAD DUP2 DUP2 GT PUSH2 0x160 JUMPI PUSH2 0x4A1 SWAP1 CALLDATASIZE SWAP1 PUSH1 0x4 ADD PUSH2 0x15C5 JUMP JUMPDEST PUSH2 0x4CC PUSH1 0xFF PUSH1 0x40 MLOAD PUSH1 0x20 DUP2 DUP6 MLOAD PUSH2 0x4BB DUP2 DUP4 DUP6 DUP11 ADD PUSH2 0x1711 JUMP JUMPDEST DUP2 ADD PUSH1 0x5 DUP2 MSTORE SUB ADD SWAP1 KECCAK256 SLOAD AND PUSH2 0x17B7 JUMP JUMPDEST PUSH2 0x4DC PUSH1 0x8 SLOAD PUSH1 0x24 CALLDATALOAD GT ISZERO PUSH2 0x1803 JUMP JUMPDEST PUSH1 0x40 MLOAD PUSH2 0x4E8 DUP2 PUSH2 0x1589 JUMP JUMPDEST CALLER DUP2 MSTORE PUSH1 0x20 DUP2 ADD SWAP1 DUP3 DUP3 MSTORE PUSH1 0x24 CALLDATALOAD PUSH1 0x40 DUP3 ADD MSTORE TIMESTAMP PUSH1 0x60 DUP3 ADD MSTORE PUSH1 0x0 PUSH1 0x80 DUP3 ADD MSTORE PUSH1 0x0 PUSH1 0xA0 DUP3 ADD MSTORE PUSH1 0x1 PUSH1 0xC0 DUP3 ADD MSTORE CALLER PUSH1 0x0 MSTORE PUSH1 0x3 PUSH1 0x20 MSTORE PUSH1 0x40 PUSH1 0x0 KECCAK256 DUP1 SLOAD PUSH9 0x10000000000000000 DUP2 LT ISZERO PUSH2 0x716 JUMPI PUSH2 0x546 SWAP2 PUSH1 0x1 DUP3 ADD DUP2 SSTORE PUSH2 0x1759 JUMP JUMPDEST SWAP3 SWAP1 SWAP3 PUSH2 0x72C JUMPI DUP2 MLOAD DUP4 SLOAD PUSH1 0x1 PUSH1 0x1 PUSH1 0xA0 SHL SUB NOT AND PUSH1 0x1 PUSH1 0x1 PUSH1 0xA0 SHL SUB SWAP2 SWAP1 SWAP2 AND OR DUP4 SSTORE MLOAD DUP1 MLOAD SWAP1 SWAP5 DUP2 GT PUSH2 0x716 JUMPI PUSH2 0x582 PUSH1 0x1 DUP5 ADD SLOAD PUSH2 0x1631 JUMP JUMPDEST PUSH1 0x1F DUP2 GT PUSH2 0x6CF JUMPI JUMPDEST POP PUSH1 0x20 PUSH1 0x1F DUP3 GT PUSH1 0x1 EQ PUSH2 0x657 JUMPI SWAP2 DUP2 PUSH1 0xC0 SWAP3 PUSH1 0x6 SWAP5 PUSH2 0x605 SWAP8 SWAP9 PUSH1 0x0 SWAP3 PUSH2 0x64C JUMPI JUMPDEST POP POP DUP2 PUSH1 0x1 SHL SWAP2 PUSH1 0x0 NOT SWAP1 PUSH1 0x3 SHL SHR NOT AND OR PUSH1 0x1 DUP6 ADD SSTORE JUMPDEST PUSH1 0x40 DUP2 ADD MLOAD PUSH1 0x2 DUP6 ADD SSTORE PUSH1 0x60 DUP2 ADD MLOAD PUSH1 0x3 DUP6 ADD SSTORE PUSH1 0x80 DUP2 ADD MLOAD PUSH1 0x4 DUP6 ADD SSTORE PUSH1 0xA0 DUP2 ADD MLOAD PUSH1 0x5 DUP6 ADD SSTORE ADD MLOAD ISZERO ISZERO SWAP2 ADD SWAP1 PUSH1 0xFF DUP1 NOT DUP4 SLOAD AND SWAP2 ISZERO ISZERO AND OR SWAP1 SSTORE JUMP JUMPDEST PUSH32 0x7406477A70C638AFF8BA441E8046F297ACD46E688A168AFC38E98CF96703D436 PUSH2 0x63B PUSH1 0x40 MLOAD SWAP3 PUSH1 0x40 DUP5 MSTORE PUSH1 0x40 DUP5 ADD SWAP1 PUSH2 0x1734 JUMP JUMPDEST SWAP2 PUSH1 0x24 CALLDATALOAD PUSH1 0x20 DUP3 ADD MSTORE DUP1 CALLER SWAP4 SUB SWAP1 LOG2 STOP JUMPDEST ADD MLOAD SWAP1 POP DUP9 DUP1 PUSH2 0x5AE JUMP JUMPDEST PUSH1 0x1 DUP5 ADD PUSH1 0x0 MSTORE PUSH1 0x20 PUSH1 0x0 KECCAK256 SWAP6 PUSH1 0x0 JUMPDEST PUSH1 0x1F NOT DUP5 AND DUP2 LT PUSH2 0x6B7 JUMPI POP DUP3 PUSH2 0x605 SWAP7 SWAP8 PUSH1 0x6 SWAP6 SWAP4 PUSH1 0x1 SWAP4 PUSH1 0xC0 SWAP7 PUSH1 0x1F NOT DUP2 AND LT PUSH2 0x69E JUMPI JUMPDEST POP POP POP DUP2 SHL ADD PUSH1 0x1 DUP6 ADD SSTORE PUSH2 0x5C6 JUMP JUMPDEST ADD MLOAD PUSH1 0x0 NOT PUSH1 0xF8 DUP5 PUSH1 0x3 SHL AND SHR NOT AND SWAP1 SSTORE DUP9 DUP1 DUP1 PUSH2 0x68E JUMP JUMPDEST DUP3 DUP3 ADD MLOAD DUP9 SSTORE PUSH1 0x1 SWAP1 SWAP8 ADD SWAP7 PUSH1 0x20 SWAP3 DUP4 ADD SWAP3 ADD PUSH2 0x667 JUMP JUMPDEST PUSH1 0x1 DUP5 ADD PUSH1 0x0 MSTORE PUSH1 0x20 PUSH1 0x0 KECCAK256 PUSH1 0x1F DUP4 ADD PUSH1 0x5 SHR DUP2 ADD PUSH1 0x20 DUP5 LT PUSH2 0x70F JUMPI JUMPDEST PUSH1 0x1F DUP4 ADD PUSH1 0x5 SHR DUP3 ADD DUP2 LT PUSH2 0x703 JUMPI POP POP PUSH2 0x58B JUMP JUMPDEST PUSH1 0x0 DUP2 SSTORE PUSH1 0x1 ADD PUSH2 0x6ED JUMP JUMPDEST POP DUP1 PUSH2 0x6ED JUMP JUMPDEST PUSH4 0x4E487B71 PUSH1 0xE0 SHL PUSH1 0x0 MSTORE PUSH1 0x41 PUSH1 0x4 MSTORE PUSH1 0x24 PUSH1 0x0 REVERT JUMPDEST PUSH4 0x4E487B71 PUSH1 0xE0 SHL PUSH1 0x0 MSTORE PUSH1 0x0 PUSH1 0x4 MSTORE PUSH1 0x24 PUSH1 0x0 REVERT JUMPDEST CALLVALUE PUSH2 0x160 JUMPI PUSH1 0x20 CALLDATASIZE PUSH1 0x3 NOT ADD SLT PUSH2 0x160 JUMPI PUSH1 0x4 CALLDATALOAD PUSH1 0x1 PUSH1 0x1 PUSH1 0x40 SHL SUB DUP2 GT PUSH2 0x160 JUMPI PUSH1 0x20 PUSH2 0x777 PUSH2 0x792 SWAP3 CALLDATASIZE SWAP1 PUSH1 0x4 ADD PUSH2 0x15C5 JUMP JUMPDEST PUSH2 0x77F PUSH2 0x178B JUMP JUMPDEST DUP2 PUSH1 0x40 MLOAD SWAP4 DUP3 DUP6 DUP1 SWAP5 MLOAD SWAP4 DUP5 SWAP3 ADD PUSH2 0x1711 JUMP JUMPDEST PUSH1 0x5 SWAP1 DUP3 ADD SWAP1 DUP2 MSTORE SUB ADD SWAP1 KECCAK256 DUP1 SLOAD PUSH1 0xFF NOT AND SWAP1 SSTORE STOP JUMPDEST CALLVALUE PUSH2 0x160 JUMPI PUSH1 0x40 CALLDATASIZE PUSH1 0x3 NOT ADD SLT PUSH2 0x160 JUMPI PUSH2 0x7C1 PUSH2 0x161B JUMP JUMPDEST PUSH1 0x1 PUSH1 0x1 PUSH1 0xA0 SHL SUB SWAP1 DUP2 AND PUSH1 0x0 SWAP1 DUP2 MSTORE PUSH1 0x3 PUSH1 0x20 MSTORE PUSH1 0x40 SWAP1 KECCAK256 DUP1 SLOAD PUSH1 0x24 CALLDATALOAD SWAP1 DUP2 LT ISZERO PUSH2 0x160 JUMPI PUSH2 0x7F0 SWAP2 PUSH2 0x1759 JUMP JUMPDEST POP SWAP1 DUP2 SLOAD AND SWAP1 PUSH2 0x802 PUSH1 0x1 DUP3 ADD PUSH2 0x166B JUMP JUMPDEST PUSH1 0x2 DUP3 ADD SLOAD SWAP2 PUSH1 0x3 DUP2 ADD SLOAD PUSH1 0x4 DUP3 ADD SLOAD SWAP1 PUSH2 0x83A PUSH1 0xFF PUSH1 0x6 PUSH1 0x5 DUP7 ADD SLOAD SWAP6 ADD SLOAD AND SWAP5 PUSH1 0x40 MLOAD SWAP9 DUP10 SWAP9 DUP10 MSTORE DUP1 PUSH1 0x20 DUP11 ADD MSTORE DUP9 ADD SWAP1 PUSH2 0x1734 JUMP JUMPDEST SWAP5 PUSH1 0x40 DUP8 ADD MSTORE PUSH1 0x60 DUP7 ADD MSTORE PUSH1 0x80 DUP6 ADD MSTORE PUSH1 0xA0 DUP5 ADD MSTORE ISZERO ISZERO PUSH1 0xC0 DUP4 ADD MSTORE SUB SWAP1 RETURN JUMPDEST CALLVALUE PUSH2 0x160 JUMPI PUSH1 0x20 CALLDATASIZE PUSH1 0x3 NOT ADD SLT PUSH2 0x160 JUMPI PUSH1 0x1 PUSH1 0x1 PUSH1 0xA0 SHL SUB PUSH2 0x87B PUSH2 0x161B JUMP JUMPDEST AND PUSH1 0x0 MSTORE PUSH1 0x4 PUSH1 0x20 MSTORE PUSH1 0x20 PUSH1 0x40 PUSH1 0x0 KECCAK256 SLOAD PUSH1 0x40 MLOAD SWAP1 DUP2 MSTORE RETURN JUMPDEST CALLVALUE PUSH2 0x160 JUMPI PUSH1 0x20 DUP1 PUSH1 0x3 NOT CALLDATASIZE ADD SLT PUSH2 0x160 JUMPI PUSH1 0x1 PUSH1 0x1 PUSH1 0xA0 SHL SUB SWAP1 DUP2 PUSH2 0x8B8 PUSH2 0x161B JUMP JUMPDEST AND PUSH1 0x0 MSTORE PUSH1 0x3 SWAP3 DUP4 DUP3 MSTORE PUSH1 0x40 PUSH1 0x0 KECCAK256 SWAP2 DUP3 SLOAD SWAP2 PUSH1 0x1 PUSH1 0x1 PUSH1 0x40 SHL SUB DUP4 GT PUSH2 0x716 JUMPI SWAP5 SWAP4 SWAP2 SWAP1 PUSH1 0x40 MLOAD SWAP2 PUSH1 0x5 SWAP6 PUSH2 0x8F2 DUP4 DUP4 DUP10 SHL ADD DUP6 PUSH2 0x15A4 JUMP JUMPDEST DUP2 DUP5 MSTORE PUSH1 0x0 SWAP6 DUP7 MSTORE DUP3 DUP7 KECCAK256 DUP4 DUP6 ADD SWAP7 SWAP2 DUP8 JUMPDEST DUP5 DUP5 LT PUSH2 0x9B5 JUMPI POP POP POP POP POP PUSH1 0x40 MLOAD SWAP5 DUP2 DUP7 ADD SWAP3 DUP3 DUP8 MSTORE MLOAD DUP1 SWAP4 MSTORE PUSH1 0x40 DUP4 DUP2 DUP9 ADD SWAP3 SHL DUP8 ADD ADD SWAP5 SWAP4 PUSH1 0x0 SWAP8 JUMPDEST DUP5 DUP10 LT PUSH2 0x93D JUMPI DUP8 DUP8 SUB DUP9 RETURN JUMPDEST SWAP1 SWAP2 SWAP3 SWAP4 SWAP5 SWAP6 DUP5 DUP1 PUSH1 0x1 SWAP3 PUSH1 0x3F NOT DUP12 DUP3 SUB ADD DUP8 MSTORE DUP10 MLOAD SWAP1 DUP7 DUP3 MLOAD AND DUP2 MSTORE PUSH2 0x96F DUP4 DUP4 ADD MLOAD DUP8 DUP6 DUP5 ADD MSTORE DUP8 DUP4 ADD SWAP1 PUSH2 0x1734 JUMP JUMPDEST SWAP2 PUSH1 0x40 DUP2 ADD MLOAD PUSH1 0x40 DUP4 ADD MSTORE PUSH1 0x60 DUP1 DUP3 ADD MLOAD SWAP1 DUP4 ADD MSTORE PUSH1 0x80 DUP1 DUP3 ADD MLOAD SWAP1 DUP4 ADD MSTORE PUSH1 0xA0 DUP1 DUP3 ADD MLOAD SWAP1 DUP4 ADD MSTORE PUSH1 0xC0 DUP1 SWAP2 ADD MLOAD ISZERO ISZERO SWAP2 ADD MSTORE SWAP9 ADD SWAP5 ADD SWAP9 ADD SWAP8 SWAP2 SWAP1 SWAP5 SWAP4 SWAP3 SWAP5 PUSH2 0x930 JUMP JUMPDEST PUSH1 0x7 DUP7 PUSH1 0x1 SWAP3 DUP11 DUP14 SWAP15 SWAP10 SWAP11 SWAP12 SWAP14 PUSH1 0x40 MLOAD SWAP2 PUSH2 0x9CF DUP4 PUSH2 0x1589 JUMP JUMPDEST DUP9 SLOAD AND DUP3 MSTORE PUSH2 0x9DF DUP7 DUP10 ADD PUSH2 0x166B JUMP JUMPDEST DUP5 DUP4 ADD MSTORE PUSH1 0x2 DUP9 ADD SLOAD PUSH1 0x40 DUP4 ADD MSTORE DUP7 DUP9 ADD SLOAD PUSH1 0x60 DUP4 ADD MSTORE PUSH1 0x4 DUP9 ADD SLOAD PUSH1 0x80 DUP4 ADD MSTORE DUP8 ADD SLOAD PUSH1 0xA0 DUP3 ADD MSTORE PUSH1 0xFF PUSH1 0x6 DUP9 ADD SLOAD AND ISZERO ISZERO PUSH1 0xC0 DUP3 ADD MSTORE DUP2 MSTORE ADD SWAP4 ADD SWAP4 ADD SWAP3 SWAP2 SWAP10 SWAP9 SWAP7 SWAP6 SWAP5 SWAP10 PUSH2 0x904 JUMP JUMPDEST CALLVALUE PUSH2 0x160 JUMPI PUSH1 0x0 CALLDATASIZE PUSH1 0x3 NOT ADD SLT PUSH2 0x160 JUMPI PUSH1 0x20 PUSH1 0x8 SLOAD PUSH1 0x40 MLOAD SWAP1 DUP2 MSTORE RETURN JUMPDEST CALLVALUE PUSH2 0x160 JUMPI PUSH1 0x0 CALLDATASIZE PUSH1 0x3 NOT ADD SLT PUSH2 0x160 JUMPI PUSH1 0x0 SLOAD PUSH1 0x40 MLOAD PUSH1 0x1 PUSH1 0x1 PUSH1 0xA0 SHL SUB SWAP1 SWAP2 AND DUP2 MSTORE PUSH1 0x20 SWAP1 RETURN JUMPDEST CALLVALUE PUSH2 0x160 JUMPI PUSH1 0x20 CALLDATASIZE PUSH1 0x3 NOT ADD SLT PUSH2 0x160 JUMPI PUSH1 0x4 CALLDATALOAD PUSH1 0x1 PUSH1 0x1 PUSH1 0x40 SHL SUB DUP2 GT PUSH2 0x160 JUMPI PUSH1 0xFF PUSH2 0xAAA PUSH1 0x20 PUSH2 0x77F DUP2 SWAP5 CALLDATASIZE SWAP1 PUSH1 0x4 ADD PUSH2 0x15C5 JUMP JUMPDEST DUP2 ADD PUSH1 0x5 DUP2 MSTORE SUB ADD SWAP1 KECCAK256 SLOAD AND PUSH1 0x40 MLOAD SWAP1 ISZERO ISZERO DUP2 MSTORE RETURN JUMPDEST CALLVALUE PUSH2 0x160 JUMPI PUSH1 0x0 CALLDATASIZE PUSH1 0x3 NOT ADD SLT PUSH2 0x160 JUMPI PUSH1 0x20 PUSH1 0xB SLOAD PUSH1 0x40 MLOAD SWAP1 DUP2 MSTORE RETURN JUMPDEST CALLVALUE PUSH2 0x160 JUMPI PUSH1 0x0 CALLDATASIZE PUSH1 0x3 NOT ADD SLT PUSH2 0x160 JUMPI PUSH1 0x20 PUSH1 0x9 SLOAD PUSH1 0x40 MLOAD SWAP1 DUP2 MSTORE RETURN JUMPDEST CALLVALUE PUSH2 0x160 JUMPI PUSH1 0x20 CALLDATASIZE PUSH1 0x3 NOT ADD SLT PUSH2 0x160 JUMPI PUSH2 0xB15 PUSH2 0x178B JUMP JUMPDEST PUSH1 0x4 CALLDATALOAD PUSH1 0xA SSTORE STOP JUMPDEST CALLVALUE PUSH2 0x160 JUMPI PUSH1 0x0 CALLDATASIZE PUSH1 0x3 NOT ADD SLT PUSH2 0x160 JUMPI PUSH2 0xB36 PUSH2 0x178B JUMP JUMPDEST PUSH1 0x0 DUP1 SLOAD PUSH1 0x1 PUSH1 0x1 PUSH1 0xA0 SHL SUB NOT DUP2 AND DUP3 SSTORE PUSH1 0x1 PUSH1 0x1 PUSH1 0xA0 SHL SUB AND PUSH32 0x8BE0079C531659141344CD1FD0A4F28419497F9722A3DAAFE3B4186F6B6457E0 DUP3 DUP1 LOG3 STOP JUMPDEST CALLVALUE PUSH2 0x160 JUMPI PUSH1 0x20 DUP1 PUSH1 0x3 NOT CALLDATASIZE ADD SLT PUSH2 0x160 JUMPI PUSH1 0x40 MLOAD SWAP1 PUSH2 0xB95 DUP3 PUSH2 0x156D JUMP JUMPDEST PUSH1 0x0 DUP3 MSTORE PUSH1 0x60 SWAP1 DUP2 DUP2 DUP5 ADD MSTORE PUSH1 0x40 DUP4 ADD PUSH1 0x0 SWAP1 MSTORE DUP2 DUP1 DUP5 ADD MSTORE DUP2 PUSH1 0x80 DUP5 ADD MSTORE PUSH1 0xA0 DUP4 ADD PUSH1 0x0 SWAP1 MSTORE PUSH1 0xC0 DUP4 ADD PUSH1 0x0 SWAP1 MSTORE DUP4 DUP4 ADD PUSH1 0x0 SWAP1 MSTORE PUSH2 0x100 DUP1 SWAP4 ADD PUSH1 0x0 SWAP1 MSTORE PUSH1 0x4 CALLDATALOAD PUSH1 0x0 MSTORE PUSH1 0x2 DUP2 MSTORE PUSH1 0x40 PUSH1 0x0 KECCAK256 SWAP4 PUSH1 0x40 MLOAD SWAP4 PUSH2 0xBF2 DUP6 PUSH2 0x156D JUMP JUMPDEST DUP6 SLOAD PUSH1 0x1 PUSH1 0x1 PUSH1 0xA0 SHL SUB SWAP1 DUP2 AND DUP7 MSTORE SWAP6 PUSH2 0xC0E PUSH1 0x1 DUP3 ADD PUSH2 0x166B JUMP JUMPDEST SWAP3 DUP5 DUP8 ADD SWAP4 DUP5 MSTORE PUSH1 0x2 DUP3 ADD SLOAD SWAP6 PUSH1 0x40 DUP9 ADD SWAP7 DUP8 MSTORE PUSH1 0x3 DUP4 ADD PUSH2 0xC2F SWAP1 PUSH2 0x166B JUMP JUMPDEST DUP9 DUP3 ADD SWAP1 DUP2 MSTORE SWAP7 PUSH2 0xC42 PUSH1 0x4 DUP6 ADD PUSH2 0x166B JUMP JUMPDEST PUSH1 0x80 DUP11 ADD SWAP1 DUP2 MSTORE PUSH1 0x5 DUP6 ADD SLOAD SWAP9 PUSH1 0xA0 DUP12 ADD SWAP10 DUP11 MSTORE PUSH1 0x6 DUP7 ADD SLOAD SWAP4 PUSH1 0xC0 DUP13 ADD SWAP5 DUP6 MSTORE PUSH1 0x7 DUP8 ADD SLOAD SWAP7 DUP7 DUP14 ADD SWAP8 DUP9 MSTORE PUSH1 0x8 ADD SLOAD PUSH1 0xFF AND SWAP9 DUP9 DUP14 ADD SWAP10 ISZERO ISZERO DUP11 MSTORE DUP11 PUSH1 0x40 MLOAD SWAP15 DUP16 SWAP15 DUP16 SWAP14 DUP15 MSTORE MLOAD AND SWAP1 DUP13 ADD MSTORE MLOAD PUSH2 0x120 PUSH1 0x40 DUP2 SWAP13 ADD MSTORE PUSH2 0x140 DUP14 ADD PUSH2 0xCA8 SWAP2 PUSH2 0x1734 JUMP JUMPDEST SWAP4 MLOAD SWAP1 DUP13 ADD MSTORE MLOAD PUSH1 0x1F NOT SWAP3 DUP4 DUP13 DUP3 SUB ADD PUSH1 0x80 DUP14 ADD MSTORE PUSH2 0xCC6 SWAP2 PUSH2 0x1734 JUMP JUMPDEST SWAP1 MLOAD SWAP2 DUP11 DUP3 SUB ADD PUSH1 0xA0 DUP12 ADD MSTORE PUSH2 0xCDB SWAP2 PUSH2 0x1734 JUMP JUMPDEST SWAP7 MLOAD PUSH1 0xC0 DUP10 ADD MSTORE MLOAD SWAP1 DUP8 ADD MSTORE MLOAD SWAP1 DUP6 ADD MSTORE MLOAD ISZERO ISZERO SWAP1 DUP4 ADD MSTORE SUB SWAP1 RETURN JUMPDEST CALLVALUE PUSH2 0x160 JUMPI PUSH1 0x20 CALLDATASIZE PUSH1 0x3 NOT ADD SLT PUSH2 0x160 JUMPI PUSH1 0x4 CALLDATALOAD PUSH1 0x0 SWAP1 DUP2 MSTORE PUSH1 0x2 PUSH1 0x20 MSTORE PUSH1 0x40 SWAP1 KECCAK256 DUP1 SLOAD PUSH1 0x1 PUSH1 0x1 PUSH1 0xA0 SHL SUB AND SWAP1 PUSH2 0xD31 PUSH1 0x1 DUP3 ADD PUSH2 0x166B JUMP JUMPDEST SWAP3 PUSH1 0x2 DUP3 ADD SLOAD SWAP2 PUSH2 0xD44 PUSH1 0x3 DUP3 ADD PUSH2 0x166B JUMP JUMPDEST SWAP2 PUSH2 0xD51 PUSH1 0x4 DUP4 ADD PUSH2 0x166B JUMP JUMPDEST SWAP4 PUSH2 0xDB1 PUSH1 0x5 DUP5 ADD SLOAD SWAP6 PUSH2 0xDA3 PUSH1 0x6 DUP7 ADD SLOAD SWAP4 PUSH1 0xFF PUSH1 0x8 PUSH1 0x7 DUP10 ADD SLOAD SWAP9 ADD SLOAD AND SWAP8 PUSH2 0xD90 PUSH1 0x40 MLOAD SWAP13 DUP14 SWAP13 DUP14 MSTORE PUSH1 0x20 DUP14 PUSH2 0x120 SWAP2 DUP3 SWAP2 ADD MSTORE DUP14 ADD SWAP1 PUSH2 0x1734 JUMP JUMPDEST SWAP2 PUSH1 0x40 DUP13 ADD MSTORE DUP11 DUP3 SUB PUSH1 0x60 DUP13 ADD MSTORE PUSH2 0x1734 JUMP JUMPDEST SWAP1 DUP9 DUP3 SUB PUSH1 0x80 DUP11 ADD MSTORE PUSH2 0x1734 JUMP JUMPDEST SWAP5 PUSH1 0xA0 DUP8 ADD MSTORE PUSH1 0xC0 DUP7 ADD MSTORE DUP5 ADD MSTORE ISZERO ISZERO PUSH2 0x100 DUP4 ADD MSTORE SUB SWAP1 RETURN JUMPDEST CALLVALUE PUSH2 0x160 JUMPI PUSH1 0xA0 CALLDATASIZE PUSH1 0x3 NOT ADD SLT PUSH2 0x160 JUMPI PUSH1 0x4 CALLDATALOAD PUSH1 0x1 PUSH1 0x1 PUSH1 0x40 SHL SUB DUP2 GT PUSH2 0x160 JUMPI PUSH2 0xDFB SWAP1 CALLDATASIZE SWAP1 PUSH1 0x4 ADD PUSH2 0x15C5 JUMP JUMPDEST SWAP1 PUSH1 0x44 CALLDATALOAD PUSH1 0x1 PUSH1 0x1 PUSH1 0x40 SHL SUB DUP2 GT PUSH2 0x160 JUMPI PUSH2 0xE1B SWAP1 CALLDATASIZE SWAP1 PUSH1 0x4 ADD PUSH2 0x15C5 JUMP JUMPDEST SWAP2 PUSH1 0x64 CALLDATALOAD PUSH1 0x1 PUSH1 0x1 PUSH1 0x40 SHL SUB DUP2 GT PUSH2 0x160 JUMPI PUSH2 0xE3B SWAP1 CALLDATASIZE SWAP1 PUSH1 0x4 ADD PUSH2 0x15C5 JUMP JUMPDEST SWAP3 PUSH1 0x2 PUSH1 0x1 SLOAD EQ PUSH2 0x148A JUMPI PUSH1 0x2 PUSH1 0x1 SSTORE PUSH1 0x40 MLOAD SWAP4 PUSH2 0xE69 PUSH1 0xFF DUP5 MLOAD SWAP7 PUSH1 0x20 DUP2 DUP2 DUP9 ADD SWAP10 PUSH2 0x4BB DUP2 DUP4 DUP14 PUSH2 0x1711 JUMP JUMPDEST PUSH2 0xE79 PUSH1 0x8 SLOAD PUSH1 0x24 CALLDATALOAD GT ISZERO PUSH2 0x1803 JUMP JUMPDEST PUSH1 0xB SLOAD SWAP5 PUSH1 0x84 CALLDATALOAD SWAP6 DUP7 LT PUSH2 0x1445 JUMPI PUSH1 0x40 MLOAD PUSH2 0xEFA PUSH1 0x94 DUP3 PUSH1 0x20 DUP2 ADD SWAP5 CALLER PUSH1 0x60 SHL DUP7 MSTORE PUSH2 0xEAC DUP10 MLOAD DUP1 SWAP3 PUSH1 0x34 DUP6 ADD SWAP1 PUSH2 0x1711 JUMP JUMPDEST DUP2 ADD PUSH1 0x24 CALLDATALOAD PUSH1 0x34 DUP3 ADD MSTORE DUP8 MLOAD SWAP1 PUSH2 0xECA DUP3 PUSH1 0x54 DUP4 ADD PUSH1 0x20 DUP13 ADD PUSH2 0x1711 JUMP JUMPDEST ADD DUP7 MLOAD SWAP1 PUSH2 0xEDF DUP3 PUSH1 0x54 DUP4 ADD PUSH1 0x20 DUP12 ADD PUSH2 0x1711 JUMP JUMPDEST ADD DUP11 PUSH1 0x54 DUP3 ADD MSTORE TIMESTAMP PUSH1 0x74 DUP3 ADD MSTORE SUB PUSH1 0x74 DUP2 ADD DUP5 MSTORE ADD DUP3 PUSH2 0x15A4 JUMP JUMPDEST MLOAD SWAP1 KECCAK256 SWAP4 DUP5 PUSH1 0x0 MSTORE PUSH1 0x2 PUSH1 0x20 MSTORE PUSH1 0x6 PUSH1 0x40 PUSH1 0x0 KECCAK256 ADD SLOAD PUSH2 0x1400 JUMPI PUSH2 0xF20 DUP7 PUSH1 0x24 CALLDATALOAD PUSH2 0x1852 JUMP JUMPDEST SWAP6 PUSH1 0x40 MLOAD SWAP3 PUSH2 0xF2E DUP5 PUSH2 0x156D JUMP JUMPDEST CALLER DUP5 MSTORE PUSH1 0x20 DUP5 ADD SWAP5 DUP7 DUP7 MSTORE PUSH1 0x24 CALLDATALOAD PUSH1 0x40 DUP7 ADD MSTORE PUSH1 0x60 DUP6 ADD MSTORE PUSH1 0x80 DUP5 ADD MSTORE PUSH1 0xA0 DUP4 ADD MSTORE TIMESTAMP PUSH1 0xC0 DUP4 ADD MSTORE DUP6 DUP2 DUP4 ADD MSTORE PUSH1 0x0 PUSH2 0x100 DUP4 ADD MSTORE DUP5 PUSH1 0x0 MSTORE PUSH1 0x2 PUSH1 0x20 MSTORE PUSH1 0x40 PUSH1 0x0 KECCAK256 SWAP3 PUSH1 0x1 DUP1 PUSH1 0xA0 SHL SUB DUP4 MLOAD AND PUSH12 0xFFFFFFFFFFFFFFFFFFFFFFFF PUSH1 0xA0 SHL DUP6 SLOAD AND OR DUP5 SSTORE MLOAD DUP1 MLOAD SWAP1 PUSH1 0x1 PUSH1 0x1 PUSH1 0x40 SHL SUB DUP3 GT PUSH2 0x716 JUMPI DUP2 SWAP1 PUSH2 0xFB3 PUSH1 0x1 DUP8 ADD SLOAD PUSH2 0x1631 JUMP JUMPDEST PUSH1 0x1F DUP2 GT PUSH2 0x13AD JUMPI JUMPDEST POP PUSH1 0x20 SWAP1 PUSH1 0x1F DUP4 GT PUSH1 0x1 EQ PUSH2 0x133B JUMPI PUSH1 0x0 SWAP3 PUSH2 0x1330 JUMPI JUMPDEST POP POP DUP2 PUSH1 0x1 SHL SWAP2 PUSH1 0x0 NOT SWAP1 PUSH1 0x3 SHL SHR NOT AND OR PUSH1 0x1 DUP5 ADD SSTORE JUMPDEST PUSH1 0x40 DUP3 ADD MLOAD PUSH1 0x2 DUP5 ADD SSTORE PUSH1 0x60 DUP3 ADD MLOAD DUP1 MLOAD SWAP1 PUSH1 0x1 PUSH1 0x1 PUSH1 0x40 SHL SUB DUP3 GT PUSH2 0x716 JUMPI DUP2 SWAP1 PUSH2 0x101A PUSH1 0x3 DUP8 ADD SLOAD PUSH2 0x1631 JUMP JUMPDEST PUSH1 0x1F DUP2 GT PUSH2 0x12DD JUMPI JUMPDEST POP PUSH1 0x20 SWAP1 PUSH1 0x1F DUP4 GT PUSH1 0x1 EQ PUSH2 0x126B JUMPI PUSH1 0x0 SWAP3 PUSH2 0x1260 JUMPI JUMPDEST POP POP DUP2 PUSH1 0x1 SHL SWAP2 PUSH1 0x0 NOT SWAP1 PUSH1 0x3 SHL SHR NOT AND OR PUSH1 0x3 DUP5 ADD SSTORE JUMPDEST PUSH1 0x80 DUP3 ADD MLOAD DUP1 MLOAD SWAP1 PUSH1 0x1 PUSH1 0x1 PUSH1 0x40 SHL SUB DUP3 GT PUSH2 0x716 JUMPI PUSH2 0x1075 PUSH1 0x4 DUP7 ADD SLOAD PUSH2 0x1631 JUMP JUMPDEST PUSH1 0x1F DUP2 GT PUSH2 0x1219 JUMPI JUMPDEST POP PUSH1 0x20 SWAP1 PUSH1 0x1F DUP4 GT PUSH1 0x1 EQ PUSH2 0x119E JUMPI SWAP3 DUP3 PUSH2 0x100 SWAP4 PUSH2 0x10EF SWAP8 SWAP7 SWAP4 PUSH1 0x8 SWAP7 PUSH1 0x0 SWAP3 PUSH2 0x1193 JUMPI JUMPDEST POP POP DUP2 PUSH1 0x1 SHL SWAP2 PUSH1 0x0 NOT SWAP1 PUSH1 0x3 SHL SHR NOT AND OR PUSH1 0x4 DUP7 ADD SSTORE JUMPDEST PUSH1 0xA0 DUP3 ADD MLOAD PUSH1 0x5 DUP7 ADD SSTORE PUSH1 0xC0 DUP3 ADD MLOAD PUSH1 0x6 DUP7 ADD SSTORE DUP2 ADD MLOAD PUSH1 0x7 DUP6 ADD SSTORE ADD MLOAD ISZERO ISZERO SWAP2 ADD SWAP1 PUSH1 0xFF DUP1 NOT DUP4 SLOAD AND SWAP2 ISZERO ISZERO AND OR SWAP1 SSTORE JUMP JUMPDEST CALLER PUSH1 0x0 MSTORE PUSH1 0x4 PUSH1 0x20 MSTORE PUSH1 0x40 PUSH1 0x0 KECCAK256 PUSH2 0x1108 DUP5 DUP3 SLOAD PUSH2 0x1845 JUMP JUMPDEST SWAP1 SSTORE PUSH1 0x6 SLOAD SWAP1 PUSH1 0x0 NOT DUP3 EQ PUSH2 0x117D JUMPI PUSH1 0x1 PUSH32 0xBD7E5621A2494F67860219E20703B5B8587517922EDB04E4808BF12862F43721 SWAP3 ADD PUSH1 0x6 SSTORE PUSH2 0x114B DUP5 PUSH1 0x7 SLOAD PUSH2 0x1845 JUMP JUMPDEST PUSH1 0x7 SSTORE PUSH2 0x1163 PUSH1 0x40 MLOAD SWAP2 PUSH1 0x60 DUP4 MSTORE PUSH1 0x60 DUP4 ADD SWAP1 PUSH2 0x1734 JUMP JUMPDEST SWAP4 PUSH1 0x24 CALLDATALOAD PUSH1 0x20 DUP4 ADD MSTORE PUSH1 0x40 DUP3 ADD MSTORE DUP1 CALLER SWAP5 SUB SWAP1 LOG3 PUSH1 0x1 DUP1 SSTORE STOP JUMPDEST PUSH4 0x4E487B71 PUSH1 0xE0 SHL PUSH1 0x0 MSTORE PUSH1 0x11 PUSH1 0x4 MSTORE PUSH1 0x24 PUSH1 0x0 REVERT JUMPDEST ADD MLOAD SWAP1 POP DUP12 DUP1 PUSH2 0x10A4 JUMP JUMPDEST SWAP1 PUSH1 0x4 DUP7 ADD PUSH1 0x0 MSTORE PUSH1 0x20 PUSH1 0x0 KECCAK256 SWAP2 PUSH1 0x0 JUMPDEST PUSH1 0x1F NOT DUP6 AND DUP2 LT PUSH2 0x1201 JUMPI POP DUP4 PUSH2 0x10EF SWAP8 SWAP7 SWAP4 PUSH1 0x8 SWAP7 SWAP4 PUSH1 0x1 SWAP4 PUSH2 0x100 SWAP8 PUSH1 0x1F NOT DUP2 AND LT PUSH2 0x11E8 JUMPI JUMPDEST POP POP POP DUP2 SHL ADD PUSH1 0x4 DUP7 ADD SSTORE PUSH2 0x10BC JUMP JUMPDEST ADD MLOAD PUSH1 0x0 NOT PUSH1 0xF8 DUP5 PUSH1 0x3 SHL AND SHR NOT AND SWAP1 SSTORE DUP12 DUP1 DUP1 PUSH2 0x11D8 JUMP JUMPDEST SWAP2 SWAP3 PUSH1 0x20 PUSH1 0x1 DUP2 SWAP3 DUP7 DUP6 ADD MLOAD DUP2 SSTORE ADD SWAP5 ADD SWAP3 ADD PUSH2 0x11AF JUMP JUMPDEST PUSH1 0x4 DUP7 ADD PUSH1 0x0 MSTORE PUSH1 0x20 PUSH1 0x0 KECCAK256 PUSH1 0x1F DUP5 ADD PUSH1 0x5 SHR DUP2 ADD PUSH1 0x20 DUP6 LT PUSH2 0x1259 JUMPI JUMPDEST PUSH1 0x1F DUP4 ADD PUSH1 0x5 SHR DUP3 ADD DUP2 LT PUSH2 0x124D JUMPI POP POP PUSH2 0x107E JUMP JUMPDEST PUSH1 0x0 DUP2 SSTORE PUSH1 0x1 ADD PUSH2 0x1237 JUMP JUMPDEST POP DUP1 PUSH2 0x1237 JUMP JUMPDEST ADD MLOAD SWAP1 POP DUP9 DUP1 PUSH2 0x103A JUMP JUMPDEST SWAP3 POP PUSH1 0x3 DUP7 ADD PUSH1 0x0 MSTORE PUSH1 0x20 PUSH1 0x0 KECCAK256 SWAP1 PUSH1 0x0 SWAP4 JUMPDEST PUSH1 0x1F NOT DUP5 AND DUP6 LT PUSH2 0x12C2 JUMPI PUSH1 0x1 SWAP5 POP DUP4 PUSH1 0x1F NOT DUP2 AND LT PUSH2 0x12A9 JUMPI JUMPDEST POP POP POP DUP2 SHL ADD PUSH1 0x3 DUP5 ADD SSTORE PUSH2 0x1052 JUMP JUMPDEST ADD MLOAD PUSH1 0x0 NOT PUSH1 0xF8 DUP5 PUSH1 0x3 SHL AND SHR NOT AND SWAP1 SSTORE DUP9 DUP1 DUP1 PUSH2 0x1299 JUMP JUMPDEST DUP2 DUP2 ADD MLOAD DUP4 SSTORE PUSH1 0x20 SWAP5 DUP6 ADD SWAP5 PUSH1 0x1 SWAP1 SWAP4 ADD SWAP3 SWAP1 SWAP2 ADD SWAP1 PUSH2 0x127E JUMP JUMPDEST SWAP1 SWAP2 POP PUSH1 0x3 DUP7 ADD PUSH1 0x0 MSTORE PUSH1 0x20 PUSH1 0x0 KECCAK256 PUSH1 0x1F DUP5 ADD PUSH1 0x5 SHR DUP2 ADD PUSH1 0x20 DUP6 LT PUSH2 0x1329 JUMPI JUMPDEST SWAP1 DUP5 SWAP4 SWAP3 SWAP2 JUMPDEST PUSH1 0x1F DUP4 ADD PUSH1 0x5 SHR DUP3 ADD DUP2 LT PUSH2 0x131A JUMPI POP POP PUSH2 0x1023 JUMP JUMPDEST PUSH1 0x0 DUP2 SSTORE DUP6 SWAP5 POP PUSH1 0x1 ADD PUSH2 0x1304 JUMP JUMPDEST POP DUP1 PUSH2 0x12FE JUMP JUMPDEST ADD MLOAD SWAP1 POP DUP9 DUP1 PUSH2 0xFD3 JUMP JUMPDEST SWAP3 POP PUSH1 0x1 DUP7 ADD PUSH1 0x0 MSTORE PUSH1 0x20 PUSH1 0x0 KECCAK256 SWAP1 PUSH1 0x0 SWAP4 JUMPDEST PUSH1 0x1F NOT DUP5 AND DUP6 LT PUSH2 0x1392 JUMPI PUSH1 0x1 SWAP5 POP DUP4 PUSH1 0x1F NOT DUP2 AND LT PUSH2 0x1379 JUMPI JUMPDEST POP POP POP DUP2 SHL ADD PUSH1 0x1 DUP5 ADD SSTORE PUSH2 0xFEB JUMP JUMPDEST ADD MLOAD PUSH1 0x0 NOT PUSH1 0xF8 DUP5 PUSH1 0x3 SHL AND SHR NOT AND SWAP1 SSTORE DUP9 DUP1 DUP1 PUSH2 0x1369 JUMP JUMPDEST DUP2 DUP2 ADD MLOAD DUP4 SSTORE PUSH1 0x20 SWAP5 DUP6 ADD SWAP5 PUSH1 0x1 SWAP1 SWAP4 ADD SWAP3 SWAP1 SWAP2 ADD SWAP1 PUSH2 0x134E JUMP JUMPDEST SWAP1 SWAP2 POP PUSH1 0x1 DUP7 ADD PUSH1 0x0 MSTORE PUSH1 0x20 PUSH1 0x0 KECCAK256 PUSH1 0x1F DUP5 ADD PUSH1 0x5 SHR DUP2 ADD PUSH1 0x20 DUP6 LT PUSH2 0x13F9 JUMPI JUMPDEST SWAP1 DUP5 SWAP4 SWAP3 SWAP2 JUMPDEST PUSH1 0x1F DUP4 ADD PUSH1 0x5 SHR DUP3 ADD DUP2 LT PUSH2 0x13EA JUMPI POP POP PUSH2 0xFBC JUMP JUMPDEST PUSH1 0x0 DUP2 SSTORE DUP6 SWAP5 POP PUSH1 0x1 ADD PUSH2 0x13D4 JUMP JUMPDEST POP DUP1 PUSH2 0x13CE JUMP JUMPDEST PUSH1 0x40 MLOAD PUSH3 0x461BCD PUSH1 0xE5 SHL DUP2 MSTORE PUSH1 0x20 PUSH1 0x4 DUP3 ADD MSTORE PUSH1 0x18 PUSH1 0x24 DUP3 ADD MSTORE PUSH32 0x446973636F7665727920616C7265616479206578697374730000000000000000 PUSH1 0x44 DUP3 ADD MSTORE PUSH1 0x64 SWAP1 REVERT JUMPDEST PUSH1 0x40 MLOAD PUSH3 0x461BCD PUSH1 0xE5 SHL DUP2 MSTORE PUSH1 0x20 PUSH1 0x4 DUP3 ADD MSTORE PUSH1 0x1D PUSH1 0x24 DUP3 ADD MSTORE PUSH32 0x496E73756666696369656E74207175616E74756D207365637572697479000000 PUSH1 0x44 DUP3 ADD MSTORE PUSH1 0x64 SWAP1 REVERT JUMPDEST PUSH1 0x40 MLOAD PUSH4 0x3EE5AEB5 PUSH1 0xE0 SHL DUP2 MSTORE PUSH1 0x4 SWAP1 REVERT JUMPDEST CALLVALUE PUSH2 0x160 JUMPI PUSH1 0x0 CALLDATASIZE PUSH1 0x3 NOT ADD SLT PUSH2 0x160 JUMPI PUSH1 0x20 PUSH1 0xA SLOAD PUSH1 0x40 MLOAD SWAP1 DUP2 MSTORE RETURN JUMPDEST CALLVALUE PUSH2 0x160 JUMPI PUSH1 0x40 CALLDATASIZE PUSH1 0x3 NOT ADD SLT PUSH2 0x160 JUMPI PUSH1 0x20 PUSH2 0x14DB PUSH1 0x24 CALLDATALOAD PUSH1 0x4 CALLDATALOAD PUSH2 0x1852 JUMP JUMPDEST PUSH1 0x40 MLOAD SWAP1 DUP2 MSTORE RETURN JUMPDEST CALLVALUE PUSH2 0x160 JUMPI PUSH1 0x20 CALLDATASIZE PUSH1 0x3 NOT ADD SLT PUSH2 0x160 JUMPI PUSH1 0x4 CALLDATALOAD PUSH1 0x1 PUSH1 0x1 PUSH1 0x40 SHL SUB DUP2 GT PUSH2 0x160 JUMPI PUSH1 0x20 PUSH2 0x777 PUSH2 0x1518 SWAP3 CALLDATASIZE SWAP1 PUSH1 0x4 ADD PUSH2 0x15C5 JUMP JUMPDEST PUSH1 0x5 SWAP1 DUP3 ADD SWAP1 DUP2 MSTORE SUB ADD SWAP1 KECCAK256 DUP1 SLOAD PUSH1 0xFF NOT AND PUSH1 0x1 OR SWAP1 SSTORE STOP JUMPDEST CALLVALUE PUSH2 0x160 JUMPI PUSH1 0x20 CALLDATASIZE PUSH1 0x3 NOT ADD SLT PUSH2 0x160 JUMPI PUSH2 0x154A PUSH2 0x178B JUMP JUMPDEST PUSH1 0x4 CALLDATALOAD PUSH1 0x9 SSTORE STOP JUMPDEST CALLVALUE PUSH2 0x160 JUMPI PUSH1 0x0 CALLDATASIZE PUSH1 0x3 NOT ADD SLT PUSH2 0x160 JUMPI PUSH1 0x20 SWAP1 PUSH1 0x6 SLOAD DUP2 MSTORE RETURN JUMPDEST PUSH2 0x120 DUP2 ADD SWAP1 DUP2 LT PUSH1 0x1 PUSH1 0x1 PUSH1 0x40 SHL SUB DUP3 GT OR PUSH2 0x716 JUMPI PUSH1 0x40 MSTORE JUMP JUMPDEST PUSH1 0xE0 DUP2 ADD SWAP1 DUP2 LT PUSH1 0x1 PUSH1 0x1 PUSH1 0x40 SHL SUB DUP3 GT OR PUSH2 0x716 JUMPI PUSH1 0x40 MSTORE JUMP JUMPDEST SWAP1 PUSH1 0x1F DUP1 NOT SWAP2 ADD AND DUP2 ADD SWAP1 DUP2 LT PUSH1 0x1 PUSH1 0x1 PUSH1 0x40 SHL SUB DUP3 GT OR PUSH2 0x716 JUMPI PUSH1 0x40 MSTORE JUMP JUMPDEST DUP2 PUSH1 0x1F DUP3 ADD SLT ISZERO PUSH2 0x160 JUMPI DUP1 CALLDATALOAD SWAP1 PUSH1 0x1 PUSH1 0x1 PUSH1 0x40 SHL SUB DUP3 GT PUSH2 0x716 JUMPI PUSH1 0x40 MLOAD SWAP3 PUSH2 0x15F9 PUSH1 0x1F DUP5 ADD PUSH1 0x1F NOT AND PUSH1 0x20 ADD DUP6 PUSH2 0x15A4 JUMP JUMPDEST DUP3 DUP5 MSTORE PUSH1 0x20 DUP4 DUP4 ADD ADD GT PUSH2 0x160 JUMPI DUP2 PUSH1 0x0 SWAP3 PUSH1 0x20 DUP1 SWAP4 ADD DUP4 DUP7 ADD CALLDATACOPY DUP4 ADD ADD MSTORE SWAP1 JUMP JUMPDEST PUSH1 0x4 CALLDATALOAD SWAP1 PUSH1 0x1 PUSH1 0x1 PUSH1 0xA0 SHL SUB DUP3 AND DUP3 SUB PUSH2 0x160 JUMPI JUMP JUMPDEST SWAP1 PUSH1 0x1 DUP3 DUP2 SHR SWAP3 AND DUP1 ISZERO PUSH2 0x1661 JUMPI JUMPDEST PUSH1 0x20 DUP4 LT EQ PUSH2 0x164B JUMPI JUMP JUMPDEST PUSH4 0x4E487B71 PUSH1 0xE0 SHL PUSH1 0x0 MSTORE PUSH1 0x22 PUSH1 0x4 MSTORE PUSH1 0x24 PUSH1 0x0 REVERT JUMPDEST SWAP2 PUSH1 0x7F AND SWAP2 PUSH2 0x1640 JUMP JUMPDEST SWAP1 PUSH1 0x40 MLOAD SWAP2 DUP3 PUSH1 0x0 DUP3 SLOAD SWAP3 PUSH2 0x167F DUP5 PUSH2 0x1631 JUMP JUMPDEST SWAP1 DUP2 DUP5 MSTORE PUSH1 0x1 SWAP5 DUP6 DUP2 AND SWAP1 DUP2 PUSH1 0x0 EQ PUSH2 0x16EE JUMPI POP PUSH1 0x1 EQ PUSH2 0x16AB JUMPI JUMPDEST POP POP PUSH2 0x16A9 SWAP3 POP SUB DUP4 PUSH2 0x15A4 JUMP JUMPDEST JUMP JUMPDEST SWAP1 SWAP4 SWAP2 POP PUSH1 0x0 MSTORE PUSH1 0x20 SWAP1 DUP2 PUSH1 0x0 KECCAK256 SWAP4 PUSH1 0x0 SWAP2 JUMPDEST DUP2 DUP4 LT PUSH2 0x16D6 JUMPI POP POP PUSH2 0x16A9 SWAP4 POP DUP3 ADD ADD CODESIZE DUP1 PUSH2 0x169B JUMP JUMPDEST DUP6 SLOAD DUP9 DUP5 ADD DUP6 ADD MSTORE SWAP5 DUP6 ADD SWAP5 DUP8 SWAP5 POP SWAP2 DUP4 ADD SWAP2 PUSH2 0x16BE JUMP JUMPDEST SWAP2 POP POP PUSH2 0x16A9 SWAP5 POP PUSH1 0x20 SWAP3 POP PUSH1 0xFF NOT AND DUP3 DUP5 ADD MSTORE ISZERO ISZERO PUSH1 0x5 SHL DUP3 ADD ADD CODESIZE DUP1 PUSH2 0x169B JUMP JUMPDEST PUSH1 0x0 JUMPDEST DUP4 DUP2 LT PUSH2 0x1724 JUMPI POP POP PUSH1 0x0 SWAP2 ADD MSTORE JUMP JUMPDEST DUP2 DUP2 ADD MLOAD DUP4 DUP3 ADD MSTORE PUSH1 0x20 ADD PUSH2 0x1714 JUMP JUMPDEST SWAP1 PUSH1 0x20 SWAP2 PUSH2 0x174D DUP2 MLOAD DUP1 SWAP3 DUP2 DUP6 MSTORE DUP6 DUP1 DUP7 ADD SWAP2 ADD PUSH2 0x1711 JUMP JUMPDEST PUSH1 0x1F ADD PUSH1 0x1F NOT AND ADD ADD SWAP1 JUMP JUMPDEST DUP1 SLOAD DUP3 LT ISZERO PUSH2 0x1775 JUMPI PUSH1 0x0 MSTORE PUSH1 0x7 PUSH1 0x20 PUSH1 0x0 KECCAK256 SWAP2 MUL ADD SWAP1 PUSH1 0x0 SWAP1 JUMP JUMPDEST PUSH4 0x4E487B71 PUSH1 0xE0 SHL PUSH1 0x0 MSTORE PUSH1 0x32 PUSH1 0x4 MSTORE PUSH1 0x24 PUSH1 0x0 REVERT JUMPDEST PUSH1 0x0 SLOAD PUSH1 0x1 PUSH1 0x1 PUSH1 0xA0 SHL SUB AND CALLER SUB PUSH2 0x179F JUMPI JUMP JUMPDEST PUSH1 0x40 MLOAD PUSH4 0x118CDAA7 PUSH1 0xE0 SHL DUP2 MSTORE CALLER PUSH1 0x4 DUP3 ADD MSTORE PUSH1 0x24 SWAP1 REVERT JUMPDEST ISZERO PUSH2 0x17BE JUMPI JUMP JUMPDEST PUSH1 0x40 MLOAD PUSH3 0x461BCD PUSH1 0xE5 SHL DUP2 MSTORE PUSH1 0x20 PUSH1 0x4 DUP3 ADD MSTORE PUSH1 0x17 PUSH1 0x24 DUP3 ADD MSTORE PUSH32 0x576F726B2074797065206E6F7420737570706F72746564000000000000000000 PUSH1 0x44 DUP3 ADD MSTORE PUSH1 0x64 SWAP1 REVERT JUMPDEST ISZERO PUSH2 0x180A JUMPI JUMP JUMPDEST PUSH1 0x40 MLOAD PUSH3 0x461BCD PUSH1 0xE5 SHL DUP2 MSTORE PUSH1 0x20 PUSH1 0x4 DUP3 ADD MSTORE PUSH1 0x13 PUSH1 0x24 DUP3 ADD MSTORE PUSH19 0x88D2CCCCD2C6EAD8E8F240E8DEDE40D0D2CED PUSH1 0x6B SHL PUSH1 0x44 DUP3 ADD MSTORE PUSH1 0x64 SWAP1 REVERT JUMPDEST SWAP2 SWAP1 DUP3 ADD DUP1 SWAP3 GT PUSH2 0x117D JUMPI JUMP JUMPDEST SWAP1 PUSH1 0x9 SLOAD DUP3 DUP2 MUL SWAP3 DUP2 DUP5 DIV EQ SWAP1 ISZERO OR ISZERO PUSH2 0x117D JUMPI PUSH1 0xB SLOAD SWAP1 DUP2 ISZERO PUSH2 0x1890 JUMPI DIV PUSH1 0xA DUP2 MUL SWAP1 DUP1 DUP3 DIV PUSH1 0xA EQ SWAP1 ISZERO OR ISZERO PUSH2 0x117D JUMPI PUSH2 0x188D SWAP2 PUSH2 0x1845 JUMP JUMPDEST SWAP1 JUMP JUMPDEST PUSH4 0x4E487B71 PUSH1 0xE0 SHL PUSH1 0x0 MSTORE PUSH1 0x12 PUSH1 0x4 MSTORE PUSH1 0x24 PUSH1 0x0 REVERT INVALID LOG2 PUSH5 0x6970667358 0x22 SLT KECCAK256 DUP1 POP PUSH29 0x41CBA5503C6CFA851DE99A037C4B47061E2161FFC7378F189E2B10E6A7 PUSH5 0x736F6C6343 STOP ADDMOD EQ STOP CALLER "},"methodIdentifiers":{"addWorkType(string)":"05f4b26f","baseReward()":"76ad03bc","blockTime()":"48b15166","calculateReward(uint256,uint256)":"13ed0846","completeMiningSession(uint256)":"f1997dc9","discoveries(bytes32)":"5ffecc3f","getDiscovery(bytes32)":"6b0eae81","getMinerRewards(address)":"11c50d26","getMiningSessions(address)":"a48458fe","maxDifficulty()":"9a997453","minerRewards(address)":"a56c94ec","miningSessions(address,uint256)":"ce93734b","owner()":"8da5cb5b","quantumSecurityLevel()":"7ada463a","removeWorkType(string)":"eb802edf","renounceOwnership()":"715018a6","setBaseReward(uint256)":"0373a23a","setBlockTime(uint256)":"758b1ce3","setMaxDifficulty(uint256)":"f4ce57b5","setQuantumSecurityLevel(uint256)":"f7eb7ac8","startMiningSession(string,uint256)":"eda057f1","submitDiscovery(string,uint256,string,string,uint256)":"56ae8fb3","totalDiscoveries()":"03330528","totalRewardsDistributed()":"ee172546","transferOwnership(address)":"f2fde38b","workTypes(string)":"8d1771c2"}}}}}