{"contracts/ProductiveMinerAdaptive.sol":{"ProductiveMinerAdaptive":{"abi":[{"inputs":[],"stateMutability":"nonpayable","type":"constructor"},{"inputs":[{"internalType":"address","name":"owner","type":"address"}],"name":"OwnableInvalidOwner","type":"error"},{"inputs":[{"internalType":"address","name":"account","type":"address"}],"name":"OwnableUnauthorizedAccount","type":"error"},{"inputs":[],"name":"ReentrancyGuardReentrantCall","type":"error"},{"anonymous":false,"inputs":[{"indexed":false,"internalType":"uint256","name":"blockNumber","type":"uint256"},{"indexed":false,"internalType":"uint256","name":"algorithmEfficiency","type":"uint256"},{"indexed":false,"internalType":"uint256","name":"securityStrength","type":"uint256"},{"indexed":false,"internalType":"uint256","name":"consensusTime","type":"uint256"},{"indexed":false,"internalType":"uint256","name":"learningRate","type":"uint256"}],"name":"AdaptiveLearningUpdated","type":"event"},{"anonymous":false,"inputs":[{"indexed":true,"internalType":"uint256","name":"blockNumber","type":"uint256"},{"indexed":true,"internalType":"address","name":"miner","type":"address"},{"indexed":false,"internalType":"string","name":"workType","type":"string"},{"indexed":false,"internalType":"uint256","name":"difficulty","type":"uint256"},{"indexed":false,"internalType":"uint256","name":"algorithmEfficiency","type":"uint256"},{"indexed":false,"internalType":"uint256","name":"securityStrength","type":"uint256"},{"indexed":false,"internalType":"uint256","name":"adaptiveScore","type":"uint256"},{"indexed":false,"internalType":"bool","name":"successful","type":"bool"}],"name":"BlockCreated","type":"event"},{"anonymous":false,"inputs":[{"indexed":true,"internalType":"bytes32","name":"discoveryId","type":"bytes32"},{"indexed":true,"internalType":"bytes32","name":"validationTaskId","type":"bytes32"},{"indexed":false,"internalType":"bool","name":"finalDecision","type":"bool"},{"indexed":false,"internalType":"uint256","name":"approvalCount","type":"uint256"},{"indexed":false,"internalType":"uint256","name":"rejectionCount","type":"uint256"},{"indexed":false,"internalType":"uint256","name":"blockNumber","type":"uint256"},{"indexed":false,"internalType":"uint256","name":"consensusTime","type":"uint256"}],"name":"ConsensusReached","type":"event"},{"anonymous":false,"inputs":[{"indexed":true,"internalType":"bytes32","name":"discoveryId","type":"bytes32"},{"indexed":true,"internalType":"address","name":"miner","type":"address"},{"indexed":false,"internalType":"string","name":"workType","type":"string"},{"indexed":false,"internalType":"uint256","name":"difficulty","type":"uint256"},{"indexed":false,"internalType":"uint256","name":"reward","type":"uint256"},{"indexed":false,"internalType":"uint256","name":"stakeContribution","type":"uint256"},{"indexed":false,"internalType":"uint256","name":"adaptiveScore","type":"uint256"},{"indexed":false,"internalType":"uint256","name":"blockNumber","type":"uint256"},{"indexed":false,"internalType":"uint256","name":"algorithmEfficiency","type":"uint256"},{"indexed":false,"internalType":"uint256","name":"securityStrength","type":"uint256"}],"name":"DiscoverySubmitted","type":"event"},{"anonymous":false,"inputs":[{"indexed":true,"internalType":"address","name":"miner","type":"address"},{"indexed":false,"internalType":"string","name":"workType","type":"string"},{"indexed":false,"internalType":"uint256","name":"difficulty","type":"uint256"},{"indexed":false,"internalType":"uint256","name":"adaptiveScore","type":"uint256"},{"indexed":false,"internalType":"uint256","name":"blockNumber","type":"uint256"},{"indexed":false,"internalType":"uint256","name":"learningCycles","type":"uint256"}],"name":"MiningSessionCompleted","type":"event"},{"anonymous":false,"inputs":[{"indexed":true,"internalType":"address","name":"miner","type":"address"},{"indexed":false,"internalType":"string","name":"workType","type":"string"},{"indexed":false,"internalType":"uint256","name":"difficulty","type":"uint256"},{"indexed":false,"internalType":"uint256","name":"stakeAmount","type":"uint256"},{"indexed":false,"internalType":"uint256","name":"adaptiveDifficulty","type":"uint256"},{"indexed":false,"internalType":"uint256","name":"blockNumber","type":"uint256"},{"indexed":false,"internalType":"uint256","name":"algorithmEfficiency","type":"uint256"}],"name":"MiningSessionStarted","type":"event"},{"anonymous":false,"inputs":[{"indexed":true,"internalType":"address","name":"previousOwner","type":"address"},{"indexed":true,"internalType":"address","name":"newOwner","type":"address"}],"name":"OwnershipTransferred","type":"event"},{"anonymous":false,"inputs":[{"indexed":true,"internalType":"address","name":"staker","type":"address"},{"indexed":false,"internalType":"uint256","name":"amount","type":"uint256"},{"indexed":false,"internalType":"uint256","name":"totalStaked","type":"uint256"}],"name":"StakeDeposited","type":"event"},{"anonymous":false,"inputs":[{"indexed":true,"internalType":"address","name":"staker","type":"address"},{"indexed":false,"internalType":"uint256","name":"amount","type":"uint256"},{"indexed":false,"internalType":"uint256","name":"remainingStake","type":"uint256"}],"name":"StakeWithdrawn","type":"event"},{"anonymous":false,"inputs":[{"indexed":true,"internalType":"bytes32","name":"validationTaskId","type":"bytes32"},{"indexed":true,"internalType":"address","name":"validator","type":"address"},{"indexed":false,"internalType":"bool","name":"approved","type":"bool"},{"indexed":false,"internalType":"string","name":"reason","type":"string"},{"indexed":false,"internalType":"uint256","name":"validationTime","type":"uint256"},{"indexed":false,"internalType":"uint256","name":"algorithmEfficiency","type":"uint256"},{"indexed":false,"internalType":"uint256","name":"securityStrength","type":"uint256"}],"name":"ValidationSubmitted","type":"event"},{"anonymous":false,"inputs":[{"indexed":true,"internalType":"bytes32","name":"discoveryId","type":"bytes32"},{"indexed":true,"internalType":"bytes32","name":"validationTaskId","type":"bytes32"},{"indexed":false,"internalType":"address[]","name":"validators","type":"address[]"},{"indexed":false,"internalType":"uint256","name":"consensusThreshold","type":"uint256"},{"indexed":false,"internalType":"uint256","name":"blockNumber","type":"uint256"},{"indexed":false,"internalType":"uint256","name":"algorithmEfficiency","type":"uint256"}],"name":"ValidationTaskCreated","type":"event"},{"anonymous":false,"inputs":[{"indexed":true,"internalType":"address","name":"validator","type":"address"},{"indexed":false,"internalType":"uint256","name":"stakeAmount","type":"uint256"},{"indexed":false,"internalType":"uint256","name":"reputation","type":"uint256"},{"indexed":false,"internalType":"uint256","name":"algorithmLearningScore","type":"uint256"},{"indexed":false,"internalType":"bool","name":"quantumResistant","type":"bool"}],"name":"ValidatorRegistered","type":"event"},{"anonymous":false,"inputs":[{"indexed":true,"internalType":"address","name":"validator","type":"address"},{"indexed":false,"internalType":"uint256","name":"reward","type":"uint256"},{"indexed":false,"internalType":"uint256","name":"reputationGain","type":"uint256"},{"indexed":false,"internalType":"uint256","name":"learningScore","type":"uint256"}],"name":"ValidatorRewarded","type":"event"},{"anonymous":false,"inputs":[{"indexed":true,"internalType":"address","name":"validator","type":"address"},{"indexed":false,"internalType":"uint256","name":"penalty","type":"uint256"},{"indexed":false,"internalType":"string","name":"reason","type":"string"},{"indexed":false,"internalType":"uint256","name":"learningPenalty","type":"uint256"}],"name":"ValidatorSlashed","type":"event"},{"inputs":[],"name":"adaptiveLearningRate","outputs":[{"internalType":"uint256","name":"","type":"uint256"}],"stateMutability":"view","type":"function"},{"inputs":[],"name":"adaptiveState","outputs":[{"internalType":"uint256","name":"totalBlocks","type":"uint256"},{"internalType":"uint256","name":"successfulBlocks","type":"uint256"},{"internalType":"uint256","name":"failedBlocks","type":"uint256"},{"internalType":"uint256","name":"averageAlgorithmEfficiency","type":"uint256"},{"internalType":"uint256","name":"averageSecurityStrength","type":"uint256"},{"internalType":"uint256","name":"currentLearningRate","type":"uint256"},{"internalType":"uint256","name":"currentSecurityLevel","type":"uint256"},{"internalType":"uint256","name":"lastBlockNumber","type":"uint256"},{"internalType":"uint256","name":"lastUpdateTime","type":"uint256"},{"internalType":"uint256","name":"algorithmAdaptationRate","type":"uint256"},{"internalType":"uint256","name":"securityAdaptationRate","type":"uint256"},{"internalType":"uint256","name":"consensusAdaptationRate","type":"uint256"},{"internalType":"uint256","name":"difficultyAdjustmentRate","type":"uint256"}],"stateMutability":"view","type":"function"},{"inputs":[{"internalType":"string","name":"_workType","type":"string"}],"name":"addWorkType","outputs":[],"stateMutability":"nonpayable","type":"function"},{"inputs":[],"name":"algorithmLearningRate","outputs":[{"internalType":"uint256","name":"","type":"uint256"}],"stateMutability":"view","type":"function"},{"inputs":[],"name":"baseReward","outputs":[{"internalType":"uint256","name":"","type":"uint256"}],"stateMutability":"view","type":"function"},{"inputs":[{"internalType":"uint256","name":"","type":"uint256"}],"name":"blockAlgorithmEfficiency","outputs":[{"internalType":"uint256","name":"","type":"uint256"}],"stateMutability":"view","type":"function"},{"inputs":[{"internalType":"uint256","name":"","type":"uint256"}],"name":"blockConsensusTime","outputs":[{"internalType":"uint256","name":"","type":"uint256"}],"stateMutability":"view","type":"function"},{"inputs":[],"name":"blockLearningWindow","outputs":[{"internalType":"uint256","name":"","type":"uint256"}],"stateMutability":"view","type":"function"},{"inputs":[{"internalType":"uint256","name":"","type":"uint256"}],"name":"blockSecurityStrength","outputs":[{"internalType":"uint256","name":"","type":"uint256"}],"stateMutability":"view","type":"function"},{"inputs":[],"name":"blockTime","outputs":[{"internalType":"uint256","name":"","type":"uint256"}],"stateMutability":"view","type":"function"},{"inputs":[{"internalType":"uint256","name":"","type":"uint256"}],"name":"blockValidatorParticipation","outputs":[{"internalType":"uint256","name":"","type":"uint256"}],"stateMutability":"view","type":"function"},{"inputs":[{"internalType":"uint256","name":"","type":"uint256"}],"name":"blocks","outputs":[{"internalType":"uint256","name":"blockNumber","type":"uint256"},{"internalType":"uint256","name":"timestamp","type":"uint256"},{"internalType":"bytes32","name":"blockHash","type":"bytes32"},{"internalType":"address","name":"miner","type":"address"},{"internalType":"string","name":"workType","type":"string"},{"internalType":"uint256","name":"difficulty","type":"uint256"},{"internalType":"uint256","name":"quantumSecurity","type":"uint256"},{"internalType":"uint256","name":"algorithmEfficiency","type":"uint256"},{"internalType":"uint256","name":"securityStrength","type":"uint256"},{"internalType":"uint256","name":"adaptiveScore","type":"uint256"},{"internalType":"bool","name":"successful","type":"bool"},{"internalType":"uint256","name":"gasUsed","type":"uint256"},{"internalType":"uint256","name":"reward","type":"uint256"},{"internalType":"uint256","name":"algorithmLearningRate","type":"uint256"},{"internalType":"uint256","name":"securityLearningRate","type":"uint256"},{"internalType":"uint256","name":"consensusTime","type":"uint256"},{"internalType":"uint256","name":"validatorParticipation","type":"uint256"}],"stateMutability":"view","type":"function"},{"inputs":[{"internalType":"string","name":"_workType","type":"string"}],"name":"calculateAdaptiveDifficulty","outputs":[{"internalType":"uint256","name":"","type":"uint256"}],"stateMutability":"view","type":"function"},{"inputs":[{"internalType":"uint256","name":"_sessionIndex","type":"uint256"}],"name":"completeMiningSession","outputs":[],"stateMutability":"nonpayable","type":"function"},{"inputs":[],"name":"consensusLearningRate","outputs":[{"internalType":"uint256","name":"","type":"uint256"}],"stateMutability":"view","type":"function"},{"inputs":[],"name":"consensusThreshold","outputs":[{"internalType":"uint256","name":"","type":"uint256"}],"stateMutability":"view","type":"function"},{"inputs":[{"internalType":"string","name":"_workType","type":"string"},{"internalType":"uint256","name":"_difficulty","type":"uint256"},{"internalType":"uint256","name":"_quantumSecurity","type":"uint256"},{"internalType":"bool","name":"_successful","type":"bool"}],"name":"createBlock","outputs":[{"internalType":"uint256","name":"","type":"uint256"}],"stateMutability":"nonpayable","type":"function"},{"inputs":[],"name":"currentBlockNumber","outputs":[{"internalType":"uint256","name":"","type":"uint256"}],"stateMutability":"view","type":"function"},{"inputs":[],"name":"difficultyAdjustmentInterval","outputs":[{"internalType":"uint256","name":"","type":"uint256"}],"stateMutability":"view","type":"function"},{"inputs":[{"internalType":"bytes32","name":"","type":"bytes32"}],"name":"discoveries","outputs":[{"internalType":"address","name":"miner","type":"address"},{"internalType":"string","name":"workType","type":"string"},{"internalType":"uint256","name":"difficulty","type":"uint256"},{"internalType":"string","name":"result","type":"string"},{"internalType":"string","name":"proofOfWork","type":"string"},{"internalType":"uint256","name":"quantumSecurity","type":"uint256"},{"internalType":"uint256","name":"timestamp","type":"uint256"},{"internalType":"uint256","name":"reward","type":"uint256"},{"internalType":"bool","name":"verified","type":"bool"},{"internalType":"uint256","name":"stakeContribution","type":"uint256"},{"internalType":"uint256","name":"adaptiveScore","type":"uint256"},{"internalType":"uint256","name":"blockNumber","type":"uint256"},{"internalType":"uint256","name":"algorithmEfficiency","type":"uint256"},{"internalType":"uint256","name":"securityStrength","type":"uint256"},{"internalType":"uint256","name":"consensusTime","type":"uint256"},{"internalType":"uint256","name":"validatorParticipation","type":"uint256"},{"internalType":"bytes32","name":"adaptiveHash","type":"bytes32"},{"internalType":"uint256","name":"approvalCount","type":"uint256"},{"internalType":"uint256","name":"requiredApprovals","type":"uint256"},{"internalType":"bool","name":"consensusReached","type":"bool"},{"internalType":"uint256","name":"consensusTimestamp","type":"uint256"}],"stateMutability":"view","type":"function"},{"inputs":[{"internalType":"bytes32","name":"","type":"bytes32"},{"internalType":"address","name":"","type":"address"}],"name":"discoveryValidatorApprovals","outputs":[{"internalType":"bool","name":"","type":"bool"}],"stateMutability":"view","type":"function"},{"inputs":[],"name":"getAdaptiveLearningState","outputs":[{"internalType":"uint256","name":"totalBlocks","type":"uint256"},{"internalType":"uint256","name":"successfulBlocks","type":"uint256"},{"internalType":"uint256","name":"averageAlgorithmEfficiency","type":"uint256"},{"internalType":"uint256","name":"averageSecurityStrength","type":"uint256"},{"internalType":"uint256","name":"currentLearningRate","type":"uint256"}],"stateMutability":"view","type":"function"},{"inputs":[{"internalType":"uint256","name":"_blockNumber","type":"uint256"}],"name":"getBlockLearningMetrics","outputs":[{"internalType":"uint256","name":"algorithmEfficiency","type":"uint256"},{"internalType":"uint256","name":"securityStrength","type":"uint256"},{"internalType":"uint256","name":"consensusTime","type":"uint256"},{"internalType":"uint256","name":"validatorParticipation","type":"uint256"}],"stateMutability":"view","type":"function"},{"inputs":[{"internalType":"bytes32","name":"_discoveryId","type":"bytes32"}],"name":"getDiscovery","outputs":[{"components":[{"internalType":"address","name":"miner","type":"address"},{"internalType":"string","name":"workType","type":"string"},{"internalType":"uint256","name":"difficulty","type":"uint256"},{"internalType":"string","name":"result","type":"string"},{"internalType":"string","name":"proofOfWork","type":"string"},{"internalType":"uint256","name":"quantumSecurity","type":"uint256"},{"internalType":"uint256","name":"timestamp","type":"uint256"},{"internalType":"uint256","name":"reward","type":"uint256"},{"internalType":"bool","name":"verified","type":"bool"},{"internalType":"uint256","name":"stakeContribution","type":"uint256"},{"internalType":"uint256","name":"adaptiveScore","type":"uint256"},{"internalType":"uint256","name":"blockNumber","type":"uint256"},{"internalType":"uint256","name":"algorithmEfficiency","type":"uint256"},{"internalType":"uint256","name":"securityStrength","type":"uint256"},{"internalType":"uint256","name":"consensusTime","type":"uint256"},{"internalType":"uint256","name":"validatorParticipation","type":"uint256"},{"internalType":"bytes32","name":"adaptiveHash","type":"bytes32"},{"internalType":"uint256","name":"approvalCount","type":"uint256"},{"internalType":"uint256","name":"requiredApprovals","type":"uint256"},{"internalType":"bool","name":"consensusReached","type":"bool"},{"internalType":"uint256","name":"consensusTimestamp","type":"uint256"}],"internalType":"struct ProductiveMinerAdaptive.Discovery","name":"","type":"tuple"}],"stateMutability":"view","type":"function"},{"inputs":[],"name":"getLearningRates","outputs":[{"internalType":"uint256","name":"_algorithmLearningRate","type":"uint256"},{"internalType":"uint256","name":"_securityLearningRate","type":"uint256"},{"internalType":"uint256","name":"_consensusLearningRate","type":"uint256"}],"stateMutability":"view","type":"function"},{"inputs":[{"internalType":"address","name":"_miner","type":"address"}],"name":"getMinerRewards","outputs":[{"internalType":"uint256","name":"","type":"uint256"}],"stateMutability":"view","type":"function"},{"inputs":[{"internalType":"address","name":"_miner","type":"address"}],"name":"getMiningSessions","outputs":[{"components":[{"internalType":"address","name":"miner","type":"address"},{"internalType":"string","name":"workType","type":"string"},{"internalType":"uint256","name":"difficulty","type":"uint256"},{"internalType":"uint256","name":"startTime","type":"uint256"},{"internalType":"uint256","name":"endTime","type":"uint256"},{"internalType":"uint256","name":"progress","type":"uint256"},{"internalType":"bool","name":"active","type":"bool"},{"internalType":"uint256","name":"stakeAmount","type":"uint256"},{"internalType":"uint256","name":"adaptiveDifficulty","type":"uint256"},{"internalType":"uint256","name":"blockNumber","type":"uint256"},{"internalType":"uint256","name":"algorithmEfficiency","type":"uint256"},{"internalType":"uint256","name":"securityStrength","type":"uint256"},{"internalType":"uint256","name":"learningCycles","type":"uint256"},{"internalType":"bool","name":"quantumResistant","type":"bool"}],"internalType":"struct ProductiveMinerAdaptive.MiningSession[]","name":"","type":"tuple[]"}],"stateMutability":"view","type":"function"},{"inputs":[],"name":"lastDifficultyAdjustment","outputs":[{"internalType":"uint256","name":"","type":"uint256"}],"stateMutability":"view","type":"function"},{"inputs":[],"name":"maxDifficulty","outputs":[{"internalType":"uint256","name":"","type":"uint256"}],"stateMutability":"view","type":"function"},{"inputs":[{"internalType":"address","name":"","type":"address"}],"name":"minerRewards","outputs":[{"internalType":"uint256","name":"","type":"uint256"}],"stateMutability":"view","type":"function"},{"inputs":[],"name":"minimumBlockConfidence","outputs":[{"internalType":"uint256","name":"","type":"uint256"}],"stateMutability":"view","type":"function"},{"inputs":[],"name":"minimumStake","outputs":[{"internalType":"uint256","name":"","type":"uint256"}],"stateMutability":"view","type":"function"},{"inputs":[{"internalType":"address","name":"","type":"address"},{"internalType":"uint256","name":"","type":"uint256"}],"name":"miningSessions","outputs":[{"internalType":"address","name":"miner","type":"address"},{"internalType":"string","name":"workType","type":"string"},{"internalType":"uint256","name":"difficulty","type":"uint256"},{"internalType":"uint256","name":"startTime","type":"uint256"},{"internalType":"uint256","name":"endTime","type":"uint256"},{"internalType":"uint256","name":"progress","type":"uint256"},{"internalType":"bool","name":"active","type":"bool"},{"internalType":"uint256","name":"stakeAmount","type":"uint256"},{"internalType":"uint256","name":"adaptiveDifficulty","type":"uint256"},{"internalType":"uint256","name":"blockNumber","type":"uint256"},{"internalType":"uint256","name":"algorithmEfficiency","type":"uint256"},{"internalType":"uint256","name":"securityStrength","type":"uint256"},{"internalType":"uint256","name":"learningCycles","type":"uint256"},{"internalType":"bool","name":"quantumResistant","type":"bool"}],"stateMutability":"view","type":"function"},{"inputs":[],"name":"owner","outputs":[{"internalType":"address","name":"","type":"address"}],"stateMutability":"view","type":"function"},{"inputs":[],"name":"quantumSecurityLevel","outputs":[{"internalType":"uint256","name":"","type":"uint256"}],"stateMutability":"view","type":"function"},{"inputs":[],"name":"registerAdaptiveValidator","outputs":[],"stateMutability":"nonpayable","type":"function"},{"inputs":[{"internalType":"string","name":"_workType","type":"string"}],"name":"removeWorkType","outputs":[],"stateMutability":"nonpayable","type":"function"},{"inputs":[],"name":"renounceOwnership","outputs":[],"stateMutability":"nonpayable","type":"function"},{"inputs":[],"name":"reputationDecayRate","outputs":[{"internalType":"uint256","name":"","type":"uint256"}],"stateMutability":"view","type":"function"},{"inputs":[{"internalType":"address","name":"","type":"address"}],"name":"reputationScores","outputs":[{"internalType":"uint256","name":"","type":"uint256"}],"stateMutability":"view","type":"function"},{"inputs":[],"name":"requiredValidators","outputs":[{"internalType":"uint256","name":"","type":"uint256"}],"stateMutability":"view","type":"function"},{"inputs":[],"name":"securityLearningRate","outputs":[{"internalType":"uint256","name":"","type":"uint256"}],"stateMutability":"view","type":"function"},{"inputs":[{"internalType":"uint256","name":"_rate","type":"uint256"}],"name":"setAlgorithmLearningRate","outputs":[],"stateMutability":"nonpayable","type":"function"},{"inputs":[{"internalType":"uint256","name":"_baseReward","type":"uint256"}],"name":"setBaseReward","outputs":[],"stateMutability":"nonpayable","type":"function"},{"inputs":[{"internalType":"uint256","name":"_window","type":"uint256"}],"name":"setBlockLearningWindow","outputs":[],"stateMutability":"nonpayable","type":"function"},{"inputs":[{"internalType":"uint256","name":"_blockTime","type":"uint256"}],"name":"setBlockTime","outputs":[],"stateMutability":"nonpayable","type":"function"},{"inputs":[{"internalType":"uint256","name":"_rate","type":"uint256"}],"name":"setConsensusLearningRate","outputs":[],"stateMutability":"nonpayable","type":"function"},{"inputs":[{"internalType":"uint256","name":"_maxDifficulty","type":"uint256"}],"name":"setMaxDifficulty","outputs":[],"stateMutability":"nonpayable","type":"function"},{"inputs":[{"internalType":"uint256","name":"_confidence","type":"uint256"}],"name":"setMinimumBlockConfidence","outputs":[],"stateMutability":"nonpayable","type":"function"},{"inputs":[{"internalType":"uint256","name":"_level","type":"uint256"}],"name":"setQuantumSecurityLevel","outputs":[],"stateMutability":"nonpayable","type":"function"},{"inputs":[{"internalType":"uint256","name":"_rate","type":"uint256"}],"name":"setSecurityLearningRate","outputs":[],"stateMutability":"nonpayable","type":"function"},{"inputs":[],"name":"slashingPenalty","outputs":[{"internalType":"uint256","name":"","type":"uint256"}],"stateMutability":"view","type":"function"},{"inputs":[],"name":"stake","outputs":[],"stateMutability":"payable","type":"function"},{"inputs":[{"internalType":"address","name":"","type":"address"}],"name":"stakedAmounts","outputs":[{"internalType":"uint256","name":"","type":"uint256"}],"stateMutability":"view","type":"function"},{"inputs":[{"internalType":"string","name":"_workType","type":"string"},{"internalType":"uint256","name":"_difficulty","type":"uint256"}],"name":"startMiningSession","outputs":[],"stateMutability":"nonpayable","type":"function"},{"inputs":[{"internalType":"string","name":"_workType","type":"string"},{"internalType":"uint256","name":"_difficulty","type":"uint256"},{"internalType":"string","name":"_result","type":"string"},{"internalType":"string","name":"_proofOfWork","type":"string"},{"internalType":"uint256","name":"_quantumSecurity","type":"uint256"}],"name":"submitDiscovery","outputs":[],"stateMutability":"nonpayable","type":"function"},{"inputs":[],"name":"totalDiscoveries","outputs":[{"internalType":"uint256","name":"","type":"uint256"}],"stateMutability":"view","type":"function"},{"inputs":[],"name":"totalRewardsDistributed","outputs":[{"internalType":"uint256","name":"","type":"uint256"}],"stateMutability":"view","type":"function"},{"inputs":[],"name":"totalStaked","outputs":[{"internalType":"uint256","name":"","type":"uint256"}],"stateMutability":"view","type":"function"},{"inputs":[{"internalType":"address","name":"newOwner","type":"address"}],"name":"transferOwnership","outputs":[],"stateMutability":"nonpayable","type":"function"},{"inputs":[{"internalType":"bytes32","name":"","type":"bytes32"},{"internalType":"address","name":"","type":"address"}],"name":"validationTaskResults","outputs":[{"internalType":"bool","name":"approved","type":"bool"},{"internalType":"string","name":"reason","type":"string"},{"internalType":"uint256","name":"validationTime","type":"uint256"},{"internalType":"uint256","name":"gasUsed","type":"uint256"},{"internalType":"bool","name":"isCorrect","type":"bool"},{"internalType":"uint256","name":"algorithmEfficiency","type":"uint256"},{"internalType":"uint256","name":"securityStrength","type":"uint256"},{"internalType":"uint256","name":"consensusTime","type":"uint256"},{"internalType":"uint256","name":"learningScore","type":"uint256"}],"stateMutability":"view","type":"function"},{"inputs":[{"internalType":"bytes32","name":"","type":"bytes32"}],"name":"validationTasks","outputs":[{"internalType":"bytes32","name":"discoveryId","type":"bytes32"},{"internalType":"address","name":"miner","type":"address"},{"internalType":"string","name":"workType","type":"string"},{"internalType":"uint256","name":"difficulty","type":"uint256"},{"internalType":"string","name":"result","type":"string"},{"internalType":"string","name":"proofOfWork","type":"string"},{"internalType":"uint256","name":"quantumSecurity","type":"uint256"},{"internalType":"uint256","name":"timestamp","type":"uint256"},{"internalType":"bool","name":"isCompleted","type":"bool"},{"internalType":"uint256","name":"consensusThreshold","type":"uint256"},{"internalType":"uint256","name":"approvalCount","type":"uint256"},{"internalType":"uint256","name":"rejectionCount","type":"uint256"},{"internalType":"bool","name":"finalDecision","type":"bool"},{"internalType":"uint256","name":"blockNumber","type":"uint256"},{"internalType":"uint256","name":"algorithmEfficiency","type":"uint256"},{"internalType":"uint256","name":"securityStrength","type":"uint256"},{"internalType":"uint256","name":"consensusTime","type":"uint256"},{"internalType":"uint256","name":"validatorParticipation","type":"uint256"}],"stateMutability":"view","type":"function"},{"inputs":[],"name":"validationTimeout","outputs":[{"internalType":"uint256","name":"","type":"uint256"}],"stateMutability":"view","type":"function"},{"inputs":[{"internalType":"address","name":"","type":"address"},{"internalType":"uint256","name":"","type":"uint256"}],"name":"validatorAssignments","outputs":[{"internalType":"bytes32","name":"","type":"bytes32"}],"stateMutability":"view","type":"function"},{"inputs":[],"name":"validatorReward","outputs":[{"internalType":"uint256","name":"","type":"uint256"}],"stateMutability":"view","type":"function"},{"inputs":[],"name":"validatorSelectionStake","outputs":[{"internalType":"uint256","name":"","type":"uint256"}],"stateMutability":"view","type":"function"},{"inputs":[{"internalType":"address","name":"","type":"address"}],"name":"validators","outputs":[{"internalType":"address","name":"validator","type":"address"},{"internalType":"uint256","name":"stake","type":"uint256"},{"internalType":"uint256","name":"reputation","type":"uint256"},{"internalType":"uint256","name":"totalValidations","type":"uint256"},{"internalType":"uint256","name":"successfulValidations","type":"uint256"},{"internalType":"uint256","name":"failedValidations","type":"uint256"},{"internalType":"bool","name":"isActive","type":"bool"},{"internalType":"uint256","name":"lastValidationTime","type":"uint256"},{"internalType":"uint256","name":"adaptiveScore","type":"uint256"},{"internalType":"uint256","name":"validationRewards","type":"uint256"},{"internalType":"uint256","name":"slashingPenalties","type":"uint256"},{"internalType":"uint256","name":"averageValidationTime","type":"uint256"},{"internalType":"uint256","name":"correctValidations","type":"uint256"},{"internalType":"uint256","name":"incorrectValidations","type":"uint256"},{"internalType":"uint256","name":"algorithmLearningScore","type":"uint256"},{"internalType":"uint256","name":"securityLearningScore","type":"uint256"},{"internalType":"uint256","name":"consensusLearningScore","type":"uint256"},{"internalType":"bool","name":"quantumResistant","type":"bool"}],"stateMutability":"view","type":"function"},{"inputs":[{"internalType":"uint256","name":"_amount","type":"uint256"}],"name":"withdrawStake","outputs":[],"stateMutability":"nonpayable","type":"function"},{"inputs":[{"internalType":"string","name":"","type":"string"}],"name":"workTypes","outputs":[{"internalType":"bool","name":"","type":"bool"}],"stateMutability":"view","type":"function"}],"evm":{"bytecode":{"linkReferences":{},"object":"60806040908082523461031e573315610308575060008054336001600160a01b0319821681178355835192916001600160a01b03167f8be0079c531659141344cd1fd0a4f28419497f9722a3daafe3b4186f6b6457e08380a360019081805560326014556064601555601e6016556101008060175581601855670de0b6b3a764000060195581601a55600a601b556032601c556003601d556002601e5561012c9384601f55671bc16d674ec800006020556103e89081602e556064602f556090603055836031556101f49485603255856033558660345560646035556103206036557f5072696d65205061747465726e20446973636f76657279000000000000000000825260346037600693846017820152209260ff1993838582541617905560388a517f5269656d616e6e205a65726f20436f6d7075746174696f6e0000000000000000815282601882015220838582541617905560378a517f59616e672d4d696c6c73204669656c64205468656f727900000000000000000081528260178201522083858254161790558980517f476f6c646261636820436f6e6a65637475726520566572696669636174696f6e815282602082015220838582541617905560388a517f4e61766965722d53746f6b65732053696d756c6174696f6e0000000000000000815282601882015220838582541617905560358a517f42697263682d5377696e6e6572746f6e2d4479657200000000000000000000008152826015820152208385825416179055603b8a517f456c6c69707469632043757276652043727970746f6772617068790000000000815282601b820152208385825416179055818a517f4c6174746963652043727970746f67726170687900000000000000000000000081528260148201522083858254161790558951907f506f696e636172c3a920436f6e6a65637475726500000000000000000000000082526014820152209182541617905582602155826022558260235580602455816025556026556027556028554260295580602a55602b55602c5560c8602d55516143009081620003248239f35b631e4fbdf760e01b815260006004820152602490fd5b600080fdfe61038080604052600436101561001457600080fd5b60003560e01c9081630333052814613c0e575080630373a23a14613bed57806305f4b26f14613b9f578063064bad2314613b815780630ff8b57214613b6357806310c1c10314613b29578063117fd6e81461398057806311c50d261461142b57806317fa99231461395f57806325058e791461394157806325d5971f14613795578063378ec23b146137775780633a4b66f1146136365780633d777c3d146135ac57806341bd60b514612e4257806348b1516614612e245780634e1d7f7514612df557806351f4205c14612db057806352ddb90614612d9257806356ae8fb314611ec45780635ce8e33614611e985780635ffecc3f14611cca57806364e5a67514611ca957806366f0c7c514611c585780636b0eae8114611962578063715018a614611909578063758b1ce3146118e857806375b94133146118ca57806376ad03bc146118ac5780637ada463a1461188e57806380c030bd14611870578063817b1cd214611852578063819cc83714611831578063880028ac1461180557806389f1ea64146117e75780638d1771c2146117995780638da5cb5b1461177057806393037e0b1461172d578063960e6f881461170f57806397c875dd146116f15780639a997453146116d35780639c0a058e146116b25780639f9784ae14611686578063a48458fe14611465578063a56c94ec1461142b578063aa6bb6351461140d578063ac22a69a146113b5578063bcef7670146112f3578063bd97b14a146112d5578063bde0e23d14611288578063ce93734b1461117b578063d4bfdd331461114f578063db94e94214611131578063e338824f14610e51578063eb802edf14610deb578063ec5ffac214610dcd578063eda057f114610a05578063ee172546146109e7578063efa075cf146109c6578063f1997dc91461072e578063f25b3f99146105d0578063f2884385146105b2578063f2fde38b14610529578063f4ce57b514610508578063f7eb7ac8146104e7578063f99dec4e146104ca578063f9b0b5b9146104ac578063fa52c7d8146103565763fe0438b21461031757600080fd5b34610351576020366003190112610351576001600160a01b03610338613cff565b1660005260096020526020604060002054604051908152f35b600080fd5b34610351576020366003190112610351576001600160a01b0380610378613cff565b16600052600760205260406000208080928154166001820154610160526002820154600383015460048401546005850154600686015460ff16600787015490600888015492600989015494600a8a015496600b8b015498600c8c01549a600d8d01549c600e01549d600f01549e6010810154610120526011015460ff1660c0526040518061034052526101605161034051602001526103405160400152610340516060015261034051608001526103405160a0015215156103405160c001526103405160e00152610340516101000152610340516101200152610340516101400152610340516101600152610340516101800152610340516101a00152610340516101c00152610340516101e001526101205161034051610200015260c05115156103405161022001526103405161024090f35b34610351576000366003190112610351576020601e54604051908152f35b346103515760003660031901126103515760208054604051908152f35b3461035157602036600319011261035157610500613e9d565b600435601755005b3461035157602036600319011261035157610521613e9d565b600435601455005b3461035157602036600319011261035157610542613cff565b61054a613e9d565b6001600160a01b0390811690811561059957600054826001600160601b0360a01b821617600055167f8be0079c531659141344cd1fd0a4f28419497f9722a3daafe3b4186f6b6457e0600080a3005b604051631e4fbdf760e01b815260006004820152602490fd5b34610351576000366003190112610351576020603054604051908152f35b3461035157602036600319011261035157600480356000908152600b60205260409020805460018201546102805260028201546102605260038201546001600160a01b03166101e05291610625908201613d65565b916005820154926006830154600784015460088501546009860154600a87015460ff1691600b88015493600c89015495600d8a015497600e8b015499600f8c01549b60100154608052604051806101a05252610280516101a05160200152610260516101a051604001526101e0516101a05160600152610220806101a051608001526101a051016106b591613e2e565b9a6101a05160a001526101a05160c001526101a05160e001526101a05161010001526101a051610120015215156101a05161014001526101a05161016001526101a05161018001526101a0516101a001526101a0516101c001526101a0516101e001526080516101a05161020001526101a05180910390f35b346103515760208060031936011261035157600435336000526004825260406000205481101561098957336000526004825260ff6006610772836040600020613e81565b500154161561094f573360005260048252610791816040600020613e81565b50600442910155336000526004825260066107b0826040600020613e81565b500160ff19908181541690553360005260048352600a600c6107d6846040600020613e81565b50015533600052600483526107ef826040600020613e81565b50906001809201923360005260048552600261080f826040600020613e81565b500154336000526009865260406000205490600c6108386018549460048a526040600020613e81565b500154936040519560a08752600097805461085281613d2b565b938460a08b0152838216918260001461090e5750506001146108af575b5050507f24692c01d14e1a496bf63b770eb1beebe2c6336ff154023c41a103a1ae72842295968501526040840152606083015260808201528033930390a2005b9097506000528760002096886000985b838a106108f9575050505060c07f24692c01d14e1a496bf63b770eb1beebe2c6336ff154023c41a103a1ae7284229686010195888061086f565b8054898b0160c00152980197899082016108bf565b915091507f24692c01d14e1a496bf63b770eb1beebe2c6336ff154023c41a103a1ae728422995060c09392501682880152151560051b86010195888061086f565b60405162461bcd60e51b815260048101839052601260248201527153657373696f6e206e6f742061637469766560701b6044820152606490fd5b60405162461bcd60e51b8152600481018390526015602482015274092dcecc2d8d2c840e6cae6e6d2dedc40d2dcc8caf605b1b6044820152606490fd5b34610351576020366003190112610351576109df613e9d565b600435603655005b34610351576000366003190112610351576020601354604051908152f35b34610351576040366003190112610351576004356001600160401b03811161035157610a35903690600401613cb8565b610a6060ff6040516020818551610a4f8183858a01613e0b565b810160068152030190205416614175565b610a7060145460243511156141c1565b610a78614226565b9033600052600860205260406000205490610a91613f53565b60185493610a9d614035565b60405195610aaa87613c45565b338752846020880152602435604088015242606088015260006080880152600060a0880152600160c08801528560e08801528261010088015261012087015282610140870152610160860152600061018086015260016101a086015233600052600460205260406000208054600160401b811015610da157610b3191600182018155613e81565b610db757855181546001600160a01b0319166001600160a01b0391909116178155602086015180519096906001600160401b038111610da157610b776001840154613d2b565b601f8111610d61575b506020601f8211600114610cc657610c7d939282600d936101a0937feb087411f0284de7d69b863b3cf3476d1359402ff42c8d65cfc995ea327d9f279b9c600092610cbb575b50508160011b916000199060031b1c19161760018501555b60408101516002850155606081015160038501556080810151600485015560a08101516005850155610c2560c08201511515600686019060ff801983541691151516179055565b60e0810151600785015561010081015160088501556101208101516009850155610140810151600a850155610160810151600b850155610180810151600c8501550151151591019060ff801983541691151516179055565b60185490610c966040519460c0865260c0860190613e2e565b95602435602086015260408501526060840152608083015260a08201528033930390a2005b015190508c80610bc6565b6001840160005260206000209860005b601f1984168110610d495750926001837feb087411f0284de7d69b863b3cf3476d1359402ff42c8d65cfc995ea327d9f279a9b6101a094610c7d9897600d97601f19811610610d30575b505050811b016001850155610bde565b015160001960f88460031b161c191690558c8080610d20565b828201518b556001909a019960209283019201610cd6565b610d9190600185016000526020600020601f840160051c81019160208510610d97575b601f0160051c0190613ed8565b88610b80565b9091508190610d84565b634e487b7160e01b600052604160045260246000fd5b634e487b7160e01b600052600060045260246000fd5b34610351576000366003190112610351576020601954604051908152f35b34610351576020366003190112610351576004356001600160401b038111610351576020610e20610e3b923690600401613cb8565b610e28613e9d565b8160405193828580945193849201613e0b565b600690820190815203019020805460ff19169055005b3461035157600036600319011261035157336000526008602052604060002054602054116110ed5733600052600760205260ff600660406000200154166110a8573360005260086020526040600020546009602052604060002054604051906102408201928284106001600160401b03851117610da1576110519360405233835260208301528060408301526000606083015260006080830152600060a0830152600160c08301524260e0830152610100820152600061012082015260006101408201526000610160820152600061018082015260006101a082015260006101c082015260006101e082015260006102008201526001610220820152336000526007602052601161022060406000209260018060a01b038151166001600160601b0360a01b8554161784556020810151600185015560408101516002850155606081015160038501556080810151600485015560a08101516005850155610fcd60c08201511515600686019060ff801983541691151516179055565b60e0810151600785015561010081015160088501556101208101516009850155610140810151600a850155610160810151600b850155610180810151600c8501556101a0810151600d8501556101c0810151600e8501556101e0810151600f85015561020081015160108501550151151591019060ff801983541691151516179055565b60086020526040600020546009602052604060002054604051918252602082015260006040820152600160608201527f438b591bacb7157bac1e3102c2515385b22f2fd1560551bde3925ee48d97c7ac60803392a2005b60405162461bcd60e51b815260206004820152601f60248201527f416c726561647920726567697374657265642061732076616c696461746f72006044820152606490fd5b606460405162461bcd60e51b815260206004820152602060248201527f496e73756666696369656e74207374616b6520666f722076616c696461746f726044820152fd5b34610351576000366003190112610351576020601f54604051908152f35b346103515760203660031901126103515760043560005260116020526020604060002054604051908152f35b3461035157604036600319011261035157611194613cff565b6001600160a01b039081166000908152600460205260409020805460243590811015610351576111c391613e81565b5090815416600182016111d590613d65565b9060028301549260038101549060048101546005820154600683015460ff166007840154600885015490600986015492600a87015494600b88015496600c89015498600d015460ff16996040519d8e9d8e9d8e528d6101c0908160208201520161123e91613e2e565b9c6040015260608d015260808c015260a08b0152151560c08a015260e089015261010088015261012087015261014086015261016085015261018084015215156101a08301520390f35b34610351576040366003190112610351576112a1613d15565b600435600052600c60205260406000209060018060a01b0316600052602052602060ff604060002054166040519015158152f35b34610351576000366003190112610351576020603354604051908152f35b346103515760403660031901126103515761130c613d15565b600435600052600d60205260406000209060018060a01b0316600052602052604060002060ff81541661134160018301613d65565b9160028101549060038101549060ff6004820154166005820154600683015491600860078501549401549461138a604051998a9915158a526101208060208c01528a0190613e2e565b96604089015260608801521515608087015260a086015260c085015260e08401526101008301520390f35b34610351576040366003190112610351576113ce613cff565b6001600160a01b03166000908152600a6020526040902080546024359190821015610351576020916113ff91613e53565b90546040519160031b1c8152f35b34610351576000366003190112610351576020603554604051908152f35b34610351576020366003190112610351576001600160a01b0361144c613cff565b1660005260056020526020604060002054604051908152f35b3461035157602080600319360112610351576001600160a01b039081611489613cff565b166000526004815260406000208054916114a2836142b3565b926114b06040519485613c7c565b8084528184018093600052826000206000915b8383106115c45750505050604051928184019082855251809152604084019160408260051b86010193926000965b8388106114fe5786860387f35b90919293948380600192603f198a8203018652885190858251168152611531838301516101c08086850152830190613e2e565b9160408101516040830152606080820151908301526080808201519083015260a0808201519083015260c08082015115159083015260e081015160e0830152610100808201519083015261012080820151908301526101408082015190830152610160808201519083015261018080820151908301526101a08091015115159101529701930197019690939291936114f1565b600e856001926040999799516115d981613c45565b8b86541681526115ea858701613d65565b83820152600286015460408201526003860154606082015260048601546080820152600586015460a082015260ff80600688015416151560c0830152600787015460e083015260088701546101008301526009870154610120830152600a870154610140830152600b870154610160830152600c870154610180830152600d8701541615156101a08201528152019201920191909593956114c3565b3461035157602036600319011261035157600435600052600e6020526020604060002054604051908152f35b34610351576020366003190112610351576116cb613e9d565b600435603355005b34610351576000366003190112610351576020601454604051908152f35b34610351576000366003190112610351576020601d54604051908152f35b34610351576000366003190112610351576020602f54604051908152f35b34610351576020366003190112610351576004356001600160401b0381116103515761175d903690600401613cb8565b506020611768614226565b604051908152f35b34610351576000366003190112610351576000546040516001600160a01b039091168152602090f35b34610351576020366003190112610351576004356001600160401b0381116103515760ff6117d16020610e2881943690600401613cb8565b8101600681520301902054166040519015158152f35b34610351576000366003190112610351576020601c54604051908152f35b3461035157602036600319011261035157600435600052600f6020526020604060002054604051908152f35b346103515760203660031901126103515761184a613e9d565b600435603255005b34610351576000366003190112610351576020601a54604051908152f35b34610351576000366003190112610351576020602e54604051908152f35b34610351576000366003190112610351576020601754604051908152f35b34610351576000366003190112610351576020601554604051908152f35b34610351576000366003190112610351576020601b54604051908152f35b3461035157602036600319011261035157611901613e9d565b600435601655005b3461035157600036600319011261035157611922613e9d565b600080546001600160a01b0319811682556001600160a01b03167f8be0079c531659141344cd1fd0a4f28419497f9722a3daafe3b4186f6b6457e08280a3005b3461035157602036600319011261035157600061028060405161198481613c29565b82815260606020820152826040820152606080820152606060808201528260a08201528260c08201528260e08201528261010082015282610120820152826101408201528261016082015282610180820152826101a0820152826101c0820152826101e082015282610200820152826102208201528261024082015282610260820152015260043560005260026020526040600020601460405191611a2883613c29565b80546001600160a01b03168352611a4160018201613d65565b602084015260028101546040840152611a5c60038201613d65565b6060840152611a6d60048201613d65565b6080840152600581015460a0840152600681015460c0840152600781015460e084015260ff60088201541615156101008401526009810154610120840152600a810154610140840152600b810154610160840152600c810154610180840152600d8101546101a0840152600e8101546101c0840152600f8101546101e084015260108101546102008401526011810154610220840152601281015461024084015260ff6013820154161515610260840152015461028082015260405180916020825260018060a01b038151166020830152610280611b9a611b5f60208401516102a060408701526102c0860190613e2e565b60408401516060860152611b85606085015191601f199283888303016080890152613e2e565b906080850151908683030160a0870152613e2e565b9160a081015160c085015260c081015160e085015260e081015161010085015261010081015115156101208501526101208101516101408501526101408101516101608501526101608101516101808501526101808101516101a08501526101a08101516101c08501526101c08101516101e08501526101e081015161020085015261020081015161022085015261022081015161024085015261024081015161026085015261026081015115158285015201516102a08301520390f35b3461035157602036600319011261035157600435600052600b602052608060406000206007810154906008810154906010600f82015491015491604051938452602084015260408301526060820152f35b3461035157602036600319011261035157611cc2613e9d565b600435603455005b3461035157602036600319011261035157600435600090815260026020526040902080546001600160a01b031690611d0460018201613d65565b6102205260028101546102e052611d1d60038201613d65565b61018052611d2d60048201613d65565b9160058201546102c0526006820154926007830154600884015460ff166009850154600a860154600b87015491600c88015493600d89015495600e8a015497600f8b01549960108c01549b601181015461010052601281015461036052601381015460ff1660e05260140154610300526040518060a052526102a08060a0516020015260a051016102205190611dc291613e2e565b6102e05160a0516040015260a05180820390606001526101805190611de691613e2e565b60a0518082039060800152611dfa91613e2e565b9a6102c05160a05160a0015260a05160c0015260a05160e00152151560a051610100015260a051610120015260a051610140015260a051610160015260a051610180015260a0516101a0015260a0516101c0015260a0516101e0015260a05161020001526101005160a05161022001526103605160a051610240015260e051151560a05161026001526103005160a051610280015260a05180910390f35b346103515760203660031901126103515760043560005260106020526020604060002054604051908152f35b346103515760a0366003190112610351576004356001600160401b03811161035157611ef4903690600401613cb8565b6044356001600160401b03811161035157611f13903690600401613cb8565b906064356001600160401b03811161035157611f33903690600401613cb8565b91611f3c614203565b611f5660ff6040516020818651610a4f8183858b01613e0b565b611f6660145460243511156141c1565b60175460843510612d4d57611f79613f53565b611f81614035565b611f89614226565b60243510612cfc576018549160405160208101903360601b825261201560b4828a8a51611fbe818d6020603487019101613e0b565b820160243560348201528a5190611fdd828d6020605485019101613e0b565b01611ff2825180936020605485019101613e0b565b016084356054820152886074820152426094820152036094810184520182613c7c565b51902092836000526002602052600660406000200154612cb7573360005260086020526040600020549061204761410e565b906040518660208201528160408201528460608201528560808201526080815261207081613c61565b6020815191012090601e54926040519461208986613c29565b3386528a602087015260243560408701528960608701528b608087015260843560a08701524260c0870152600060e0870152600061010087015261012086015261014085015261016084015283610180840152846101a084015260006101c084015260006101e084015261020083015260006102208301526102408201526000610260820152600061028082015283600052600260205260406000209060018060a01b038151166001600160601b0360a01b83541617825560208101518051906001600160401b038211610da15781906121666001860154613d2b565b601f8111612c82575b50602090601f8311600114612c1057600092612c05575b50508160011b916000199060031b1c19161760018301555b6040810151600283015560608101518051906001600160401b038211610da15781906121cd6003860154613d2b565b601f8111612bd0575b50602090601f8311600114612b5e57600092612b53575b50508160011b916000199060031b1c19161760038301555b60808101518051906001600160401b038211610da1576122286004850154613d2b565b601f8111612b1e575b50602090601f8311600114612aa85791806014949261028094600092612a9d575b50508160011b916000199060031b1c19161760048501555b60a0810151600585015560c0810151600685015560e081015160078501556122a86101008201511515600886019060ff801983541691151516179055565b6101208101516009850155610140810151600a850155610160810151600b850155610180810151600c8501556101a0810151600d8501556101c0810151600e8501556101e0810151600f8501556102008101516010850155610220810151601185015561024081015160128501556123366102608201511515601386019060ff801983541691151516179055565b01519101556018549360405160208101908582527f61646170746976655f76616c69646174696f6e5f7461736b000000000000000060408201528660588201524260788201526078815261238981613c61565b51902096601d549561239a876142b3565b966123a86040519889613c7c565b8088526123b7601f19916142b3565b01366020890137601e5487519260405194856102608101106001600160401b0361026088011117610da15761026086016040528886523360208701528a60408701526024356060870152608086015260a085015260843560c08501524260e08501526000610100850152876101208501526101408401526000610160840152600061018084015260006101a08401526101c0830152826101e0830152836102008301526000610220830152610240820152866000526003602052604060002090805182556001820160018060a01b036020830151166001600160601b0360a01b82541617905560408101518051906001600160401b038211610da15781906124c26002860154613d2b565b601f8111612a68575b50602090601f83116001146129f6576000926129eb575b50508160011b916000199060031b1c19161760028301555b6060810151600383015560808101518051906001600160401b038211610da15781906125296004860154613d2b565b601f81116129b6575b50602090601f831160011461294457600092612939575b50508160011b916000199060031b1c19161760048301555b60a08101518051906001600160401b038211610da15781906125866005860154613d2b565b601f8111612904575b50602090601f831160011461289257600092612887575b50508160011b916000199060031b1c19161760058301555b60c0810151600683015560e081015160078301556125f26101008201511515600884019060ff801983541691151516179055565b6101208101518051906001600160401b038211610da157600160401b8211610da1576020906009850154836009870155808410612867575b500160098401600052602060002060005b83811061284a5750505050610240816101406012930151600a850155610160810151600b850155610180810151600c85015561268d6101a08201511515600d86019060ff801983541691151516179055565b6101c0810151600e8501556101e0810151600f85015561020081015160108501556102208101516011850155015191015560005b845181101561272b5760018060a01b0360208260051b8701015116600052600a602052604060002090815491600160401b831015610da1578261270c91600161272695018155613e53565b81549060031b908a821b91600019901b1916179055613ec9565b6126c1565b5085939461273a601254613ec9565b601255336000526008602052837fc2ef7412e931822822703ec6e749ac21563f4df6b27e86dce03ded675051ea376040600020549261277761410e565b9560185496612793604051936101008552610100850190613e2e565b95602435602085015260006040850152606084015260808301528660a08301528560c083015260e08201528033940390a3601e54916040519260808401608085528751809152602060a0860198019060005b81811061282b575050506020840152604083015260608201527ff9b64bc4f55726d3ac9e187b1cd7e1a490973454418f085acbed3dffacc75bc89080850390a360018055005b82516001600160a01b03168a526020998a0199909201916001016127e5565b82516001600160a01b03168183015560209092019160010161263b565b612881906009870160005284846000209182019101613ed8565b8b61262a565b015190508a806125a6565b9250600585016000526020600020906000935b601f19841685106128e9576001945083601f198116106128d0575b505050811b0160058301556125be565b015160001960f88460031b161c191690558a80806128c0565b818101518355602094850194600190930192909101906128a5565b61293390600587016000526020600020601f850160051c81019160208610610d9757601f0160051c0190613ed8565b8b61258f565b015190508a80612549565b9250600485016000526020600020906000935b601f198416851061299b576001945083601f19811610612982575b505050811b016004830155612561565b015160001960f88460031b161c191690558a8080612972565b81810151835560209485019460019093019290910190612957565b6129e590600487016000526020600020601f850160051c81019160208610610d9757601f0160051c0190613ed8565b8b612532565b015190508a806124e2565b9250600285016000526020600020906000935b601f1984168510612a4d576001945083601f19811610612a34575b505050811b0160028301556124fa565b015160001960f88460031b161c191690558a8080612a24565b81810151835560209485019460019093019290910190612a09565b612a9790600287016000526020600020601f850160051c81019160208610610d9757601f0160051c0190613ed8565b8b6124cb565b015190508c80612252565b906004850160005260206000209160005b601f1985168110612b06575092601494926001926102809583601f19811610612aed575b505050811b01600485015561226a565b015160001960f88460031b161c191690558c8080612add565b91926020600181928685015181550194019201612ab9565b612b4d90600486016000526020600020601f850160051c81019160208610610d9757601f0160051c0190613ed8565b8a612231565b015190508a806121ed565b9250600385016000526020600020906000935b601f1984168510612bb5576001945083601f19811610612b9c575b505050811b016003830155612205565b015160001960f88460031b161c191690558a8080612b8c565b81810151835560209485019460019093019290910190612b71565b612bff90600387016000526020600020601f850160051c81019160208610610d9757601f0160051c0190613ed8565b8b6121d6565b015190508a80612186565b9250600185016000526020600020906000935b601f1984168510612c67576001945083601f19811610612c4e575b505050811b01600183015561219e565b015160001960f88460031b161c191690558a8080612c3e565b81810151835560209485019460019093019290910190612c23565b612cb190600187016000526020600020601f850160051c81019160208610610d9757601f0160051c0190613ed8565b8b61216f565b60405162461bcd60e51b815260206004820152601860248201527f446973636f7665727920616c72656164792065786973747300000000000000006044820152606490fd5b60405162461bcd60e51b815260206004820152602360248201527f446966666963756c74792062656c6f77206164617074697665207468726573686044820152621bdb1960ea1b6064820152608490fd5b60405162461bcd60e51b815260206004820152601d60248201527f496e73756666696369656e74207175616e74756d2073656375726974790000006044820152606490fd5b34610351576000366003190112610351576020603154604051908152f35b3461035157600036600319011261035157602154602254602454602554602654604080519586526020860194909452928401919091526060830152608082015260a090f35b346103515760003660031901126103515760606032546033546034549060405192835260208301526040820152f35b34610351576000366003190112610351576020601654604051908152f35b34610351576080366003190112610351576004356001600160401b03811161035157612e72903690600401613cb8565b606435801515810361035157612e89601854613ec9565b9081601855612e96613f53565b90612e9f614035565b90612ea861410e565b9360405160208101908282524260408201523360601b606082015260548152608081018181106001600160401b03821117610da15760405251902090612ef2602435601554613f40565b612f00601754604435613f09565b80600a810204600a14811517156134d1576103e88704806005810204600514811517156134d157612f4192600a6005612f3c9302930290613efc565b613efc565b6032546033549160405194856102208101106001600160401b0361022088011117610da1576102208601604052848652426020870152604086015233606086015289608086015260243560a086015260443560c08601528760e0860152866101008601528861012086015285151561014086015260006101608601526101808501526101a08401526101c083015260006101e08301526000610200830152600052600b60205260406000208151815560208201516001820155604082015160028201556003810160018060a01b036060840151166001600160601b0360a01b82541617905560808201518051906001600160401b038211610da157819061304b6004850154613d2b565b601f8111613577575b50602090601f8311600114613505576000926134fa575b50508160011b916000199060031b1c19161760048201555b60a0820151600582015560c0820151600682015560e08201516007820155610100820151600882015561012082015160098201556130d76101408301511515600a83019060ff801983541691151516179055565b610160820151600b820155610180820151600c8201556101a0820151600d8201556101c0820151600e8201556101e0820151600f8201556010610200830151910155613124602154613ec9565b602155805160285542602955610140810151156134e757613146602254613ec9565b6022555b613155602454613f29565b60e0820151906064820291808304606414901517156134d1576127109161317b91613efc565b0460245561318a602554613f29565b610100820151806064810204606414811517156134d1576127109160646131b2920290613efc565b0460255560e08101518151600052600e6020526040600020556101008101518151600052600f6020526040600020556101e08101518151600052601060205260406000205561020081015181516000526011908160205260406000205560e0820151602454106000146134a8576032546032810180911161346a576032555b610100820151602554101561347f576033546032810180911161346a576033555b61012c6101e0830151106000146133af5760345490601e820180921161339b5750917f621daeb75bcdb62a282d16f46b09d9068a04f063507b085b0839f43d812b4f33602097927fb3546ff1e0b491349a7a3db3e3547d7118128ca6c434d5f1ba8b9b185d6d3311946034555b6032546107d090818111156133965750805b6032556033548181111561338f57505b6033556034546105dc908181111561338857505b603455805161333e60e0830151926101e061010082015191015160265491604051958695869192608093969594919660a084019784526020840152604083015260608201520152565b0390a160185495869461335c6040519460c0865260c0860190613e2e565b966024358a860152604085015260608401526080830152151560a08201528033940390a3604051908152f35b90506132f5565b90506132e1565b6132d1565b634e487b7160e01b60005260045260246000fd5b60345490606482111561341a57601d19820191821161339b5750917f621daeb75bcdb62a282d16f46b09d9068a04f063507b085b0839f43d812b4f33602097927fb3546ff1e0b491349a7a3db3e3547d7118128ca6c434d5f1ba8b9b185d6d3311945b6034556132bf565b5050947fb3546ff1e0b491349a7a3db3e3547d7118128ca6c434d5f1ba8b9b185d6d3311917f621daeb75bcdb62a282d16f46b09d9068a04f063507b085b0839f43d812b4f336020976064613412565b50634e487b7160e01b60005260045260246000fd5b60335460648111156134a057603119810190811161346a575b603355613252565b506064613498565b60325460648111156134c957603119810190811161346a575b603255613231565b5060646134c1565b634e487b7160e01b600052601160045260246000fd5b6134f2602354613ec9565b60235561314a565b01519050898061306b565b9250600484016000526020600020906000935b601f198416851061355c576001945083601f19811610613543575b505050811b016004820155613083565b015160001960f88460031b161c19169055898080613533565b81810151835560209485019460019093019290910190613518565b6135a690600486016000526020600020601f850160051c81019160208610610d9757601f0160051c0190613ed8565b8a613054565b34610351576000366003190112610351576101a06021546022546023546024546025546026546027546028549060295492602a5494602b5496602c5498602d549a6040519c8d5260208d015260408c015260608b015260808a015260a089015260c088015260e0870152610100860152610120850152610140840152610160830152610180820152f35b600036600319011261035157601954341061373c5734156136f757336000526008602052604060002061366a348254613efc565b905561367834601a54613efc565b601a55670de0b6b3a764000034046064810290808204606414901517156134d1573360005260096020526136b26040600020918254613efc565b90553360005260086020526040600020546040519034825260208201527f05cce4a371bf9816b1a7594f1d76c98eba4ed025ff3e471234ae598f17899bd460403392a2005b60405162461bcd60e51b815260206004820152601d60248201527f5374616b6520616d6f756e74206d75737420626520706f7369746976650000006044820152606490fd5b60405162461bcd60e51b81526020600482015260136024820152725374616b652062656c6f77206d696e696d756d60681b6044820152606490fd5b34610351576000366003190112610351576020601854604051908152f35b346103515760208060031936011261035157600435906137b3614203565b336000526008815281604060002054106139085781156138b957336000526008815260406000206137e5838254613eef565b90556137f382601a54613eef565b601a55600080808085335af13d156138b4573d61380f81613c9d565b9061381d6040519283613c7c565b81526000833d92013e5b15613870573360005260088152604060002054906040519283528201527f933735aa8de6d7547d0126171b2f31b9c34dd00f3ecd4be85a0ba047db4fafef60403392a260018055005b6064906040519062461bcd60e51b82526004820152601760248201527f5374616b65207769746864726177616c206661696c65640000000000000000006044820152fd5b613827565b6084906040519062461bcd60e51b82526004820152602260248201527f5769746864726177616c20616d6f756e74206d75737420626520706f73697469604482015261766560f01b6064820152fd5b6064906040519062461bcd60e51b825260048201526012602482015271496e73756666696369656e74207374616b6560701b6044820152fd5b34610351576000366003190112610351576020603254604051908152f35b3461035157602036600319011261035157613978613e9d565b600435603555005b3461035157602036600319011261035157600435600090815260036020526040902080546101405260018101546001600160a01b0316906139c360028201613d65565b6102a0526003810154610240526139dc60048201613d65565b916139e960058301613d65565b926006830154936007840154600885015460ff16600a860154600b87015491600c88015493600d89015460ff1695600e8a015497600f8b01549960108c01549b601181015461032052601201546101c0526040518061020052610140519052610200516020015261020051604001610240905261020051610240016102a05190613a7291613e2e565b610240516102005160600152610200518082039060800152613a9391613e2e565b610200518082039060a00152613aa891613e2e565b996102005160c001526102005160e0015215156102005161010001526102005161012001526102005161014001526102005161016001521515610200516101800152610200516101a00152610200516101c00152610200516101e00152610320516102005161020001526101c0516102005161022001526102005180910390f35b34610351576020366003190112610351576001600160a01b03613b4a613cff565b1660005260086020526020604060002054604051908152f35b34610351576000366003190112610351576020603654604051908152f35b34610351576000366003190112610351576020603454604051908152f35b34610351576020366003190112610351576004356001600160401b038111610351576020610e20613bd4923690600401613cb8565b600690820190815203019020805460ff19166001179055005b3461035157602036600319011261035157613c06613e9d565b600435601555005b34610351576000366003190112610351576020906012548152f35b6102a081019081106001600160401b03821117610da157604052565b6101c081019081106001600160401b03821117610da157604052565b60a081019081106001600160401b03821117610da157604052565b90601f801991011681019081106001600160401b03821117610da157604052565b6001600160401b038111610da157601f01601f191660200190565b81601f8201121561035157803590613ccf82613c9d565b92613cdd6040519485613c7c565b8284526020838301011161035157816000926020809301838601378301015290565b600435906001600160a01b038216820361035157565b602435906001600160a01b038216820361035157565b90600182811c92168015613d5b575b6020831014613d4557565b634e487b7160e01b600052602260045260246000fd5b91607f1691613d3a565b9060405191826000825492613d7984613d2b565b908184526001948581169081600014613de85750600114613da5575b5050613da392500383613c7c565b565b9093915060005260209081600020936000915b818310613dd0575050613da393508201013880613d95565b85548884018501529485019487945091830191613db8565b915050613da394506020925060ff191682840152151560051b8201013880613d95565b60005b838110613e1e5750506000910152565b8181015183820152602001613e0e565b90602091613e4781518092818552858086019101613e0b565b601f01601f1916010190565b8054821015613e6b5760005260206000200190600090565b634e487b7160e01b600052603260045260246000fd5b8054821015613e6b57600052600e602060002091020190600090565b6000546001600160a01b03163303613eb157565b60405163118cdaa760e01b8152336004820152602490fd5b60001981146134d15760010190565b818110613ee3575050565b60008155600101613ed8565b919082039182116134d157565b919082018092116134d157565b8115613f13570490565b634e487b7160e01b600052601260045260246000fd5b906126ac918281029281840414901517156134d157565b818102929181159184041417156134d157565b60215490811561402e5790600080819360355493602854955b85811080614025575b15613fe957613f848188613eef565b80151580613fd2575b613fa1575b50613f9c90613ec9565b613f6c565b613fc5613f9c929596613fcb92600052600b60205260076040600020015490613efc565b95613ec9565b9390613f92565b5080600052600b6020526040600020541515613f8d565b505093509150811561401d5761401161400861401a9361271093613f09565b60325490613f40565b04602454613efc565b90565b505060245490565b50818110613f75565b6103e89150565b6021549081156141075790600080819360355493602854955b858110806140fe575b156140c5576140668188613eef565b801515806140ae575b614083575b5061407e90613ec9565b61404e565b613fc561407e9295966140a792600052600b60205260086040600020015490613efc565b9390614074565b5080600052600b602052604060002054151561406f565b50509350915081156140f6576140ed6140e461401a9361271093613f09565b60335490613f40565b04602554613efc565b505060255490565b50818110614057565b6017549150565b614116613f53565b61411e614035565b90602c549161019090818302928084048314901517156134d1578181029181830414901517156134d15761415191613efc565b60c882029180830460c814901517156134d1576103e89161417191613efc565b0490565b1561417c57565b60405162461bcd60e51b815260206004820152601760248201527f576f726b2074797065206e6f7420737570706f727465640000000000000000006044820152606490fd5b156141c857565b60405162461bcd60e51b8152602060048201526013602482015272088d2ccccd2c6ead8e8f240e8dede40d0d2ced606b1b6044820152606490fd5b600260015414614214576002600155565b604051633ee5aeb560e01b8152600490fd5b61401a602860245404612f3c61424160255460175490613f09565b61425a6103e8602c54049161425461425f565b94613f40565b613f40565b602154600a81106142ad5760225490612710918281029281840414901517156134d15761428b91613f09565b611f4081111561429b5750600590565b611b58116142a857600090565b600090565b50600090565b6001600160401b038111610da15760051b6020019056fea26469706673582212206fc50253bd782ffd1bb385ffe07549e0de1583a5c13e37f43b8a9ce5ee58f31664736f6c63430008140033","opcodes":"PUSH1 0x80 PUSH1 0x40 SWAP1 DUP1 DUP3 MSTORE CALLVALUE PUSH2 0x31E JUMPI CALLER ISZERO PUSH2 0x308 JUMPI POP PUSH1 0x0 DUP1 SLOAD CALLER PUSH1 0x1 PUSH1 0x1 PUSH1 0xA0 SHL SUB NOT DUP3 AND DUP2 OR DUP4 SSTORE DUP4 MLOAD SWAP3 SWAP2 PUSH1 0x1 PUSH1 0x1 PUSH1 0xA0 SHL SUB AND PUSH32 0x8BE0079C531659141344CD1FD0A4F28419497F9722A3DAAFE3B4186F6B6457E0 DUP4 DUP1 LOG3 PUSH1 0x1 SWAP1 DUP2 DUP1 SSTORE PUSH1 0x32 PUSH1 0x14 SSTORE PUSH1 0x64 PUSH1 0x15 SSTORE PUSH1 0x1E PUSH1 0x16 SSTORE PUSH2 0x100 DUP1 PUSH1 0x17 SSTORE DUP2 PUSH1 0x18 SSTORE PUSH8 0xDE0B6B3A7640000 PUSH1 0x19 SSTORE DUP2 PUSH1 0x1A SSTORE PUSH1 0xA PUSH1 0x1B SSTORE PUSH1 0x32 PUSH1 0x1C SSTORE PUSH1 0x3 PUSH1 0x1D SSTORE PUSH1 0x2 PUSH1 0x1E SSTORE PUSH2 0x12C SWAP4 DUP5 PUSH1 0x1F SSTORE PUSH8 0x1BC16D674EC80000 PUSH1 0x20 SSTORE PUSH2 0x3E8 SWAP1 DUP2 PUSH1 0x2E SSTORE PUSH1 0x64 PUSH1 0x2F SSTORE PUSH1 0x90 PUSH1 0x30 SSTORE DUP4 PUSH1 0x31 SSTORE PUSH2 0x1F4 SWAP5 DUP6 PUSH1 0x32 SSTORE DUP6 PUSH1 0x33 SSTORE DUP7 PUSH1 0x34 SSTORE PUSH1 0x64 PUSH1 0x35 SSTORE PUSH2 0x320 PUSH1 0x36 SSTORE PUSH32 0x5072696D65205061747465726E20446973636F76657279000000000000000000 DUP3 MSTORE PUSH1 0x34 PUSH1 0x37 PUSH1 0x6 SWAP4 DUP5 PUSH1 0x17 DUP3 ADD MSTORE KECCAK256 SWAP3 PUSH1 0xFF NOT SWAP4 DUP4 DUP6 DUP3 SLOAD AND OR SWAP1 SSTORE PUSH1 0x38 DUP11 MLOAD PUSH32 0x5269656D616E6E205A65726F20436F6D7075746174696F6E0000000000000000 DUP2 MSTORE DUP3 PUSH1 0x18 DUP3 ADD MSTORE KECCAK256 DUP4 DUP6 DUP3 SLOAD AND OR SWAP1 SSTORE PUSH1 0x37 DUP11 MLOAD PUSH32 0x59616E672D4D696C6C73204669656C64205468656F7279000000000000000000 DUP2 MSTORE DUP3 PUSH1 0x17 DUP3 ADD MSTORE KECCAK256 DUP4 DUP6 DUP3 SLOAD AND OR SWAP1 SSTORE DUP10 DUP1 MLOAD PUSH32 0x476F6C646261636820436F6E6A65637475726520566572696669636174696F6E DUP2 MSTORE DUP3 PUSH1 0x20 DUP3 ADD MSTORE KECCAK256 DUP4 DUP6 DUP3 SLOAD AND OR SWAP1 SSTORE PUSH1 0x38 DUP11 MLOAD PUSH32 0x4E61766965722D53746F6B65732053696D756C6174696F6E0000000000000000 DUP2 MSTORE DUP3 PUSH1 0x18 DUP3 ADD MSTORE KECCAK256 DUP4 DUP6 DUP3 SLOAD AND OR SWAP1 SSTORE PUSH1 0x35 DUP11 MLOAD PUSH32 0x42697263682D5377696E6E6572746F6E2D447965720000000000000000000000 DUP2 MSTORE DUP3 PUSH1 0x15 DUP3 ADD MSTORE KECCAK256 DUP4 DUP6 DUP3 SLOAD AND OR SWAP1 SSTORE PUSH1 0x3B DUP11 MLOAD PUSH32 0x456C6C69707469632043757276652043727970746F6772617068790000000000 DUP2 MSTORE DUP3 PUSH1 0x1B DUP3 ADD MSTORE KECCAK256 DUP4 DUP6 DUP3 SLOAD AND OR SWAP1 SSTORE DUP2 DUP11 MLOAD PUSH32 0x4C6174746963652043727970746F677261706879000000000000000000000000 DUP2 MSTORE DUP3 PUSH1 0x14 DUP3 ADD MSTORE KECCAK256 DUP4 DUP6 DUP3 SLOAD AND OR SWAP1 SSTORE DUP10 MLOAD SWAP1 PUSH32 0x506F696E636172C3A920436F6E6A656374757265000000000000000000000000 DUP3 MSTORE PUSH1 0x14 DUP3 ADD MSTORE KECCAK256 SWAP2 DUP3 SLOAD AND OR SWAP1 SSTORE DUP3 PUSH1 0x21 SSTORE DUP3 PUSH1 0x22 SSTORE DUP3 PUSH1 0x23 SSTORE DUP1 PUSH1 0x24 SSTORE DUP2 PUSH1 0x25 SSTORE PUSH1 0x26 SSTORE PUSH1 0x27 SSTORE PUSH1 0x28 SSTORE TIMESTAMP PUSH1 0x29 SSTORE DUP1 PUSH1 0x2A SSTORE PUSH1 0x2B SSTORE PUSH1 0x2C SSTORE PUSH1 0xC8 PUSH1 0x2D SSTORE MLOAD PUSH2 0x4300 SWAP1 DUP2 PUSH3 0x324 DUP3 CODECOPY RETURN JUMPDEST PUSH4 0x1E4FBDF7 PUSH1 0xE0 SHL DUP2 MSTORE PUSH1 0x0 PUSH1 0x4 DUP3 ADD MSTORE PUSH1 0x24 SWAP1 REVERT JUMPDEST PUSH1 0x0 DUP1 REVERT INVALID PUSH2 0x380 DUP1 PUSH1 0x40 MSTORE PUSH1 0x4 CALLDATASIZE LT ISZERO PUSH2 0x14 JUMPI PUSH1 0x0 DUP1 REVERT JUMPDEST PUSH1 0x0 CALLDATALOAD PUSH1 0xE0 SHR SWAP1 DUP2 PUSH4 0x3330528 EQ PUSH2 0x3C0E JUMPI POP DUP1 PUSH4 0x373A23A EQ PUSH2 0x3BED JUMPI DUP1 PUSH4 0x5F4B26F EQ PUSH2 0x3B9F JUMPI DUP1 PUSH4 0x64BAD23 EQ PUSH2 0x3B81 JUMPI DUP1 PUSH4 0xFF8B572 EQ PUSH2 0x3B63 JUMPI DUP1 PUSH4 0x10C1C103 EQ PUSH2 0x3B29 JUMPI DUP1 PUSH4 0x117FD6E8 EQ PUSH2 0x3980 JUMPI DUP1 PUSH4 0x11C50D26 EQ PUSH2 0x142B JUMPI DUP1 PUSH4 0x17FA9923 EQ PUSH2 0x395F JUMPI DUP1 PUSH4 0x25058E79 EQ PUSH2 0x3941 JUMPI DUP1 PUSH4 0x25D5971F EQ PUSH2 0x3795 JUMPI DUP1 PUSH4 0x378EC23B EQ PUSH2 0x3777 JUMPI DUP1 PUSH4 0x3A4B66F1 EQ PUSH2 0x3636 JUMPI DUP1 PUSH4 0x3D777C3D EQ PUSH2 0x35AC JUMPI DUP1 PUSH4 0x41BD60B5 EQ PUSH2 0x2E42 JUMPI DUP1 PUSH4 0x48B15166 EQ PUSH2 0x2E24 JUMPI DUP1 PUSH4 0x4E1D7F75 EQ PUSH2 0x2DF5 JUMPI DUP1 PUSH4 0x51F4205C EQ PUSH2 0x2DB0 JUMPI DUP1 PUSH4 0x52DDB906 EQ PUSH2 0x2D92 JUMPI DUP1 PUSH4 0x56AE8FB3 EQ PUSH2 0x1EC4 JUMPI DUP1 PUSH4 0x5CE8E336 EQ PUSH2 0x1E98 JUMPI DUP1 PUSH4 0x5FFECC3F EQ PUSH2 0x1CCA JUMPI DUP1 PUSH4 0x64E5A675 EQ PUSH2 0x1CA9 JUMPI DUP1 PUSH4 0x66F0C7C5 EQ PUSH2 0x1C58 JUMPI DUP1 PUSH4 0x6B0EAE81 EQ PUSH2 0x1962 JUMPI DUP1 PUSH4 0x715018A6 EQ PUSH2 0x1909 JUMPI DUP1 PUSH4 0x758B1CE3 EQ PUSH2 0x18E8 JUMPI DUP1 PUSH4 0x75B94133 EQ PUSH2 0x18CA JUMPI DUP1 PUSH4 0x76AD03BC EQ PUSH2 0x18AC JUMPI DUP1 PUSH4 0x7ADA463A EQ PUSH2 0x188E JUMPI DUP1 PUSH4 0x80C030BD EQ PUSH2 0x1870 JUMPI DUP1 PUSH4 0x817B1CD2 EQ PUSH2 0x1852 JUMPI DUP1 PUSH4 0x819CC837 EQ PUSH2 0x1831 JUMPI DUP1 PUSH4 0x880028AC EQ PUSH2 0x1805 JUMPI DUP1 PUSH4 0x89F1EA64 EQ PUSH2 0x17E7 JUMPI DUP1 PUSH4 0x8D1771C2 EQ PUSH2 0x1799 JUMPI DUP1 PUSH4 0x8DA5CB5B EQ PUSH2 0x1770 JUMPI DUP1 PUSH4 0x93037E0B EQ PUSH2 0x172D JUMPI DUP1 PUSH4 0x960E6F88 EQ PUSH2 0x170F JUMPI DUP1 PUSH4 0x97C875DD EQ PUSH2 0x16F1 JUMPI DUP1 PUSH4 0x9A997453 EQ PUSH2 0x16D3 JUMPI DUP1 PUSH4 0x9C0A058E EQ PUSH2 0x16B2 JUMPI DUP1 PUSH4 0x9F9784AE EQ PUSH2 0x1686 JUMPI DUP1 PUSH4 0xA48458FE EQ PUSH2 0x1465 JUMPI DUP1 PUSH4 0xA56C94EC EQ PUSH2 0x142B JUMPI DUP1 PUSH4 0xAA6BB635 EQ PUSH2 0x140D JUMPI DUP1 PUSH4 0xAC22A69A EQ PUSH2 0x13B5 JUMPI DUP1 PUSH4 0xBCEF7670 EQ PUSH2 0x12F3 JUMPI DUP1 PUSH4 0xBD97B14A EQ PUSH2 0x12D5 JUMPI DUP1 PUSH4 0xBDE0E23D EQ PUSH2 0x1288 JUMPI DUP1 PUSH4 0xCE93734B EQ PUSH2 0x117B JUMPI DUP1 PUSH4 0xD4BFDD33 EQ PUSH2 0x114F JUMPI DUP1 PUSH4 0xDB94E942 EQ PUSH2 0x1131 JUMPI DUP1 PUSH4 0xE338824F EQ PUSH2 0xE51 JUMPI DUP1 PUSH4 0xEB802EDF EQ PUSH2 0xDEB JUMPI DUP1 PUSH4 0xEC5FFAC2 EQ PUSH2 0xDCD JUMPI DUP1 PUSH4 0xEDA057F1 EQ PUSH2 0xA05 JUMPI DUP1 PUSH4 0xEE172546 EQ PUSH2 0x9E7 JUMPI DUP1 PUSH4 0xEFA075CF EQ PUSH2 0x9C6 JUMPI DUP1 PUSH4 0xF1997DC9 EQ PUSH2 0x72E JUMPI DUP1 PUSH4 0xF25B3F99 EQ PUSH2 0x5D0 JUMPI DUP1 PUSH4 0xF2884385 EQ PUSH2 0x5B2 JUMPI DUP1 PUSH4 0xF2FDE38B EQ PUSH2 0x529 JUMPI DUP1 PUSH4 0xF4CE57B5 EQ PUSH2 0x508 JUMPI DUP1 PUSH4 0xF7EB7AC8 EQ PUSH2 0x4E7 JUMPI DUP1 PUSH4 0xF99DEC4E EQ PUSH2 0x4CA JUMPI DUP1 PUSH4 0xF9B0B5B9 EQ PUSH2 0x4AC JUMPI DUP1 PUSH4 0xFA52C7D8 EQ PUSH2 0x356 JUMPI PUSH4 0xFE0438B2 EQ PUSH2 0x317 JUMPI PUSH1 0x0 DUP1 REVERT JUMPDEST CALLVALUE PUSH2 0x351 JUMPI PUSH1 0x20 CALLDATASIZE PUSH1 0x3 NOT ADD SLT PUSH2 0x351 JUMPI PUSH1 0x1 PUSH1 0x1 PUSH1 0xA0 SHL SUB PUSH2 0x338 PUSH2 0x3CFF JUMP JUMPDEST AND PUSH1 0x0 MSTORE PUSH1 0x9 PUSH1 0x20 MSTORE PUSH1 0x20 PUSH1 0x40 PUSH1 0x0 KECCAK256 SLOAD PUSH1 0x40 MLOAD SWAP1 DUP2 MSTORE RETURN JUMPDEST PUSH1 0x0 DUP1 REVERT JUMPDEST CALLVALUE PUSH2 0x351 JUMPI PUSH1 0x20 CALLDATASIZE PUSH1 0x3 NOT ADD SLT PUSH2 0x351 JUMPI PUSH1 0x1 PUSH1 0x1 PUSH1 0xA0 SHL SUB DUP1 PUSH2 0x378 PUSH2 0x3CFF JUMP JUMPDEST AND PUSH1 0x0 MSTORE PUSH1 0x7 PUSH1 0x20 MSTORE PUSH1 0x40 PUSH1 0x0 KECCAK256 DUP1 DUP1 SWAP3 DUP2 SLOAD AND PUSH1 0x1 DUP3 ADD SLOAD PUSH2 0x160 MSTORE PUSH1 0x2 DUP3 ADD SLOAD PUSH1 0x3 DUP4 ADD SLOAD PUSH1 0x4 DUP5 ADD SLOAD PUSH1 0x5 DUP6 ADD SLOAD PUSH1 0x6 DUP7 ADD SLOAD PUSH1 0xFF AND PUSH1 0x7 DUP8 ADD SLOAD SWAP1 PUSH1 0x8 DUP9 ADD SLOAD SWAP3 PUSH1 0x9 DUP10 ADD SLOAD SWAP5 PUSH1 0xA DUP11 ADD SLOAD SWAP7 PUSH1 0xB DUP12 ADD SLOAD SWAP9 PUSH1 0xC DUP13 ADD SLOAD SWAP11 PUSH1 0xD DUP14 ADD SLOAD SWAP13 PUSH1 0xE ADD SLOAD SWAP14 PUSH1 0xF ADD SLOAD SWAP15 PUSH1 0x10 DUP2 ADD SLOAD PUSH2 0x120 MSTORE PUSH1 0x11 ADD SLOAD PUSH1 0xFF AND PUSH1 0xC0 MSTORE PUSH1 0x40 MLOAD DUP1 PUSH2 0x340 MSTORE MSTORE PUSH2 0x160 MLOAD PUSH2 0x340 MLOAD PUSH1 0x20 ADD MSTORE PUSH2 0x340 MLOAD PUSH1 0x40 ADD MSTORE PUSH2 0x340 MLOAD PUSH1 0x60 ADD MSTORE PUSH2 0x340 MLOAD PUSH1 0x80 ADD MSTORE PUSH2 0x340 MLOAD PUSH1 0xA0 ADD MSTORE ISZERO ISZERO PUSH2 0x340 MLOAD PUSH1 0xC0 ADD MSTORE PUSH2 0x340 MLOAD PUSH1 0xE0 ADD MSTORE PUSH2 0x340 MLOAD PUSH2 0x100 ADD MSTORE PUSH2 0x340 MLOAD PUSH2 0x120 ADD MSTORE PUSH2 0x340 MLOAD PUSH2 0x140 ADD MSTORE PUSH2 0x340 MLOAD PUSH2 0x160 ADD MSTORE PUSH2 0x340 MLOAD PUSH2 0x180 ADD MSTORE PUSH2 0x340 MLOAD PUSH2 0x1A0 ADD MSTORE PUSH2 0x340 MLOAD PUSH2 0x1C0 ADD MSTORE PUSH2 0x340 MLOAD PUSH2 0x1E0 ADD MSTORE PUSH2 0x120 MLOAD PUSH2 0x340 MLOAD PUSH2 0x200 ADD MSTORE PUSH1 0xC0 MLOAD ISZERO ISZERO PUSH2 0x340 MLOAD PUSH2 0x220 ADD MSTORE PUSH2 0x340 MLOAD PUSH2 0x240 SWAP1 RETURN JUMPDEST CALLVALUE PUSH2 0x351 JUMPI PUSH1 0x0 CALLDATASIZE PUSH1 0x3 NOT ADD SLT PUSH2 0x351 JUMPI PUSH1 0x20 PUSH1 0x1E SLOAD PUSH1 0x40 MLOAD SWAP1 DUP2 MSTORE RETURN JUMPDEST CALLVALUE PUSH2 0x351 JUMPI PUSH1 0x0 CALLDATASIZE PUSH1 0x3 NOT ADD SLT PUSH2 0x351 JUMPI PUSH1 0x20 DUP1 SLOAD PUSH1 0x40 MLOAD SWAP1 DUP2 MSTORE RETURN JUMPDEST CALLVALUE PUSH2 0x351 JUMPI PUSH1 0x20 CALLDATASIZE PUSH1 0x3 NOT ADD SLT PUSH2 0x351 JUMPI PUSH2 0x500 PUSH2 0x3E9D JUMP JUMPDEST PUSH1 0x4 CALLDATALOAD PUSH1 0x17 SSTORE STOP JUMPDEST CALLVALUE PUSH2 0x351 JUMPI PUSH1 0x20 CALLDATASIZE PUSH1 0x3 NOT ADD SLT PUSH2 0x351 JUMPI PUSH2 0x521 PUSH2 0x3E9D JUMP JUMPDEST PUSH1 0x4 CALLDATALOAD PUSH1 0x14 SSTORE STOP JUMPDEST CALLVALUE PUSH2 0x351 JUMPI PUSH1 0x20 CALLDATASIZE PUSH1 0x3 NOT ADD SLT PUSH2 0x351 JUMPI PUSH2 0x542 PUSH2 0x3CFF JUMP JUMPDEST PUSH2 0x54A PUSH2 0x3E9D JUMP JUMPDEST PUSH1 0x1 PUSH1 0x1 PUSH1 0xA0 SHL SUB SWAP1 DUP2 AND SWAP1 DUP2 ISZERO PUSH2 0x599 JUMPI PUSH1 0x0 SLOAD DUP3 PUSH1 0x1 PUSH1 0x1 PUSH1 0x60 SHL SUB PUSH1 0xA0 SHL DUP3 AND OR PUSH1 0x0 SSTORE AND PUSH32 0x8BE0079C531659141344CD1FD0A4F28419497F9722A3DAAFE3B4186F6B6457E0 PUSH1 0x0 DUP1 LOG3 STOP JUMPDEST PUSH1 0x40 MLOAD PUSH4 0x1E4FBDF7 PUSH1 0xE0 SHL DUP2 MSTORE PUSH1 0x0 PUSH1 0x4 DUP3 ADD MSTORE PUSH1 0x24 SWAP1 REVERT JUMPDEST CALLVALUE PUSH2 0x351 JUMPI PUSH1 0x0 CALLDATASIZE PUSH1 0x3 NOT ADD SLT PUSH2 0x351 JUMPI PUSH1 0x20 PUSH1 0x30 SLOAD PUSH1 0x40 MLOAD SWAP1 DUP2 MSTORE RETURN JUMPDEST CALLVALUE PUSH2 0x351 JUMPI PUSH1 0x20 CALLDATASIZE PUSH1 0x3 NOT ADD SLT PUSH2 0x351 JUMPI PUSH1 0x4 DUP1 CALLDATALOAD PUSH1 0x0 SWAP1 DUP2 MSTORE PUSH1 0xB PUSH1 0x20 MSTORE PUSH1 0x40 SWAP1 KECCAK256 DUP1 SLOAD PUSH1 0x1 DUP3 ADD SLOAD PUSH2 0x280 MSTORE PUSH1 0x2 DUP3 ADD SLOAD PUSH2 0x260 MSTORE PUSH1 0x3 DUP3 ADD SLOAD PUSH1 0x1 PUSH1 0x1 PUSH1 0xA0 SHL SUB AND PUSH2 0x1E0 MSTORE SWAP2 PUSH2 0x625 SWAP1 DUP3 ADD PUSH2 0x3D65 JUMP JUMPDEST SWAP2 PUSH1 0x5 DUP3 ADD SLOAD SWAP3 PUSH1 0x6 DUP4 ADD SLOAD PUSH1 0x7 DUP5 ADD SLOAD PUSH1 0x8 DUP6 ADD SLOAD PUSH1 0x9 DUP7 ADD SLOAD PUSH1 0xA DUP8 ADD SLOAD PUSH1 0xFF AND SWAP2 PUSH1 0xB DUP9 ADD SLOAD SWAP4 PUSH1 0xC DUP10 ADD SLOAD SWAP6 PUSH1 0xD DUP11 ADD SLOAD SWAP8 PUSH1 0xE DUP12 ADD SLOAD SWAP10 PUSH1 0xF DUP13 ADD SLOAD SWAP12 PUSH1 0x10 ADD SLOAD PUSH1 0x80 MSTORE PUSH1 0x40 MLOAD DUP1 PUSH2 0x1A0 MSTORE MSTORE PUSH2 0x280 MLOAD PUSH2 0x1A0 MLOAD PUSH1 0x20 ADD MSTORE PUSH2 0x260 MLOAD PUSH2 0x1A0 MLOAD PUSH1 0x40 ADD MSTORE PUSH2 0x1E0 MLOAD PUSH2 0x1A0 MLOAD PUSH1 0x60 ADD MSTORE PUSH2 0x220 DUP1 PUSH2 0x1A0 MLOAD PUSH1 0x80 ADD MSTORE PUSH2 0x1A0 MLOAD ADD PUSH2 0x6B5 SWAP2 PUSH2 0x3E2E JUMP JUMPDEST SWAP11 PUSH2 0x1A0 MLOAD PUSH1 0xA0 ADD MSTORE PUSH2 0x1A0 MLOAD PUSH1 0xC0 ADD MSTORE PUSH2 0x1A0 MLOAD PUSH1 0xE0 ADD MSTORE PUSH2 0x1A0 MLOAD PUSH2 0x100 ADD MSTORE PUSH2 0x1A0 MLOAD PUSH2 0x120 ADD MSTORE ISZERO ISZERO PUSH2 0x1A0 MLOAD PUSH2 0x140 ADD MSTORE PUSH2 0x1A0 MLOAD PUSH2 0x160 ADD MSTORE PUSH2 0x1A0 MLOAD PUSH2 0x180 ADD MSTORE PUSH2 0x1A0 MLOAD PUSH2 0x1A0 ADD MSTORE PUSH2 0x1A0 MLOAD PUSH2 0x1C0 ADD MSTORE PUSH2 0x1A0 MLOAD PUSH2 0x1E0 ADD MSTORE PUSH1 0x80 MLOAD PUSH2 0x1A0 MLOAD PUSH2 0x200 ADD MSTORE PUSH2 0x1A0 MLOAD DUP1 SWAP2 SUB SWAP1 RETURN JUMPDEST CALLVALUE PUSH2 0x351 JUMPI PUSH1 0x20 DUP1 PUSH1 0x3 NOT CALLDATASIZE ADD SLT PUSH2 0x351 JUMPI PUSH1 0x4 CALLDATALOAD CALLER PUSH1 0x0 MSTORE PUSH1 0x4 DUP3 MSTORE PUSH1 0x40 PUSH1 0x0 KECCAK256 SLOAD DUP2 LT ISZERO PUSH2 0x989 JUMPI CALLER PUSH1 0x0 MSTORE PUSH1 0x4 DUP3 MSTORE PUSH1 0xFF PUSH1 0x6 PUSH2 0x772 DUP4 PUSH1 0x40 PUSH1 0x0 KECCAK256 PUSH2 0x3E81 JUMP JUMPDEST POP ADD SLOAD AND ISZERO PUSH2 0x94F JUMPI CALLER PUSH1 0x0 MSTORE PUSH1 0x4 DUP3 MSTORE PUSH2 0x791 DUP2 PUSH1 0x40 PUSH1 0x0 KECCAK256 PUSH2 0x3E81 JUMP JUMPDEST POP PUSH1 0x4 TIMESTAMP SWAP2 ADD SSTORE CALLER PUSH1 0x0 MSTORE PUSH1 0x4 DUP3 MSTORE PUSH1 0x6 PUSH2 0x7B0 DUP3 PUSH1 0x40 PUSH1 0x0 KECCAK256 PUSH2 0x3E81 JUMP JUMPDEST POP ADD PUSH1 0xFF NOT SWAP1 DUP2 DUP2 SLOAD AND SWAP1 SSTORE CALLER PUSH1 0x0 MSTORE PUSH1 0x4 DUP4 MSTORE PUSH1 0xA PUSH1 0xC PUSH2 0x7D6 DUP5 PUSH1 0x40 PUSH1 0x0 KECCAK256 PUSH2 0x3E81 JUMP JUMPDEST POP ADD SSTORE CALLER PUSH1 0x0 MSTORE PUSH1 0x4 DUP4 MSTORE PUSH2 0x7EF DUP3 PUSH1 0x40 PUSH1 0x0 KECCAK256 PUSH2 0x3E81 JUMP JUMPDEST POP SWAP1 PUSH1 0x1 DUP1 SWAP3 ADD SWAP3 CALLER PUSH1 0x0 MSTORE PUSH1 0x4 DUP6 MSTORE PUSH1 0x2 PUSH2 0x80F DUP3 PUSH1 0x40 PUSH1 0x0 KECCAK256 PUSH2 0x3E81 JUMP JUMPDEST POP ADD SLOAD CALLER PUSH1 0x0 MSTORE PUSH1 0x9 DUP7 MSTORE PUSH1 0x40 PUSH1 0x0 KECCAK256 SLOAD SWAP1 PUSH1 0xC PUSH2 0x838 PUSH1 0x18 SLOAD SWAP5 PUSH1 0x4 DUP11 MSTORE PUSH1 0x40 PUSH1 0x0 KECCAK256 PUSH2 0x3E81 JUMP JUMPDEST POP ADD SLOAD SWAP4 PUSH1 0x40 MLOAD SWAP6 PUSH1 0xA0 DUP8 MSTORE PUSH1 0x0 SWAP8 DUP1 SLOAD PUSH2 0x852 DUP2 PUSH2 0x3D2B JUMP JUMPDEST SWAP4 DUP5 PUSH1 0xA0 DUP12 ADD MSTORE DUP4 DUP3 AND SWAP2 DUP3 PUSH1 0x0 EQ PUSH2 0x90E JUMPI POP POP PUSH1 0x1 EQ PUSH2 0x8AF JUMPI JUMPDEST POP POP POP PUSH32 0x24692C01D14E1A496BF63B770EB1BEEBE2C6336FF154023C41A103A1AE728422 SWAP6 SWAP7 DUP6 ADD MSTORE PUSH1 0x40 DUP5 ADD MSTORE PUSH1 0x60 DUP4 ADD MSTORE PUSH1 0x80 DUP3 ADD MSTORE DUP1 CALLER SWAP4 SUB SWAP1 LOG2 STOP JUMPDEST SWAP1 SWAP8 POP PUSH1 0x0 MSTORE DUP8 PUSH1 0x0 KECCAK256 SWAP7 DUP9 PUSH1 0x0 SWAP9 JUMPDEST DUP4 DUP11 LT PUSH2 0x8F9 JUMPI POP POP POP POP PUSH1 0xC0 PUSH32 0x24692C01D14E1A496BF63B770EB1BEEBE2C6336FF154023C41A103A1AE728422 SWAP7 DUP7 ADD ADD SWAP6 DUP9 DUP1 PUSH2 0x86F JUMP JUMPDEST DUP1 SLOAD DUP10 DUP12 ADD PUSH1 0xC0 ADD MSTORE SWAP9 ADD SWAP8 DUP10 SWAP1 DUP3 ADD PUSH2 0x8BF JUMP JUMPDEST SWAP2 POP SWAP2 POP PUSH32 0x24692C01D14E1A496BF63B770EB1BEEBE2C6336FF154023C41A103A1AE728422 SWAP10 POP PUSH1 0xC0 SWAP4 SWAP3 POP AND DUP3 DUP9 ADD MSTORE ISZERO ISZERO PUSH1 0x5 SHL DUP7 ADD ADD SWAP6 DUP9 DUP1 PUSH2 0x86F JUMP JUMPDEST PUSH1 0x40 MLOAD PUSH3 0x461BCD PUSH1 0xE5 SHL DUP2 MSTORE PUSH1 0x4 DUP2 ADD DUP4 SWAP1 MSTORE PUSH1 0x12 PUSH1 0x24 DUP3 ADD MSTORE PUSH18 0x53657373696F6E206E6F7420616374697665 PUSH1 0x70 SHL PUSH1 0x44 DUP3 ADD MSTORE PUSH1 0x64 SWAP1 REVERT JUMPDEST PUSH1 0x40 MLOAD PUSH3 0x461BCD PUSH1 0xE5 SHL DUP2 MSTORE PUSH1 0x4 DUP2 ADD DUP4 SWAP1 MSTORE PUSH1 0x15 PUSH1 0x24 DUP3 ADD MSTORE PUSH21 0x92DCECC2D8D2C840E6CAE6E6D2DEDC40D2DCC8CAF PUSH1 0x5B SHL PUSH1 0x44 DUP3 ADD MSTORE PUSH1 0x64 SWAP1 REVERT JUMPDEST CALLVALUE PUSH2 0x351 JUMPI PUSH1 0x20 CALLDATASIZE PUSH1 0x3 NOT ADD SLT PUSH2 0x351 JUMPI PUSH2 0x9DF PUSH2 0x3E9D JUMP JUMPDEST PUSH1 0x4 CALLDATALOAD PUSH1 0x36 SSTORE STOP JUMPDEST CALLVALUE PUSH2 0x351 JUMPI PUSH1 0x0 CALLDATASIZE PUSH1 0x3 NOT ADD SLT PUSH2 0x351 JUMPI PUSH1 0x20 PUSH1 0x13 SLOAD PUSH1 0x40 MLOAD SWAP1 DUP2 MSTORE RETURN JUMPDEST CALLVALUE PUSH2 0x351 JUMPI PUSH1 0x40 CALLDATASIZE PUSH1 0x3 NOT ADD SLT PUSH2 0x351 JUMPI PUSH1 0x4 CALLDATALOAD PUSH1 0x1 PUSH1 0x1 PUSH1 0x40 SHL SUB DUP2 GT PUSH2 0x351 JUMPI PUSH2 0xA35 SWAP1 CALLDATASIZE SWAP1 PUSH1 0x4 ADD PUSH2 0x3CB8 JUMP JUMPDEST PUSH2 0xA60 PUSH1 0xFF PUSH1 0x40 MLOAD PUSH1 0x20 DUP2 DUP6 MLOAD PUSH2 0xA4F DUP2 DUP4 DUP6 DUP11 ADD PUSH2 0x3E0B JUMP JUMPDEST DUP2 ADD PUSH1 0x6 DUP2 MSTORE SUB ADD SWAP1 KECCAK256 SLOAD AND PUSH2 0x4175 JUMP JUMPDEST PUSH2 0xA70 PUSH1 0x14 SLOAD PUSH1 0x24 CALLDATALOAD GT ISZERO PUSH2 0x41C1 JUMP JUMPDEST PUSH2 0xA78 PUSH2 0x4226 JUMP JUMPDEST SWAP1 CALLER PUSH1 0x0 MSTORE PUSH1 0x8 PUSH1 0x20 MSTORE PUSH1 0x40 PUSH1 0x0 KECCAK256 SLOAD SWAP1 PUSH2 0xA91 PUSH2 0x3F53 JUMP JUMPDEST PUSH1 0x18 SLOAD SWAP4 PUSH2 0xA9D PUSH2 0x4035 JUMP JUMPDEST PUSH1 0x40 MLOAD SWAP6 PUSH2 0xAAA DUP8 PUSH2 0x3C45 JUMP JUMPDEST CALLER DUP8 MSTORE DUP5 PUSH1 0x20 DUP9 ADD MSTORE PUSH1 0x24 CALLDATALOAD PUSH1 0x40 DUP9 ADD MSTORE TIMESTAMP PUSH1 0x60 DUP9 ADD MSTORE PUSH1 0x0 PUSH1 0x80 DUP9 ADD MSTORE PUSH1 0x0 PUSH1 0xA0 DUP9 ADD MSTORE PUSH1 0x1 PUSH1 0xC0 DUP9 ADD MSTORE DUP6 PUSH1 0xE0 DUP9 ADD MSTORE DUP3 PUSH2 0x100 DUP9 ADD MSTORE PUSH2 0x120 DUP8 ADD MSTORE DUP3 PUSH2 0x140 DUP8 ADD MSTORE PUSH2 0x160 DUP7 ADD MSTORE PUSH1 0x0 PUSH2 0x180 DUP7 ADD MSTORE PUSH1 0x1 PUSH2 0x1A0 DUP7 ADD MSTORE CALLER PUSH1 0x0 MSTORE PUSH1 0x4 PUSH1 0x20 MSTORE PUSH1 0x40 PUSH1 0x0 KECCAK256 DUP1 SLOAD PUSH1 0x1 PUSH1 0x40 SHL DUP2 LT ISZERO PUSH2 0xDA1 JUMPI PUSH2 0xB31 SWAP2 PUSH1 0x1 DUP3 ADD DUP2 SSTORE PUSH2 0x3E81 JUMP JUMPDEST PUSH2 0xDB7 JUMPI DUP6 MLOAD DUP2 SLOAD PUSH1 0x1 PUSH1 0x1 PUSH1 0xA0 SHL SUB NOT AND PUSH1 0x1 PUSH1 0x1 PUSH1 0xA0 SHL SUB SWAP2 SWAP1 SWAP2 AND OR DUP2 SSTORE PUSH1 0x20 DUP7 ADD MLOAD DUP1 MLOAD SWAP1 SWAP7 SWAP1 PUSH1 0x1 PUSH1 0x1 PUSH1 0x40 SHL SUB DUP2 GT PUSH2 0xDA1 JUMPI PUSH2 0xB77 PUSH1 0x1 DUP5 ADD SLOAD PUSH2 0x3D2B JUMP JUMPDEST PUSH1 0x1F DUP2 GT PUSH2 0xD61 JUMPI JUMPDEST POP PUSH1 0x20 PUSH1 0x1F DUP3 GT PUSH1 0x1 EQ PUSH2 0xCC6 JUMPI PUSH2 0xC7D SWAP4 SWAP3 DUP3 PUSH1 0xD SWAP4 PUSH2 0x1A0 SWAP4 PUSH32 0xEB087411F0284DE7D69B863B3CF3476D1359402FF42C8D65CFC995EA327D9F27 SWAP12 SWAP13 PUSH1 0x0 SWAP3 PUSH2 0xCBB JUMPI JUMPDEST POP POP DUP2 PUSH1 0x1 SHL SWAP2 PUSH1 0x0 NOT SWAP1 PUSH1 0x3 SHL SHR NOT AND OR PUSH1 0x1 DUP6 ADD SSTORE JUMPDEST PUSH1 0x40 DUP2 ADD MLOAD PUSH1 0x2 DUP6 ADD SSTORE PUSH1 0x60 DUP2 ADD MLOAD PUSH1 0x3 DUP6 ADD SSTORE PUSH1 0x80 DUP2 ADD MLOAD PUSH1 0x4 DUP6 ADD SSTORE PUSH1 0xA0 DUP2 ADD MLOAD PUSH1 0x5 DUP6 ADD SSTORE PUSH2 0xC25 PUSH1 0xC0 DUP3 ADD MLOAD ISZERO ISZERO PUSH1 0x6 DUP7 ADD SWAP1 PUSH1 0xFF DUP1 NOT DUP4 SLOAD AND SWAP2 ISZERO ISZERO AND OR SWAP1 SSTORE JUMP JUMPDEST PUSH1 0xE0 DUP2 ADD MLOAD PUSH1 0x7 DUP6 ADD SSTORE PUSH2 0x100 DUP2 ADD MLOAD PUSH1 0x8 DUP6 ADD SSTORE PUSH2 0x120 DUP2 ADD MLOAD PUSH1 0x9 DUP6 ADD SSTORE PUSH2 0x140 DUP2 ADD MLOAD PUSH1 0xA DUP6 ADD SSTORE PUSH2 0x160 DUP2 ADD MLOAD PUSH1 0xB DUP6 ADD SSTORE PUSH2 0x180 DUP2 ADD MLOAD PUSH1 0xC DUP6 ADD SSTORE ADD MLOAD ISZERO ISZERO SWAP2 ADD SWAP1 PUSH1 0xFF DUP1 NOT DUP4 SLOAD AND SWAP2 ISZERO ISZERO AND OR SWAP1 SSTORE JUMP JUMPDEST PUSH1 0x18 SLOAD SWAP1 PUSH2 0xC96 PUSH1 0x40 MLOAD SWAP5 PUSH1 0xC0 DUP7 MSTORE PUSH1 0xC0 DUP7 ADD SWAP1 PUSH2 0x3E2E JUMP JUMPDEST SWAP6 PUSH1 0x24 CALLDATALOAD PUSH1 0x20 DUP7 ADD MSTORE PUSH1 0x40 DUP6 ADD MSTORE PUSH1 0x60 DUP5 ADD MSTORE PUSH1 0x80 DUP4 ADD MSTORE PUSH1 0xA0 DUP3 ADD MSTORE DUP1 CALLER SWAP4 SUB SWAP1 LOG2 STOP JUMPDEST ADD MLOAD SWAP1 POP DUP13 DUP1 PUSH2 0xBC6 JUMP JUMPDEST PUSH1 0x1 DUP5 ADD PUSH1 0x0 MSTORE PUSH1 0x20 PUSH1 0x0 KECCAK256 SWAP9 PUSH1 0x0 JUMPDEST PUSH1 0x1F NOT DUP5 AND DUP2 LT PUSH2 0xD49 JUMPI POP SWAP3 PUSH1 0x1 DUP4 PUSH32 0xEB087411F0284DE7D69B863B3CF3476D1359402FF42C8D65CFC995EA327D9F27 SWAP11 SWAP12 PUSH2 0x1A0 SWAP5 PUSH2 0xC7D SWAP9 SWAP8 PUSH1 0xD SWAP8 PUSH1 0x1F NOT DUP2 AND LT PUSH2 0xD30 JUMPI JUMPDEST POP POP POP DUP2 SHL ADD PUSH1 0x1 DUP6 ADD SSTORE PUSH2 0xBDE JUMP JUMPDEST ADD MLOAD PUSH1 0x0 NOT PUSH1 0xF8 DUP5 PUSH1 0x3 SHL AND SHR NOT AND SWAP1 SSTORE DUP13 DUP1 DUP1 PUSH2 0xD20 JUMP JUMPDEST DUP3 DUP3 ADD MLOAD DUP12 SSTORE PUSH1 0x1 SWAP1 SWAP11 ADD SWAP10 PUSH1 0x20 SWAP3 DUP4 ADD SWAP3 ADD PUSH2 0xCD6 JUMP JUMPDEST PUSH2 0xD91 SWAP1 PUSH1 0x1 DUP6 ADD PUSH1 0x0 MSTORE PUSH1 0x20 PUSH1 0x0 KECCAK256 PUSH1 0x1F DUP5 ADD PUSH1 0x5 SHR DUP2 ADD SWAP2 PUSH1 0x20 DUP6 LT PUSH2 0xD97 JUMPI JUMPDEST PUSH1 0x1F ADD PUSH1 0x5 SHR ADD SWAP1 PUSH2 0x3ED8 JUMP JUMPDEST DUP9 PUSH2 0xB80 JUMP JUMPDEST SWAP1 SWAP2 POP DUP2 SWAP1 PUSH2 0xD84 JUMP JUMPDEST PUSH4 0x4E487B71 PUSH1 0xE0 SHL PUSH1 0x0 MSTORE PUSH1 0x41 PUSH1 0x4 MSTORE PUSH1 0x24 PUSH1 0x0 REVERT JUMPDEST PUSH4 0x4E487B71 PUSH1 0xE0 SHL PUSH1 0x0 MSTORE PUSH1 0x0 PUSH1 0x4 MSTORE PUSH1 0x24 PUSH1 0x0 REVERT JUMPDEST CALLVALUE PUSH2 0x351 JUMPI PUSH1 0x0 CALLDATASIZE PUSH1 0x3 NOT ADD SLT PUSH2 0x351 JUMPI PUSH1 0x20 PUSH1 0x19 SLOAD PUSH1 0x40 MLOAD SWAP1 DUP2 MSTORE RETURN JUMPDEST CALLVALUE PUSH2 0x351 JUMPI PUSH1 0x20 CALLDATASIZE PUSH1 0x3 NOT ADD SLT PUSH2 0x351 JUMPI PUSH1 0x4 CALLDATALOAD PUSH1 0x1 PUSH1 0x1 PUSH1 0x40 SHL SUB DUP2 GT PUSH2 0x351 JUMPI PUSH1 0x20 PUSH2 0xE20 PUSH2 0xE3B SWAP3 CALLDATASIZE SWAP1 PUSH1 0x4 ADD PUSH2 0x3CB8 JUMP JUMPDEST PUSH2 0xE28 PUSH2 0x3E9D JUMP JUMPDEST DUP2 PUSH1 0x40 MLOAD SWAP4 DUP3 DUP6 DUP1 SWAP5 MLOAD SWAP4 DUP5 SWAP3 ADD PUSH2 0x3E0B JUMP JUMPDEST PUSH1 0x6 SWAP1 DUP3 ADD SWAP1 DUP2 MSTORE SUB ADD SWAP1 KECCAK256 DUP1 SLOAD PUSH1 0xFF NOT AND SWAP1 SSTORE STOP JUMPDEST CALLVALUE PUSH2 0x351 JUMPI PUSH1 0x0 CALLDATASIZE PUSH1 0x3 NOT ADD SLT PUSH2 0x351 JUMPI CALLER PUSH1 0x0 MSTORE PUSH1 0x8 PUSH1 0x20 MSTORE PUSH1 0x40 PUSH1 0x0 KECCAK256 SLOAD PUSH1 0x20 SLOAD GT PUSH2 0x10ED JUMPI CALLER PUSH1 0x0 MSTORE PUSH1 0x7 PUSH1 0x20 MSTORE PUSH1 0xFF PUSH1 0x6 PUSH1 0x40 PUSH1 0x0 KECCAK256 ADD SLOAD AND PUSH2 0x10A8 JUMPI CALLER PUSH1 0x0 MSTORE PUSH1 0x8 PUSH1 0x20 MSTORE PUSH1 0x40 PUSH1 0x0 KECCAK256 SLOAD PUSH1 0x9 PUSH1 0x20 MSTORE PUSH1 0x40 PUSH1 0x0 KECCAK256 SLOAD PUSH1 0x40 MLOAD SWAP1 PUSH2 0x240 DUP3 ADD SWAP3 DUP3 DUP5 LT PUSH1 0x1 PUSH1 0x1 PUSH1 0x40 SHL SUB DUP6 GT OR PUSH2 0xDA1 JUMPI PUSH2 0x1051 SWAP4 PUSH1 0x40 MSTORE CALLER DUP4 MSTORE PUSH1 0x20 DUP4 ADD MSTORE DUP1 PUSH1 0x40 DUP4 ADD MSTORE PUSH1 0x0 PUSH1 0x60 DUP4 ADD MSTORE PUSH1 0x0 PUSH1 0x80 DUP4 ADD MSTORE PUSH1 0x0 PUSH1 0xA0 DUP4 ADD MSTORE PUSH1 0x1 PUSH1 0xC0 DUP4 ADD MSTORE TIMESTAMP PUSH1 0xE0 DUP4 ADD MSTORE PUSH2 0x100 DUP3 ADD MSTORE PUSH1 0x0 PUSH2 0x120 DUP3 ADD MSTORE PUSH1 0x0 PUSH2 0x140 DUP3 ADD MSTORE PUSH1 0x0 PUSH2 0x160 DUP3 ADD MSTORE PUSH1 0x0 PUSH2 0x180 DUP3 ADD MSTORE PUSH1 0x0 PUSH2 0x1A0 DUP3 ADD MSTORE PUSH1 0x0 PUSH2 0x1C0 DUP3 ADD MSTORE PUSH1 0x0 PUSH2 0x1E0 DUP3 ADD MSTORE PUSH1 0x0 PUSH2 0x200 DUP3 ADD MSTORE PUSH1 0x1 PUSH2 0x220 DUP3 ADD MSTORE CALLER PUSH1 0x0 MSTORE PUSH1 0x7 PUSH1 0x20 MSTORE PUSH1 0x11 PUSH2 0x220 PUSH1 0x40 PUSH1 0x0 KECCAK256 SWAP3 PUSH1 0x1 DUP1 PUSH1 0xA0 SHL SUB DUP2 MLOAD AND PUSH1 0x1 PUSH1 0x1 PUSH1 0x60 SHL SUB PUSH1 0xA0 SHL DUP6 SLOAD AND OR DUP5 SSTORE PUSH1 0x20 DUP2 ADD MLOAD PUSH1 0x1 DUP6 ADD SSTORE PUSH1 0x40 DUP2 ADD MLOAD PUSH1 0x2 DUP6 ADD SSTORE PUSH1 0x60 DUP2 ADD MLOAD PUSH1 0x3 DUP6 ADD SSTORE PUSH1 0x80 DUP2 ADD MLOAD PUSH1 0x4 DUP6 ADD SSTORE PUSH1 0xA0 DUP2 ADD MLOAD PUSH1 0x5 DUP6 ADD SSTORE PUSH2 0xFCD PUSH1 0xC0 DUP3 ADD MLOAD ISZERO ISZERO PUSH1 0x6 DUP7 ADD SWAP1 PUSH1 0xFF DUP1 NOT DUP4 SLOAD AND SWAP2 ISZERO ISZERO AND OR SWAP1 SSTORE JUMP JUMPDEST PUSH1 0xE0 DUP2 ADD MLOAD PUSH1 0x7 DUP6 ADD SSTORE PUSH2 0x100 DUP2 ADD MLOAD PUSH1 0x8 DUP6 ADD SSTORE PUSH2 0x120 DUP2 ADD MLOAD PUSH1 0x9 DUP6 ADD SSTORE PUSH2 0x140 DUP2 ADD MLOAD PUSH1 0xA DUP6 ADD SSTORE PUSH2 0x160 DUP2 ADD MLOAD PUSH1 0xB DUP6 ADD SSTORE PUSH2 0x180 DUP2 ADD MLOAD PUSH1 0xC DUP6 ADD SSTORE PUSH2 0x1A0 DUP2 ADD MLOAD PUSH1 0xD DUP6 ADD SSTORE PUSH2 0x1C0 DUP2 ADD MLOAD PUSH1 0xE DUP6 ADD SSTORE PUSH2 0x1E0 DUP2 ADD MLOAD PUSH1 0xF DUP6 ADD SSTORE PUSH2 0x200 DUP2 ADD MLOAD PUSH1 0x10 DUP6 ADD SSTORE ADD MLOAD ISZERO ISZERO SWAP2 ADD SWAP1 PUSH1 0xFF DUP1 NOT DUP4 SLOAD AND SWAP2 ISZERO ISZERO AND OR SWAP1 SSTORE JUMP JUMPDEST PUSH1 0x8 PUSH1 0x20 MSTORE PUSH1 0x40 PUSH1 0x0 KECCAK256 SLOAD PUSH1 0x9 PUSH1 0x20 MSTORE PUSH1 0x40 PUSH1 0x0 KECCAK256 SLOAD PUSH1 0x40 MLOAD SWAP2 DUP3 MSTORE PUSH1 0x20 DUP3 ADD MSTORE PUSH1 0x0 PUSH1 0x40 DUP3 ADD MSTORE PUSH1 0x1 PUSH1 0x60 DUP3 ADD MSTORE PUSH32 0x438B591BACB7157BAC1E3102C2515385B22F2FD1560551BDE3925EE48D97C7AC PUSH1 0x80 CALLER SWAP3 LOG2 STOP JUMPDEST PUSH1 0x40 MLOAD PUSH3 0x461BCD PUSH1 0xE5 SHL DUP2 MSTORE PUSH1 0x20 PUSH1 0x4 DUP3 ADD MSTORE PUSH1 0x1F PUSH1 0x24 DUP3 ADD MSTORE PUSH32 0x416C726561647920726567697374657265642061732076616C696461746F7200 PUSH1 0x44 DUP3 ADD MSTORE PUSH1 0x64 SWAP1 REVERT JUMPDEST PUSH1 0x64 PUSH1 0x40 MLOAD PUSH3 0x461BCD PUSH1 0xE5 SHL DUP2 MSTORE PUSH1 0x20 PUSH1 0x4 DUP3 ADD MSTORE PUSH1 0x20 PUSH1 0x24 DUP3 ADD MSTORE PUSH32 0x496E73756666696369656E74207374616B6520666F722076616C696461746F72 PUSH1 0x44 DUP3 ADD MSTORE REVERT JUMPDEST CALLVALUE PUSH2 0x351 JUMPI PUSH1 0x0 CALLDATASIZE PUSH1 0x3 NOT ADD SLT PUSH2 0x351 JUMPI PUSH1 0x20 PUSH1 0x1F SLOAD PUSH1 0x40 MLOAD SWAP1 DUP2 MSTORE RETURN JUMPDEST CALLVALUE PUSH2 0x351 JUMPI PUSH1 0x20 CALLDATASIZE PUSH1 0x3 NOT ADD SLT PUSH2 0x351 JUMPI PUSH1 0x4 CALLDATALOAD PUSH1 0x0 MSTORE PUSH1 0x11 PUSH1 0x20 MSTORE PUSH1 0x20 PUSH1 0x40 PUSH1 0x0 KECCAK256 SLOAD PUSH1 0x40 MLOAD SWAP1 DUP2 MSTORE RETURN JUMPDEST CALLVALUE PUSH2 0x351 JUMPI PUSH1 0x40 CALLDATASIZE PUSH1 0x3 NOT ADD SLT PUSH2 0x351 JUMPI PUSH2 0x1194 PUSH2 0x3CFF JUMP JUMPDEST PUSH1 0x1 PUSH1 0x1 PUSH1 0xA0 SHL SUB SWAP1 DUP2 AND PUSH1 0x0 SWAP1 DUP2 MSTORE PUSH1 0x4 PUSH1 0x20 MSTORE PUSH1 0x40 SWAP1 KECCAK256 DUP1 SLOAD PUSH1 0x24 CALLDATALOAD SWAP1 DUP2 LT ISZERO PUSH2 0x351 JUMPI PUSH2 0x11C3 SWAP2 PUSH2 0x3E81 JUMP JUMPDEST POP SWAP1 DUP2 SLOAD AND PUSH1 0x1 DUP3 ADD PUSH2 0x11D5 SWAP1 PUSH2 0x3D65 JUMP JUMPDEST SWAP1 PUSH1 0x2 DUP4 ADD SLOAD SWAP3 PUSH1 0x3 DUP2 ADD SLOAD SWAP1 PUSH1 0x4 DUP2 ADD SLOAD PUSH1 0x5 DUP3 ADD SLOAD PUSH1 0x6 DUP4 ADD SLOAD PUSH1 0xFF AND PUSH1 0x7 DUP5 ADD SLOAD PUSH1 0x8 DUP6 ADD SLOAD SWAP1 PUSH1 0x9 DUP7 ADD SLOAD SWAP3 PUSH1 0xA DUP8 ADD SLOAD SWAP5 PUSH1 0xB DUP9 ADD SLOAD SWAP7 PUSH1 0xC DUP10 ADD SLOAD SWAP9 PUSH1 0xD ADD SLOAD PUSH1 0xFF AND SWAP10 PUSH1 0x40 MLOAD SWAP14 DUP15 SWAP14 DUP15 SWAP14 DUP15 MSTORE DUP14 PUSH2 0x1C0 SWAP1 DUP2 PUSH1 0x20 DUP3 ADD MSTORE ADD PUSH2 0x123E SWAP2 PUSH2 0x3E2E JUMP JUMPDEST SWAP13 PUSH1 0x40 ADD MSTORE PUSH1 0x60 DUP14 ADD MSTORE PUSH1 0x80 DUP13 ADD MSTORE PUSH1 0xA0 DUP12 ADD MSTORE ISZERO ISZERO PUSH1 0xC0 DUP11 ADD MSTORE PUSH1 0xE0 DUP10 ADD MSTORE PUSH2 0x100 DUP9 ADD MSTORE PUSH2 0x120 DUP8 ADD MSTORE PUSH2 0x140 DUP7 ADD MSTORE PUSH2 0x160 DUP6 ADD MSTORE PUSH2 0x180 DUP5 ADD MSTORE ISZERO ISZERO PUSH2 0x1A0 DUP4 ADD MSTORE SUB SWAP1 RETURN JUMPDEST CALLVALUE PUSH2 0x351 JUMPI PUSH1 0x40 CALLDATASIZE PUSH1 0x3 NOT ADD SLT PUSH2 0x351 JUMPI PUSH2 0x12A1 PUSH2 0x3D15 JUMP JUMPDEST PUSH1 0x4 CALLDATALOAD PUSH1 0x0 MSTORE PUSH1 0xC PUSH1 0x20 MSTORE PUSH1 0x40 PUSH1 0x0 KECCAK256 SWAP1 PUSH1 0x1 DUP1 PUSH1 0xA0 SHL SUB AND PUSH1 0x0 MSTORE PUSH1 0x20 MSTORE PUSH1 0x20 PUSH1 0xFF PUSH1 0x40 PUSH1 0x0 KECCAK256 SLOAD AND PUSH1 0x40 MLOAD SWAP1 ISZERO ISZERO DUP2 MSTORE RETURN JUMPDEST CALLVALUE PUSH2 0x351 JUMPI PUSH1 0x0 CALLDATASIZE PUSH1 0x3 NOT ADD SLT PUSH2 0x351 JUMPI PUSH1 0x20 PUSH1 0x33 SLOAD PUSH1 0x40 MLOAD SWAP1 DUP2 MSTORE RETURN JUMPDEST CALLVALUE PUSH2 0x351 JUMPI PUSH1 0x40 CALLDATASIZE PUSH1 0x3 NOT ADD SLT PUSH2 0x351 JUMPI PUSH2 0x130C PUSH2 0x3D15 JUMP JUMPDEST PUSH1 0x4 CALLDATALOAD PUSH1 0x0 MSTORE PUSH1 0xD PUSH1 0x20 MSTORE PUSH1 0x40 PUSH1 0x0 KECCAK256 SWAP1 PUSH1 0x1 DUP1 PUSH1 0xA0 SHL SUB AND PUSH1 0x0 MSTORE PUSH1 0x20 MSTORE PUSH1 0x40 PUSH1 0x0 KECCAK256 PUSH1 0xFF DUP2 SLOAD AND PUSH2 0x1341 PUSH1 0x1 DUP4 ADD PUSH2 0x3D65 JUMP JUMPDEST SWAP2 PUSH1 0x2 DUP2 ADD SLOAD SWAP1 PUSH1 0x3 DUP2 ADD SLOAD SWAP1 PUSH1 0xFF PUSH1 0x4 DUP3 ADD SLOAD AND PUSH1 0x5 DUP3 ADD SLOAD PUSH1 0x6 DUP4 ADD SLOAD SWAP2 PUSH1 0x8 PUSH1 0x7 DUP6 ADD SLOAD SWAP5 ADD SLOAD SWAP5 PUSH2 0x138A PUSH1 0x40 MLOAD SWAP10 DUP11 SWAP10 ISZERO ISZERO DUP11 MSTORE PUSH2 0x120 DUP1 PUSH1 0x20 DUP13 ADD MSTORE DUP11 ADD SWAP1 PUSH2 0x3E2E JUMP JUMPDEST SWAP7 PUSH1 0x40 DUP10 ADD MSTORE PUSH1 0x60 DUP9 ADD MSTORE ISZERO ISZERO PUSH1 0x80 DUP8 ADD MSTORE PUSH1 0xA0 DUP7 ADD MSTORE PUSH1 0xC0 DUP6 ADD MSTORE PUSH1 0xE0 DUP5 ADD MSTORE PUSH2 0x100 DUP4 ADD MSTORE SUB SWAP1 RETURN JUMPDEST CALLVALUE PUSH2 0x351 JUMPI PUSH1 0x40 CALLDATASIZE PUSH1 0x3 NOT ADD SLT PUSH2 0x351 JUMPI PUSH2 0x13CE PUSH2 0x3CFF JUMP JUMPDEST PUSH1 0x1 PUSH1 0x1 PUSH1 0xA0 SHL SUB AND PUSH1 0x0 SWAP1 DUP2 MSTORE PUSH1 0xA PUSH1 0x20 MSTORE PUSH1 0x40 SWAP1 KECCAK256 DUP1 SLOAD PUSH1 0x24 CALLDATALOAD SWAP2 SWAP1 DUP3 LT ISZERO PUSH2 0x351 JUMPI PUSH1 0x20 SWAP2 PUSH2 0x13FF SWAP2 PUSH2 0x3E53 JUMP JUMPDEST SWAP1 SLOAD PUSH1 0x40 MLOAD SWAP2 PUSH1 0x3 SHL SHR DUP2 MSTORE RETURN JUMPDEST CALLVALUE PUSH2 0x351 JUMPI PUSH1 0x0 CALLDATASIZE PUSH1 0x3 NOT ADD SLT PUSH2 0x351 JUMPI PUSH1 0x20 PUSH1 0x35 SLOAD PUSH1 0x40 MLOAD SWAP1 DUP2 MSTORE RETURN JUMPDEST CALLVALUE PUSH2 0x351 JUMPI PUSH1 0x20 CALLDATASIZE PUSH1 0x3 NOT ADD SLT PUSH2 0x351 JUMPI PUSH1 0x1 PUSH1 0x1 PUSH1 0xA0 SHL SUB PUSH2 0x144C PUSH2 0x3CFF JUMP JUMPDEST AND PUSH1 0x0 MSTORE PUSH1 0x5 PUSH1 0x20 MSTORE PUSH1 0x20 PUSH1 0x40 PUSH1 0x0 KECCAK256 SLOAD PUSH1 0x40 MLOAD SWAP1 DUP2 MSTORE RETURN JUMPDEST CALLVALUE PUSH2 0x351 JUMPI PUSH1 0x20 DUP1 PUSH1 0x3 NOT CALLDATASIZE ADD SLT PUSH2 0x351 JUMPI PUSH1 0x1 PUSH1 0x1 PUSH1 0xA0 SHL SUB SWAP1 DUP2 PUSH2 0x1489 PUSH2 0x3CFF JUMP JUMPDEST AND PUSH1 0x0 MSTORE PUSH1 0x4 DUP2 MSTORE PUSH1 0x40 PUSH1 0x0 KECCAK256 DUP1 SLOAD SWAP2 PUSH2 0x14A2 DUP4 PUSH2 0x42B3 JUMP JUMPDEST SWAP3 PUSH2 0x14B0 PUSH1 0x40 MLOAD SWAP5 DUP6 PUSH2 0x3C7C JUMP JUMPDEST DUP1 DUP5 MSTORE DUP2 DUP5 ADD DUP1 SWAP4 PUSH1 0x0 MSTORE DUP3 PUSH1 0x0 KECCAK256 PUSH1 0x0 SWAP2 JUMPDEST DUP4 DUP4 LT PUSH2 0x15C4 JUMPI POP POP POP POP PUSH1 0x40 MLOAD SWAP3 DUP2 DUP5 ADD SWAP1 DUP3 DUP6 MSTORE MLOAD DUP1 SWAP2 MSTORE PUSH1 0x40 DUP5 ADD SWAP2 PUSH1 0x40 DUP3 PUSH1 0x5 SHL DUP7 ADD ADD SWAP4 SWAP3 PUSH1 0x0 SWAP7 JUMPDEST DUP4 DUP9 LT PUSH2 0x14FE JUMPI DUP7 DUP7 SUB DUP8 RETURN JUMPDEST SWAP1 SWAP2 SWAP3 SWAP4 SWAP5 DUP4 DUP1 PUSH1 0x1 SWAP3 PUSH1 0x3F NOT DUP11 DUP3 SUB ADD DUP7 MSTORE DUP9 MLOAD SWAP1 DUP6 DUP3 MLOAD AND DUP2 MSTORE PUSH2 0x1531 DUP4 DUP4 ADD MLOAD PUSH2 0x1C0 DUP1 DUP7 DUP6 ADD MSTORE DUP4 ADD SWAP1 PUSH2 0x3E2E JUMP JUMPDEST SWAP2 PUSH1 0x40 DUP2 ADD MLOAD PUSH1 0x40 DUP4 ADD MSTORE PUSH1 0x60 DUP1 DUP3 ADD MLOAD SWAP1 DUP4 ADD MSTORE PUSH1 0x80 DUP1 DUP3 ADD MLOAD SWAP1 DUP4 ADD MSTORE PUSH1 0xA0 DUP1 DUP3 ADD MLOAD SWAP1 DUP4 ADD MSTORE PUSH1 0xC0 DUP1 DUP3 ADD MLOAD ISZERO ISZERO SWAP1 DUP4 ADD MSTORE PUSH1 0xE0 DUP2 ADD MLOAD PUSH1 0xE0 DUP4 ADD MSTORE PUSH2 0x100 DUP1 DUP3 ADD MLOAD SWAP1 DUP4 ADD MSTORE PUSH2 0x120 DUP1 DUP3 ADD MLOAD SWAP1 DUP4 ADD MSTORE PUSH2 0x140 DUP1 DUP3 ADD MLOAD SWAP1 DUP4 ADD MSTORE PUSH2 0x160 DUP1 DUP3 ADD MLOAD SWAP1 DUP4 ADD MSTORE PUSH2 0x180 DUP1 DUP3 ADD MLOAD SWAP1 DUP4 ADD MSTORE PUSH2 0x1A0 DUP1 SWAP2 ADD MLOAD ISZERO ISZERO SWAP2 ADD MSTORE SWAP8 ADD SWAP4 ADD SWAP8 ADD SWAP7 SWAP1 SWAP4 SWAP3 SWAP2 SWAP4 PUSH2 0x14F1 JUMP JUMPDEST PUSH1 0xE DUP6 PUSH1 0x1 SWAP3 PUSH1 0x40 SWAP10 SWAP8 SWAP10 MLOAD PUSH2 0x15D9 DUP2 PUSH2 0x3C45 JUMP JUMPDEST DUP12 DUP7 SLOAD AND DUP2 MSTORE PUSH2 0x15EA DUP6 DUP8 ADD PUSH2 0x3D65 JUMP JUMPDEST DUP4 DUP3 ADD MSTORE PUSH1 0x2 DUP7 ADD SLOAD PUSH1 0x40 DUP3 ADD MSTORE PUSH1 0x3 DUP7 ADD SLOAD PUSH1 0x60 DUP3 ADD MSTORE PUSH1 0x4 DUP7 ADD SLOAD PUSH1 0x80 DUP3 ADD MSTORE PUSH1 0x5 DUP7 ADD SLOAD PUSH1 0xA0 DUP3 ADD MSTORE PUSH1 0xFF DUP1 PUSH1 0x6 DUP9 ADD SLOAD AND ISZERO ISZERO PUSH1 0xC0 DUP4 ADD MSTORE PUSH1 0x7 DUP8 ADD SLOAD PUSH1 0xE0 DUP4 ADD MSTORE PUSH1 0x8 DUP8 ADD SLOAD PUSH2 0x100 DUP4 ADD MSTORE PUSH1 0x9 DUP8 ADD SLOAD PUSH2 0x120 DUP4 ADD MSTORE PUSH1 0xA DUP8 ADD SLOAD PUSH2 0x140 DUP4 ADD MSTORE PUSH1 0xB DUP8 ADD SLOAD PUSH2 0x160 DUP4 ADD MSTORE PUSH1 0xC DUP8 ADD SLOAD PUSH2 0x180 DUP4 ADD MSTORE PUSH1 0xD DUP8 ADD SLOAD AND ISZERO ISZERO PUSH2 0x1A0 DUP3 ADD MSTORE DUP2 MSTORE ADD SWAP3 ADD SWAP3 ADD SWAP2 SWAP1 SWAP6 SWAP4 SWAP6 PUSH2 0x14C3 JUMP JUMPDEST CALLVALUE PUSH2 0x351 JUMPI PUSH1 0x20 CALLDATASIZE PUSH1 0x3 NOT ADD SLT PUSH2 0x351 JUMPI PUSH1 0x4 CALLDATALOAD PUSH1 0x0 MSTORE PUSH1 0xE PUSH1 0x20 MSTORE PUSH1 0x20 PUSH1 0x40 PUSH1 0x0 KECCAK256 SLOAD PUSH1 0x40 MLOAD SWAP1 DUP2 MSTORE RETURN JUMPDEST CALLVALUE PUSH2 0x351 JUMPI PUSH1 0x20 CALLDATASIZE PUSH1 0x3 NOT ADD SLT PUSH2 0x351 JUMPI PUSH2 0x16CB PUSH2 0x3E9D JUMP JUMPDEST PUSH1 0x4 CALLDATALOAD PUSH1 0x33 SSTORE STOP JUMPDEST CALLVALUE PUSH2 0x351 JUMPI PUSH1 0x0 CALLDATASIZE PUSH1 0x3 NOT ADD SLT PUSH2 0x351 JUMPI PUSH1 0x20 PUSH1 0x14 SLOAD PUSH1 0x40 MLOAD SWAP1 DUP2 MSTORE RETURN JUMPDEST CALLVALUE PUSH2 0x351 JUMPI PUSH1 0x0 CALLDATASIZE PUSH1 0x3 NOT ADD SLT PUSH2 0x351 JUMPI PUSH1 0x20 PUSH1 0x1D SLOAD PUSH1 0x40 MLOAD SWAP1 DUP2 MSTORE RETURN JUMPDEST CALLVALUE PUSH2 0x351 JUMPI PUSH1 0x0 CALLDATASIZE PUSH1 0x3 NOT ADD SLT PUSH2 0x351 JUMPI PUSH1 0x20 PUSH1 0x2F SLOAD PUSH1 0x40 MLOAD SWAP1 DUP2 MSTORE RETURN JUMPDEST CALLVALUE PUSH2 0x351 JUMPI PUSH1 0x20 CALLDATASIZE PUSH1 0x3 NOT ADD SLT PUSH2 0x351 JUMPI PUSH1 0x4 CALLDATALOAD PUSH1 0x1 PUSH1 0x1 PUSH1 0x40 SHL SUB DUP2 GT PUSH2 0x351 JUMPI PUSH2 0x175D SWAP1 CALLDATASIZE SWAP1 PUSH1 0x4 ADD PUSH2 0x3CB8 JUMP JUMPDEST POP PUSH1 0x20 PUSH2 0x1768 PUSH2 0x4226 JUMP JUMPDEST PUSH1 0x40 MLOAD SWAP1 DUP2 MSTORE RETURN JUMPDEST CALLVALUE PUSH2 0x351 JUMPI PUSH1 0x0 CALLDATASIZE PUSH1 0x3 NOT ADD SLT PUSH2 0x351 JUMPI PUSH1 0x0 SLOAD PUSH1 0x40 MLOAD PUSH1 0x1 PUSH1 0x1 PUSH1 0xA0 SHL SUB SWAP1 SWAP2 AND DUP2 MSTORE PUSH1 0x20 SWAP1 RETURN JUMPDEST CALLVALUE PUSH2 0x351 JUMPI PUSH1 0x20 CALLDATASIZE PUSH1 0x3 NOT ADD SLT PUSH2 0x351 JUMPI PUSH1 0x4 CALLDATALOAD PUSH1 0x1 PUSH1 0x1 PUSH1 0x40 SHL SUB DUP2 GT PUSH2 0x351 JUMPI PUSH1 0xFF PUSH2 0x17D1 PUSH1 0x20 PUSH2 0xE28 DUP2 SWAP5 CALLDATASIZE SWAP1 PUSH1 0x4 ADD PUSH2 0x3CB8 JUMP JUMPDEST DUP2 ADD PUSH1 0x6 DUP2 MSTORE SUB ADD SWAP1 KECCAK256 SLOAD AND PUSH1 0x40 MLOAD SWAP1 ISZERO ISZERO DUP2 MSTORE RETURN JUMPDEST CALLVALUE PUSH2 0x351 JUMPI PUSH1 0x0 CALLDATASIZE PUSH1 0x3 NOT ADD SLT PUSH2 0x351 JUMPI PUSH1 0x20 PUSH1 0x1C SLOAD PUSH1 0x40 MLOAD SWAP1 DUP2 MSTORE RETURN JUMPDEST CALLVALUE PUSH2 0x351 JUMPI PUSH1 0x20 CALLDATASIZE PUSH1 0x3 NOT ADD SLT PUSH2 0x351 JUMPI PUSH1 0x4 CALLDATALOAD PUSH1 0x0 MSTORE PUSH1 0xF PUSH1 0x20 MSTORE PUSH1 0x20 PUSH1 0x40 PUSH1 0x0 KECCAK256 SLOAD PUSH1 0x40 MLOAD SWAP1 DUP2 MSTORE RETURN JUMPDEST CALLVALUE PUSH2 0x351 JUMPI PUSH1 0x20 CALLDATASIZE PUSH1 0x3 NOT ADD SLT PUSH2 0x351 JUMPI PUSH2 0x184A PUSH2 0x3E9D JUMP JUMPDEST PUSH1 0x4 CALLDATALOAD PUSH1 0x32 SSTORE STOP JUMPDEST CALLVALUE PUSH2 0x351 JUMPI PUSH1 0x0 CALLDATASIZE PUSH1 0x3 NOT ADD SLT PUSH2 0x351 JUMPI PUSH1 0x20 PUSH1 0x1A SLOAD PUSH1 0x40 MLOAD SWAP1 DUP2 MSTORE RETURN JUMPDEST CALLVALUE PUSH2 0x351 JUMPI PUSH1 0x0 CALLDATASIZE PUSH1 0x3 NOT ADD SLT PUSH2 0x351 JUMPI PUSH1 0x20 PUSH1 0x2E SLOAD PUSH1 0x40 MLOAD SWAP1 DUP2 MSTORE RETURN JUMPDEST CALLVALUE PUSH2 0x351 JUMPI PUSH1 0x0 CALLDATASIZE PUSH1 0x3 NOT ADD SLT PUSH2 0x351 JUMPI PUSH1 0x20 PUSH1 0x17 SLOAD PUSH1 0x40 MLOAD SWAP1 DUP2 MSTORE RETURN JUMPDEST CALLVALUE PUSH2 0x351 JUMPI PUSH1 0x0 CALLDATASIZE PUSH1 0x3 NOT ADD SLT PUSH2 0x351 JUMPI PUSH1 0x20 PUSH1 0x15 SLOAD PUSH1 0x40 MLOAD SWAP1 DUP2 MSTORE RETURN JUMPDEST CALLVALUE PUSH2 0x351 JUMPI PUSH1 0x0 CALLDATASIZE PUSH1 0x3 NOT ADD SLT PUSH2 0x351 JUMPI PUSH1 0x20 PUSH1 0x1B SLOAD PUSH1 0x40 MLOAD SWAP1 DUP2 MSTORE RETURN JUMPDEST CALLVALUE PUSH2 0x351 JUMPI PUSH1 0x20 CALLDATASIZE PUSH1 0x3 NOT ADD SLT PUSH2 0x351 JUMPI PUSH2 0x1901 PUSH2 0x3E9D JUMP JUMPDEST PUSH1 0x4 CALLDATALOAD PUSH1 0x16 SSTORE STOP JUMPDEST CALLVALUE PUSH2 0x351 JUMPI PUSH1 0x0 CALLDATASIZE PUSH1 0x3 NOT ADD SLT PUSH2 0x351 JUMPI PUSH2 0x1922 PUSH2 0x3E9D JUMP JUMPDEST PUSH1 0x0 DUP1 SLOAD PUSH1 0x1 PUSH1 0x1 PUSH1 0xA0 SHL SUB NOT DUP2 AND DUP3 SSTORE PUSH1 0x1 PUSH1 0x1 PUSH1 0xA0 SHL SUB AND PUSH32 0x8BE0079C531659141344CD1FD0A4F28419497F9722A3DAAFE3B4186F6B6457E0 DUP3 DUP1 LOG3 STOP JUMPDEST CALLVALUE PUSH2 0x351 JUMPI PUSH1 0x20 CALLDATASIZE PUSH1 0x3 NOT ADD SLT PUSH2 0x351 JUMPI PUSH1 0x0 PUSH2 0x280 PUSH1 0x40 MLOAD PUSH2 0x1984 DUP2 PUSH2 0x3C29 JUMP JUMPDEST DUP3 DUP2 MSTORE PUSH1 0x60 PUSH1 0x20 DUP3 ADD MSTORE DUP3 PUSH1 0x40 DUP3 ADD MSTORE PUSH1 0x60 DUP1 DUP3 ADD MSTORE PUSH1 0x60 PUSH1 0x80 DUP3 ADD MSTORE DUP3 PUSH1 0xA0 DUP3 ADD MSTORE DUP3 PUSH1 0xC0 DUP3 ADD MSTORE DUP3 PUSH1 0xE0 DUP3 ADD MSTORE DUP3 PUSH2 0x100 DUP3 ADD MSTORE DUP3 PUSH2 0x120 DUP3 ADD MSTORE DUP3 PUSH2 0x140 DUP3 ADD MSTORE DUP3 PUSH2 0x160 DUP3 ADD MSTORE DUP3 PUSH2 0x180 DUP3 ADD MSTORE DUP3 PUSH2 0x1A0 DUP3 ADD MSTORE DUP3 PUSH2 0x1C0 DUP3 ADD MSTORE DUP3 PUSH2 0x1E0 DUP3 ADD MSTORE DUP3 PUSH2 0x200 DUP3 ADD MSTORE DUP3 PUSH2 0x220 DUP3 ADD MSTORE DUP3 PUSH2 0x240 DUP3 ADD MSTORE DUP3 PUSH2 0x260 DUP3 ADD MSTORE ADD MSTORE PUSH1 0x4 CALLDATALOAD PUSH1 0x0 MSTORE PUSH1 0x2 PUSH1 0x20 MSTORE PUSH1 0x40 PUSH1 0x0 KECCAK256 PUSH1 0x14 PUSH1 0x40 MLOAD SWAP2 PUSH2 0x1A28 DUP4 PUSH2 0x3C29 JUMP JUMPDEST DUP1 SLOAD PUSH1 0x1 PUSH1 0x1 PUSH1 0xA0 SHL SUB AND DUP4 MSTORE PUSH2 0x1A41 PUSH1 0x1 DUP3 ADD PUSH2 0x3D65 JUMP JUMPDEST PUSH1 0x20 DUP5 ADD MSTORE PUSH1 0x2 DUP2 ADD SLOAD PUSH1 0x40 DUP5 ADD MSTORE PUSH2 0x1A5C PUSH1 0x3 DUP3 ADD PUSH2 0x3D65 JUMP JUMPDEST PUSH1 0x60 DUP5 ADD MSTORE PUSH2 0x1A6D PUSH1 0x4 DUP3 ADD PUSH2 0x3D65 JUMP JUMPDEST PUSH1 0x80 DUP5 ADD MSTORE PUSH1 0x5 DUP2 ADD SLOAD PUSH1 0xA0 DUP5 ADD MSTORE PUSH1 0x6 DUP2 ADD SLOAD PUSH1 0xC0 DUP5 ADD MSTORE PUSH1 0x7 DUP2 ADD SLOAD PUSH1 0xE0 DUP5 ADD MSTORE PUSH1 0xFF PUSH1 0x8 DUP3 ADD SLOAD AND ISZERO ISZERO PUSH2 0x100 DUP5 ADD MSTORE PUSH1 0x9 DUP2 ADD SLOAD PUSH2 0x120 DUP5 ADD MSTORE PUSH1 0xA DUP2 ADD SLOAD PUSH2 0x140 DUP5 ADD MSTORE PUSH1 0xB DUP2 ADD SLOAD PUSH2 0x160 DUP5 ADD MSTORE PUSH1 0xC DUP2 ADD SLOAD PUSH2 0x180 DUP5 ADD MSTORE PUSH1 0xD DUP2 ADD SLOAD PUSH2 0x1A0 DUP5 ADD MSTORE PUSH1 0xE DUP2 ADD SLOAD PUSH2 0x1C0 DUP5 ADD MSTORE PUSH1 0xF DUP2 ADD SLOAD PUSH2 0x1E0 DUP5 ADD MSTORE PUSH1 0x10 DUP2 ADD SLOAD PUSH2 0x200 DUP5 ADD MSTORE PUSH1 0x11 DUP2 ADD SLOAD PUSH2 0x220 DUP5 ADD MSTORE PUSH1 0x12 DUP2 ADD SLOAD PUSH2 0x240 DUP5 ADD MSTORE PUSH1 0xFF PUSH1 0x13 DUP3 ADD SLOAD AND ISZERO ISZERO PUSH2 0x260 DUP5 ADD MSTORE ADD SLOAD PUSH2 0x280 DUP3 ADD MSTORE PUSH1 0x40 MLOAD DUP1 SWAP2 PUSH1 0x20 DUP3 MSTORE PUSH1 0x1 DUP1 PUSH1 0xA0 SHL SUB DUP2 MLOAD AND PUSH1 0x20 DUP4 ADD MSTORE PUSH2 0x280 PUSH2 0x1B9A PUSH2 0x1B5F PUSH1 0x20 DUP5 ADD MLOAD PUSH2 0x2A0 PUSH1 0x40 DUP8 ADD MSTORE PUSH2 0x2C0 DUP7 ADD SWAP1 PUSH2 0x3E2E JUMP JUMPDEST PUSH1 0x40 DUP5 ADD MLOAD PUSH1 0x60 DUP7 ADD MSTORE PUSH2 0x1B85 PUSH1 0x60 DUP6 ADD MLOAD SWAP2 PUSH1 0x1F NOT SWAP3 DUP4 DUP9 DUP4 SUB ADD PUSH1 0x80 DUP10 ADD MSTORE PUSH2 0x3E2E JUMP JUMPDEST SWAP1 PUSH1 0x80 DUP6 ADD MLOAD SWAP1 DUP7 DUP4 SUB ADD PUSH1 0xA0 DUP8 ADD MSTORE PUSH2 0x3E2E JUMP JUMPDEST SWAP2 PUSH1 0xA0 DUP2 ADD MLOAD PUSH1 0xC0 DUP6 ADD MSTORE PUSH1 0xC0 DUP2 ADD MLOAD PUSH1 0xE0 DUP6 ADD MSTORE PUSH1 0xE0 DUP2 ADD MLOAD PUSH2 0x100 DUP6 ADD MSTORE PUSH2 0x100 DUP2 ADD MLOAD ISZERO ISZERO PUSH2 0x120 DUP6 ADD MSTORE PUSH2 0x120 DUP2 ADD MLOAD PUSH2 0x140 DUP6 ADD MSTORE PUSH2 0x140 DUP2 ADD MLOAD PUSH2 0x160 DUP6 ADD MSTORE PUSH2 0x160 DUP2 ADD MLOAD PUSH2 0x180 DUP6 ADD MSTORE PUSH2 0x180 DUP2 ADD MLOAD PUSH2 0x1A0 DUP6 ADD MSTORE PUSH2 0x1A0 DUP2 ADD MLOAD PUSH2 0x1C0 DUP6 ADD MSTORE PUSH2 0x1C0 DUP2 ADD MLOAD PUSH2 0x1E0 DUP6 ADD MSTORE PUSH2 0x1E0 DUP2 ADD MLOAD PUSH2 0x200 DUP6 ADD MSTORE PUSH2 0x200 DUP2 ADD MLOAD PUSH2 0x220 DUP6 ADD MSTORE PUSH2 0x220 DUP2 ADD MLOAD PUSH2 0x240 DUP6 ADD MSTORE PUSH2 0x240 DUP2 ADD MLOAD PUSH2 0x260 DUP6 ADD MSTORE PUSH2 0x260 DUP2 ADD MLOAD ISZERO ISZERO DUP3 DUP6 ADD MSTORE ADD MLOAD PUSH2 0x2A0 DUP4 ADD MSTORE SUB SWAP1 RETURN JUMPDEST CALLVALUE PUSH2 0x351 JUMPI PUSH1 0x20 CALLDATASIZE PUSH1 0x3 NOT ADD SLT PUSH2 0x351 JUMPI PUSH1 0x4 CALLDATALOAD PUSH1 0x0 MSTORE PUSH1 0xB PUSH1 0x20 MSTORE PUSH1 0x80 PUSH1 0x40 PUSH1 0x0 KECCAK256 PUSH1 0x7 DUP2 ADD SLOAD SWAP1 PUSH1 0x8 DUP2 ADD SLOAD SWAP1 PUSH1 0x10 PUSH1 0xF DUP3 ADD SLOAD SWAP2 ADD SLOAD SWAP2 PUSH1 0x40 MLOAD SWAP4 DUP5 MSTORE PUSH1 0x20 DUP5 ADD MSTORE PUSH1 0x40 DUP4 ADD MSTORE PUSH1 0x60 DUP3 ADD MSTORE RETURN JUMPDEST CALLVALUE PUSH2 0x351 JUMPI PUSH1 0x20 CALLDATASIZE PUSH1 0x3 NOT ADD SLT PUSH2 0x351 JUMPI PUSH2 0x1CC2 PUSH2 0x3E9D JUMP JUMPDEST PUSH1 0x4 CALLDATALOAD PUSH1 0x34 SSTORE STOP JUMPDEST CALLVALUE PUSH2 0x351 JUMPI PUSH1 0x20 CALLDATASIZE PUSH1 0x3 NOT ADD SLT PUSH2 0x351 JUMPI PUSH1 0x4 CALLDATALOAD PUSH1 0x0 SWAP1 DUP2 MSTORE PUSH1 0x2 PUSH1 0x20 MSTORE PUSH1 0x40 SWAP1 KECCAK256 DUP1 SLOAD PUSH1 0x1 PUSH1 0x1 PUSH1 0xA0 SHL SUB AND SWAP1 PUSH2 0x1D04 PUSH1 0x1 DUP3 ADD PUSH2 0x3D65 JUMP JUMPDEST PUSH2 0x220 MSTORE PUSH1 0x2 DUP2 ADD SLOAD PUSH2 0x2E0 MSTORE PUSH2 0x1D1D PUSH1 0x3 DUP3 ADD PUSH2 0x3D65 JUMP JUMPDEST PUSH2 0x180 MSTORE PUSH2 0x1D2D PUSH1 0x4 DUP3 ADD PUSH2 0x3D65 JUMP JUMPDEST SWAP2 PUSH1 0x5 DUP3 ADD SLOAD PUSH2 0x2C0 MSTORE PUSH1 0x6 DUP3 ADD SLOAD SWAP3 PUSH1 0x7 DUP4 ADD SLOAD PUSH1 0x8 DUP5 ADD SLOAD PUSH1 0xFF AND PUSH1 0x9 DUP6 ADD SLOAD PUSH1 0xA DUP7 ADD SLOAD PUSH1 0xB DUP8 ADD SLOAD SWAP2 PUSH1 0xC DUP9 ADD SLOAD SWAP4 PUSH1 0xD DUP10 ADD SLOAD SWAP6 PUSH1 0xE DUP11 ADD SLOAD SWAP8 PUSH1 0xF DUP12 ADD SLOAD SWAP10 PUSH1 0x10 DUP13 ADD SLOAD SWAP12 PUSH1 0x11 DUP2 ADD SLOAD PUSH2 0x100 MSTORE PUSH1 0x12 DUP2 ADD SLOAD PUSH2 0x360 MSTORE PUSH1 0x13 DUP2 ADD SLOAD PUSH1 0xFF AND PUSH1 0xE0 MSTORE PUSH1 0x14 ADD SLOAD PUSH2 0x300 MSTORE PUSH1 0x40 MLOAD DUP1 PUSH1 0xA0 MSTORE MSTORE PUSH2 0x2A0 DUP1 PUSH1 0xA0 MLOAD PUSH1 0x20 ADD MSTORE PUSH1 0xA0 MLOAD ADD PUSH2 0x220 MLOAD SWAP1 PUSH2 0x1DC2 SWAP2 PUSH2 0x3E2E JUMP JUMPDEST PUSH2 0x2E0 MLOAD PUSH1 0xA0 MLOAD PUSH1 0x40 ADD MSTORE PUSH1 0xA0 MLOAD DUP1 DUP3 SUB SWAP1 PUSH1 0x60 ADD MSTORE PUSH2 0x180 MLOAD SWAP1 PUSH2 0x1DE6 SWAP2 PUSH2 0x3E2E JUMP JUMPDEST PUSH1 0xA0 MLOAD DUP1 DUP3 SUB SWAP1 PUSH1 0x80 ADD MSTORE PUSH2 0x1DFA SWAP2 PUSH2 0x3E2E JUMP JUMPDEST SWAP11 PUSH2 0x2C0 MLOAD PUSH1 0xA0 MLOAD PUSH1 0xA0 ADD MSTORE PUSH1 0xA0 MLOAD PUSH1 0xC0 ADD MSTORE PUSH1 0xA0 MLOAD PUSH1 0xE0 ADD MSTORE ISZERO ISZERO PUSH1 0xA0 MLOAD PUSH2 0x100 ADD MSTORE PUSH1 0xA0 MLOAD PUSH2 0x120 ADD MSTORE PUSH1 0xA0 MLOAD PUSH2 0x140 ADD MSTORE PUSH1 0xA0 MLOAD PUSH2 0x160 ADD MSTORE PUSH1 0xA0 MLOAD PUSH2 0x180 ADD MSTORE PUSH1 0xA0 MLOAD PUSH2 0x1A0 ADD MSTORE PUSH1 0xA0 MLOAD PUSH2 0x1C0 ADD MSTORE PUSH1 0xA0 MLOAD PUSH2 0x1E0 ADD MSTORE PUSH1 0xA0 MLOAD PUSH2 0x200 ADD MSTORE PUSH2 0x100 MLOAD PUSH1 0xA0 MLOAD PUSH2 0x220 ADD MSTORE PUSH2 0x360 MLOAD PUSH1 0xA0 MLOAD PUSH2 0x240 ADD MSTORE PUSH1 0xE0 MLOAD ISZERO ISZERO PUSH1 0xA0 MLOAD PUSH2 0x260 ADD MSTORE PUSH2 0x300 MLOAD PUSH1 0xA0 MLOAD PUSH2 0x280 ADD MSTORE PUSH1 0xA0 MLOAD DUP1 SWAP2 SUB SWAP1 RETURN JUMPDEST CALLVALUE PUSH2 0x351 JUMPI PUSH1 0x20 CALLDATASIZE PUSH1 0x3 NOT ADD SLT PUSH2 0x351 JUMPI PUSH1 0x4 CALLDATALOAD PUSH1 0x0 MSTORE PUSH1 0x10 PUSH1 0x20 MSTORE PUSH1 0x20 PUSH1 0x40 PUSH1 0x0 KECCAK256 SLOAD PUSH1 0x40 MLOAD SWAP1 DUP2 MSTORE RETURN JUMPDEST CALLVALUE PUSH2 0x351 JUMPI PUSH1 0xA0 CALLDATASIZE PUSH1 0x3 NOT ADD SLT PUSH2 0x351 JUMPI PUSH1 0x4 CALLDATALOAD PUSH1 0x1 PUSH1 0x1 PUSH1 0x40 SHL SUB DUP2 GT PUSH2 0x351 JUMPI PUSH2 0x1EF4 SWAP1 CALLDATASIZE SWAP1 PUSH1 0x4 ADD PUSH2 0x3CB8 JUMP JUMPDEST PUSH1 0x44 CALLDATALOAD PUSH1 0x1 PUSH1 0x1 PUSH1 0x40 SHL SUB DUP2 GT PUSH2 0x351 JUMPI PUSH2 0x1F13 SWAP1 CALLDATASIZE SWAP1 PUSH1 0x4 ADD PUSH2 0x3CB8 JUMP JUMPDEST SWAP1 PUSH1 0x64 CALLDATALOAD PUSH1 0x1 PUSH1 0x1 PUSH1 0x40 SHL SUB DUP2 GT PUSH2 0x351 JUMPI PUSH2 0x1F33 SWAP1 CALLDATASIZE SWAP1 PUSH1 0x4 ADD PUSH2 0x3CB8 JUMP JUMPDEST SWAP2 PUSH2 0x1F3C PUSH2 0x4203 JUMP JUMPDEST PUSH2 0x1F56 PUSH1 0xFF PUSH1 0x40 MLOAD PUSH1 0x20 DUP2 DUP7 MLOAD PUSH2 0xA4F DUP2 DUP4 DUP6 DUP12 ADD PUSH2 0x3E0B JUMP JUMPDEST PUSH2 0x1F66 PUSH1 0x14 SLOAD PUSH1 0x24 CALLDATALOAD GT ISZERO PUSH2 0x41C1 JUMP JUMPDEST PUSH1 0x17 SLOAD PUSH1 0x84 CALLDATALOAD LT PUSH2 0x2D4D JUMPI PUSH2 0x1F79 PUSH2 0x3F53 JUMP JUMPDEST PUSH2 0x1F81 PUSH2 0x4035 JUMP JUMPDEST PUSH2 0x1F89 PUSH2 0x4226 JUMP JUMPDEST PUSH1 0x24 CALLDATALOAD LT PUSH2 0x2CFC JUMPI PUSH1 0x18 SLOAD SWAP2 PUSH1 0x40 MLOAD PUSH1 0x20 DUP2 ADD SWAP1 CALLER PUSH1 0x60 SHL DUP3 MSTORE PUSH2 0x2015 PUSH1 0xB4 DUP3 DUP11 DUP11 MLOAD PUSH2 0x1FBE DUP2 DUP14 PUSH1 0x20 PUSH1 0x34 DUP8 ADD SWAP2 ADD PUSH2 0x3E0B JUMP JUMPDEST DUP3 ADD PUSH1 0x24 CALLDATALOAD PUSH1 0x34 DUP3 ADD MSTORE DUP11 MLOAD SWAP1 PUSH2 0x1FDD DUP3 DUP14 PUSH1 0x20 PUSH1 0x54 DUP6 ADD SWAP2 ADD PUSH2 0x3E0B JUMP JUMPDEST ADD PUSH2 0x1FF2 DUP3 MLOAD DUP1 SWAP4 PUSH1 0x20 PUSH1 0x54 DUP6 ADD SWAP2 ADD PUSH2 0x3E0B JUMP JUMPDEST ADD PUSH1 0x84 CALLDATALOAD PUSH1 0x54 DUP3 ADD MSTORE DUP9 PUSH1 0x74 DUP3 ADD MSTORE TIMESTAMP PUSH1 0x94 DUP3 ADD MSTORE SUB PUSH1 0x94 DUP2 ADD DUP5 MSTORE ADD DUP3 PUSH2 0x3C7C JUMP JUMPDEST MLOAD SWAP1 KECCAK256 SWAP3 DUP4 PUSH1 0x0 MSTORE PUSH1 0x2 PUSH1 0x20 MSTORE PUSH1 0x6 PUSH1 0x40 PUSH1 0x0 KECCAK256 ADD SLOAD PUSH2 0x2CB7 JUMPI CALLER PUSH1 0x0 MSTORE PUSH1 0x8 PUSH1 0x20 MSTORE PUSH1 0x40 PUSH1 0x0 KECCAK256 SLOAD SWAP1 PUSH2 0x2047 PUSH2 0x410E JUMP JUMPDEST SWAP1 PUSH1 0x40 MLOAD DUP7 PUSH1 0x20 DUP3 ADD MSTORE DUP2 PUSH1 0x40 DUP3 ADD MSTORE DUP5 PUSH1 0x60 DUP3 ADD MSTORE DUP6 PUSH1 0x80 DUP3 ADD MSTORE PUSH1 0x80 DUP2 MSTORE PUSH2 0x2070 DUP2 PUSH2 0x3C61 JUMP JUMPDEST PUSH1 0x20 DUP2 MLOAD SWAP2 ADD KECCAK256 SWAP1 PUSH1 0x1E SLOAD SWAP3 PUSH1 0x40 MLOAD SWAP5 PUSH2 0x2089 DUP7 PUSH2 0x3C29 JUMP JUMPDEST CALLER DUP7 MSTORE DUP11 PUSH1 0x20 DUP8 ADD MSTORE PUSH1 0x24 CALLDATALOAD PUSH1 0x40 DUP8 ADD MSTORE DUP10 PUSH1 0x60 DUP8 ADD MSTORE DUP12 PUSH1 0x80 DUP8 ADD MSTORE PUSH1 0x84 CALLDATALOAD PUSH1 0xA0 DUP8 ADD MSTORE TIMESTAMP PUSH1 0xC0 DUP8 ADD MSTORE PUSH1 0x0 PUSH1 0xE0 DUP8 ADD MSTORE PUSH1 0x0 PUSH2 0x100 DUP8 ADD MSTORE PUSH2 0x120 DUP7 ADD MSTORE PUSH2 0x140 DUP6 ADD MSTORE PUSH2 0x160 DUP5 ADD MSTORE DUP4 PUSH2 0x180 DUP5 ADD MSTORE DUP5 PUSH2 0x1A0 DUP5 ADD MSTORE PUSH1 0x0 PUSH2 0x1C0 DUP5 ADD MSTORE PUSH1 0x0 PUSH2 0x1E0 DUP5 ADD MSTORE PUSH2 0x200 DUP4 ADD MSTORE PUSH1 0x0 PUSH2 0x220 DUP4 ADD MSTORE PUSH2 0x240 DUP3 ADD MSTORE PUSH1 0x0 PUSH2 0x260 DUP3 ADD MSTORE PUSH1 0x0 PUSH2 0x280 DUP3 ADD MSTORE DUP4 PUSH1 0x0 MSTORE PUSH1 0x2 PUSH1 0x20 MSTORE PUSH1 0x40 PUSH1 0x0 KECCAK256 SWAP1 PUSH1 0x1 DUP1 PUSH1 0xA0 SHL SUB DUP2 MLOAD AND PUSH1 0x1 PUSH1 0x1 PUSH1 0x60 SHL SUB PUSH1 0xA0 SHL DUP4 SLOAD AND OR DUP3 SSTORE PUSH1 0x20 DUP2 ADD MLOAD DUP1 MLOAD SWAP1 PUSH1 0x1 PUSH1 0x1 PUSH1 0x40 SHL SUB DUP3 GT PUSH2 0xDA1 JUMPI DUP2 SWAP1 PUSH2 0x2166 PUSH1 0x1 DUP7 ADD SLOAD PUSH2 0x3D2B JUMP JUMPDEST PUSH1 0x1F DUP2 GT PUSH2 0x2C82 JUMPI JUMPDEST POP PUSH1 0x20 SWAP1 PUSH1 0x1F DUP4 GT PUSH1 0x1 EQ PUSH2 0x2C10 JUMPI PUSH1 0x0 SWAP3 PUSH2 0x2C05 JUMPI JUMPDEST POP POP DUP2 PUSH1 0x1 SHL SWAP2 PUSH1 0x0 NOT SWAP1 PUSH1 0x3 SHL SHR NOT AND OR PUSH1 0x1 DUP4 ADD SSTORE JUMPDEST PUSH1 0x40 DUP2 ADD MLOAD PUSH1 0x2 DUP4 ADD SSTORE PUSH1 0x60 DUP2 ADD MLOAD DUP1 MLOAD SWAP1 PUSH1 0x1 PUSH1 0x1 PUSH1 0x40 SHL SUB DUP3 GT PUSH2 0xDA1 JUMPI DUP2 SWAP1 PUSH2 0x21CD PUSH1 0x3 DUP7 ADD SLOAD PUSH2 0x3D2B JUMP JUMPDEST PUSH1 0x1F DUP2 GT PUSH2 0x2BD0 JUMPI JUMPDEST POP PUSH1 0x20 SWAP1 PUSH1 0x1F DUP4 GT PUSH1 0x1 EQ PUSH2 0x2B5E JUMPI PUSH1 0x0 SWAP3 PUSH2 0x2B53 JUMPI JUMPDEST POP POP DUP2 PUSH1 0x1 SHL SWAP2 PUSH1 0x0 NOT SWAP1 PUSH1 0x3 SHL SHR NOT AND OR PUSH1 0x3 DUP4 ADD SSTORE JUMPDEST PUSH1 0x80 DUP2 ADD MLOAD DUP1 MLOAD SWAP1 PUSH1 0x1 PUSH1 0x1 PUSH1 0x40 SHL SUB DUP3 GT PUSH2 0xDA1 JUMPI PUSH2 0x2228 PUSH1 0x4 DUP6 ADD SLOAD PUSH2 0x3D2B JUMP JUMPDEST PUSH1 0x1F DUP2 GT PUSH2 0x2B1E JUMPI JUMPDEST POP PUSH1 0x20 SWAP1 PUSH1 0x1F DUP4 GT PUSH1 0x1 EQ PUSH2 0x2AA8 JUMPI SWAP2 DUP1 PUSH1 0x14 SWAP5 SWAP3 PUSH2 0x280 SWAP5 PUSH1 0x0 SWAP3 PUSH2 0x2A9D JUMPI JUMPDEST POP POP DUP2 PUSH1 0x1 SHL SWAP2 PUSH1 0x0 NOT SWAP1 PUSH1 0x3 SHL SHR NOT AND OR PUSH1 0x4 DUP6 ADD SSTORE JUMPDEST PUSH1 0xA0 DUP2 ADD MLOAD PUSH1 0x5 DUP6 ADD SSTORE PUSH1 0xC0 DUP2 ADD MLOAD PUSH1 0x6 DUP6 ADD SSTORE PUSH1 0xE0 DUP2 ADD MLOAD PUSH1 0x7 DUP6 ADD SSTORE PUSH2 0x22A8 PUSH2 0x100 DUP3 ADD MLOAD ISZERO ISZERO PUSH1 0x8 DUP7 ADD SWAP1 PUSH1 0xFF DUP1 NOT DUP4 SLOAD AND SWAP2 ISZERO ISZERO AND OR SWAP1 SSTORE JUMP JUMPDEST PUSH2 0x120 DUP2 ADD MLOAD PUSH1 0x9 DUP6 ADD SSTORE PUSH2 0x140 DUP2 ADD MLOAD PUSH1 0xA DUP6 ADD SSTORE PUSH2 0x160 DUP2 ADD MLOAD PUSH1 0xB DUP6 ADD SSTORE PUSH2 0x180 DUP2 ADD MLOAD PUSH1 0xC DUP6 ADD SSTORE PUSH2 0x1A0 DUP2 ADD MLOAD PUSH1 0xD DUP6 ADD SSTORE PUSH2 0x1C0 DUP2 ADD MLOAD PUSH1 0xE DUP6 ADD SSTORE PUSH2 0x1E0 DUP2 ADD MLOAD PUSH1 0xF DUP6 ADD SSTORE PUSH2 0x200 DUP2 ADD MLOAD PUSH1 0x10 DUP6 ADD SSTORE PUSH2 0x220 DUP2 ADD MLOAD PUSH1 0x11 DUP6 ADD SSTORE PUSH2 0x240 DUP2 ADD MLOAD PUSH1 0x12 DUP6 ADD SSTORE PUSH2 0x2336 PUSH2 0x260 DUP3 ADD MLOAD ISZERO ISZERO PUSH1 0x13 DUP7 ADD SWAP1 PUSH1 0xFF DUP1 NOT DUP4 SLOAD AND SWAP2 ISZERO ISZERO AND OR SWAP1 SSTORE JUMP JUMPDEST ADD MLOAD SWAP2 ADD SSTORE PUSH1 0x18 SLOAD SWAP4 PUSH1 0x40 MLOAD PUSH1 0x20 DUP2 ADD SWAP1 DUP6 DUP3 MSTORE PUSH32 0x61646170746976655F76616C69646174696F6E5F7461736B0000000000000000 PUSH1 0x40 DUP3 ADD MSTORE DUP7 PUSH1 0x58 DUP3 ADD MSTORE TIMESTAMP PUSH1 0x78 DUP3 ADD MSTORE PUSH1 0x78 DUP2 MSTORE PUSH2 0x2389 DUP2 PUSH2 0x3C61 JUMP JUMPDEST MLOAD SWAP1 KECCAK256 SWAP7 PUSH1 0x1D SLOAD SWAP6 PUSH2 0x239A DUP8 PUSH2 0x42B3 JUMP JUMPDEST SWAP7 PUSH2 0x23A8 PUSH1 0x40 MLOAD SWAP9 DUP10 PUSH2 0x3C7C JUMP JUMPDEST DUP1 DUP9 MSTORE PUSH2 0x23B7 PUSH1 0x1F NOT SWAP2 PUSH2 0x42B3 JUMP JUMPDEST ADD CALLDATASIZE PUSH1 0x20 DUP10 ADD CALLDATACOPY PUSH1 0x1E SLOAD DUP8 MLOAD SWAP3 PUSH1 0x40 MLOAD SWAP5 DUP6 PUSH2 0x260 DUP2 ADD LT PUSH1 0x1 PUSH1 0x1 PUSH1 0x40 SHL SUB PUSH2 0x260 DUP9 ADD GT OR PUSH2 0xDA1 JUMPI PUSH2 0x260 DUP7 ADD PUSH1 0x40 MSTORE DUP9 DUP7 MSTORE CALLER PUSH1 0x20 DUP8 ADD MSTORE DUP11 PUSH1 0x40 DUP8 ADD MSTORE PUSH1 0x24 CALLDATALOAD PUSH1 0x60 DUP8 ADD MSTORE PUSH1 0x80 DUP7 ADD MSTORE PUSH1 0xA0 DUP6 ADD MSTORE PUSH1 0x84 CALLDATALOAD PUSH1 0xC0 DUP6 ADD MSTORE TIMESTAMP PUSH1 0xE0 DUP6 ADD MSTORE PUSH1 0x0 PUSH2 0x100 DUP6 ADD MSTORE DUP8 PUSH2 0x120 DUP6 ADD MSTORE PUSH2 0x140 DUP5 ADD MSTORE PUSH1 0x0 PUSH2 0x160 DUP5 ADD MSTORE PUSH1 0x0 PUSH2 0x180 DUP5 ADD MSTORE PUSH1 0x0 PUSH2 0x1A0 DUP5 ADD MSTORE PUSH2 0x1C0 DUP4 ADD MSTORE DUP3 PUSH2 0x1E0 DUP4 ADD MSTORE DUP4 PUSH2 0x200 DUP4 ADD MSTORE PUSH1 0x0 PUSH2 0x220 DUP4 ADD MSTORE PUSH2 0x240 DUP3 ADD MSTORE DUP7 PUSH1 0x0 MSTORE PUSH1 0x3 PUSH1 0x20 MSTORE PUSH1 0x40 PUSH1 0x0 KECCAK256 SWAP1 DUP1 MLOAD DUP3 SSTORE PUSH1 0x1 DUP3 ADD PUSH1 0x1 DUP1 PUSH1 0xA0 SHL SUB PUSH1 0x20 DUP4 ADD MLOAD AND PUSH1 0x1 PUSH1 0x1 PUSH1 0x60 SHL SUB PUSH1 0xA0 SHL DUP3 SLOAD AND OR SWAP1 SSTORE PUSH1 0x40 DUP2 ADD MLOAD DUP1 MLOAD SWAP1 PUSH1 0x1 PUSH1 0x1 PUSH1 0x40 SHL SUB DUP3 GT PUSH2 0xDA1 JUMPI DUP2 SWAP1 PUSH2 0x24C2 PUSH1 0x2 DUP7 ADD SLOAD PUSH2 0x3D2B JUMP JUMPDEST PUSH1 0x1F DUP2 GT PUSH2 0x2A68 JUMPI JUMPDEST POP PUSH1 0x20 SWAP1 PUSH1 0x1F DUP4 GT PUSH1 0x1 EQ PUSH2 0x29F6 JUMPI PUSH1 0x0 SWAP3 PUSH2 0x29EB JUMPI JUMPDEST POP POP DUP2 PUSH1 0x1 SHL SWAP2 PUSH1 0x0 NOT SWAP1 PUSH1 0x3 SHL SHR NOT AND OR PUSH1 0x2 DUP4 ADD SSTORE JUMPDEST PUSH1 0x60 DUP2 ADD MLOAD PUSH1 0x3 DUP4 ADD SSTORE PUSH1 0x80 DUP2 ADD MLOAD DUP1 MLOAD SWAP1 PUSH1 0x1 PUSH1 0x1 PUSH1 0x40 SHL SUB DUP3 GT PUSH2 0xDA1 JUMPI DUP2 SWAP1 PUSH2 0x2529 PUSH1 0x4 DUP7 ADD SLOAD PUSH2 0x3D2B JUMP JUMPDEST PUSH1 0x1F DUP2 GT PUSH2 0x29B6 JUMPI JUMPDEST POP PUSH1 0x20 SWAP1 PUSH1 0x1F DUP4 GT PUSH1 0x1 EQ PUSH2 0x2944 JUMPI PUSH1 0x0 SWAP3 PUSH2 0x2939 JUMPI JUMPDEST POP POP DUP2 PUSH1 0x1 SHL SWAP2 PUSH1 0x0 NOT SWAP1 PUSH1 0x3 SHL SHR NOT AND OR PUSH1 0x4 DUP4 ADD SSTORE JUMPDEST PUSH1 0xA0 DUP2 ADD MLOAD DUP1 MLOAD SWAP1 PUSH1 0x1 PUSH1 0x1 PUSH1 0x40 SHL SUB DUP3 GT PUSH2 0xDA1 JUMPI DUP2 SWAP1 PUSH2 0x2586 PUSH1 0x5 DUP7 ADD SLOAD PUSH2 0x3D2B JUMP JUMPDEST PUSH1 0x1F DUP2 GT PUSH2 0x2904 JUMPI JUMPDEST POP PUSH1 0x20 SWAP1 PUSH1 0x1F DUP4 GT PUSH1 0x1 EQ PUSH2 0x2892 JUMPI PUSH1 0x0 SWAP3 PUSH2 0x2887 JUMPI JUMPDEST POP POP DUP2 PUSH1 0x1 SHL SWAP2 PUSH1 0x0 NOT SWAP1 PUSH1 0x3 SHL SHR NOT AND OR PUSH1 0x5 DUP4 ADD SSTORE JUMPDEST PUSH1 0xC0 DUP2 ADD MLOAD PUSH1 0x6 DUP4 ADD SSTORE PUSH1 0xE0 DUP2 ADD MLOAD PUSH1 0x7 DUP4 ADD SSTORE PUSH2 0x25F2 PUSH2 0x100 DUP3 ADD MLOAD ISZERO ISZERO PUSH1 0x8 DUP5 ADD SWAP1 PUSH1 0xFF DUP1 NOT DUP4 SLOAD AND SWAP2 ISZERO ISZERO AND OR SWAP1 SSTORE JUMP JUMPDEST PUSH2 0x120 DUP2 ADD MLOAD DUP1 MLOAD SWAP1 PUSH1 0x1 PUSH1 0x1 PUSH1 0x40 SHL SUB DUP3 GT PUSH2 0xDA1 JUMPI PUSH1 0x1 PUSH1 0x40 SHL DUP3 GT PUSH2 0xDA1 JUMPI PUSH1 0x20 SWAP1 PUSH1 0x9 DUP6 ADD SLOAD DUP4 PUSH1 0x9 DUP8 ADD SSTORE DUP1 DUP5 LT PUSH2 0x2867 JUMPI JUMPDEST POP ADD PUSH1 0x9 DUP5 ADD PUSH1 0x0 MSTORE PUSH1 0x20 PUSH1 0x0 KECCAK256 PUSH1 0x0 JUMPDEST DUP4 DUP2 LT PUSH2 0x284A JUMPI POP POP POP POP PUSH2 0x240 DUP2 PUSH2 0x140 PUSH1 0x12 SWAP4 ADD MLOAD PUSH1 0xA DUP6 ADD SSTORE PUSH2 0x160 DUP2 ADD MLOAD PUSH1 0xB DUP6 ADD SSTORE PUSH2 0x180 DUP2 ADD MLOAD PUSH1 0xC DUP6 ADD SSTORE PUSH2 0x268D PUSH2 0x1A0 DUP3 ADD MLOAD ISZERO ISZERO PUSH1 0xD DUP7 ADD SWAP1 PUSH1 0xFF DUP1 NOT DUP4 SLOAD AND SWAP2 ISZERO ISZERO AND OR SWAP1 SSTORE JUMP JUMPDEST PUSH2 0x1C0 DUP2 ADD MLOAD PUSH1 0xE DUP6 ADD SSTORE PUSH2 0x1E0 DUP2 ADD MLOAD PUSH1 0xF DUP6 ADD SSTORE PUSH2 0x200 DUP2 ADD MLOAD PUSH1 0x10 DUP6 ADD SSTORE PUSH2 0x220 DUP2 ADD MLOAD PUSH1 0x11 DUP6 ADD SSTORE ADD MLOAD SWAP2 ADD SSTORE PUSH1 0x0 JUMPDEST DUP5 MLOAD DUP2 LT ISZERO PUSH2 0x272B JUMPI PUSH1 0x1 DUP1 PUSH1 0xA0 SHL SUB PUSH1 0x20 DUP3 PUSH1 0x5 SHL DUP8 ADD ADD MLOAD AND PUSH1 0x0 MSTORE PUSH1 0xA PUSH1 0x20 MSTORE PUSH1 0x40 PUSH1 0x0 KECCAK256 SWAP1 DUP2 SLOAD SWAP2 PUSH1 0x1 PUSH1 0x40 SHL DUP4 LT ISZERO PUSH2 0xDA1 JUMPI DUP3 PUSH2 0x270C SWAP2 PUSH1 0x1 PUSH2 0x2726 SWAP6 ADD DUP2 SSTORE PUSH2 0x3E53 JUMP JUMPDEST DUP2 SLOAD SWAP1 PUSH1 0x3 SHL SWAP1 DUP11 DUP3 SHL SWAP2 PUSH1 0x0 NOT SWAP1 SHL NOT AND OR SWAP1 SSTORE PUSH2 0x3EC9 JUMP JUMPDEST PUSH2 0x26C1 JUMP JUMPDEST POP DUP6 SWAP4 SWAP5 PUSH2 0x273A PUSH1 0x12 SLOAD PUSH2 0x3EC9 JUMP JUMPDEST PUSH1 0x12 SSTORE CALLER PUSH1 0x0 MSTORE PUSH1 0x8 PUSH1 0x20 MSTORE DUP4 PUSH32 0xC2EF7412E931822822703EC6E749AC21563F4DF6B27E86DCE03DED675051EA37 PUSH1 0x40 PUSH1 0x0 KECCAK256 SLOAD SWAP3 PUSH2 0x2777 PUSH2 0x410E JUMP JUMPDEST SWAP6 PUSH1 0x18 SLOAD SWAP7 PUSH2 0x2793 PUSH1 0x40 MLOAD SWAP4 PUSH2 0x100 DUP6 MSTORE PUSH2 0x100 DUP6 ADD SWAP1 PUSH2 0x3E2E JUMP JUMPDEST SWAP6 PUSH1 0x24 CALLDATALOAD PUSH1 0x20 DUP6 ADD MSTORE PUSH1 0x0 PUSH1 0x40 DUP6 ADD MSTORE PUSH1 0x60 DUP5 ADD MSTORE PUSH1 0x80 DUP4 ADD MSTORE DUP7 PUSH1 0xA0 DUP4 ADD MSTORE DUP6 PUSH1 0xC0 DUP4 ADD MSTORE PUSH1 0xE0 DUP3 ADD MSTORE DUP1 CALLER SWAP5 SUB SWAP1 LOG3 PUSH1 0x1E SLOAD SWAP2 PUSH1 0x40 MLOAD SWAP3 PUSH1 0x80 DUP5 ADD PUSH1 0x80 DUP6 MSTORE DUP8 MLOAD DUP1 SWAP2 MSTORE PUSH1 0x20 PUSH1 0xA0 DUP7 ADD SWAP9 ADD SWAP1 PUSH1 0x0 JUMPDEST DUP2 DUP2 LT PUSH2 0x282B JUMPI POP POP POP PUSH1 0x20 DUP5 ADD MSTORE PUSH1 0x40 DUP4 ADD MSTORE PUSH1 0x60 DUP3 ADD MSTORE PUSH32 0xF9B64BC4F55726D3AC9E187B1CD7E1A490973454418F085ACBED3DFFACC75BC8 SWAP1 DUP1 DUP6 SUB SWAP1 LOG3 PUSH1 0x1 DUP1 SSTORE STOP JUMPDEST DUP3 MLOAD PUSH1 0x1 PUSH1 0x1 PUSH1 0xA0 SHL SUB AND DUP11 MSTORE PUSH1 0x20 SWAP10 DUP11 ADD SWAP10 SWAP1 SWAP3 ADD SWAP2 PUSH1 0x1 ADD PUSH2 0x27E5 JUMP JUMPDEST DUP3 MLOAD PUSH1 0x1 PUSH1 0x1 PUSH1 0xA0 SHL SUB AND DUP2 DUP4 ADD SSTORE PUSH1 0x20 SWAP1 SWAP3 ADD SWAP2 PUSH1 0x1 ADD PUSH2 0x263B JUMP JUMPDEST PUSH2 0x2881 SWAP1 PUSH1 0x9 DUP8 ADD PUSH1 0x0 MSTORE DUP5 DUP5 PUSH1 0x0 KECCAK256 SWAP2 DUP3 ADD SWAP2 ADD PUSH2 0x3ED8 JUMP JUMPDEST DUP12 PUSH2 0x262A JUMP JUMPDEST ADD MLOAD SWAP1 POP DUP11 DUP1 PUSH2 0x25A6 JUMP JUMPDEST SWAP3 POP PUSH1 0x5 DUP6 ADD PUSH1 0x0 MSTORE PUSH1 0x20 PUSH1 0x0 KECCAK256 SWAP1 PUSH1 0x0 SWAP4 JUMPDEST PUSH1 0x1F NOT DUP5 AND DUP6 LT PUSH2 0x28E9 JUMPI PUSH1 0x1 SWAP5 POP DUP4 PUSH1 0x1F NOT DUP2 AND LT PUSH2 0x28D0 JUMPI JUMPDEST POP POP POP DUP2 SHL ADD PUSH1 0x5 DUP4 ADD SSTORE PUSH2 0x25BE JUMP JUMPDEST ADD MLOAD PUSH1 0x0 NOT PUSH1 0xF8 DUP5 PUSH1 0x3 SHL AND SHR NOT AND SWAP1 SSTORE DUP11 DUP1 DUP1 PUSH2 0x28C0 JUMP JUMPDEST DUP2 DUP2 ADD MLOAD DUP4 SSTORE PUSH1 0x20 SWAP5 DUP6 ADD SWAP5 PUSH1 0x1 SWAP1 SWAP4 ADD SWAP3 SWAP1 SWAP2 ADD SWAP1 PUSH2 0x28A5 JUMP JUMPDEST PUSH2 0x2933 SWAP1 PUSH1 0x5 DUP8 ADD PUSH1 0x0 MSTORE PUSH1 0x20 PUSH1 0x0 KECCAK256 PUSH1 0x1F DUP6 ADD PUSH1 0x5 SHR DUP2 ADD SWAP2 PUSH1 0x20 DUP7 LT PUSH2 0xD97 JUMPI PUSH1 0x1F ADD PUSH1 0x5 SHR ADD SWAP1 PUSH2 0x3ED8 JUMP JUMPDEST DUP12 PUSH2 0x258F JUMP JUMPDEST ADD MLOAD SWAP1 POP DUP11 DUP1 PUSH2 0x2549 JUMP JUMPDEST SWAP3 POP PUSH1 0x4 DUP6 ADD PUSH1 0x0 MSTORE PUSH1 0x20 PUSH1 0x0 KECCAK256 SWAP1 PUSH1 0x0 SWAP4 JUMPDEST PUSH1 0x1F NOT DUP5 AND DUP6 LT PUSH2 0x299B JUMPI PUSH1 0x1 SWAP5 POP DUP4 PUSH1 0x1F NOT DUP2 AND LT PUSH2 0x2982 JUMPI JUMPDEST POP POP POP DUP2 SHL ADD PUSH1 0x4 DUP4 ADD SSTORE PUSH2 0x2561 JUMP JUMPDEST ADD MLOAD PUSH1 0x0 NOT PUSH1 0xF8 DUP5 PUSH1 0x3 SHL AND SHR NOT AND SWAP1 SSTORE DUP11 DUP1 DUP1 PUSH2 0x2972 JUMP JUMPDEST DUP2 DUP2 ADD MLOAD DUP4 SSTORE PUSH1 0x20 SWAP5 DUP6 ADD SWAP5 PUSH1 0x1 SWAP1 SWAP4 ADD SWAP3 SWAP1 SWAP2 ADD SWAP1 PUSH2 0x2957 JUMP JUMPDEST PUSH2 0x29E5 SWAP1 PUSH1 0x4 DUP8 ADD PUSH1 0x0 MSTORE PUSH1 0x20 PUSH1 0x0 KECCAK256 PUSH1 0x1F DUP6 ADD PUSH1 0x5 SHR DUP2 ADD SWAP2 PUSH1 0x20 DUP7 LT PUSH2 0xD97 JUMPI PUSH1 0x1F ADD PUSH1 0x5 SHR ADD SWAP1 PUSH2 0x3ED8 JUMP JUMPDEST DUP12 PUSH2 0x2532 JUMP JUMPDEST ADD MLOAD SWAP1 POP DUP11 DUP1 PUSH2 0x24E2 JUMP JUMPDEST SWAP3 POP PUSH1 0x2 DUP6 ADD PUSH1 0x0 MSTORE PUSH1 0x20 PUSH1 0x0 KECCAK256 SWAP1 PUSH1 0x0 SWAP4 JUMPDEST PUSH1 0x1F NOT DUP5 AND DUP6 LT PUSH2 0x2A4D JUMPI PUSH1 0x1 SWAP5 POP DUP4 PUSH1 0x1F NOT DUP2 AND LT PUSH2 0x2A34 JUMPI JUMPDEST POP POP POP DUP2 SHL ADD PUSH1 0x2 DUP4 ADD SSTORE PUSH2 0x24FA JUMP JUMPDEST ADD MLOAD PUSH1 0x0 NOT PUSH1 0xF8 DUP5 PUSH1 0x3 SHL AND SHR NOT AND SWAP1 SSTORE DUP11 DUP1 DUP1 PUSH2 0x2A24 JUMP JUMPDEST DUP2 DUP2 ADD MLOAD DUP4 SSTORE PUSH1 0x20 SWAP5 DUP6 ADD SWAP5 PUSH1 0x1 SWAP1 SWAP4 ADD SWAP3 SWAP1 SWAP2 ADD SWAP1 PUSH2 0x2A09 JUMP JUMPDEST PUSH2 0x2A97 SWAP1 PUSH1 0x2 DUP8 ADD PUSH1 0x0 MSTORE PUSH1 0x20 PUSH1 0x0 KECCAK256 PUSH1 0x1F DUP6 ADD PUSH1 0x5 SHR DUP2 ADD SWAP2 PUSH1 0x20 DUP7 LT PUSH2 0xD97 JUMPI PUSH1 0x1F ADD PUSH1 0x5 SHR ADD SWAP1 PUSH2 0x3ED8 JUMP JUMPDEST DUP12 PUSH2 0x24CB JUMP JUMPDEST ADD MLOAD SWAP1 POP DUP13 DUP1 PUSH2 0x2252 JUMP JUMPDEST SWAP1 PUSH1 0x4 DUP6 ADD PUSH1 0x0 MSTORE PUSH1 0x20 PUSH1 0x0 KECCAK256 SWAP2 PUSH1 0x0 JUMPDEST PUSH1 0x1F NOT DUP6 AND DUP2 LT PUSH2 0x2B06 JUMPI POP SWAP3 PUSH1 0x14 SWAP5 SWAP3 PUSH1 0x1 SWAP3 PUSH2 0x280 SWAP6 DUP4 PUSH1 0x1F NOT DUP2 AND LT PUSH2 0x2AED JUMPI JUMPDEST POP POP POP DUP2 SHL ADD PUSH1 0x4 DUP6 ADD SSTORE PUSH2 0x226A JUMP JUMPDEST ADD MLOAD PUSH1 0x0 NOT PUSH1 0xF8 DUP5 PUSH1 0x3 SHL AND SHR NOT AND SWAP1 SSTORE DUP13 DUP1 DUP1 PUSH2 0x2ADD JUMP JUMPDEST SWAP2 SWAP3 PUSH1 0x20 PUSH1 0x1 DUP2 SWAP3 DUP7 DUP6 ADD MLOAD DUP2 SSTORE ADD SWAP5 ADD SWAP3 ADD PUSH2 0x2AB9 JUMP JUMPDEST PUSH2 0x2B4D SWAP1 PUSH1 0x4 DUP7 ADD PUSH1 0x0 MSTORE PUSH1 0x20 PUSH1 0x0 KECCAK256 PUSH1 0x1F DUP6 ADD PUSH1 0x5 SHR DUP2 ADD SWAP2 PUSH1 0x20 DUP7 LT PUSH2 0xD97 JUMPI PUSH1 0x1F ADD PUSH1 0x5 SHR ADD SWAP1 PUSH2 0x3ED8 JUMP JUMPDEST DUP11 PUSH2 0x2231 JUMP JUMPDEST ADD MLOAD SWAP1 POP DUP11 DUP1 PUSH2 0x21ED JUMP JUMPDEST SWAP3 POP PUSH1 0x3 DUP6 ADD PUSH1 0x0 MSTORE PUSH1 0x20 PUSH1 0x0 KECCAK256 SWAP1 PUSH1 0x0 SWAP4 JUMPDEST PUSH1 0x1F NOT DUP5 AND DUP6 LT PUSH2 0x2BB5 JUMPI PUSH1 0x1 SWAP5 POP DUP4 PUSH1 0x1F NOT DUP2 AND LT PUSH2 0x2B9C JUMPI JUMPDEST POP POP POP DUP2 SHL ADD PUSH1 0x3 DUP4 ADD SSTORE PUSH2 0x2205 JUMP JUMPDEST ADD MLOAD PUSH1 0x0 NOT PUSH1 0xF8 DUP5 PUSH1 0x3 SHL AND SHR NOT AND SWAP1 SSTORE DUP11 DUP1 DUP1 PUSH2 0x2B8C JUMP JUMPDEST DUP2 DUP2 ADD MLOAD DUP4 SSTORE PUSH1 0x20 SWAP5 DUP6 ADD SWAP5 PUSH1 0x1 SWAP1 SWAP4 ADD SWAP3 SWAP1 SWAP2 ADD SWAP1 PUSH2 0x2B71 JUMP JUMPDEST PUSH2 0x2BFF SWAP1 PUSH1 0x3 DUP8 ADD PUSH1 0x0 MSTORE PUSH1 0x20 PUSH1 0x0 KECCAK256 PUSH1 0x1F DUP6 ADD PUSH1 0x5 SHR DUP2 ADD SWAP2 PUSH1 0x20 DUP7 LT PUSH2 0xD97 JUMPI PUSH1 0x1F ADD PUSH1 0x5 SHR ADD SWAP1 PUSH2 0x3ED8 JUMP JUMPDEST DUP12 PUSH2 0x21D6 JUMP JUMPDEST ADD MLOAD SWAP1 POP DUP11 DUP1 PUSH2 0x2186 JUMP JUMPDEST SWAP3 POP PUSH1 0x1 DUP6 ADD PUSH1 0x0 MSTORE PUSH1 0x20 PUSH1 0x0 KECCAK256 SWAP1 PUSH1 0x0 SWAP4 JUMPDEST PUSH1 0x1F NOT DUP5 AND DUP6 LT PUSH2 0x2C67 JUMPI PUSH1 0x1 SWAP5 POP DUP4 PUSH1 0x1F NOT DUP2 AND LT PUSH2 0x2C4E JUMPI JUMPDEST POP POP POP DUP2 SHL ADD PUSH1 0x1 DUP4 ADD SSTORE PUSH2 0x219E JUMP JUMPDEST ADD MLOAD PUSH1 0x0 NOT PUSH1 0xF8 DUP5 PUSH1 0x3 SHL AND SHR NOT AND SWAP1 SSTORE DUP11 DUP1 DUP1 PUSH2 0x2C3E JUMP JUMPDEST DUP2 DUP2 ADD MLOAD DUP4 SSTORE PUSH1 0x20 SWAP5 DUP6 ADD SWAP5 PUSH1 0x1 SWAP1 SWAP4 ADD SWAP3 SWAP1 SWAP2 ADD SWAP1 PUSH2 0x2C23 JUMP JUMPDEST PUSH2 0x2CB1 SWAP1 PUSH1 0x1 DUP8 ADD PUSH1 0x0 MSTORE PUSH1 0x20 PUSH1 0x0 KECCAK256 PUSH1 0x1F DUP6 ADD PUSH1 0x5 SHR DUP2 ADD SWAP2 PUSH1 0x20 DUP7 LT PUSH2 0xD97 JUMPI PUSH1 0x1F ADD PUSH1 0x5 SHR ADD SWAP1 PUSH2 0x3ED8 JUMP JUMPDEST DUP12 PUSH2 0x216F JUMP JUMPDEST PUSH1 0x40 MLOAD PUSH3 0x461BCD PUSH1 0xE5 SHL DUP2 MSTORE PUSH1 0x20 PUSH1 0x4 DUP3 ADD MSTORE PUSH1 0x18 PUSH1 0x24 DUP3 ADD MSTORE PUSH32 0x446973636F7665727920616C7265616479206578697374730000000000000000 PUSH1 0x44 DUP3 ADD MSTORE PUSH1 0x64 SWAP1 REVERT JUMPDEST PUSH1 0x40 MLOAD PUSH3 0x461BCD PUSH1 0xE5 SHL DUP2 MSTORE PUSH1 0x20 PUSH1 0x4 DUP3 ADD MSTORE PUSH1 0x23 PUSH1 0x24 DUP3 ADD MSTORE PUSH32 0x446966666963756C74792062656C6F7720616461707469766520746872657368 PUSH1 0x44 DUP3 ADD MSTORE PUSH3 0x1BDB19 PUSH1 0xEA SHL PUSH1 0x64 DUP3 ADD MSTORE PUSH1 0x84 SWAP1 REVERT JUMPDEST PUSH1 0x40 MLOAD PUSH3 0x461BCD PUSH1 0xE5 SHL DUP2 MSTORE PUSH1 0x20 PUSH1 0x4 DUP3 ADD MSTORE PUSH1 0x1D PUSH1 0x24 DUP3 ADD MSTORE PUSH32 0x496E73756666696369656E74207175616E74756D207365637572697479000000 PUSH1 0x44 DUP3 ADD MSTORE PUSH1 0x64 SWAP1 REVERT JUMPDEST CALLVALUE PUSH2 0x351 JUMPI PUSH1 0x0 CALLDATASIZE PUSH1 0x3 NOT ADD SLT PUSH2 0x351 JUMPI PUSH1 0x20 PUSH1 0x31 SLOAD PUSH1 0x40 MLOAD SWAP1 DUP2 MSTORE RETURN JUMPDEST CALLVALUE PUSH2 0x351 JUMPI PUSH1 0x0 CALLDATASIZE PUSH1 0x3 NOT ADD SLT PUSH2 0x351 JUMPI PUSH1 0x21 SLOAD PUSH1 0x22 SLOAD PUSH1 0x24 SLOAD PUSH1 0x25 SLOAD PUSH1 0x26 SLOAD PUSH1 0x40 DUP1 MLOAD SWAP6 DUP7 MSTORE PUSH1 0x20 DUP7 ADD SWAP5 SWAP1 SWAP5 MSTORE SWAP3 DUP5 ADD SWAP2 SWAP1 SWAP2 MSTORE PUSH1 0x60 DUP4 ADD MSTORE PUSH1 0x80 DUP3 ADD MSTORE PUSH1 0xA0 SWAP1 RETURN JUMPDEST CALLVALUE PUSH2 0x351 JUMPI PUSH1 0x0 CALLDATASIZE PUSH1 0x3 NOT ADD SLT PUSH2 0x351 JUMPI PUSH1 0x60 PUSH1 0x32 SLOAD PUSH1 0x33 SLOAD PUSH1 0x34 SLOAD SWAP1 PUSH1 0x40 MLOAD SWAP3 DUP4 MSTORE PUSH1 0x20 DUP4 ADD MSTORE PUSH1 0x40 DUP3 ADD MSTORE RETURN JUMPDEST CALLVALUE PUSH2 0x351 JUMPI PUSH1 0x0 CALLDATASIZE PUSH1 0x3 NOT ADD SLT PUSH2 0x351 JUMPI PUSH1 0x20 PUSH1 0x16 SLOAD PUSH1 0x40 MLOAD SWAP1 DUP2 MSTORE RETURN JUMPDEST CALLVALUE PUSH2 0x351 JUMPI PUSH1 0x80 CALLDATASIZE PUSH1 0x3 NOT ADD SLT PUSH2 0x351 JUMPI PUSH1 0x4 CALLDATALOAD PUSH1 0x1 PUSH1 0x1 PUSH1 0x40 SHL SUB DUP2 GT PUSH2 0x351 JUMPI PUSH2 0x2E72 SWAP1 CALLDATASIZE SWAP1 PUSH1 0x4 ADD PUSH2 0x3CB8 JUMP JUMPDEST PUSH1 0x64 CALLDATALOAD DUP1 ISZERO ISZERO DUP2 SUB PUSH2 0x351 JUMPI PUSH2 0x2E89 PUSH1 0x18 SLOAD PUSH2 0x3EC9 JUMP JUMPDEST SWAP1 DUP2 PUSH1 0x18 SSTORE PUSH2 0x2E96 PUSH2 0x3F53 JUMP JUMPDEST SWAP1 PUSH2 0x2E9F PUSH2 0x4035 JUMP JUMPDEST SWAP1 PUSH2 0x2EA8 PUSH2 0x410E JUMP JUMPDEST SWAP4 PUSH1 0x40 MLOAD PUSH1 0x20 DUP2 ADD SWAP1 DUP3 DUP3 MSTORE TIMESTAMP PUSH1 0x40 DUP3 ADD MSTORE CALLER PUSH1 0x60 SHL PUSH1 0x60 DUP3 ADD MSTORE PUSH1 0x54 DUP2 MSTORE PUSH1 0x80 DUP2 ADD DUP2 DUP2 LT PUSH1 0x1 PUSH1 0x1 PUSH1 0x40 SHL SUB DUP3 GT OR PUSH2 0xDA1 JUMPI PUSH1 0x40 MSTORE MLOAD SWAP1 KECCAK256 SWAP1 PUSH2 0x2EF2 PUSH1 0x24 CALLDATALOAD PUSH1 0x15 SLOAD PUSH2 0x3F40 JUMP JUMPDEST PUSH2 0x2F00 PUSH1 0x17 SLOAD PUSH1 0x44 CALLDATALOAD PUSH2 0x3F09 JUMP JUMPDEST DUP1 PUSH1 0xA DUP2 MUL DIV PUSH1 0xA EQ DUP2 ISZERO OR ISZERO PUSH2 0x34D1 JUMPI PUSH2 0x3E8 DUP8 DIV DUP1 PUSH1 0x5 DUP2 MUL DIV PUSH1 0x5 EQ DUP2 ISZERO OR ISZERO PUSH2 0x34D1 JUMPI PUSH2 0x2F41 SWAP3 PUSH1 0xA PUSH1 0x5 PUSH2 0x2F3C SWAP4 MUL SWAP4 MUL SWAP1 PUSH2 0x3EFC JUMP JUMPDEST PUSH2 0x3EFC JUMP JUMPDEST PUSH1 0x32 SLOAD PUSH1 0x33 SLOAD SWAP2 PUSH1 0x40 MLOAD SWAP5 DUP6 PUSH2 0x220 DUP2 ADD LT PUSH1 0x1 PUSH1 0x1 PUSH1 0x40 SHL SUB PUSH2 0x220 DUP9 ADD GT OR PUSH2 0xDA1 JUMPI PUSH2 0x220 DUP7 ADD PUSH1 0x40 MSTORE DUP5 DUP7 MSTORE TIMESTAMP PUSH1 0x20 DUP8 ADD MSTORE PUSH1 0x40 DUP7 ADD MSTORE CALLER PUSH1 0x60 DUP7 ADD MSTORE DUP10 PUSH1 0x80 DUP7 ADD MSTORE PUSH1 0x24 CALLDATALOAD PUSH1 0xA0 DUP7 ADD MSTORE PUSH1 0x44 CALLDATALOAD PUSH1 0xC0 DUP7 ADD MSTORE DUP8 PUSH1 0xE0 DUP7 ADD MSTORE DUP7 PUSH2 0x100 DUP7 ADD MSTORE DUP9 PUSH2 0x120 DUP7 ADD MSTORE DUP6 ISZERO ISZERO PUSH2 0x140 DUP7 ADD MSTORE PUSH1 0x0 PUSH2 0x160 DUP7 ADD MSTORE PUSH2 0x180 DUP6 ADD MSTORE PUSH2 0x1A0 DUP5 ADD MSTORE PUSH2 0x1C0 DUP4 ADD MSTORE PUSH1 0x0 PUSH2 0x1E0 DUP4 ADD MSTORE PUSH1 0x0 PUSH2 0x200 DUP4 ADD MSTORE PUSH1 0x0 MSTORE PUSH1 0xB PUSH1 0x20 MSTORE PUSH1 0x40 PUSH1 0x0 KECCAK256 DUP2 MLOAD DUP2 SSTORE PUSH1 0x20 DUP3 ADD MLOAD PUSH1 0x1 DUP3 ADD SSTORE PUSH1 0x40 DUP3 ADD MLOAD PUSH1 0x2 DUP3 ADD SSTORE PUSH1 0x3 DUP2 ADD PUSH1 0x1 DUP1 PUSH1 0xA0 SHL SUB PUSH1 0x60 DUP5 ADD MLOAD AND PUSH1 0x1 PUSH1 0x1 PUSH1 0x60 SHL SUB PUSH1 0xA0 SHL DUP3 SLOAD AND OR SWAP1 SSTORE PUSH1 0x80 DUP3 ADD MLOAD DUP1 MLOAD SWAP1 PUSH1 0x1 PUSH1 0x1 PUSH1 0x40 SHL SUB DUP3 GT PUSH2 0xDA1 JUMPI DUP2 SWAP1 PUSH2 0x304B PUSH1 0x4 DUP6 ADD SLOAD PUSH2 0x3D2B JUMP JUMPDEST PUSH1 0x1F DUP2 GT PUSH2 0x3577 JUMPI JUMPDEST POP PUSH1 0x20 SWAP1 PUSH1 0x1F DUP4 GT PUSH1 0x1 EQ PUSH2 0x3505 JUMPI PUSH1 0x0 SWAP3 PUSH2 0x34FA JUMPI JUMPDEST POP POP DUP2 PUSH1 0x1 SHL SWAP2 PUSH1 0x0 NOT SWAP1 PUSH1 0x3 SHL SHR NOT AND OR PUSH1 0x4 DUP3 ADD SSTORE JUMPDEST PUSH1 0xA0 DUP3 ADD MLOAD PUSH1 0x5 DUP3 ADD SSTORE PUSH1 0xC0 DUP3 ADD MLOAD PUSH1 0x6 DUP3 ADD SSTORE PUSH1 0xE0 DUP3 ADD MLOAD PUSH1 0x7 DUP3 ADD SSTORE PUSH2 0x100 DUP3 ADD MLOAD PUSH1 0x8 DUP3 ADD SSTORE PUSH2 0x120 DUP3 ADD MLOAD PUSH1 0x9 DUP3 ADD SSTORE PUSH2 0x30D7 PUSH2 0x140 DUP4 ADD MLOAD ISZERO ISZERO PUSH1 0xA DUP4 ADD SWAP1 PUSH1 0xFF DUP1 NOT DUP4 SLOAD AND SWAP2 ISZERO ISZERO AND OR SWAP1 SSTORE JUMP JUMPDEST PUSH2 0x160 DUP3 ADD MLOAD PUSH1 0xB DUP3 ADD SSTORE PUSH2 0x180 DUP3 ADD MLOAD PUSH1 0xC DUP3 ADD SSTORE PUSH2 0x1A0 DUP3 ADD MLOAD PUSH1 0xD DUP3 ADD SSTORE PUSH2 0x1C0 DUP3 ADD MLOAD PUSH1 0xE DUP3 ADD SSTORE PUSH2 0x1E0 DUP3 ADD MLOAD PUSH1 0xF DUP3 ADD SSTORE PUSH1 0x10 PUSH2 0x200 DUP4 ADD MLOAD SWAP2 ADD SSTORE PUSH2 0x3124 PUSH1 0x21 SLOAD PUSH2 0x3EC9 JUMP JUMPDEST PUSH1 0x21 SSTORE DUP1 MLOAD PUSH1 0x28 SSTORE TIMESTAMP PUSH1 0x29 SSTORE PUSH2 0x140 DUP2 ADD MLOAD ISZERO PUSH2 0x34E7 JUMPI PUSH2 0x3146 PUSH1 0x22 SLOAD PUSH2 0x3EC9 JUMP JUMPDEST PUSH1 0x22 SSTORE JUMPDEST PUSH2 0x3155 PUSH1 0x24 SLOAD PUSH2 0x3F29 JUMP JUMPDEST PUSH1 0xE0 DUP3 ADD MLOAD SWAP1 PUSH1 0x64 DUP3 MUL SWAP2 DUP1 DUP4 DIV PUSH1 0x64 EQ SWAP1 ISZERO OR ISZERO PUSH2 0x34D1 JUMPI PUSH2 0x2710 SWAP2 PUSH2 0x317B SWAP2 PUSH2 0x3EFC JUMP JUMPDEST DIV PUSH1 0x24 SSTORE PUSH2 0x318A PUSH1 0x25 SLOAD PUSH2 0x3F29 JUMP JUMPDEST PUSH2 0x100 DUP3 ADD MLOAD DUP1 PUSH1 0x64 DUP2 MUL DIV PUSH1 0x64 EQ DUP2 ISZERO OR ISZERO PUSH2 0x34D1 JUMPI PUSH2 0x2710 SWAP2 PUSH1 0x64 PUSH2 0x31B2 SWAP3 MUL SWAP1 PUSH2 0x3EFC JUMP JUMPDEST DIV PUSH1 0x25 SSTORE PUSH1 0xE0 DUP2 ADD MLOAD DUP2 MLOAD PUSH1 0x0 MSTORE PUSH1 0xE PUSH1 0x20 MSTORE PUSH1 0x40 PUSH1 0x0 KECCAK256 SSTORE PUSH2 0x100 DUP2 ADD MLOAD DUP2 MLOAD PUSH1 0x0 MSTORE PUSH1 0xF PUSH1 0x20 MSTORE PUSH1 0x40 PUSH1 0x0 KECCAK256 SSTORE PUSH2 0x1E0 DUP2 ADD MLOAD DUP2 MLOAD PUSH1 0x0 MSTORE PUSH1 0x10 PUSH1 0x20 MSTORE PUSH1 0x40 PUSH1 0x0 KECCAK256 SSTORE PUSH2 0x200 DUP2 ADD MLOAD DUP2 MLOAD PUSH1 0x0 MSTORE PUSH1 0x11 SWAP1 DUP2 PUSH1 0x20 MSTORE PUSH1 0x40 PUSH1 0x0 KECCAK256 SSTORE PUSH1 0xE0 DUP3 ADD MLOAD PUSH1 0x24 SLOAD LT PUSH1 0x0 EQ PUSH2 0x34A8 JUMPI PUSH1 0x32 SLOAD PUSH1 0x32 DUP2 ADD DUP1 SWAP2 GT PUSH2 0x346A JUMPI PUSH1 0x32 SSTORE JUMPDEST PUSH2 0x100 DUP3 ADD MLOAD PUSH1 0x25 SLOAD LT ISZERO PUSH2 0x347F JUMPI PUSH1 0x33 SLOAD PUSH1 0x32 DUP2 ADD DUP1 SWAP2 GT PUSH2 0x346A JUMPI PUSH1 0x33 SSTORE JUMPDEST PUSH2 0x12C PUSH2 0x1E0 DUP4 ADD MLOAD LT PUSH1 0x0 EQ PUSH2 0x33AF JUMPI PUSH1 0x34 SLOAD SWAP1 PUSH1 0x1E DUP3 ADD DUP1 SWAP3 GT PUSH2 0x339B JUMPI POP SWAP2 PUSH32 0x621DAEB75BCDB62A282D16F46B09D9068A04F063507B085B0839F43D812B4F33 PUSH1 0x20 SWAP8 SWAP3 PUSH32 0xB3546FF1E0B491349A7A3DB3E3547D7118128CA6C434D5F1BA8B9B185D6D3311 SWAP5 PUSH1 0x34 SSTORE JUMPDEST PUSH1 0x32 SLOAD PUSH2 0x7D0 SWAP1 DUP2 DUP2 GT ISZERO PUSH2 0x3396 JUMPI POP DUP1 JUMPDEST PUSH1 0x32 SSTORE PUSH1 0x33 SLOAD DUP2 DUP2 GT ISZERO PUSH2 0x338F JUMPI POP JUMPDEST PUSH1 0x33 SSTORE PUSH1 0x34 SLOAD PUSH2 0x5DC SWAP1 DUP2 DUP2 GT ISZERO PUSH2 0x3388 JUMPI POP JUMPDEST PUSH1 0x34 SSTORE DUP1 MLOAD PUSH2 0x333E PUSH1 0xE0 DUP4 ADD MLOAD SWAP3 PUSH2 0x1E0 PUSH2 0x100 DUP3 ADD MLOAD SWAP2 ADD MLOAD PUSH1 0x26 SLOAD SWAP2 PUSH1 0x40 MLOAD SWAP6 DUP7 SWAP6 DUP7 SWAP2 SWAP3 PUSH1 0x80 SWAP4 SWAP7 SWAP6 SWAP5 SWAP2 SWAP7 PUSH1 0xA0 DUP5 ADD SWAP8 DUP5 MSTORE PUSH1 0x20 DUP5 ADD MSTORE PUSH1 0x40 DUP4 ADD MSTORE PUSH1 0x60 DUP3 ADD MSTORE ADD MSTORE JUMP JUMPDEST SUB SWAP1 LOG1 PUSH1 0x18 SLOAD SWAP6 DUP7 SWAP5 PUSH2 0x335C PUSH1 0x40 MLOAD SWAP5 PUSH1 0xC0 DUP7 MSTORE PUSH1 0xC0 DUP7 ADD SWAP1 PUSH2 0x3E2E JUMP JUMPDEST SWAP7 PUSH1 0x24 CALLDATALOAD DUP11 DUP7 ADD MSTORE PUSH1 0x40 DUP6 ADD MSTORE PUSH1 0x60 DUP5 ADD MSTORE PUSH1 0x80 DUP4 ADD MSTORE ISZERO ISZERO PUSH1 0xA0 DUP3 ADD MSTORE DUP1 CALLER SWAP5 SUB SWAP1 LOG3 PUSH1 0x40 MLOAD SWAP1 DUP2 MSTORE RETURN JUMPDEST SWAP1 POP PUSH2 0x32F5 JUMP JUMPDEST SWAP1 POP PUSH2 0x32E1 JUMP JUMPDEST PUSH2 0x32D1 JUMP JUMPDEST PUSH4 0x4E487B71 PUSH1 0xE0 SHL PUSH1 0x0 MSTORE PUSH1 0x4 MSTORE PUSH1 0x24 PUSH1 0x0 REVERT JUMPDEST PUSH1 0x34 SLOAD SWAP1 PUSH1 0x64 DUP3 GT ISZERO PUSH2 0x341A JUMPI PUSH1 0x1D NOT DUP3 ADD SWAP2 DUP3 GT PUSH2 0x339B JUMPI POP SWAP2 PUSH32 0x621DAEB75BCDB62A282D16F46B09D9068A04F063507B085B0839F43D812B4F33 PUSH1 0x20 SWAP8 SWAP3 PUSH32 0xB3546FF1E0B491349A7A3DB3E3547D7118128CA6C434D5F1BA8B9B185D6D3311 SWAP5 JUMPDEST PUSH1 0x34 SSTORE PUSH2 0x32BF JUMP JUMPDEST POP POP SWAP5 PUSH32 0xB3546FF1E0B491349A7A3DB3E3547D7118128CA6C434D5F1BA8B9B185D6D3311 SWAP2 PUSH32 0x621DAEB75BCDB62A282D16F46B09D9068A04F063507B085B0839F43D812B4F33 PUSH1 0x20 SWAP8 PUSH1 0x64 PUSH2 0x3412 JUMP JUMPDEST POP PUSH4 0x4E487B71 PUSH1 0xE0 SHL PUSH1 0x0 MSTORE PUSH1 0x4 MSTORE PUSH1 0x24 PUSH1 0x0 REVERT JUMPDEST PUSH1 0x33 SLOAD PUSH1 0x64 DUP2 GT ISZERO PUSH2 0x34A0 JUMPI PUSH1 0x31 NOT DUP2 ADD SWAP1 DUP2 GT PUSH2 0x346A JUMPI JUMPDEST PUSH1 0x33 SSTORE PUSH2 0x3252 JUMP JUMPDEST POP PUSH1 0x64 PUSH2 0x3498 JUMP JUMPDEST PUSH1 0x32 SLOAD PUSH1 0x64 DUP2 GT ISZERO PUSH2 0x34C9 JUMPI PUSH1 0x31 NOT DUP2 ADD SWAP1 DUP2 GT PUSH2 0x346A JUMPI JUMPDEST PUSH1 0x32 SSTORE PUSH2 0x3231 JUMP JUMPDEST POP PUSH1 0x64 PUSH2 0x34C1 JUMP JUMPDEST PUSH4 0x4E487B71 PUSH1 0xE0 SHL PUSH1 0x0 MSTORE PUSH1 0x11 PUSH1 0x4 MSTORE PUSH1 0x24 PUSH1 0x0 REVERT JUMPDEST PUSH2 0x34F2 PUSH1 0x23 SLOAD PUSH2 0x3EC9 JUMP JUMPDEST PUSH1 0x23 SSTORE PUSH2 0x314A JUMP JUMPDEST ADD MLOAD SWAP1 POP DUP10 DUP1 PUSH2 0x306B JUMP JUMPDEST SWAP3 POP PUSH1 0x4 DUP5 ADD PUSH1 0x0 MSTORE PUSH1 0x20 PUSH1 0x0 KECCAK256 SWAP1 PUSH1 0x0 SWAP4 JUMPDEST PUSH1 0x1F NOT DUP5 AND DUP6 LT PUSH2 0x355C JUMPI PUSH1 0x1 SWAP5 POP DUP4 PUSH1 0x1F NOT DUP2 AND LT PUSH2 0x3543 JUMPI JUMPDEST POP POP POP DUP2 SHL ADD PUSH1 0x4 DUP3 ADD SSTORE PUSH2 0x3083 JUMP JUMPDEST ADD MLOAD PUSH1 0x0 NOT PUSH1 0xF8 DUP5 PUSH1 0x3 SHL AND SHR NOT AND SWAP1 SSTORE DUP10 DUP1 DUP1 PUSH2 0x3533 JUMP JUMPDEST DUP2 DUP2 ADD MLOAD DUP4 SSTORE PUSH1 0x20 SWAP5 DUP6 ADD SWAP5 PUSH1 0x1 SWAP1 SWAP4 ADD SWAP3 SWAP1 SWAP2 ADD SWAP1 PUSH2 0x3518 JUMP JUMPDEST PUSH2 0x35A6 SWAP1 PUSH1 0x4 DUP7 ADD PUSH1 0x0 MSTORE PUSH1 0x20 PUSH1 0x0 KECCAK256 PUSH1 0x1F DUP6 ADD PUSH1 0x5 SHR DUP2 ADD SWAP2 PUSH1 0x20 DUP7 LT PUSH2 0xD97 JUMPI PUSH1 0x1F ADD PUSH1 0x5 SHR ADD SWAP1 PUSH2 0x3ED8 JUMP JUMPDEST DUP11 PUSH2 0x3054 JUMP JUMPDEST CALLVALUE PUSH2 0x351 JUMPI PUSH1 0x0 CALLDATASIZE PUSH1 0x3 NOT ADD SLT PUSH2 0x351 JUMPI PUSH2 0x1A0 PUSH1 0x21 SLOAD PUSH1 0x22 SLOAD PUSH1 0x23 SLOAD PUSH1 0x24 SLOAD PUSH1 0x25 SLOAD PUSH1 0x26 SLOAD PUSH1 0x27 SLOAD PUSH1 0x28 SLOAD SWAP1 PUSH1 0x29 SLOAD SWAP3 PUSH1 0x2A SLOAD SWAP5 PUSH1 0x2B SLOAD SWAP7 PUSH1 0x2C SLOAD SWAP9 PUSH1 0x2D SLOAD SWAP11 PUSH1 0x40 MLOAD SWAP13 DUP14 MSTORE PUSH1 0x20 DUP14 ADD MSTORE PUSH1 0x40 DUP13 ADD MSTORE PUSH1 0x60 DUP12 ADD MSTORE PUSH1 0x80 DUP11 ADD MSTORE PUSH1 0xA0 DUP10 ADD MSTORE PUSH1 0xC0 DUP9 ADD MSTORE PUSH1 0xE0 DUP8 ADD MSTORE PUSH2 0x100 DUP7 ADD MSTORE PUSH2 0x120 DUP6 ADD MSTORE PUSH2 0x140 DUP5 ADD MSTORE PUSH2 0x160 DUP4 ADD MSTORE PUSH2 0x180 DUP3 ADD MSTORE RETURN JUMPDEST PUSH1 0x0 CALLDATASIZE PUSH1 0x3 NOT ADD SLT PUSH2 0x351 JUMPI PUSH1 0x19 SLOAD CALLVALUE LT PUSH2 0x373C JUMPI CALLVALUE ISZERO PUSH2 0x36F7 JUMPI CALLER PUSH1 0x0 MSTORE PUSH1 0x8 PUSH1 0x20 MSTORE PUSH1 0x40 PUSH1 0x0 KECCAK256 PUSH2 0x366A CALLVALUE DUP3 SLOAD PUSH2 0x3EFC JUMP JUMPDEST SWAP1 SSTORE PUSH2 0x3678 CALLVALUE PUSH1 0x1A SLOAD PUSH2 0x3EFC JUMP JUMPDEST PUSH1 0x1A SSTORE PUSH8 0xDE0B6B3A7640000 CALLVALUE DIV PUSH1 0x64 DUP2 MUL SWAP1 DUP1 DUP3 DIV PUSH1 0x64 EQ SWAP1 ISZERO OR ISZERO PUSH2 0x34D1 JUMPI CALLER PUSH1 0x0 MSTORE PUSH1 0x9 PUSH1 0x20 MSTORE PUSH2 0x36B2 PUSH1 0x40 PUSH1 0x0 KECCAK256 SWAP2 DUP3 SLOAD PUSH2 0x3EFC JUMP JUMPDEST SWAP1 SSTORE CALLER PUSH1 0x0 MSTORE PUSH1 0x8 PUSH1 0x20 MSTORE PUSH1 0x40 PUSH1 0x0 KECCAK256 SLOAD PUSH1 0x40 MLOAD SWAP1 CALLVALUE DUP3 MSTORE PUSH1 0x20 DUP3 ADD MSTORE PUSH32 0x5CCE4A371BF9816B1A7594F1D76C98EBA4ED025FF3E471234AE598F17899BD4 PUSH1 0x40 CALLER SWAP3 LOG2 STOP JUMPDEST PUSH1 0x40 MLOAD PUSH3 0x461BCD PUSH1 0xE5 SHL DUP2 MSTORE PUSH1 0x20 PUSH1 0x4 DUP3 ADD MSTORE PUSH1 0x1D PUSH1 0x24 DUP3 ADD MSTORE PUSH32 0x5374616B6520616D6F756E74206D75737420626520706F736974697665000000 PUSH1 0x44 DUP3 ADD MSTORE PUSH1 0x64 SWAP1 REVERT JUMPDEST PUSH1 0x40 MLOAD PUSH3 0x461BCD PUSH1 0xE5 SHL DUP2 MSTORE PUSH1 0x20 PUSH1 0x4 DUP3 ADD MSTORE PUSH1 0x13 PUSH1 0x24 DUP3 ADD MSTORE PUSH19 0x5374616B652062656C6F77206D696E696D756D PUSH1 0x68 SHL PUSH1 0x44 DUP3 ADD MSTORE PUSH1 0x64 SWAP1 REVERT JUMPDEST CALLVALUE PUSH2 0x351 JUMPI PUSH1 0x0 CALLDATASIZE PUSH1 0x3 NOT ADD SLT PUSH2 0x351 JUMPI PUSH1 0x20 PUSH1 0x18 SLOAD PUSH1 0x40 MLOAD SWAP1 DUP2 MSTORE RETURN JUMPDEST CALLVALUE PUSH2 0x351 JUMPI PUSH1 0x20 DUP1 PUSH1 0x3 NOT CALLDATASIZE ADD SLT PUSH2 0x351 JUMPI PUSH1 0x4 CALLDATALOAD SWAP1 PUSH2 0x37B3 PUSH2 0x4203 JUMP JUMPDEST CALLER PUSH1 0x0 MSTORE PUSH1 0x8 DUP2 MSTORE DUP2 PUSH1 0x40 PUSH1 0x0 KECCAK256 SLOAD LT PUSH2 0x3908 JUMPI DUP2 ISZERO PUSH2 0x38B9 JUMPI CALLER PUSH1 0x0 MSTORE PUSH1 0x8 DUP2 MSTORE PUSH1 0x40 PUSH1 0x0 KECCAK256 PUSH2 0x37E5 DUP4 DUP3 SLOAD PUSH2 0x3EEF JUMP JUMPDEST SWAP1 SSTORE PUSH2 0x37F3 DUP3 PUSH1 0x1A SLOAD PUSH2 0x3EEF JUMP JUMPDEST PUSH1 0x1A SSTORE PUSH1 0x0 DUP1 DUP1 DUP1 DUP6 CALLER GAS CALL RETURNDATASIZE ISZERO PUSH2 0x38B4 JUMPI RETURNDATASIZE PUSH2 0x380F DUP2 PUSH2 0x3C9D JUMP JUMPDEST SWAP1 PUSH2 0x381D PUSH1 0x40 MLOAD SWAP3 DUP4 PUSH2 0x3C7C JUMP JUMPDEST DUP2 MSTORE PUSH1 0x0 DUP4 RETURNDATASIZE SWAP3 ADD RETURNDATACOPY JUMPDEST ISZERO PUSH2 0x3870 JUMPI CALLER PUSH1 0x0 MSTORE PUSH1 0x8 DUP2 MSTORE PUSH1 0x40 PUSH1 0x0 KECCAK256 SLOAD SWAP1 PUSH1 0x40 MLOAD SWAP3 DUP4 MSTORE DUP3 ADD MSTORE PUSH32 0x933735AA8DE6D7547D0126171B2F31B9C34DD00F3ECD4BE85A0BA047DB4FAFEF PUSH1 0x40 CALLER SWAP3 LOG2 PUSH1 0x1 DUP1 SSTORE STOP JUMPDEST PUSH1 0x64 SWAP1 PUSH1 0x40 MLOAD SWAP1 PUSH3 0x461BCD PUSH1 0xE5 SHL DUP3 MSTORE PUSH1 0x4 DUP3 ADD MSTORE PUSH1 0x17 PUSH1 0x24 DUP3 ADD MSTORE PUSH32 0x5374616B65207769746864726177616C206661696C6564000000000000000000 PUSH1 0x44 DUP3 ADD MSTORE REVERT JUMPDEST PUSH2 0x3827 JUMP JUMPDEST PUSH1 0x84 SWAP1 PUSH1 0x40 MLOAD SWAP1 PUSH3 0x461BCD PUSH1 0xE5 SHL DUP3 MSTORE PUSH1 0x4 DUP3 ADD MSTORE PUSH1 0x22 PUSH1 0x24 DUP3 ADD MSTORE PUSH32 0x5769746864726177616C20616D6F756E74206D75737420626520706F73697469 PUSH1 0x44 DUP3 ADD MSTORE PUSH2 0x7665 PUSH1 0xF0 SHL PUSH1 0x64 DUP3 ADD MSTORE REVERT JUMPDEST PUSH1 0x64 SWAP1 PUSH1 0x40 MLOAD SWAP1 PUSH3 0x461BCD PUSH1 0xE5 SHL DUP3 MSTORE PUSH1 0x4 DUP3 ADD MSTORE PUSH1 0x12 PUSH1 0x24 DUP3 ADD MSTORE PUSH18 0x496E73756666696369656E74207374616B65 PUSH1 0x70 SHL PUSH1 0x44 DUP3 ADD MSTORE REVERT JUMPDEST CALLVALUE PUSH2 0x351 JUMPI PUSH1 0x0 CALLDATASIZE PUSH1 0x3 NOT ADD SLT PUSH2 0x351 JUMPI PUSH1 0x20 PUSH1 0x32 SLOAD PUSH1 0x40 MLOAD SWAP1 DUP2 MSTORE RETURN JUMPDEST CALLVALUE PUSH2 0x351 JUMPI PUSH1 0x20 CALLDATASIZE PUSH1 0x3 NOT ADD SLT PUSH2 0x351 JUMPI PUSH2 0x3978 PUSH2 0x3E9D JUMP JUMPDEST PUSH1 0x4 CALLDATALOAD PUSH1 0x35 SSTORE STOP JUMPDEST CALLVALUE PUSH2 0x351 JUMPI PUSH1 0x20 CALLDATASIZE PUSH1 0x3 NOT ADD SLT PUSH2 0x351 JUMPI PUSH1 0x4 CALLDATALOAD PUSH1 0x0 SWAP1 DUP2 MSTORE PUSH1 0x3 PUSH1 0x20 MSTORE PUSH1 0x40 SWAP1 KECCAK256 DUP1 SLOAD PUSH2 0x140 MSTORE PUSH1 0x1 DUP2 ADD SLOAD PUSH1 0x1 PUSH1 0x1 PUSH1 0xA0 SHL SUB AND SWAP1 PUSH2 0x39C3 PUSH1 0x2 DUP3 ADD PUSH2 0x3D65 JUMP JUMPDEST PUSH2 0x2A0 MSTORE PUSH1 0x3 DUP2 ADD SLOAD PUSH2 0x240 MSTORE PUSH2 0x39DC PUSH1 0x4 DUP3 ADD PUSH2 0x3D65 JUMP JUMPDEST SWAP2 PUSH2 0x39E9 PUSH1 0x5 DUP4 ADD PUSH2 0x3D65 JUMP JUMPDEST SWAP3 PUSH1 0x6 DUP4 ADD SLOAD SWAP4 PUSH1 0x7 DUP5 ADD SLOAD PUSH1 0x8 DUP6 ADD SLOAD PUSH1 0xFF AND PUSH1 0xA DUP7 ADD SLOAD PUSH1 0xB DUP8 ADD SLOAD SWAP2 PUSH1 0xC DUP9 ADD SLOAD SWAP4 PUSH1 0xD DUP10 ADD SLOAD PUSH1 0xFF AND SWAP6 PUSH1 0xE DUP11 ADD SLOAD SWAP8 PUSH1 0xF DUP12 ADD SLOAD SWAP10 PUSH1 0x10 DUP13 ADD SLOAD SWAP12 PUSH1 0x11 DUP2 ADD SLOAD PUSH2 0x320 MSTORE PUSH1 0x12 ADD SLOAD PUSH2 0x1C0 MSTORE PUSH1 0x40 MLOAD DUP1 PUSH2 0x200 MSTORE PUSH2 0x140 MLOAD SWAP1 MSTORE PUSH2 0x200 MLOAD PUSH1 0x20 ADD MSTORE PUSH2 0x200 MLOAD PUSH1 0x40 ADD PUSH2 0x240 SWAP1 MSTORE PUSH2 0x200 MLOAD PUSH2 0x240 ADD PUSH2 0x2A0 MLOAD SWAP1 PUSH2 0x3A72 SWAP2 PUSH2 0x3E2E JUMP JUMPDEST PUSH2 0x240 MLOAD PUSH2 0x200 MLOAD PUSH1 0x60 ADD MSTORE PUSH2 0x200 MLOAD DUP1 DUP3 SUB SWAP1 PUSH1 0x80 ADD MSTORE PUSH2 0x3A93 SWAP2 PUSH2 0x3E2E JUMP JUMPDEST PUSH2 0x200 MLOAD DUP1 DUP3 SUB SWAP1 PUSH1 0xA0 ADD MSTORE PUSH2 0x3AA8 SWAP2 PUSH2 0x3E2E JUMP JUMPDEST SWAP10 PUSH2 0x200 MLOAD PUSH1 0xC0 ADD MSTORE PUSH2 0x200 MLOAD PUSH1 0xE0 ADD MSTORE ISZERO ISZERO PUSH2 0x200 MLOAD PUSH2 0x100 ADD MSTORE PUSH2 0x200 MLOAD PUSH2 0x120 ADD MSTORE PUSH2 0x200 MLOAD PUSH2 0x140 ADD MSTORE PUSH2 0x200 MLOAD PUSH2 0x160 ADD MSTORE ISZERO ISZERO PUSH2 0x200 MLOAD PUSH2 0x180 ADD MSTORE PUSH2 0x200 MLOAD PUSH2 0x1A0 ADD MSTORE PUSH2 0x200 MLOAD PUSH2 0x1C0 ADD MSTORE PUSH2 0x200 MLOAD PUSH2 0x1E0 ADD MSTORE PUSH2 0x320 MLOAD PUSH2 0x200 MLOAD PUSH2 0x200 ADD MSTORE PUSH2 0x1C0 MLOAD PUSH2 0x200 MLOAD PUSH2 0x220 ADD MSTORE PUSH2 0x200 MLOAD DUP1 SWAP2 SUB SWAP1 RETURN JUMPDEST CALLVALUE PUSH2 0x351 JUMPI PUSH1 0x20 CALLDATASIZE PUSH1 0x3 NOT ADD SLT PUSH2 0x351 JUMPI PUSH1 0x1 PUSH1 0x1 PUSH1 0xA0 SHL SUB PUSH2 0x3B4A PUSH2 0x3CFF JUMP JUMPDEST AND PUSH1 0x0 MSTORE PUSH1 0x8 PUSH1 0x20 MSTORE PUSH1 0x20 PUSH1 0x40 PUSH1 0x0 KECCAK256 SLOAD PUSH1 0x40 MLOAD SWAP1 DUP2 MSTORE RETURN JUMPDEST CALLVALUE PUSH2 0x351 JUMPI PUSH1 0x0 CALLDATASIZE PUSH1 0x3 NOT ADD SLT PUSH2 0x351 JUMPI PUSH1 0x20 PUSH1 0x36 SLOAD PUSH1 0x40 MLOAD SWAP1 DUP2 MSTORE RETURN JUMPDEST CALLVALUE PUSH2 0x351 JUMPI PUSH1 0x0 CALLDATASIZE PUSH1 0x3 NOT ADD SLT PUSH2 0x351 JUMPI PUSH1 0x20 PUSH1 0x34 SLOAD PUSH1 0x40 MLOAD SWAP1 DUP2 MSTORE RETURN JUMPDEST CALLVALUE PUSH2 0x351 JUMPI PUSH1 0x20 CALLDATASIZE PUSH1 0x3 NOT ADD SLT PUSH2 0x351 JUMPI PUSH1 0x4 CALLDATALOAD PUSH1 0x1 PUSH1 0x1 PUSH1 0x40 SHL SUB DUP2 GT PUSH2 0x351 JUMPI PUSH1 0x20 PUSH2 0xE20 PUSH2 0x3BD4 SWAP3 CALLDATASIZE SWAP1 PUSH1 0x4 ADD PUSH2 0x3CB8 JUMP JUMPDEST PUSH1 0x6 SWAP1 DUP3 ADD SWAP1 DUP2 MSTORE SUB ADD SWAP1 KECCAK256 DUP1 SLOAD PUSH1 0xFF NOT AND PUSH1 0x1 OR SWAP1 SSTORE STOP JUMPDEST CALLVALUE PUSH2 0x351 JUMPI PUSH1 0x20 CALLDATASIZE PUSH1 0x3 NOT ADD SLT PUSH2 0x351 JUMPI PUSH2 0x3C06 PUSH2 0x3E9D JUMP JUMPDEST PUSH1 0x4 CALLDATALOAD PUSH1 0x15 SSTORE STOP JUMPDEST CALLVALUE PUSH2 0x351 JUMPI PUSH1 0x0 CALLDATASIZE PUSH1 0x3 NOT ADD SLT PUSH2 0x351 JUMPI PUSH1 0x20 SWAP1 PUSH1 0x12 SLOAD DUP2 MSTORE RETURN JUMPDEST PUSH2 0x2A0 DUP2 ADD SWAP1 DUP2 LT PUSH1 0x1 PUSH1 0x1 PUSH1 0x40 SHL SUB DUP3 GT OR PUSH2 0xDA1 JUMPI PUSH1 0x40 MSTORE JUMP JUMPDEST PUSH2 0x1C0 DUP2 ADD SWAP1 DUP2 LT PUSH1 0x1 PUSH1 0x1 PUSH1 0x40 SHL SUB DUP3 GT OR PUSH2 0xDA1 JUMPI PUSH1 0x40 MSTORE JUMP JUMPDEST PUSH1 0xA0 DUP2 ADD SWAP1 DUP2 LT PUSH1 0x1 PUSH1 0x1 PUSH1 0x40 SHL SUB DUP3 GT OR PUSH2 0xDA1 JUMPI PUSH1 0x40 MSTORE JUMP JUMPDEST SWAP1 PUSH1 0x1F DUP1 NOT SWAP2 ADD AND DUP2 ADD SWAP1 DUP2 LT PUSH1 0x1 PUSH1 0x1 PUSH1 0x40 SHL SUB DUP3 GT OR PUSH2 0xDA1 JUMPI PUSH1 0x40 MSTORE JUMP JUMPDEST PUSH1 0x1 PUSH1 0x1 PUSH1 0x40 SHL SUB DUP2 GT PUSH2 0xDA1 JUMPI PUSH1 0x1F ADD PUSH1 0x1F NOT AND PUSH1 0x20 ADD SWAP1 JUMP JUMPDEST DUP2 PUSH1 0x1F DUP3 ADD SLT ISZERO PUSH2 0x351 JUMPI DUP1 CALLDATALOAD SWAP1 PUSH2 0x3CCF DUP3 PUSH2 0x3C9D JUMP JUMPDEST SWAP3 PUSH2 0x3CDD PUSH1 0x40 MLOAD SWAP5 DUP6 PUSH2 0x3C7C JUMP JUMPDEST DUP3 DUP5 MSTORE PUSH1 0x20 DUP4 DUP4 ADD ADD GT PUSH2 0x351 JUMPI DUP2 PUSH1 0x0 SWAP3 PUSH1 0x20 DUP1 SWAP4 ADD DUP4 DUP7 ADD CALLDATACOPY DUP4 ADD ADD MSTORE SWAP1 JUMP JUMPDEST PUSH1 0x4 CALLDATALOAD SWAP1 PUSH1 0x1 PUSH1 0x1 PUSH1 0xA0 SHL SUB DUP3 AND DUP3 SUB PUSH2 0x351 JUMPI JUMP JUMPDEST PUSH1 0x24 CALLDATALOAD SWAP1 PUSH1 0x1 PUSH1 0x1 PUSH1 0xA0 SHL SUB DUP3 AND DUP3 SUB PUSH2 0x351 JUMPI JUMP JUMPDEST SWAP1 PUSH1 0x1 DUP3 DUP2 SHR SWAP3 AND DUP1 ISZERO PUSH2 0x3D5B JUMPI JUMPDEST PUSH1 0x20 DUP4 LT EQ PUSH2 0x3D45 JUMPI JUMP JUMPDEST PUSH4 0x4E487B71 PUSH1 0xE0 SHL PUSH1 0x0 MSTORE PUSH1 0x22 PUSH1 0x4 MSTORE PUSH1 0x24 PUSH1 0x0 REVERT JUMPDEST SWAP2 PUSH1 0x7F AND SWAP2 PUSH2 0x3D3A JUMP JUMPDEST SWAP1 PUSH1 0x40 MLOAD SWAP2 DUP3 PUSH1 0x0 DUP3 SLOAD SWAP3 PUSH2 0x3D79 DUP5 PUSH2 0x3D2B JUMP JUMPDEST SWAP1 DUP2 DUP5 MSTORE PUSH1 0x1 SWAP5 DUP6 DUP2 AND SWAP1 DUP2 PUSH1 0x0 EQ PUSH2 0x3DE8 JUMPI POP PUSH1 0x1 EQ PUSH2 0x3DA5 JUMPI JUMPDEST POP POP PUSH2 0x3DA3 SWAP3 POP SUB DUP4 PUSH2 0x3C7C JUMP JUMPDEST JUMP JUMPDEST SWAP1 SWAP4 SWAP2 POP PUSH1 0x0 MSTORE PUSH1 0x20 SWAP1 DUP2 PUSH1 0x0 KECCAK256 SWAP4 PUSH1 0x0 SWAP2 JUMPDEST DUP2 DUP4 LT PUSH2 0x3DD0 JUMPI POP POP PUSH2 0x3DA3 SWAP4 POP DUP3 ADD ADD CODESIZE DUP1 PUSH2 0x3D95 JUMP JUMPDEST DUP6 SLOAD DUP9 DUP5 ADD DUP6 ADD MSTORE SWAP5 DUP6 ADD SWAP5 DUP8 SWAP5 POP SWAP2 DUP4 ADD SWAP2 PUSH2 0x3DB8 JUMP JUMPDEST SWAP2 POP POP PUSH2 0x3DA3 SWAP5 POP PUSH1 0x20 SWAP3 POP PUSH1 0xFF NOT AND DUP3 DUP5 ADD MSTORE ISZERO ISZERO PUSH1 0x5 SHL DUP3 ADD ADD CODESIZE DUP1 PUSH2 0x3D95 JUMP JUMPDEST PUSH1 0x0 JUMPDEST DUP4 DUP2 LT PUSH2 0x3E1E JUMPI POP POP PUSH1 0x0 SWAP2 ADD MSTORE JUMP JUMPDEST DUP2 DUP2 ADD MLOAD DUP4 DUP3 ADD MSTORE PUSH1 0x20 ADD PUSH2 0x3E0E JUMP JUMPDEST SWAP1 PUSH1 0x20 SWAP2 PUSH2 0x3E47 DUP2 MLOAD DUP1 SWAP3 DUP2 DUP6 MSTORE DUP6 DUP1 DUP7 ADD SWAP2 ADD PUSH2 0x3E0B JUMP JUMPDEST PUSH1 0x1F ADD PUSH1 0x1F NOT AND ADD ADD SWAP1 JUMP JUMPDEST DUP1 SLOAD DUP3 LT ISZERO PUSH2 0x3E6B JUMPI PUSH1 0x0 MSTORE PUSH1 0x20 PUSH1 0x0 KECCAK256 ADD SWAP1 PUSH1 0x0 SWAP1 JUMP JUMPDEST PUSH4 0x4E487B71 PUSH1 0xE0 SHL PUSH1 0x0 MSTORE PUSH1 0x32 PUSH1 0x4 MSTORE PUSH1 0x24 PUSH1 0x0 REVERT JUMPDEST DUP1 SLOAD DUP3 LT ISZERO PUSH2 0x3E6B JUMPI PUSH1 0x0 MSTORE PUSH1 0xE PUSH1 0x20 PUSH1 0x0 KECCAK256 SWAP2 MUL ADD SWAP1 PUSH1 0x0 SWAP1 JUMP JUMPDEST PUSH1 0x0 SLOAD PUSH1 0x1 PUSH1 0x1 PUSH1 0xA0 SHL SUB AND CALLER SUB PUSH2 0x3EB1 JUMPI JUMP JUMPDEST PUSH1 0x40 MLOAD PUSH4 0x118CDAA7 PUSH1 0xE0 SHL DUP2 MSTORE CALLER PUSH1 0x4 DUP3 ADD MSTORE PUSH1 0x24 SWAP1 REVERT JUMPDEST PUSH1 0x0 NOT DUP2 EQ PUSH2 0x34D1 JUMPI PUSH1 0x1 ADD SWAP1 JUMP JUMPDEST DUP2 DUP2 LT PUSH2 0x3EE3 JUMPI POP POP JUMP JUMPDEST PUSH1 0x0 DUP2 SSTORE PUSH1 0x1 ADD PUSH2 0x3ED8 JUMP JUMPDEST SWAP2 SWAP1 DUP3 SUB SWAP2 DUP3 GT PUSH2 0x34D1 JUMPI JUMP JUMPDEST SWAP2 SWAP1 DUP3 ADD DUP1 SWAP3 GT PUSH2 0x34D1 JUMPI JUMP JUMPDEST DUP2 ISZERO PUSH2 0x3F13 JUMPI DIV SWAP1 JUMP JUMPDEST PUSH4 0x4E487B71 PUSH1 0xE0 SHL PUSH1 0x0 MSTORE PUSH1 0x12 PUSH1 0x4 MSTORE PUSH1 0x24 PUSH1 0x0 REVERT JUMPDEST SWAP1 PUSH2 0x26AC SWAP2 DUP3 DUP2 MUL SWAP3 DUP2 DUP5 DIV EQ SWAP1 ISZERO OR ISZERO PUSH2 0x34D1 JUMPI JUMP JUMPDEST DUP2 DUP2 MUL SWAP3 SWAP2 DUP2 ISZERO SWAP2 DUP5 DIV EQ OR ISZERO PUSH2 0x34D1 JUMPI JUMP JUMPDEST PUSH1 0x21 SLOAD SWAP1 DUP2 ISZERO PUSH2 0x402E JUMPI SWAP1 PUSH1 0x0 DUP1 DUP2 SWAP4 PUSH1 0x35 SLOAD SWAP4 PUSH1 0x28 SLOAD SWAP6 JUMPDEST DUP6 DUP2 LT DUP1 PUSH2 0x4025 JUMPI JUMPDEST ISZERO PUSH2 0x3FE9 JUMPI PUSH2 0x3F84 DUP2 DUP9 PUSH2 0x3EEF JUMP JUMPDEST DUP1 ISZERO ISZERO DUP1 PUSH2 0x3FD2 JUMPI JUMPDEST PUSH2 0x3FA1 JUMPI JUMPDEST POP PUSH2 0x3F9C SWAP1 PUSH2 0x3EC9 JUMP JUMPDEST PUSH2 0x3F6C JUMP JUMPDEST PUSH2 0x3FC5 PUSH2 0x3F9C SWAP3 SWAP6 SWAP7 PUSH2 0x3FCB SWAP3 PUSH1 0x0 MSTORE PUSH1 0xB PUSH1 0x20 MSTORE PUSH1 0x7 PUSH1 0x40 PUSH1 0x0 KECCAK256 ADD SLOAD SWAP1 PUSH2 0x3EFC JUMP JUMPDEST SWAP6 PUSH2 0x3EC9 JUMP JUMPDEST SWAP4 SWAP1 PUSH2 0x3F92 JUMP JUMPDEST POP DUP1 PUSH1 0x0 MSTORE PUSH1 0xB PUSH1 0x20 MSTORE PUSH1 0x40 PUSH1 0x0 KECCAK256 SLOAD ISZERO ISZERO PUSH2 0x3F8D JUMP JUMPDEST POP POP SWAP4 POP SWAP2 POP DUP2 ISZERO PUSH2 0x401D JUMPI PUSH2 0x4011 PUSH2 0x4008 PUSH2 0x401A SWAP4 PUSH2 0x2710 SWAP4 PUSH2 0x3F09 JUMP JUMPDEST PUSH1 0x32 SLOAD SWAP1 PUSH2 0x3F40 JUMP JUMPDEST DIV PUSH1 0x24 SLOAD PUSH2 0x3EFC JUMP JUMPDEST SWAP1 JUMP JUMPDEST POP POP PUSH1 0x24 SLOAD SWAP1 JUMP JUMPDEST POP DUP2 DUP2 LT PUSH2 0x3F75 JUMP JUMPDEST PUSH2 0x3E8 SWAP2 POP JUMP JUMPDEST PUSH1 0x21 SLOAD SWAP1 DUP2 ISZERO PUSH2 0x4107 JUMPI SWAP1 PUSH1 0x0 DUP1 DUP2 SWAP4 PUSH1 0x35 SLOAD SWAP4 PUSH1 0x28 SLOAD SWAP6 JUMPDEST DUP6 DUP2 LT DUP1 PUSH2 0x40FE JUMPI JUMPDEST ISZERO PUSH2 0x40C5 JUMPI PUSH2 0x4066 DUP2 DUP9 PUSH2 0x3EEF JUMP JUMPDEST DUP1 ISZERO ISZERO DUP1 PUSH2 0x40AE JUMPI JUMPDEST PUSH2 0x4083 JUMPI JUMPDEST POP PUSH2 0x407E SWAP1 PUSH2 0x3EC9 JUMP JUMPDEST PUSH2 0x404E JUMP JUMPDEST PUSH2 0x3FC5 PUSH2 0x407E SWAP3 SWAP6 SWAP7 PUSH2 0x40A7 SWAP3 PUSH1 0x0 MSTORE PUSH1 0xB PUSH1 0x20 MSTORE PUSH1 0x8 PUSH1 0x40 PUSH1 0x0 KECCAK256 ADD SLOAD SWAP1 PUSH2 0x3EFC JUMP JUMPDEST SWAP4 SWAP1 PUSH2 0x4074 JUMP JUMPDEST POP DUP1 PUSH1 0x0 MSTORE PUSH1 0xB PUSH1 0x20 MSTORE PUSH1 0x40 PUSH1 0x0 KECCAK256 SLOAD ISZERO ISZERO PUSH2 0x406F JUMP JUMPDEST POP POP SWAP4 POP SWAP2 POP DUP2 ISZERO PUSH2 0x40F6 JUMPI PUSH2 0x40ED PUSH2 0x40E4 PUSH2 0x401A SWAP4 PUSH2 0x2710 SWAP4 PUSH2 0x3F09 JUMP JUMPDEST PUSH1 0x33 SLOAD SWAP1 PUSH2 0x3F40 JUMP JUMPDEST DIV PUSH1 0x25 SLOAD PUSH2 0x3EFC JUMP JUMPDEST POP POP PUSH1 0x25 SLOAD SWAP1 JUMP JUMPDEST POP DUP2 DUP2 LT PUSH2 0x4057 JUMP JUMPDEST PUSH1 0x17 SLOAD SWAP2 POP JUMP JUMPDEST PUSH2 0x4116 PUSH2 0x3F53 JUMP JUMPDEST PUSH2 0x411E PUSH2 0x4035 JUMP JUMPDEST SWAP1 PUSH1 0x2C SLOAD SWAP2 PUSH2 0x190 SWAP1 DUP2 DUP4 MUL SWAP3 DUP1 DUP5 DIV DUP4 EQ SWAP1 ISZERO OR ISZERO PUSH2 0x34D1 JUMPI DUP2 DUP2 MUL SWAP2 DUP2 DUP4 DIV EQ SWAP1 ISZERO OR ISZERO PUSH2 0x34D1 JUMPI PUSH2 0x4151 SWAP2 PUSH2 0x3EFC JUMP JUMPDEST PUSH1 0xC8 DUP3 MUL SWAP2 DUP1 DUP4 DIV PUSH1 0xC8 EQ SWAP1 ISZERO OR ISZERO PUSH2 0x34D1 JUMPI PUSH2 0x3E8 SWAP2 PUSH2 0x4171 SWAP2 PUSH2 0x3EFC JUMP JUMPDEST DIV SWAP1 JUMP JUMPDEST ISZERO PUSH2 0x417C JUMPI JUMP JUMPDEST PUSH1 0x40 MLOAD PUSH3 0x461BCD PUSH1 0xE5 SHL DUP2 MSTORE PUSH1 0x20 PUSH1 0x4 DUP3 ADD MSTORE PUSH1 0x17 PUSH1 0x24 DUP3 ADD MSTORE PUSH32 0x576F726B2074797065206E6F7420737570706F72746564000000000000000000 PUSH1 0x44 DUP3 ADD MSTORE PUSH1 0x64 SWAP1 REVERT JUMPDEST ISZERO PUSH2 0x41C8 JUMPI JUMP JUMPDEST PUSH1 0x40 MLOAD PUSH3 0x461BCD PUSH1 0xE5 SHL DUP2 MSTORE PUSH1 0x20 PUSH1 0x4 DUP3 ADD MSTORE PUSH1 0x13 PUSH1 0x24 DUP3 ADD MSTORE PUSH19 0x88D2CCCCD2C6EAD8E8F240E8DEDE40D0D2CED PUSH1 0x6B SHL PUSH1 0x44 DUP3 ADD MSTORE PUSH1 0x64 SWAP1 REVERT JUMPDEST PUSH1 0x2 PUSH1 0x1 SLOAD EQ PUSH2 0x4214 JUMPI PUSH1 0x2 PUSH1 0x1 SSTORE JUMP JUMPDEST PUSH1 0x40 MLOAD PUSH4 0x3EE5AEB5 PUSH1 0xE0 SHL DUP2 MSTORE PUSH1 0x4 SWAP1 REVERT JUMPDEST PUSH2 0x401A PUSH1 0x28 PUSH1 0x24 SLOAD DIV PUSH2 0x2F3C PUSH2 0x4241 PUSH1 0x25 SLOAD PUSH1 0x17 SLOAD SWAP1 PUSH2 0x3F09 JUMP JUMPDEST PUSH2 0x425A PUSH2 0x3E8 PUSH1 0x2C SLOAD DIV SWAP2 PUSH2 0x4254 PUSH2 0x425F JUMP JUMPDEST SWAP5 PUSH2 0x3F40 JUMP JUMPDEST PUSH2 0x3F40 JUMP JUMPDEST PUSH1 0x21 SLOAD PUSH1 0xA DUP2 LT PUSH2 0x42AD JUMPI PUSH1 0x22 SLOAD SWAP1 PUSH2 0x2710 SWAP2 DUP3 DUP2 MUL SWAP3 DUP2 DUP5 DIV EQ SWAP1 ISZERO OR ISZERO PUSH2 0x34D1 JUMPI PUSH2 0x428B SWAP2 PUSH2 0x3F09 JUMP JUMPDEST PUSH2 0x1F40 DUP2 GT ISZERO PUSH2 0x429B JUMPI POP PUSH1 0x5 SWAP1 JUMP JUMPDEST PUSH2 0x1B58 GT PUSH2 0x42A8 JUMPI PUSH1 0x0 SWAP1 JUMP JUMPDEST PUSH1 0x0 SWAP1 JUMP JUMPDEST POP PUSH1 0x0 SWAP1 JUMP JUMPDEST PUSH1 0x1 PUSH1 0x1 PUSH1 0x40 SHL SUB DUP2 GT PUSH2 0xDA1 JUMPI PUSH1 0x5 SHL PUSH1 0x20 ADD SWAP1 JUMP INVALID LOG2 PUSH5 0x6970667358 0x22 SLT KECCAK256 PUSH16 0xC50253BD782FFD1BB385FFE07549E0DE ISZERO DUP4 0xA5 0xC1 RETURNDATACOPY CALLDATACOPY DELEGATECALL EXTCODESIZE DUP11 SWAP13 0xE5 0xEE PC RETURN AND PUSH5 0x736F6C6343 STOP ADDMOD EQ STOP CALLER "},"methodIdentifiers":{"adaptiveLearningRate()":"80c030bd","adaptiveState()":"3d777c3d","addWorkType(string)":"05f4b26f","algorithmLearningRate()":"25058e79","baseReward()":"76ad03bc","blockAlgorithmEfficiency(uint256)":"9f9784ae","blockConsensusTime(uint256)":"5ce8e336","blockLearningWindow()":"aa6bb635","blockSecurityStrength(uint256)":"880028ac","blockTime()":"48b15166","blockValidatorParticipation(uint256)":"d4bfdd33","blocks(uint256)":"f25b3f99","calculateAdaptiveDifficulty(string)":"93037e0b","completeMiningSession(uint256)":"f1997dc9","consensusLearningRate()":"064bad23","consensusThreshold()":"f9b0b5b9","createBlock(string,uint256,uint256,bool)":"41bd60b5","currentBlockNumber()":"378ec23b","difficultyAdjustmentInterval()":"f2884385","discoveries(bytes32)":"5ffecc3f","discoveryValidatorApprovals(bytes32,address)":"bde0e23d","getAdaptiveLearningState()":"51f4205c","getBlockLearningMetrics(uint256)":"66f0c7c5","getDiscovery(bytes32)":"6b0eae81","getLearningRates()":"4e1d7f75","getMinerRewards(address)":"11c50d26","getMiningSessions(address)":"a48458fe","lastDifficultyAdjustment()":"52ddb906","maxDifficulty()":"9a997453","minerRewards(address)":"a56c94ec","minimumBlockConfidence()":"0ff8b572","minimumStake()":"ec5ffac2","miningSessions(address,uint256)":"ce93734b","owner()":"8da5cb5b","quantumSecurityLevel()":"7ada463a","registerAdaptiveValidator()":"e338824f","removeWorkType(string)":"eb802edf","renounceOwnership()":"715018a6","reputationDecayRate()":"960e6f88","reputationScores(address)":"fe0438b2","requiredValidators()":"97c875dd","securityLearningRate()":"bd97b14a","setAlgorithmLearningRate(uint256)":"819cc837","setBaseReward(uint256)":"0373a23a","setBlockLearningWindow(uint256)":"17fa9923","setBlockTime(uint256)":"758b1ce3","setConsensusLearningRate(uint256)":"64e5a675","setMaxDifficulty(uint256)":"f4ce57b5","setMinimumBlockConfidence(uint256)":"efa075cf","setQuantumSecurityLevel(uint256)":"f7eb7ac8","setSecurityLearningRate(uint256)":"9c0a058e","slashingPenalty()":"89f1ea64","stake()":"3a4b66f1","stakedAmounts(address)":"10c1c103","startMiningSession(string,uint256)":"eda057f1","submitDiscovery(string,uint256,string,string,uint256)":"56ae8fb3","totalDiscoveries()":"03330528","totalRewardsDistributed()":"ee172546","totalStaked()":"817b1cd2","transferOwnership(address)":"f2fde38b","validationTaskResults(bytes32,address)":"bcef7670","validationTasks(bytes32)":"117fd6e8","validationTimeout()":"db94e942","validatorAssignments(address,uint256)":"ac22a69a","validatorReward()":"75b94133","validatorSelectionStake()":"f99dec4e","validators(address)":"fa52c7d8","withdrawStake(uint256)":"25d5971f","workTypes(string)":"8d1771c2"}}}}}