{"contracts/ProductiveMinerSolidarity.sol":{"ProductiveMinerSolidarity":{"abi":[{"inputs":[{"internalType":"address","name":"_tokenAddress","type":"address"}],"stateMutability":"nonpayable","type":"constructor"},{"anonymous":false,"inputs":[{"indexed":true,"internalType":"uint256","name":"resultId","type":"uint256"},{"indexed":true,"internalType":"address","name":"miner","type":"address"},{"indexed":false,"internalType":"string","name":"workType","type":"string"},{"indexed":false,"internalType":"uint256","name":"accuracy","type":"uint256"}],"name":"ComputationalResultSubmitted","type":"event"},{"anonymous":false,"inputs":[{"indexed":true,"internalType":"uint256","name":"projectId","type":"uint256"},{"indexed":true,"internalType":"address","name":"contributor","type":"address"},{"indexed":false,"internalType":"uint256","name":"value","type":"uint256"}],"name":"ContributionMade","type":"event"},{"anonymous":false,"inputs":[{"indexed":true,"internalType":"address","name":"member","type":"address"},{"indexed":false,"internalType":"string","name":"expertise","type":"string"}],"name":"MemberJoined","type":"event"},{"anonymous":false,"inputs":[{"indexed":true,"internalType":"address","name":"previousOwner","type":"address"},{"indexed":true,"internalType":"address","name":"newOwner","type":"address"}],"name":"OwnershipTransferred","type":"event"},{"anonymous":false,"inputs":[{"indexed":true,"internalType":"address","name":"discoverer","type":"address"},{"indexed":false,"internalType":"string","name":"patternType","type":"string"},{"indexed":false,"internalType":"uint256","name":"bonus","type":"uint256"}],"name":"PatternDiscovered","type":"event"},{"anonymous":false,"inputs":[{"indexed":true,"internalType":"uint256","name":"projectId","type":"uint256"},{"indexed":false,"internalType":"string","name":"title","type":"string"},{"indexed":false,"internalType":"address[]","name":"participants","type":"address[]"}],"name":"ProjectCreated","type":"event"},{"anonymous":false,"inputs":[{"indexed":true,"internalType":"uint256","name":"proposalId","type":"uint256"},{"indexed":true,"internalType":"address","name":"proposer","type":"address"},{"indexed":false,"internalType":"string","name":"title","type":"string"}],"name":"ProposalCreated","type":"event"},{"anonymous":false,"inputs":[{"indexed":true,"internalType":"address","name":"member","type":"address"},{"indexed":false,"internalType":"uint256","name":"newScore","type":"uint256"}],"name":"ReputationUpdated","type":"event"},{"anonymous":false,"inputs":[{"indexed":true,"internalType":"uint256","name":"projectId","type":"uint256"},{"indexed":true,"internalType":"address","name":"recipient","type":"address"},{"indexed":false,"internalType":"uint256","name":"amount","type":"uint256"}],"name":"RewardsDistributed","type":"event"},{"anonymous":false,"inputs":[{"indexed":true,"internalType":"address","name":"recipient","type":"address"},{"indexed":false,"internalType":"uint256","name":"amount","type":"uint256"},{"indexed":false,"internalType":"string","name":"reason","type":"string"}],"name":"SolidarityBonusAwarded","type":"event"},{"anonymous":false,"inputs":[{"indexed":true,"internalType":"uint256","name":"proposalId","type":"uint256"},{"indexed":true,"internalType":"address","name":"voter","type":"address"},{"indexed":false,"internalType":"bool","name":"choice","type":"bool"}],"name":"VoteCast","type":"event"},{"inputs":[],"name":"COLLABORATION_BONUS","outputs":[{"internalType":"uint256","name":"","type":"uint256"}],"stateMutability":"view","type":"function"},{"inputs":[],"name":"MIN_REPUTATION_THRESHOLD","outputs":[{"internalType":"uint256","name":"","type":"uint256"}],"stateMutability":"view","type":"function"},{"inputs":[],"name":"REPUTATION_DECAY_RATE","outputs":[{"internalType":"uint256","name":"","type":"uint256"}],"stateMutability":"view","type":"function"},{"inputs":[],"name":"VOTING_PERIOD","outputs":[{"internalType":"uint256","name":"","type":"uint256"}],"stateMutability":"view","type":"function"},{"inputs":[{"internalType":"string","name":"_workType","type":"string"}],"name":"addWorkType","outputs":[],"stateMutability":"nonpayable","type":"function"},{"inputs":[],"name":"applyReputationDecay","outputs":[],"stateMutability":"nonpayable","type":"function"},{"inputs":[{"internalType":"uint256","name":"_projectId","type":"uint256"}],"name":"completeProject","outputs":[],"stateMutability":"nonpayable","type":"function"},{"inputs":[{"internalType":"uint256","name":"","type":"uint256"}],"name":"computationalResults","outputs":[{"internalType":"uint256","name":"resultId","type":"uint256"},{"internalType":"address","name":"miner","type":"address"},{"internalType":"string","name":"workType","type":"string"},{"internalType":"uint256","name":"totalRecords","type":"uint256"},{"internalType":"uint256","name":"computationTime","type":"uint256"},{"internalType":"uint256","name":"accuracy","type":"uint256"},{"internalType":"uint256","name":"timestamp","type":"uint256"},{"internalType":"bool","name":"verified","type":"bool"},{"internalType":"uint256","name":"solidarityBonus","type":"uint256"}],"stateMutability":"view","type":"function"},{"inputs":[{"internalType":"string","name":"_title","type":"string"},{"internalType":"string","name":"_description","type":"string"},{"internalType":"string[]","name":"_workTypes","type":"string[]"},{"internalType":"address[]","name":"_participants","type":"address[]"},{"internalType":"uint256","name":"_budget","type":"uint256"},{"internalType":"uint256","name":"_difficulty","type":"uint256"}],"name":"createProject","outputs":[],"stateMutability":"nonpayable","type":"function"},{"inputs":[{"internalType":"string","name":"_title","type":"string"},{"internalType":"string","name":"_description","type":"string"}],"name":"createProposal","outputs":[],"stateMutability":"nonpayable","type":"function"},{"inputs":[{"internalType":"uint256","name":"_amount","type":"uint256"}],"name":"depositToRewardPool","outputs":[],"stateMutability":"nonpayable","type":"function"},{"inputs":[{"internalType":"uint256","name":"_amount","type":"uint256"}],"name":"emergencyWithdraw","outputs":[],"stateMutability":"nonpayable","type":"function"},{"inputs":[{"internalType":"uint256","name":"_resultId","type":"uint256"}],"name":"getComputationalResult","outputs":[{"internalType":"uint256","name":"","type":"uint256"},{"internalType":"address","name":"","type":"address"},{"internalType":"string","name":"","type":"string"},{"internalType":"uint256","name":"","type":"uint256"},{"internalType":"uint256","name":"","type":"uint256"},{"internalType":"uint256","name":"","type":"uint256"},{"internalType":"string[]","name":"","type":"string[]"},{"internalType":"uint256","name":"","type":"uint256"},{"internalType":"bool","name":"","type":"bool"},{"internalType":"uint256","name":"","type":"uint256"}],"stateMutability":"view","type":"function"},{"inputs":[{"internalType":"address","name":"_member","type":"address"}],"name":"getMember","outputs":[{"components":[{"internalType":"address","name":"memberAddress","type":"address"},{"internalType":"uint256","name":"joinedAt","type":"uint256"},{"internalType":"uint256","name":"contributionScore","type":"uint256"},{"internalType":"uint256","name":"reputationScore","type":"uint256"},{"internalType":"uint256","name":"totalRewards","type":"uint256"},{"internalType":"uint256","name":"collaborativeProjects","type":"uint256"},{"internalType":"uint256","name":"computationalContributions","type":"uint256"},{"internalType":"uint256","name":"patternsDiscovered","type":"uint256"},{"internalType":"bool","name":"isActive","type":"bool"},{"internalType":"string","name":"expertise","type":"string"}],"internalType":"struct ProductiveMinerSolidarity.SolidarityMember","name":"","type":"tuple"}],"stateMutability":"view","type":"function"},{"inputs":[{"internalType":"address","name":"_member","type":"address"}],"name":"getMemberComputationalStats","outputs":[{"internalType":"uint256","name":"computationalContributions","type":"uint256"},{"internalType":"uint256","name":"patternsDiscovered","type":"uint256"},{"internalType":"uint256","name":"totalRewards","type":"uint256"},{"internalType":"uint256","name":"reputationScore","type":"uint256"}],"stateMutability":"view","type":"function"},{"inputs":[{"internalType":"string","name":"_patternType","type":"string"}],"name":"getPatternBonus","outputs":[{"internalType":"uint256","name":"","type":"uint256"}],"stateMutability":"view","type":"function"},{"inputs":[{"internalType":"uint256","name":"_projectId","type":"uint256"}],"name":"getProject","outputs":[{"internalType":"uint256","name":"","type":"uint256"},{"internalType":"string","name":"","type":"string"},{"internalType":"string","name":"","type":"string"},{"internalType":"string[]","name":"","type":"string[]"},{"internalType":"address[]","name":"","type":"address[]"},{"internalType":"uint256","name":"","type":"uint256"},{"internalType":"uint256","name":"","type":"uint256"},{"internalType":"uint256","name":"","type":"uint256"},{"internalType":"uint256","name":"","type":"uint256"},{"internalType":"uint256","name":"","type":"uint256"},{"internalType":"bool","name":"","type":"bool"}],"stateMutability":"view","type":"function"},{"inputs":[{"internalType":"uint256","name":"_projectId","type":"uint256"},{"internalType":"address","name":"_contributor","type":"address"}],"name":"getProjectContribution","outputs":[{"internalType":"uint256","name":"","type":"uint256"}],"stateMutability":"view","type":"function"},{"inputs":[],"name":"getRewardPoolStatus","outputs":[{"components":[{"internalType":"uint256","name":"totalPool","type":"uint256"},{"internalType":"uint256","name":"collaborativePool","type":"uint256"},{"internalType":"uint256","name":"individualPool","type":"uint256"},{"internalType":"uint256","name":"governancePool","type":"uint256"},{"internalType":"uint256","name":"emergencyPool","type":"uint256"},{"internalType":"uint256","name":"lastUpdate","type":"uint256"}],"internalType":"struct ProductiveMinerSolidarity.RewardPool","name":"","type":"tuple"}],"stateMutability":"view","type":"function"},{"inputs":[],"name":"getSupportedWorkTypes","outputs":[{"internalType":"string[]","name":"","type":"string[]"}],"stateMutability":"view","type":"function"},{"inputs":[{"internalType":"string","name":"_expertise","type":"string"}],"name":"joinSolidarity","outputs":[],"stateMutability":"nonpayable","type":"function"},{"inputs":[{"internalType":"uint256","name":"_projectId","type":"uint256"},{"internalType":"uint256","name":"_contributionValue","type":"uint256"}],"name":"makeContribution","outputs":[],"stateMutability":"nonpayable","type":"function"},{"inputs":[{"internalType":"address","name":"","type":"address"}],"name":"members","outputs":[{"internalType":"address","name":"memberAddress","type":"address"},{"internalType":"uint256","name":"joinedAt","type":"uint256"},{"internalType":"uint256","name":"contributionScore","type":"uint256"},{"internalType":"uint256","name":"reputationScore","type":"uint256"},{"internalType":"uint256","name":"totalRewards","type":"uint256"},{"internalType":"uint256","name":"collaborativeProjects","type":"uint256"},{"internalType":"uint256","name":"computationalContributions","type":"uint256"},{"internalType":"uint256","name":"patternsDiscovered","type":"uint256"},{"internalType":"bool","name":"isActive","type":"bool"},{"internalType":"string","name":"expertise","type":"string"}],"stateMutability":"view","type":"function"},{"inputs":[],"name":"owner","outputs":[{"internalType":"address","name":"","type":"address"}],"stateMutability":"view","type":"function"},{"inputs":[{"internalType":"string","name":"","type":"string"}],"name":"patternDiscoveryBonuses","outputs":[{"internalType":"uint256","name":"","type":"uint256"}],"stateMutability":"view","type":"function"},{"inputs":[],"name":"productiveMinerToken","outputs":[{"internalType":"contract IERC20","name":"","type":"address"}],"stateMutability":"view","type":"function"},{"inputs":[{"internalType":"uint256","name":"","type":"uint256"}],"name":"projects","outputs":[{"internalType":"uint256","name":"projectId","type":"uint256"},{"internalType":"string","name":"title","type":"string"},{"internalType":"string","name":"description","type":"string"},{"internalType":"uint256","name":"totalBudget","type":"uint256"},{"internalType":"uint256","name":"rewardsDistributed","type":"uint256"},{"internalType":"uint256","name":"startTime","type":"uint256"},{"internalType":"uint256","name":"endTime","type":"uint256"},{"internalType":"uint256","name":"difficulty","type":"uint256"},{"internalType":"bool","name":"isCompleted","type":"bool"}],"stateMutability":"view","type":"function"},{"inputs":[{"internalType":"uint256","name":"","type":"uint256"}],"name":"proposals","outputs":[{"internalType":"uint256","name":"proposalId","type":"uint256"},{"internalType":"address","name":"proposer","type":"address"},{"internalType":"string","name":"title","type":"string"},{"internalType":"string","name":"description","type":"string"},{"internalType":"uint256","name":"votingPeriod","type":"uint256"},{"internalType":"uint256","name":"yesVotes","type":"uint256"},{"internalType":"uint256","name":"noVotes","type":"uint256"},{"internalType":"bool","name":"executed","type":"bool"}],"stateMutability":"view","type":"function"},{"inputs":[],"name":"renounceOwnership","outputs":[],"stateMutability":"nonpayable","type":"function"},{"inputs":[],"name":"rewardPool","outputs":[{"internalType":"uint256","name":"totalPool","type":"uint256"},{"internalType":"uint256","name":"collaborativePool","type":"uint256"},{"internalType":"uint256","name":"individualPool","type":"uint256"},{"internalType":"uint256","name":"governancePool","type":"uint256"},{"internalType":"uint256","name":"emergencyPool","type":"uint256"},{"internalType":"uint256","name":"lastUpdate","type":"uint256"}],"stateMutability":"view","type":"function"},{"inputs":[{"internalType":"string","name":"_workType","type":"string"},{"internalType":"uint256","name":"_totalRecords","type":"uint256"},{"internalType":"uint256","name":"_computationTime","type":"uint256"},{"internalType":"uint256","name":"_accuracy","type":"uint256"},{"internalType":"string[]","name":"_patternsDiscovered","type":"string[]"}],"name":"submitComputationalResult","outputs":[],"stateMutability":"nonpayable","type":"function"},{"inputs":[{"internalType":"uint256","name":"","type":"uint256"}],"name":"supportedWorkTypes","outputs":[{"internalType":"string","name":"","type":"string"}],"stateMutability":"view","type":"function"},{"inputs":[],"name":"totalComputationalResults","outputs":[{"internalType":"uint256","name":"","type":"uint256"}],"stateMutability":"view","type":"function"},{"inputs":[],"name":"totalMembers","outputs":[{"internalType":"uint256","name":"","type":"uint256"}],"stateMutability":"view","type":"function"},{"inputs":[],"name":"totalProjects","outputs":[{"internalType":"uint256","name":"","type":"uint256"}],"stateMutability":"view","type":"function"},{"inputs":[],"name":"totalProposals","outputs":[{"internalType":"uint256","name":"","type":"uint256"}],"stateMutability":"view","type":"function"},{"inputs":[{"internalType":"address","name":"newOwner","type":"address"}],"name":"transferOwnership","outputs":[],"stateMutability":"nonpayable","type":"function"},{"inputs":[{"internalType":"address","name":"_member","type":"address"},{"internalType":"uint256","name":"_score","type":"uint256"}],"name":"updateReputation","outputs":[],"stateMutability":"nonpayable","type":"function"},{"inputs":[{"internalType":"uint256","name":"_resultId","type":"uint256"},{"internalType":"bool","name":"_verified","type":"bool"}],"name":"verifyComputationalResult","outputs":[],"stateMutability":"nonpayable","type":"function"},{"inputs":[{"internalType":"uint256","name":"_proposalId","type":"uint256"},{"internalType":"bool","name":"_choice","type":"bool"}],"name":"vote","outputs":[],"stateMutability":"nonpayable","type":"function"}],"evm":{"bytecode":{"linkReferences":{},"object":"608034620005cd57601f620036a738819003828101601f199081168501946001600160401b0393909284871184881017620005d25780849260409889528339602093849181010312620005cd57516001600160a01b03808216929091839003620005cd57600095865460018060a01b031993338583161789553391167f8be0079c531659141344cd1fd0a4f28419497f9722a3daafe3b4186f6b6457e08980a3600191828055885191610120830183811089821117620005b9578a52620000c5620005e8565b601781527f5072696d65205061747465726e20446973636f76657279000000000000000000888201528352620000fa620005e8565b601881527f5269656d616e6e205a65726f20436f6d7075746174696f6e0000000000000000888201528784015262000131620005e8565b601781527f59616e672d4d696c6c73204669656c64205468656f7279000000000000000000888201528a84015262000168620005e8565b8781527f476f6c646261636820436f6e6a65637475726520566572696669636174696f6e8882015260608401526200019f620005e8565b601881527f4e61766965722d53746f6b65732053696d756c6174696f6e0000000000000000888201526080840152620001d7620005e8565b601581527f42697263682d5377696e6e6572746f6e2d4479657200000000000000000000008882015260a08401526200020f620005e8565b601b81527f456c6c69707469632043757276652043727970746f67726170687900000000008882015260c084015262000247620005e8565b601481527f4c6174746963652043727970746f6772617068790000000000000000000000008882015260e08401526200027f620005e8565b601381527f506f696e6361726520436f6e6a656374757265000000000000000000000000008882015261010084015260125492600993846012558085106200053c575b50919060128a52878a20918a935b858510620004125750505050505050600254161760025583519160c083019083821090821117620003fe579083918552818352820152818382015281606082015281608082015260a04291015280600c5580600d5580600e5580600f55601055426011556101f4602b82516a7477696e5f7072696d657360a81b81526007600b8201522055610190602d82516c636f7573696e5f7072696d657360981b81526007600d820152205561015e602b82516a736578795f7072696d657360a81b81526007600b82015220556103e8602e82516d6d657273656e6e655f7072696d6560901b81526007600e82015220556102ee603582517f676f6c64626163685f766572696669636174696f6e000000000000000000000081526007601582015220555161304890816200065f8239f35b634e487b7160e01b84526041600452602484fd5b80519081518c8111620005285788918c918f62000430895462000608565b888111620004ed575b5083908883116001146200047e579085968362000472575b5050600019600383901b1c191690841b1787555b01940194019392620002d0565b01519050388062000451565b908783168a8352858320925b818110620004ca5750908697848895949310620004b0575b505050811b01875562000465565b015160001960f88460031b161c19169055388080620004a2565b9497939686929691938786015181550195019301928f94918d969397946200048a565b62000517908a835285832060058b808701821c8301938988106200051e575b01901c019062000645565b3862000439565b935082936200050c565b634e487b7160e01b8e52604160045260248efd5b60128b5285858a8d2092830192015b8281106200055b575050620002c2565b8c62000568825462000608565b806200057a575b50500186906200054b565b8c87808311600114620005955750505081555b8c386200056f565b620005af918585528420920160051c820185830162000645565b818355556200058d565b634e487b7160e01b8a52604160045260248afd5b600080fd5b634e487b7160e01b600052604160045260246000fd5b60408051919082016001600160401b03811183821017620005d257604052565b90600182811c921680156200063a575b60208310146200062457565b634e487b7160e01b600052602260045260246000fd5b91607f169162000618565b81811062000651575050565b600081556001016200064556fe6080604052600436101561001257600080fd5b60003560e01c8063013cf08b146127c157806302129e741461266a578063053861401461259457806305f4b26f1461252d57806308ae4b0c14612475578063107046bd146123c25780631910de7a1461232b5780632245f1521461200d5780632295dd4414611fbd57806322d771ec14611a17578063274dce13146119fb5780632ada25961461187957806333cf7c9c146118505780635312ea8e14611755578063547b9c3d1461154d57806365e481e21461140857806366666aa9146113c0578063715018a614611367578063732fb41f14610d8557806376e9255914610d675780637a0a39bf14610cbd5780638da5cb5b14610c9457806399100bae14610c795780639c361e4e14610c5b5780639f61ebd314610a73578063a78d80fc14610a55578063ac92eacb146106e3578063ae8e5b27146109f6578063b1610d7e146109d8578063b4c16a16146109bc578063c9d27afe146107ec578063cb05347a1461073f578063cd604cb1146106e3578063d8987642146106c7578063ece8f1f914610662578063f0f3f2c814610521578063f240c3e514610503578063f2fde38b1461043f578063f5c91a081461037c5763f8fbafd9146101d457600080fd5b34610377576020366003190112610377576004356101f0612e09565b8015610332576002546040516323b872dd60e01b81523360048201523060248201526044810183905290602090829060649082906000906001600160a01b03165af180156103265761024a916000916102f8575b50612f7f565b602881028181046028036102e257601e8202828104601e036102e25760148302928084046014036102e257600a810291818304600a036102e2576102d5946102bd60648096936102b18280966102a56102c999600c54612e6d565b600c5504600d54612e6d565b600d5504600e54612e6d565b600e5504600f54612e6d565b600f5504601054612e6d565b6010554260115560018055005b634e487b7160e01b600052601160045260246000fd5b610319915060203d811161031f575b61031181836128e5565b810190612f67565b38610244565b503d610307565b6040513d6000823e3d90fd5b60405162461bcd60e51b815260206004820152601760248201527f416d6f756e74206d75737420626520706f7369746976650000000000000000006044820152606490fd5b600080fd5b3461037757604036600319011261037757610395612ac5565b602435906103a1612c14565b6001600160a01b031660008181526003602052604090206008015490919060ff16156104065760207ffc577563f1b9a0461e24abef1e1fcc0d33d3d881f20b5df6dda59de4aae2c82191836000526003825280600360406000200155604051908152a2005b60405162461bcd60e51b81526020600482015260116024820152704d656d626572206e6f742061637469766560781b6044820152606490fd5b3461037757602036600319011261037757610458612ac5565b610460612c14565b6001600160a01b039081169081156104af57600054826001600160601b0360a01b821617600055167f8be0079c531659141344cd1fd0a4f28419497f9722a3daafe3b4186f6b6457e0600080a3005b60405162461bcd60e51b815260206004820152602660248201527f4f776e61626c653a206e6577206f776e657220697320746865207a65726f206160448201526564647265737360d01b6064820152608490fd5b34610377576000366003190112610377576020600b54604051908152f35b3461037757602080600319360112610377576004356000526004815260406000208054906004810190600581015491600682015460078301546008840154918760098601549460ff600a880154169661057c60018201612906565b610594600361058d60028501612906565b9301612fbd565b92604051908195869281835491828152019260005281600020916000905b82821061063e5750505050036105c890856128e5565b6040519b8c9b8c5261016080918d01528b016105e3916129cf565b8a810360408c01526105f4916129cf565b89810360608b015261060591612a13565b88810360808a015261061691612bd7565b9560a088015260c087015260e086015261010085015261012084015215156101408301520390f35b600192948380809496985060a01b0387541681520194019101918f928894936105b2565b34610377576020366003190112610377576004356012548110156103775761068990612b72565b6106b1576106996106ad91612906565b6040519182916020835260208301906129cf565b0390f35b634e487b7160e01b600052600060045260246000fd5b34610377576000366003190112610377576020604051605f8152f35b34610377576020366003190112610377576004356001600160401b0381116103775761072c602061071981933690600401612a6f565b81604051938285809451938492016129ac565b8101600781520301902054604051908152f35b3461037757600036600319011261037757600060a0604051610760816128ca565b828152826020820152826040820152826060820152826080820152015260c060405161078b816128ca565b600c5490818152600d5460208201908152600e5460408301908152600f549060608401918252601054926080850193845260a060115495019485526040519586525160208601525160408501525160608401525160808301525160a0820152f35b34610377576107fa366129f4565b90600a54811015610981573360005260206003815261082360ff60086040600020015416612c6c565b81600052600581526004604060002001544211610947578160005260058152600860406000200133600052815260ff60406000205416610913577fe71fcdac32df1877c1700e7bda2a03157e20993363a28fc35ac495cefc76e4d4908260005260058152600960406000203360005260038352600360406000200154866000146108fd576108b660058301918254612e6d565b90555b336000526008810183526040600020600160ff198254161790550181526108f08460406000209060ff801983541691151516179055565b60405193151584523393a3005b61090c60068301918254612e6d565b90556108b9565b6064906040519062461bcd60e51b82526004820152600d60248201526c105b1c9958591e481d9bdd1959609a1b6044820152fd5b6064906040519062461bcd60e51b825260048201526013602482015272159bdd1a5b99c81c195c9a5bd908195b991959606a1b6044820152fd5b60405162461bcd60e51b8152602060048201526013602482015272125b9d985b1a59081c1c9bdc1bdcd85b081251606a1b6044820152606490fd5b3461037757600036600319011261037757602060405160648152f35b3461037757600036600319011261037757602060405162093a808152f35b34610377576020366003190112610377576001600160a01b03610a17612ac5565b166000526003602052608060406000206006810154906007810154906003600482015491015491604051938452602084015260408301526060820152f35b34610377576000366003190112610377576020600a54604051908152f35b3461037757602080600319360112610377576004356001600160401b03811161037757610aa4903690600401612a6f565b336000526003825260ff60086040600020015416610c2357805115610be957610b9a604051610ad2816128ae565b338152600983610b9283878082014281526040830160008152606084016064815260808501906000825260a08601926000845260c087019460008652600360e0890197600089526101206101008b019a60018c52019b8c52336000525260406000209b60018060a01b039051166001600160601b0360a01b8d5416178c555160018c01555160028b01555160038a0155516004890155516005880155516006870155516007860155511515600885019060ff801983541691151516179055565b519101612ccf565b600854600181018091116102e2577fd4a0b090df78a1c4f9456b377b34ef4dfac7251637b55d4b0a731a799c84a44c91610be49160085560405191829185835233958301906129cf565b0390a2005b60405162461bcd60e51b8152600481018390526012602482015271115e1c195c9d1a5cd9481c995c5d5a5c995960721b6044820152606490fd5b60405162461bcd60e51b815260048101839052601060248201526f20b63932b0b23c90309036b2b6b132b960811b6044820152606490fd5b34610377576000366003190112610377576020600954604051908152f35b3461037757600036600319011261037757610c92612c14565b005b34610377576000366003190112610377576000546040516001600160a01b039091168152602090f35b34610377576020366003190112610377576004356000908152600660205260409020805460018201546001600160a01b031691610cfc60028201612906565b60038201549160048101546005820154600783015491610d41600960ff60088701541695015495604051998a998a5260208a01526101208060408b01528901906129cf565b956060880152608087015260a086015260c0850152151560e08401526101008301520390f35b34610377576000366003190112610377576020600854604051908152f35b346103775760a0366003190112610377576001600160401b0360043581811161037757610db6903690600401612a6f565b9060843590811161037757610dcf903690600401612af2565b610dd7612e09565b336000526003602052610df460ff60086040600020015416612c6c565b6024351561132257612710606435116112dd576044351561129857600b5481516103e88060243502906024358204036102e257610e349060443590612e7a565b8060011b90808204600214901517156102e2576101f4808211611290575b50816064810204606414821517156102e2576064602435046064016064116102e257610e976064610e9c930291610e97600a6064350491606460243504606401612e6d565b612e6d565b9160405193610eaa856128ae565b8285523360208601528060408601526024356060860152604435608086015260643560a08601528160c08601524260e08601526000610100860152836101208601528260005260066020526040600020855181556001810160018060a01b036020880151166001600160601b0360a01b825416179055610f31604087015160028301612ccf565b606086015160038201556080860151600482015560a0860151600582015560c0860151805190600160401b821161127a576006830154826006850155808310611201575b506020016006830160005260206000206000915b8383106111e45750505050600961012060e08801519760079889850155610fc66101008201511515600886019060ff801983541691151516179055565b0151910155336000526003602052600660406000200154600181018091116102e2578561100b9133600052600360205260406000209060068201550154835190612e6d565b336000526003602052856040600020015560009260005b83518110156110d05761104e602061103a8387612df5565b5181604051938285809451938492016129ac565b81018a815203019020548061106d575b5061106890612de6565b611022565b949061107c8661106893612e6d565b957ff89931f71205fefd603e8a6ea7ac08a9c5efb228783c2c0e43566cb863abb12b6110a88388612df5565b516110be604051916040835260408301906129cf565b9260208201528033930390a29061105e565b5084846110dd8183612e6d565b61113d575b50506110ef600b54612e5f565b600b557ff03b7374abd388963e9baffa797d886bd734a2aea8b235c96c3e3ba0580ef876611128604051936040855260408501906129cf565b9260643560208201528033940390a360018055005b61117d913360005260036020526111666004604060002001546111608484612e6d565b90612e6d565b336000526003602052600460406000200155612e6d565b60405190815260406020820152601960408201527f436f6d7075746174696f6e616c20416368696576656d656e740000000000000060608201527fc2ff8205a96f8c5c83a4b4fd0f518efbc5496331fb7d75d13cb422d310aa44de60803392a282806110e2565b60016020826111f583945186612ccf565b01920192019190610f89565b600684016000526020600020908382015b8183018110611222575050610f75565b8061122f60019254612874565b8061123c575b5001611212565b601f908181118414611255575050600081555b8c611235565b61127160009284845260208420920160051c8201858301612cb8565b8183555561124f565b634e487b7160e01b600052604160045260246000fd5b905085610e52565b60405162461bcd60e51b815260206004820152601860248201527f496e76616c696420636f6d7075746174696f6e2074696d6500000000000000006044820152606490fd5b60405162461bcd60e51b815260206004820152601b60248201527f496e76616c69642061636375726163792070657263656e7461676500000000006044820152606490fd5b60405162461bcd60e51b815260206004820152601e60248201527f4d7573742070726f63657373206174206c656173742031207265636f726400006044820152606490fd5b3461037757600036600319011261037757611380612c14565b600080546001600160a01b0319811682556001600160a01b03167f8be0079c531659141344cd1fd0a4f28419497f9722a3daafe3b4186f6b6457e08280a3005b346103775760003660031901126103775760c0600c54600d54600e54600f546010549160115493604051958652602086015260408501526060840152608083015260a0820152f35b34610377576040366003190112610377576001600160401b0360043581811161037757611439903690600401612a6f565b9060243590811161037757611452903690600401612a6f565b33600052600360205261146f60ff60086040600020015416612c6c565b33600052600360205261148d60646003604060002001541015612eda565b600a54908160005260056020526114d260406000209183835560018301336001600160601b0360a01b8254161790556114c98560028501612ccf565b60038301612ccf565b62093a804201908142116102e257600791600482015560006005820155600060068201550160ff198154169055600a54600181018091116102e257600a557f7585f467599d0f008985f231af99293be388626ac16ca59505c2f8f88969cd636040516020815280611548339560208301906129cf565b0390a3005b346103775760403660031901126103775760243560043561156c612e09565b6115796009548210612f26565b8060005260206004815260ff600a604060002001541661171d5782156116d95781600052600481526040600020600080600483018054915b82811061169b575b505050156116565790600c82600b7f0a4a91237423e0a1766a761c7cb029311d8b95d6b1b81db1b949a70c98b4e08e94013360005280845261160087604060002054612e6d565b903360005284526040600020550181526040600020600160ff198254161790556003815261163684600260406000200154612e6d565b33600052600382526002604060002001556040519384523393a360018055005b60405162461bcd60e51b815260048101839052601960248201527f4e6f7420612070726f6a656374207061727469636970616e74000000000000006044820152606490fd5b6116a58183612bbf565b905460039190911b1c6001600160a01b031633146116cb576116c690612de6565b6115b1565b5050505060018580806115b9565b6064906040519062461bcd60e51b82526004820152601d60248201527f436f6e747269627574696f6e206d75737420626520706f7369746976650000006044820152fd5b6064906040519062461bcd60e51b825260048201526011602482015270141c9bda9958dd0818dbdb5c1b195d1959607a1b6044820152fd5b3461037757602036600319011261037757600435611771612c14565b601054811161180b576002546000805460405163a9059cbb60e01b81526001600160a01b03918216600482015260248101859052926020928492604492849291165af18015610326576117cb916000916117ed5750612f7f565b6010548181039081116102e257601055600c549081039081116102e257600c55005b611805915060203d811161031f5761031181836128e5565b83610244565b60405162461bcd60e51b815260206004820152601c60248201527f496e73756666696369656e7420656d657267656e63792066756e6473000000006044820152606490fd5b34610377576000366003190112610377576002546040516001600160a01b039091168152602090f35b3461037757602036600319011261037757611892612ac5565b60606101206040516118a3816128ae565b60008152600060208201526000604082015260008382015260006080820152600060a0820152600060c0820152600060e08201526000610100820152015260018060a01b03166000526003602052610120604060002061197460096040519261190b846128ae565b80546001600160a01b0316845260018101546020850152600281015460408501526003810154606085015260048101546080850152600581015460a0850152600681015460c0850152600781015460e0850152600881015460ff16151561010085015201612906565b828201526106ad6040519283926020845260018060a01b038151166020850152602081015160408501526040810151606085015260608101516080850152608081015160a085015260a081015160c085015260c081015160e085015260e08101516101008501526101008101511515828501520151610140808401526101608301906129cf565b3461037757600036600319011261037757602060405160968152f35b346103775760c0366003190112610377576004356001600160401b03811161037757611a47903690600401612a6f565b6024356001600160401b03811161037757611a66903690600401612a6f565b6044356001600160401b03811161037757611a85903690600401612af2565b6001600160401b036064351161037757366023606435011215610377576064356004013592611ab384612adb565b92611ac160405194856128e5565b8484526020840180953660248260051b60643501011161037757602460643501915b60248260051b60643501018310611f9b57505050611aff612e09565b336000526003602052611b1c60ff60086040600020015416612c6c565b336000526003602052611b3a60646003604060002001541015612eda565b600184511115611f3c5760843515611ef75760a435151580611eea575b15611eb05760005b8451811015611be8576001600160a01b03611b7a8287612df5565b5116600052600360205260ff6008604060002001541615611ba357611b9e90612de6565b611b5f565b60405162461bcd60e51b815260206004820152601860248201527f5061727469636970616e74206e6f742061206d656d62657200000000000000006044820152606490fd5b5083908560095494856000526004602052611c1b604060002093878555611c128760018701612ccf565b60028501612ccf565b805190600160401b821161127a576003840154826003860155808310611e37575b506020016003840160005260206000206000915b838310611e1a5750505050600482018351916001600160401b03831161127a57600160401b831161127a578154838355808410611dfc575b5090600052602060002060005b838110611ddf57505050506084356005820155600060068201554260078201556000600882015560a4356009820155600a810160ff1990818154169055600090600b600c84019301915b8451811015611d7c57611d77906001600160a01b0380611cff8389612df5565b511660005285602052604060002084815416905580611d1e8389612df5565b5116600052846020526000604081205580611d398389612df5565b51166000526003602052611d54600560406000200154612e5f565b90611d5f8389612df5565b51166000526003602052600560406000200155612de6565b611cdf565b867f998b9b07e791ba38d092110522ed4d3471af4b7b3729fb284fa42dff5992c990611dc888611dd689611db1600954612e5f565b6009556040519384936040855260408501906129cf565b908382036020850152612bd7565b0390a260018055005b82516001600160a01b031681830155602090920191600101611c95565b611e1490836000528460206000209182019101612cb8565b87611c88565b6001602082611e2b83945186612ccf565b01920192019190611c50565b600385016000526020600020908382015b8183018110611e58575050611c3c565b80611e6560019254612874565b80611e72575b5001611e48565b601f908181118414611e8b575050600081555b8b611e6b565b611ea760009284845260208420920160051c8201858301612cb8565b81835555611e85565b60405162461bcd60e51b8152602060048201526012602482015271496e76616c696420646966666963756c747960701b6044820152606490fd5b50606460a4351115611b57565b60405162461bcd60e51b815260206004820152601760248201527f427564676574206d75737420626520706f7369746976650000000000000000006044820152606490fd5b60405162461bcd60e51b815260206004820152603160248201527f436f6c6c61626f7261746976652070726f6a656374206e65656473206d756c7460448201527069706c65207061727469636970616e747360781b6064820152608490fd5b8235906001600160a01b03821682036103775790815260209283019201611ae3565b34610377576040366003190112610377576024356001600160a01b03811690819003610377576004356000526004602052600b604060002001906000526020526020604060002054604051908152f35b34610377576020806003193601126103775760043561202a612e09565b600961203881548310612f26565b816000526004835260ff600a60406000200154166122f257816000526004835260406000209160018060a01b0392836000541633149460009360048301968754955b8681106122c0575b5015612270576000926000600b8201965b888a828410612236575050505083156121f9576005810154906096820291808304609614811517156102e2576120ce90606480940490612e6d565b9760005b8a548110156121dd5780898987898f8f88908b8f6120f46121209b8e96612bbf565b949054600395861b1c169889600052865260406000205480612125575b50505050505050505050612de6565b6120d2565b7f4cbfa67f54cf0255619787991cb52aa46c0d3ee5cfabb0abf659f2b310f47485976121606121929361215b846121a798612dd3565b612e7a565b968b60005286895261217a88600460406000200154612e6d565b8c600052878a52600460406000200155015490612dd3565b04876000528285528260406000200154612e6d565b908660005280845260406000200155600689016121c5828254612e6d565b9055604051908152a38c898789878f808b8f88612111565b600a8301805460ff191660019081179091554260088501558055005b60405162461bcd60e51b81526004810184905260156024820152744e6f20636f6e747269627574696f6e73206d61646560581b6044820152606490fd5b966122649161224a8561226a95969a612bbf565b90549060031b1c1660005289875260406000205490612e6d565b95612de6565b90612093565b60405162461bcd60e51b815260048101839052602260248201527f4e6f7420617574686f72697a656420746f20636f6d706c6574652070726f6a6560448201526118dd60f21b6064820152608490fd5b876122cb828b612bbf565b919054339260031b1c16146122e8576122e390612de6565b61207a565b5050600188612082565b60405162461bcd60e51b8152600481018490526011602482015270105b1c9958591e4818dbdb5c1b195d1959607a1b6044820152606490fd5b346103775760003660031901126103775760125461234881612adb565b9061235660405192836128e5565b80825260209081830160126000527fbb8a6a4669ba250d26cd7a459eca9d215f8307e33aebe50379bc5a3617ec3444836000925b8484106123a457604051828152806106ad8185018a612a13565b60019182916123b285612906565b815201920192019190849061238a565b34610377576020366003190112610377576004356000526004602052604060002080546123f160018301612906565b916123fe60028201612906565b6005820154916006810154600782015460088301549161244f60ff600a600987015496015416956124416040519a8b9a8b526101208060208d01528b01906129cf565b9089820360408b01526129cf565b956060880152608087015260a086015260c085015260e084015215156101008301520390f35b34610377576020366003190112610377576001600160a01b0380612497612ac5565b1660005260036020526040600020908154166106ad6001830154926002810154906003810154600482015460058301546006840154916007850154936124e7600960ff6008890154169701612906565b966040519a8b9a8b5260208b015260408a01526060890152608088015260a087015260c086015260e08501521515610100840152610140806101208501528301906129cf565b34610377576020366003190112610377576004356001600160401b0381116103775761255d903690600401612a6f565b612565612c14565b601254600160401b81101561127a578060016125849201601255612b72565b9190916106b157610c9291612ccf565b34610377576020366003190112610377576004356125b5600b548210612e9a565b60005260066020526040600020805460018060a01b0360018301541691600381015460048201549061265260058401549160078501549460ff60088201541693600982015495612635612616600661260f60028701612906565b9501612fbd565b936040519b8c9b8c5260208c01526101408060408d01528b01906129cf565b9360608a0152608089015260a088015286820360c0880152612a13565b9260e085015215156101008401526101208301520390f35b3461037757612678366129f4565b90612681612c14565b61268e600b548210612e9a565b600052602090600682526040600020906008820160ff81541661278957805460ff191660ff831515161790556126c057005b6080816040600a60097fc2ff8205a96f8c5c83a4b4fd0f518efbc5496331fb7d75d13cb422d310aa44de9501540491600181016064600560018060a01b0393848454168060005260038b5261271c886004896000200154612e6d565b9060005260038b5260048760002001550154046127488383541691826000526003866000200154612e6d565b90600052600388526003846000200155541694815192835282015260136040820152722932b9bab63a102b32b934b334b1b0ba34b7b760691b6060820152a2005b60405162461bcd60e51b815260048101859052601060248201526f105b1c9958591e481d995c9a599a595960821b6044820152606490fd5b34610377576020366003190112610377576004356000908152600560205260409020805460018201546001600160a01b03169161280060028201612906565b61280c60038301612906565b9160048101549261285960058301549161284b60ff600760068701549601541695604051998a998a5260208a01526101008060408b01528901906129cf565b9087820360608901526129cf565b93608086015260a085015260c0840152151560e08301520390f35b90600182811c921680156128a4575b602083101461288e57565b634e487b7160e01b600052602260045260246000fd5b91607f1691612883565b61014081019081106001600160401b0382111761127a57604052565b60c081019081106001600160401b0382111761127a57604052565b90601f801991011681019081106001600160401b0382111761127a57604052565b906040519182600082549261291a84612874565b9081845260019485811690816000146129895750600114612946575b5050612944925003836128e5565b565b9093915060005260209081600020936000915b81831061297157505061294493508201013880612936565b85548884018501529485019487945091830191612959565b91505061294494506020925060ff191682840152151560051b8201013880612936565b60005b8381106129bf5750506000910152565b81810151838201526020016129af565b906020916129e8815180928185528580860191016129ac565b601f01601f1916010190565b6040906003190112610377576004359060243580151581036103775790565b908082519081815260208091019281808460051b8301019501936000915b848310612a415750505050505090565b9091929394958480612a5f600193601f198682030187528a516129cf565b9801930193019194939290612a31565b81601f82011215610377578035906001600160401b03821161127a5760405192612aa3601f8401601f1916602001856128e5565b8284526020838301011161037757816000926020809301838601378301015290565b600435906001600160a01b038216820361037757565b6001600160401b03811161127a5760051b60200190565b9080601f8301121561037757813590612b0a82612adb565b92612b1860405194856128e5565b828452602092838086019160051b8301019280841161037757848301915b848310612b465750505050505090565b82356001600160401b038111610377578691612b6784848094890101612a6f565b815201920191612b36565b601254811015612ba95760126000527fbb8a6a4669ba250d26cd7a459eca9d215f8307e33aebe50379bc5a3617ec34440190600090565b634e487b7160e01b600052603260045260246000fd5b8054821015612ba95760005260206000200190600090565b90815180825260208080930193019160005b828110612bf7575050505090565b83516001600160a01b031685529381019392810192600101612be9565b6000546001600160a01b03163303612c2857565b606460405162461bcd60e51b815260206004820152602060248201527f4f776e61626c653a2063616c6c6572206973206e6f7420746865206f776e65726044820152fd5b15612c7357565b60405162461bcd60e51b815260206004820152601760248201527f4e6f74206120736f6c69646172697479206d656d6265720000000000000000006044820152606490fd5b818110612cc3575050565b60008155600101612cb8565b91909182516001600160401b03811161127a57612cec8254612874565b601f8111612d96575b50602080601f8311600114612d32575081929394600092612d27575b50508160011b916000199060031b1c1916179055565b015190503880612d11565b90601f198316958460005282600020926000905b888210612d7e57505083600195969710612d65575b505050811b019055565b015160001960f88460031b161c19169055388080612d5b565b80600185968294968601518155019501930190612d46565b612dc390836000526020600020601f840160051c81019160208510612dc9575b601f0160051c0190612cb8565b38612cf5565b9091508190612db6565b818102929181159184041417156102e257565b60001981146102e25760010190565b8051821015612ba95760209160051b010190565b600260015414612e1a576002600155565b60405162461bcd60e51b815260206004820152601f60248201527f5265656e7472616e637947756172643a207265656e7472616e742063616c6c006044820152606490fd5b90600182018092116102e257565b919082018092116102e257565b8115612e84570490565b634e487b7160e01b600052601260045260246000fd5b15612ea157565b60405162461bcd60e51b8152602060048201526011602482015270125b9d985b1a59081c995cdd5b1d081251607a1b6044820152606490fd5b15612ee157565b60405162461bcd60e51b815260206004820152601760248201527f496e73756666696369656e742072657075746174696f6e0000000000000000006044820152606490fd5b15612f2d57565b60405162461bcd60e51b8152602060048201526012602482015271125b9d985b1a59081c1c9bda9958dd08125160721b6044820152606490fd5b90816020910312610377575180151581036103775790565b15612f8657565b60405162461bcd60e51b815260206004820152600f60248201526e151c985b9cd9995c8819985a5b1959608a1b6044820152606490fd5b908154612fc981612adb565b92612fd760405194856128e5565b818452600090815260208082208186015b848410612ff6575050505050565b600183819261300485612906565b815201920193019290612fe856fea26469706673582212201f90b54659f7bc52f8d3d98e975303e5dcca28d564016396d1fea49d077665e064736f6c63430008140033","opcodes":"PUSH1 0x80 CALLVALUE PUSH3 0x5CD JUMPI PUSH1 0x1F PUSH3 0x36A7 CODESIZE DUP2 SWAP1 SUB DUP3 DUP2 ADD PUSH1 0x1F NOT SWAP1 DUP2 AND DUP6 ADD SWAP5 PUSH1 0x1 PUSH1 0x1 PUSH1 0x40 SHL SUB SWAP4 SWAP1 SWAP3 DUP5 DUP8 GT DUP5 DUP9 LT OR PUSH3 0x5D2 JUMPI DUP1 DUP5 SWAP3 PUSH1 0x40 SWAP9 DUP10 MSTORE DUP4 CODECOPY PUSH1 0x20 SWAP4 DUP5 SWAP2 DUP2 ADD SUB SLT PUSH3 0x5CD JUMPI MLOAD PUSH1 0x1 PUSH1 0x1 PUSH1 0xA0 SHL SUB DUP1 DUP3 AND SWAP3 SWAP1 SWAP2 DUP4 SWAP1 SUB PUSH3 0x5CD JUMPI PUSH1 0x0 SWAP6 DUP7 SLOAD PUSH1 0x1 DUP1 PUSH1 0xA0 SHL SUB NOT SWAP4 CALLER DUP6 DUP4 AND OR DUP10 SSTORE CALLER SWAP2 AND PUSH32 0x8BE0079C531659141344CD1FD0A4F28419497F9722A3DAAFE3B4186F6B6457E0 DUP10 DUP1 LOG3 PUSH1 0x1 SWAP2 DUP3 DUP1 SSTORE DUP9 MLOAD SWAP2 PUSH2 0x120 DUP4 ADD DUP4 DUP2 LT DUP10 DUP3 GT OR PUSH3 0x5B9 JUMPI DUP11 MSTORE PUSH3 0xC5 PUSH3 0x5E8 JUMP JUMPDEST PUSH1 0x17 DUP2 MSTORE PUSH32 0x5072696D65205061747465726E20446973636F76657279000000000000000000 DUP9 DUP3 ADD MSTORE DUP4 MSTORE PUSH3 0xFA PUSH3 0x5E8 JUMP JUMPDEST PUSH1 0x18 DUP2 MSTORE PUSH32 0x5269656D616E6E205A65726F20436F6D7075746174696F6E0000000000000000 DUP9 DUP3 ADD MSTORE DUP8 DUP5 ADD MSTORE PUSH3 0x131 PUSH3 0x5E8 JUMP JUMPDEST PUSH1 0x17 DUP2 MSTORE PUSH32 0x59616E672D4D696C6C73204669656C64205468656F7279000000000000000000 DUP9 DUP3 ADD MSTORE DUP11 DUP5 ADD MSTORE PUSH3 0x168 PUSH3 0x5E8 JUMP JUMPDEST DUP8 DUP2 MSTORE PUSH32 0x476F6C646261636820436F6E6A65637475726520566572696669636174696F6E DUP9 DUP3 ADD MSTORE PUSH1 0x60 DUP5 ADD MSTORE PUSH3 0x19F PUSH3 0x5E8 JUMP JUMPDEST PUSH1 0x18 DUP2 MSTORE PUSH32 0x4E61766965722D53746F6B65732053696D756C6174696F6E0000000000000000 DUP9 DUP3 ADD MSTORE PUSH1 0x80 DUP5 ADD MSTORE PUSH3 0x1D7 PUSH3 0x5E8 JUMP JUMPDEST PUSH1 0x15 DUP2 MSTORE PUSH32 0x42697263682D5377696E6E6572746F6E2D447965720000000000000000000000 DUP9 DUP3 ADD MSTORE PUSH1 0xA0 DUP5 ADD MSTORE PUSH3 0x20F PUSH3 0x5E8 JUMP JUMPDEST PUSH1 0x1B DUP2 MSTORE PUSH32 0x456C6C69707469632043757276652043727970746F6772617068790000000000 DUP9 DUP3 ADD MSTORE PUSH1 0xC0 DUP5 ADD MSTORE PUSH3 0x247 PUSH3 0x5E8 JUMP JUMPDEST PUSH1 0x14 DUP2 MSTORE PUSH32 0x4C6174746963652043727970746F677261706879000000000000000000000000 DUP9 DUP3 ADD MSTORE PUSH1 0xE0 DUP5 ADD MSTORE PUSH3 0x27F PUSH3 0x5E8 JUMP JUMPDEST PUSH1 0x13 DUP2 MSTORE PUSH32 0x506F696E6361726520436F6E6A65637475726500000000000000000000000000 DUP9 DUP3 ADD MSTORE PUSH2 0x100 DUP5 ADD MSTORE PUSH1 0x12 SLOAD SWAP3 PUSH1 0x9 SWAP4 DUP5 PUSH1 0x12 SSTORE DUP1 DUP6 LT PUSH3 0x53C JUMPI JUMPDEST POP SWAP2 SWAP1 PUSH1 0x12 DUP11 MSTORE DUP8 DUP11 KECCAK256 SWAP2 DUP11 SWAP4 JUMPDEST DUP6 DUP6 LT PUSH3 0x412 JUMPI POP POP POP POP POP POP POP PUSH1 0x2 SLOAD AND OR PUSH1 0x2 SSTORE DUP4 MLOAD SWAP2 PUSH1 0xC0 DUP4 ADD SWAP1 DUP4 DUP3 LT SWAP1 DUP3 GT OR PUSH3 0x3FE JUMPI SWAP1 DUP4 SWAP2 DUP6 MSTORE DUP2 DUP4 MSTORE DUP3 ADD MSTORE DUP2 DUP4 DUP3 ADD MSTORE DUP2 PUSH1 0x60 DUP3 ADD MSTORE DUP2 PUSH1 0x80 DUP3 ADD MSTORE PUSH1 0xA0 TIMESTAMP SWAP2 ADD MSTORE DUP1 PUSH1 0xC SSTORE DUP1 PUSH1 0xD SSTORE DUP1 PUSH1 0xE SSTORE DUP1 PUSH1 0xF SSTORE PUSH1 0x10 SSTORE TIMESTAMP PUSH1 0x11 SSTORE PUSH2 0x1F4 PUSH1 0x2B DUP3 MLOAD PUSH11 0x7477696E5F7072696D6573 PUSH1 0xA8 SHL DUP2 MSTORE PUSH1 0x7 PUSH1 0xB DUP3 ADD MSTORE KECCAK256 SSTORE PUSH2 0x190 PUSH1 0x2D DUP3 MLOAD PUSH13 0x636F7573696E5F7072696D6573 PUSH1 0x98 SHL DUP2 MSTORE PUSH1 0x7 PUSH1 0xD DUP3 ADD MSTORE KECCAK256 SSTORE PUSH2 0x15E PUSH1 0x2B DUP3 MLOAD PUSH11 0x736578795F7072696D6573 PUSH1 0xA8 SHL DUP2 MSTORE PUSH1 0x7 PUSH1 0xB DUP3 ADD MSTORE KECCAK256 SSTORE PUSH2 0x3E8 PUSH1 0x2E DUP3 MLOAD PUSH14 0x6D657273656E6E655F7072696D65 PUSH1 0x90 SHL DUP2 MSTORE PUSH1 0x7 PUSH1 0xE DUP3 ADD MSTORE KECCAK256 SSTORE PUSH2 0x2EE PUSH1 0x35 DUP3 MLOAD PUSH32 0x676F6C64626163685F766572696669636174696F6E0000000000000000000000 DUP2 MSTORE PUSH1 0x7 PUSH1 0x15 DUP3 ADD MSTORE KECCAK256 SSTORE MLOAD PUSH2 0x3048 SWAP1 DUP2 PUSH3 0x65F DUP3 CODECOPY RETURN JUMPDEST PUSH4 0x4E487B71 PUSH1 0xE0 SHL DUP5 MSTORE PUSH1 0x41 PUSH1 0x4 MSTORE PUSH1 0x24 DUP5 REVERT JUMPDEST DUP1 MLOAD SWAP1 DUP2 MLOAD DUP13 DUP2 GT PUSH3 0x528 JUMPI DUP9 SWAP2 DUP13 SWAP2 DUP16 PUSH3 0x430 DUP10 SLOAD PUSH3 0x608 JUMP JUMPDEST DUP9 DUP2 GT PUSH3 0x4ED JUMPI JUMPDEST POP DUP4 SWAP1 DUP9 DUP4 GT PUSH1 0x1 EQ PUSH3 0x47E JUMPI SWAP1 DUP6 SWAP7 DUP4 PUSH3 0x472 JUMPI JUMPDEST POP POP PUSH1 0x0 NOT PUSH1 0x3 DUP4 SWAP1 SHL SHR NOT AND SWAP1 DUP5 SHL OR DUP8 SSTORE JUMPDEST ADD SWAP5 ADD SWAP5 ADD SWAP4 SWAP3 PUSH3 0x2D0 JUMP JUMPDEST ADD MLOAD SWAP1 POP CODESIZE DUP1 PUSH3 0x451 JUMP JUMPDEST SWAP1 DUP8 DUP4 AND DUP11 DUP4 MSTORE DUP6 DUP4 KECCAK256 SWAP3 JUMPDEST DUP2 DUP2 LT PUSH3 0x4CA JUMPI POP SWAP1 DUP7 SWAP8 DUP5 DUP9 SWAP6 SWAP5 SWAP4 LT PUSH3 0x4B0 JUMPI JUMPDEST POP POP POP DUP2 SHL ADD DUP8 SSTORE PUSH3 0x465 JUMP JUMPDEST ADD MLOAD PUSH1 0x0 NOT PUSH1 0xF8 DUP5 PUSH1 0x3 SHL AND SHR NOT AND SWAP1 SSTORE CODESIZE DUP1 DUP1 PUSH3 0x4A2 JUMP JUMPDEST SWAP5 SWAP8 SWAP4 SWAP7 DUP7 SWAP3 SWAP7 SWAP2 SWAP4 DUP8 DUP7 ADD MLOAD DUP2 SSTORE ADD SWAP6 ADD SWAP4 ADD SWAP3 DUP16 SWAP5 SWAP2 DUP14 SWAP7 SWAP4 SWAP8 SWAP5 PUSH3 0x48A JUMP JUMPDEST PUSH3 0x517 SWAP1 DUP11 DUP4 MSTORE DUP6 DUP4 KECCAK256 PUSH1 0x5 DUP12 DUP1 DUP8 ADD DUP3 SHR DUP4 ADD SWAP4 DUP10 DUP9 LT PUSH3 0x51E JUMPI JUMPDEST ADD SWAP1 SHR ADD SWAP1 PUSH3 0x645 JUMP JUMPDEST CODESIZE PUSH3 0x439 JUMP JUMPDEST SWAP4 POP DUP3 SWAP4 PUSH3 0x50C JUMP JUMPDEST PUSH4 0x4E487B71 PUSH1 0xE0 SHL DUP15 MSTORE PUSH1 0x41 PUSH1 0x4 MSTORE PUSH1 0x24 DUP15 REVERT JUMPDEST PUSH1 0x12 DUP12 MSTORE DUP6 DUP6 DUP11 DUP14 KECCAK256 SWAP3 DUP4 ADD SWAP3 ADD JUMPDEST DUP3 DUP2 LT PUSH3 0x55B JUMPI POP POP PUSH3 0x2C2 JUMP JUMPDEST DUP13 PUSH3 0x568 DUP3 SLOAD PUSH3 0x608 JUMP JUMPDEST DUP1 PUSH3 0x57A JUMPI JUMPDEST POP POP ADD DUP7 SWAP1 PUSH3 0x54B JUMP JUMPDEST DUP13 DUP8 DUP1 DUP4 GT PUSH1 0x1 EQ PUSH3 0x595 JUMPI POP POP POP DUP2 SSTORE JUMPDEST DUP13 CODESIZE PUSH3 0x56F JUMP JUMPDEST PUSH3 0x5AF SWAP2 DUP6 DUP6 MSTORE DUP5 KECCAK256 SWAP3 ADD PUSH1 0x5 SHR DUP3 ADD DUP6 DUP4 ADD PUSH3 0x645 JUMP JUMPDEST DUP2 DUP4 SSTORE SSTORE PUSH3 0x58D JUMP JUMPDEST PUSH4 0x4E487B71 PUSH1 0xE0 SHL DUP11 MSTORE PUSH1 0x41 PUSH1 0x4 MSTORE PUSH1 0x24 DUP11 REVERT JUMPDEST PUSH1 0x0 DUP1 REVERT JUMPDEST PUSH4 0x4E487B71 PUSH1 0xE0 SHL PUSH1 0x0 MSTORE PUSH1 0x41 PUSH1 0x4 MSTORE PUSH1 0x24 PUSH1 0x0 REVERT JUMPDEST PUSH1 0x40 DUP1 MLOAD SWAP2 SWAP1 DUP3 ADD PUSH1 0x1 PUSH1 0x1 PUSH1 0x40 SHL SUB DUP2 GT DUP4 DUP3 LT OR PUSH3 0x5D2 JUMPI PUSH1 0x40 MSTORE JUMP JUMPDEST SWAP1 PUSH1 0x1 DUP3 DUP2 SHR SWAP3 AND DUP1 ISZERO PUSH3 0x63A JUMPI JUMPDEST PUSH1 0x20 DUP4 LT EQ PUSH3 0x624 JUMPI JUMP JUMPDEST PUSH4 0x4E487B71 PUSH1 0xE0 SHL PUSH1 0x0 MSTORE PUSH1 0x22 PUSH1 0x4 MSTORE PUSH1 0x24 PUSH1 0x0 REVERT JUMPDEST SWAP2 PUSH1 0x7F AND SWAP2 PUSH3 0x618 JUMP JUMPDEST DUP2 DUP2 LT PUSH3 0x651 JUMPI POP POP JUMP JUMPDEST PUSH1 0x0 DUP2 SSTORE PUSH1 0x1 ADD PUSH3 0x645 JUMP INVALID PUSH1 0x80 PUSH1 0x40 MSTORE PUSH1 0x4 CALLDATASIZE LT ISZERO PUSH2 0x12 JUMPI PUSH1 0x0 DUP1 REVERT JUMPDEST PUSH1 0x0 CALLDATALOAD PUSH1 0xE0 SHR DUP1 PUSH4 0x13CF08B EQ PUSH2 0x27C1 JUMPI DUP1 PUSH4 0x2129E74 EQ PUSH2 0x266A JUMPI DUP1 PUSH4 0x5386140 EQ PUSH2 0x2594 JUMPI DUP1 PUSH4 0x5F4B26F EQ PUSH2 0x252D JUMPI DUP1 PUSH4 0x8AE4B0C EQ PUSH2 0x2475 JUMPI DUP1 PUSH4 0x107046BD EQ PUSH2 0x23C2 JUMPI DUP1 PUSH4 0x1910DE7A EQ PUSH2 0x232B JUMPI DUP1 PUSH4 0x2245F152 EQ PUSH2 0x200D JUMPI DUP1 PUSH4 0x2295DD44 EQ PUSH2 0x1FBD JUMPI DUP1 PUSH4 0x22D771EC EQ PUSH2 0x1A17 JUMPI DUP1 PUSH4 0x274DCE13 EQ PUSH2 0x19FB JUMPI DUP1 PUSH4 0x2ADA2596 EQ PUSH2 0x1879 JUMPI DUP1 PUSH4 0x33CF7C9C EQ PUSH2 0x1850 JUMPI DUP1 PUSH4 0x5312EA8E EQ PUSH2 0x1755 JUMPI DUP1 PUSH4 0x547B9C3D EQ PUSH2 0x154D JUMPI DUP1 PUSH4 0x65E481E2 EQ PUSH2 0x1408 JUMPI DUP1 PUSH4 0x66666AA9 EQ PUSH2 0x13C0 JUMPI DUP1 PUSH4 0x715018A6 EQ PUSH2 0x1367 JUMPI DUP1 PUSH4 0x732FB41F EQ PUSH2 0xD85 JUMPI DUP1 PUSH4 0x76E92559 EQ PUSH2 0xD67 JUMPI DUP1 PUSH4 0x7A0A39BF EQ PUSH2 0xCBD JUMPI DUP1 PUSH4 0x8DA5CB5B EQ PUSH2 0xC94 JUMPI DUP1 PUSH4 0x99100BAE EQ PUSH2 0xC79 JUMPI DUP1 PUSH4 0x9C361E4E EQ PUSH2 0xC5B JUMPI DUP1 PUSH4 0x9F61EBD3 EQ PUSH2 0xA73 JUMPI DUP1 PUSH4 0xA78D80FC EQ PUSH2 0xA55 JUMPI DUP1 PUSH4 0xAC92EACB EQ PUSH2 0x6E3 JUMPI DUP1 PUSH4 0xAE8E5B27 EQ PUSH2 0x9F6 JUMPI DUP1 PUSH4 0xB1610D7E EQ PUSH2 0x9D8 JUMPI DUP1 PUSH4 0xB4C16A16 EQ PUSH2 0x9BC JUMPI DUP1 PUSH4 0xC9D27AFE EQ PUSH2 0x7EC JUMPI DUP1 PUSH4 0xCB05347A EQ PUSH2 0x73F JUMPI DUP1 PUSH4 0xCD604CB1 EQ PUSH2 0x6E3 JUMPI DUP1 PUSH4 0xD8987642 EQ PUSH2 0x6C7 JUMPI DUP1 PUSH4 0xECE8F1F9 EQ PUSH2 0x662 JUMPI DUP1 PUSH4 0xF0F3F2C8 EQ PUSH2 0x521 JUMPI DUP1 PUSH4 0xF240C3E5 EQ PUSH2 0x503 JUMPI DUP1 PUSH4 0xF2FDE38B EQ PUSH2 0x43F JUMPI DUP1 PUSH4 0xF5C91A08 EQ PUSH2 0x37C JUMPI PUSH4 0xF8FBAFD9 EQ PUSH2 0x1D4 JUMPI PUSH1 0x0 DUP1 REVERT JUMPDEST CALLVALUE PUSH2 0x377 JUMPI PUSH1 0x20 CALLDATASIZE PUSH1 0x3 NOT ADD SLT PUSH2 0x377 JUMPI PUSH1 0x4 CALLDATALOAD PUSH2 0x1F0 PUSH2 0x2E09 JUMP JUMPDEST DUP1 ISZERO PUSH2 0x332 JUMPI PUSH1 0x2 SLOAD PUSH1 0x40 MLOAD PUSH4 0x23B872DD PUSH1 0xE0 SHL DUP2 MSTORE CALLER PUSH1 0x4 DUP3 ADD MSTORE ADDRESS PUSH1 0x24 DUP3 ADD MSTORE PUSH1 0x44 DUP2 ADD DUP4 SWAP1 MSTORE SWAP1 PUSH1 0x20 SWAP1 DUP3 SWAP1 PUSH1 0x64 SWAP1 DUP3 SWAP1 PUSH1 0x0 SWAP1 PUSH1 0x1 PUSH1 0x1 PUSH1 0xA0 SHL SUB AND GAS CALL DUP1 ISZERO PUSH2 0x326 JUMPI PUSH2 0x24A SWAP2 PUSH1 0x0 SWAP2 PUSH2 0x2F8 JUMPI JUMPDEST POP PUSH2 0x2F7F JUMP JUMPDEST PUSH1 0x28 DUP2 MUL DUP2 DUP2 DIV PUSH1 0x28 SUB PUSH2 0x2E2 JUMPI PUSH1 0x1E DUP3 MUL DUP3 DUP2 DIV PUSH1 0x1E SUB PUSH2 0x2E2 JUMPI PUSH1 0x14 DUP4 MUL SWAP3 DUP1 DUP5 DIV PUSH1 0x14 SUB PUSH2 0x2E2 JUMPI PUSH1 0xA DUP2 MUL SWAP2 DUP2 DUP4 DIV PUSH1 0xA SUB PUSH2 0x2E2 JUMPI PUSH2 0x2D5 SWAP5 PUSH2 0x2BD PUSH1 0x64 DUP1 SWAP7 SWAP4 PUSH2 0x2B1 DUP3 DUP1 SWAP7 PUSH2 0x2A5 PUSH2 0x2C9 SWAP10 PUSH1 0xC SLOAD PUSH2 0x2E6D JUMP JUMPDEST PUSH1 0xC SSTORE DIV PUSH1 0xD SLOAD PUSH2 0x2E6D JUMP JUMPDEST PUSH1 0xD SSTORE DIV PUSH1 0xE SLOAD PUSH2 0x2E6D JUMP JUMPDEST PUSH1 0xE SSTORE DIV PUSH1 0xF SLOAD PUSH2 0x2E6D JUMP JUMPDEST PUSH1 0xF SSTORE DIV PUSH1 0x10 SLOAD PUSH2 0x2E6D JUMP JUMPDEST PUSH1 0x10 SSTORE TIMESTAMP PUSH1 0x11 SSTORE PUSH1 0x1 DUP1 SSTORE STOP JUMPDEST PUSH4 0x4E487B71 PUSH1 0xE0 SHL PUSH1 0x0 MSTORE PUSH1 0x11 PUSH1 0x4 MSTORE PUSH1 0x24 PUSH1 0x0 REVERT JUMPDEST PUSH2 0x319 SWAP2 POP PUSH1 0x20 RETURNDATASIZE DUP2 GT PUSH2 0x31F JUMPI JUMPDEST PUSH2 0x311 DUP2 DUP4 PUSH2 0x28E5 JUMP JUMPDEST DUP2 ADD SWAP1 PUSH2 0x2F67 JUMP JUMPDEST CODESIZE PUSH2 0x244 JUMP JUMPDEST POP RETURNDATASIZE PUSH2 0x307 JUMP JUMPDEST PUSH1 0x40 MLOAD RETURNDATASIZE PUSH1 0x0 DUP3 RETURNDATACOPY RETURNDATASIZE SWAP1 REVERT JUMPDEST PUSH1 0x40 MLOAD PUSH3 0x461BCD PUSH1 0xE5 SHL DUP2 MSTORE PUSH1 0x20 PUSH1 0x4 DUP3 ADD MSTORE PUSH1 0x17 PUSH1 0x24 DUP3 ADD MSTORE PUSH32 0x416D6F756E74206D75737420626520706F736974697665000000000000000000 PUSH1 0x44 DUP3 ADD MSTORE PUSH1 0x64 SWAP1 REVERT JUMPDEST PUSH1 0x0 DUP1 REVERT JUMPDEST CALLVALUE PUSH2 0x377 JUMPI PUSH1 0x40 CALLDATASIZE PUSH1 0x3 NOT ADD SLT PUSH2 0x377 JUMPI PUSH2 0x395 PUSH2 0x2AC5 JUMP JUMPDEST PUSH1 0x24 CALLDATALOAD SWAP1 PUSH2 0x3A1 PUSH2 0x2C14 JUMP JUMPDEST PUSH1 0x1 PUSH1 0x1 PUSH1 0xA0 SHL SUB AND PUSH1 0x0 DUP2 DUP2 MSTORE PUSH1 0x3 PUSH1 0x20 MSTORE PUSH1 0x40 SWAP1 KECCAK256 PUSH1 0x8 ADD SLOAD SWAP1 SWAP2 SWAP1 PUSH1 0xFF AND ISZERO PUSH2 0x406 JUMPI PUSH1 0x20 PUSH32 0xFC577563F1B9A0461E24ABEF1E1FCC0D33D3D881F20B5DF6DDA59DE4AAE2C821 SWAP2 DUP4 PUSH1 0x0 MSTORE PUSH1 0x3 DUP3 MSTORE DUP1 PUSH1 0x3 PUSH1 0x40 PUSH1 0x0 KECCAK256 ADD SSTORE PUSH1 0x40 MLOAD SWAP1 DUP2 MSTORE LOG2 STOP JUMPDEST PUSH1 0x40 MLOAD PUSH3 0x461BCD PUSH1 0xE5 SHL DUP2 MSTORE PUSH1 0x20 PUSH1 0x4 DUP3 ADD MSTORE PUSH1 0x11 PUSH1 0x24 DUP3 ADD MSTORE PUSH17 0x4D656D626572206E6F7420616374697665 PUSH1 0x78 SHL PUSH1 0x44 DUP3 ADD MSTORE PUSH1 0x64 SWAP1 REVERT JUMPDEST CALLVALUE PUSH2 0x377 JUMPI PUSH1 0x20 CALLDATASIZE PUSH1 0x3 NOT ADD SLT PUSH2 0x377 JUMPI PUSH2 0x458 PUSH2 0x2AC5 JUMP JUMPDEST PUSH2 0x460 PUSH2 0x2C14 JUMP JUMPDEST PUSH1 0x1 PUSH1 0x1 PUSH1 0xA0 SHL SUB SWAP1 DUP2 AND SWAP1 DUP2 ISZERO PUSH2 0x4AF JUMPI PUSH1 0x0 SLOAD DUP3 PUSH1 0x1 PUSH1 0x1 PUSH1 0x60 SHL SUB PUSH1 0xA0 SHL DUP3 AND OR PUSH1 0x0 SSTORE AND PUSH32 0x8BE0079C531659141344CD1FD0A4F28419497F9722A3DAAFE3B4186F6B6457E0 PUSH1 0x0 DUP1 LOG3 STOP JUMPDEST PUSH1 0x40 MLOAD PUSH3 0x461BCD PUSH1 0xE5 SHL DUP2 MSTORE PUSH1 0x20 PUSH1 0x4 DUP3 ADD MSTORE PUSH1 0x26 PUSH1 0x24 DUP3 ADD MSTORE PUSH32 0x4F776E61626C653A206E6577206F776E657220697320746865207A65726F2061 PUSH1 0x44 DUP3 ADD MSTORE PUSH6 0x646472657373 PUSH1 0xD0 SHL PUSH1 0x64 DUP3 ADD MSTORE PUSH1 0x84 SWAP1 REVERT JUMPDEST CALLVALUE PUSH2 0x377 JUMPI PUSH1 0x0 CALLDATASIZE PUSH1 0x3 NOT ADD SLT PUSH2 0x377 JUMPI PUSH1 0x20 PUSH1 0xB SLOAD PUSH1 0x40 MLOAD SWAP1 DUP2 MSTORE RETURN JUMPDEST CALLVALUE PUSH2 0x377 JUMPI PUSH1 0x20 DUP1 PUSH1 0x3 NOT CALLDATASIZE ADD SLT PUSH2 0x377 JUMPI PUSH1 0x4 CALLDATALOAD PUSH1 0x0 MSTORE PUSH1 0x4 DUP2 MSTORE PUSH1 0x40 PUSH1 0x0 KECCAK256 DUP1 SLOAD SWAP1 PUSH1 0x4 DUP2 ADD SWAP1 PUSH1 0x5 DUP2 ADD SLOAD SWAP2 PUSH1 0x6 DUP3 ADD SLOAD PUSH1 0x7 DUP4 ADD SLOAD PUSH1 0x8 DUP5 ADD SLOAD SWAP2 DUP8 PUSH1 0x9 DUP7 ADD SLOAD SWAP5 PUSH1 0xFF PUSH1 0xA DUP9 ADD SLOAD AND SWAP7 PUSH2 0x57C PUSH1 0x1 DUP3 ADD PUSH2 0x2906 JUMP JUMPDEST PUSH2 0x594 PUSH1 0x3 PUSH2 0x58D PUSH1 0x2 DUP6 ADD PUSH2 0x2906 JUMP JUMPDEST SWAP4 ADD PUSH2 0x2FBD JUMP JUMPDEST SWAP3 PUSH1 0x40 MLOAD SWAP1 DUP2 SWAP6 DUP7 SWAP3 DUP2 DUP4 SLOAD SWAP2 DUP3 DUP2 MSTORE ADD SWAP3 PUSH1 0x0 MSTORE DUP2 PUSH1 0x0 KECCAK256 SWAP2 PUSH1 0x0 SWAP1 JUMPDEST DUP3 DUP3 LT PUSH2 0x63E JUMPI POP POP POP POP SUB PUSH2 0x5C8 SWAP1 DUP6 PUSH2 0x28E5 JUMP JUMPDEST PUSH1 0x40 MLOAD SWAP12 DUP13 SWAP12 DUP13 MSTORE PUSH2 0x160 DUP1 SWAP2 DUP14 ADD MSTORE DUP12 ADD PUSH2 0x5E3 SWAP2 PUSH2 0x29CF JUMP JUMPDEST DUP11 DUP2 SUB PUSH1 0x40 DUP13 ADD MSTORE PUSH2 0x5F4 SWAP2 PUSH2 0x29CF JUMP JUMPDEST DUP10 DUP2 SUB PUSH1 0x60 DUP12 ADD MSTORE PUSH2 0x605 SWAP2 PUSH2 0x2A13 JUMP JUMPDEST DUP9 DUP2 SUB PUSH1 0x80 DUP11 ADD MSTORE PUSH2 0x616 SWAP2 PUSH2 0x2BD7 JUMP JUMPDEST SWAP6 PUSH1 0xA0 DUP9 ADD MSTORE PUSH1 0xC0 DUP8 ADD MSTORE PUSH1 0xE0 DUP7 ADD MSTORE PUSH2 0x100 DUP6 ADD MSTORE PUSH2 0x120 DUP5 ADD MSTORE ISZERO ISZERO PUSH2 0x140 DUP4 ADD MSTORE SUB SWAP1 RETURN JUMPDEST PUSH1 0x1 SWAP3 SWAP5 DUP4 DUP1 DUP1 SWAP5 SWAP7 SWAP9 POP PUSH1 0xA0 SHL SUB DUP8 SLOAD AND DUP2 MSTORE ADD SWAP5 ADD SWAP2 ADD SWAP2 DUP16 SWAP3 DUP9 SWAP5 SWAP4 PUSH2 0x5B2 JUMP JUMPDEST CALLVALUE PUSH2 0x377 JUMPI PUSH1 0x20 CALLDATASIZE PUSH1 0x3 NOT ADD SLT PUSH2 0x377 JUMPI PUSH1 0x4 CALLDATALOAD PUSH1 0x12 SLOAD DUP2 LT ISZERO PUSH2 0x377 JUMPI PUSH2 0x689 SWAP1 PUSH2 0x2B72 JUMP JUMPDEST PUSH2 0x6B1 JUMPI PUSH2 0x699 PUSH2 0x6AD SWAP2 PUSH2 0x2906 JUMP JUMPDEST PUSH1 0x40 MLOAD SWAP2 DUP3 SWAP2 PUSH1 0x20 DUP4 MSTORE PUSH1 0x20 DUP4 ADD SWAP1 PUSH2 0x29CF JUMP JUMPDEST SUB SWAP1 RETURN JUMPDEST PUSH4 0x4E487B71 PUSH1 0xE0 SHL PUSH1 0x0 MSTORE PUSH1 0x0 PUSH1 0x4 MSTORE PUSH1 0x24 PUSH1 0x0 REVERT JUMPDEST CALLVALUE PUSH2 0x377 JUMPI PUSH1 0x0 CALLDATASIZE PUSH1 0x3 NOT ADD SLT PUSH2 0x377 JUMPI PUSH1 0x20 PUSH1 0x40 MLOAD PUSH1 0x5F DUP2 MSTORE RETURN JUMPDEST CALLVALUE PUSH2 0x377 JUMPI PUSH1 0x20 CALLDATASIZE PUSH1 0x3 NOT ADD SLT PUSH2 0x377 JUMPI PUSH1 0x4 CALLDATALOAD PUSH1 0x1 PUSH1 0x1 PUSH1 0x40 SHL SUB DUP2 GT PUSH2 0x377 JUMPI PUSH2 0x72C PUSH1 0x20 PUSH2 0x719 DUP2 SWAP4 CALLDATASIZE SWAP1 PUSH1 0x4 ADD PUSH2 0x2A6F JUMP JUMPDEST DUP2 PUSH1 0x40 MLOAD SWAP4 DUP3 DUP6 DUP1 SWAP5 MLOAD SWAP4 DUP5 SWAP3 ADD PUSH2 0x29AC JUMP JUMPDEST DUP2 ADD PUSH1 0x7 DUP2 MSTORE SUB ADD SWAP1 KECCAK256 SLOAD PUSH1 0x40 MLOAD SWAP1 DUP2 MSTORE RETURN JUMPDEST CALLVALUE PUSH2 0x377 JUMPI PUSH1 0x0 CALLDATASIZE PUSH1 0x3 NOT ADD SLT PUSH2 0x377 JUMPI PUSH1 0x0 PUSH1 0xA0 PUSH1 0x40 MLOAD PUSH2 0x760 DUP2 PUSH2 0x28CA JUMP JUMPDEST DUP3 DUP2 MSTORE DUP3 PUSH1 0x20 DUP3 ADD MSTORE DUP3 PUSH1 0x40 DUP3 ADD MSTORE DUP3 PUSH1 0x60 DUP3 ADD MSTORE DUP3 PUSH1 0x80 DUP3 ADD MSTORE ADD MSTORE PUSH1 0xC0 PUSH1 0x40 MLOAD PUSH2 0x78B DUP2 PUSH2 0x28CA JUMP JUMPDEST PUSH1 0xC SLOAD SWAP1 DUP2 DUP2 MSTORE PUSH1 0xD SLOAD PUSH1 0x20 DUP3 ADD SWAP1 DUP2 MSTORE PUSH1 0xE SLOAD PUSH1 0x40 DUP4 ADD SWAP1 DUP2 MSTORE PUSH1 0xF SLOAD SWAP1 PUSH1 0x60 DUP5 ADD SWAP2 DUP3 MSTORE PUSH1 0x10 SLOAD SWAP3 PUSH1 0x80 DUP6 ADD SWAP4 DUP5 MSTORE PUSH1 0xA0 PUSH1 0x11 SLOAD SWAP6 ADD SWAP5 DUP6 MSTORE PUSH1 0x40 MLOAD SWAP6 DUP7 MSTORE MLOAD PUSH1 0x20 DUP7 ADD MSTORE MLOAD PUSH1 0x40 DUP6 ADD MSTORE MLOAD PUSH1 0x60 DUP5 ADD MSTORE MLOAD PUSH1 0x80 DUP4 ADD MSTORE MLOAD PUSH1 0xA0 DUP3 ADD MSTORE RETURN JUMPDEST CALLVALUE PUSH2 0x377 JUMPI PUSH2 0x7FA CALLDATASIZE PUSH2 0x29F4 JUMP JUMPDEST SWAP1 PUSH1 0xA SLOAD DUP2 LT ISZERO PUSH2 0x981 JUMPI CALLER PUSH1 0x0 MSTORE PUSH1 0x20 PUSH1 0x3 DUP2 MSTORE PUSH2 0x823 PUSH1 0xFF PUSH1 0x8 PUSH1 0x40 PUSH1 0x0 KECCAK256 ADD SLOAD AND PUSH2 0x2C6C JUMP JUMPDEST DUP2 PUSH1 0x0 MSTORE PUSH1 0x5 DUP2 MSTORE PUSH1 0x4 PUSH1 0x40 PUSH1 0x0 KECCAK256 ADD SLOAD TIMESTAMP GT PUSH2 0x947 JUMPI DUP2 PUSH1 0x0 MSTORE PUSH1 0x5 DUP2 MSTORE PUSH1 0x8 PUSH1 0x40 PUSH1 0x0 KECCAK256 ADD CALLER PUSH1 0x0 MSTORE DUP2 MSTORE PUSH1 0xFF PUSH1 0x40 PUSH1 0x0 KECCAK256 SLOAD AND PUSH2 0x913 JUMPI PUSH32 0xE71FCDAC32DF1877C1700E7BDA2A03157E20993363A28FC35AC495CEFC76E4D4 SWAP1 DUP3 PUSH1 0x0 MSTORE PUSH1 0x5 DUP2 MSTORE PUSH1 0x9 PUSH1 0x40 PUSH1 0x0 KECCAK256 CALLER PUSH1 0x0 MSTORE PUSH1 0x3 DUP4 MSTORE PUSH1 0x3 PUSH1 0x40 PUSH1 0x0 KECCAK256 ADD SLOAD DUP7 PUSH1 0x0 EQ PUSH2 0x8FD JUMPI PUSH2 0x8B6 PUSH1 0x5 DUP4 ADD SWAP2 DUP3 SLOAD PUSH2 0x2E6D JUMP JUMPDEST SWAP1 SSTORE JUMPDEST CALLER PUSH1 0x0 MSTORE PUSH1 0x8 DUP2 ADD DUP4 MSTORE PUSH1 0x40 PUSH1 0x0 KECCAK256 PUSH1 0x1 PUSH1 0xFF NOT DUP3 SLOAD AND OR SWAP1 SSTORE ADD DUP2 MSTORE PUSH2 0x8F0 DUP5 PUSH1 0x40 PUSH1 0x0 KECCAK256 SWAP1 PUSH1 0xFF DUP1 NOT DUP4 SLOAD AND SWAP2 ISZERO ISZERO AND OR SWAP1 SSTORE JUMP JUMPDEST PUSH1 0x40 MLOAD SWAP4 ISZERO ISZERO DUP5 MSTORE CALLER SWAP4 LOG3 STOP JUMPDEST PUSH2 0x90C PUSH1 0x6 DUP4 ADD SWAP2 DUP3 SLOAD PUSH2 0x2E6D JUMP JUMPDEST SWAP1 SSTORE PUSH2 0x8B9 JUMP JUMPDEST PUSH1 0x64 SWAP1 PUSH1 0x40 MLOAD SWAP1 PUSH3 0x461BCD PUSH1 0xE5 SHL DUP3 MSTORE PUSH1 0x4 DUP3 ADD MSTORE PUSH1 0xD PUSH1 0x24 DUP3 ADD MSTORE PUSH13 0x105B1C9958591E481D9BDD1959 PUSH1 0x9A SHL PUSH1 0x44 DUP3 ADD MSTORE REVERT JUMPDEST PUSH1 0x64 SWAP1 PUSH1 0x40 MLOAD SWAP1 PUSH3 0x461BCD PUSH1 0xE5 SHL DUP3 MSTORE PUSH1 0x4 DUP3 ADD MSTORE PUSH1 0x13 PUSH1 0x24 DUP3 ADD MSTORE PUSH19 0x159BDD1A5B99C81C195C9A5BD908195B991959 PUSH1 0x6A SHL PUSH1 0x44 DUP3 ADD MSTORE REVERT JUMPDEST PUSH1 0x40 MLOAD PUSH3 0x461BCD PUSH1 0xE5 SHL DUP2 MSTORE PUSH1 0x20 PUSH1 0x4 DUP3 ADD MSTORE PUSH1 0x13 PUSH1 0x24 DUP3 ADD MSTORE PUSH19 0x125B9D985B1A59081C1C9BDC1BDCD85B081251 PUSH1 0x6A SHL PUSH1 0x44 DUP3 ADD MSTORE PUSH1 0x64 SWAP1 REVERT JUMPDEST CALLVALUE PUSH2 0x377 JUMPI PUSH1 0x0 CALLDATASIZE PUSH1 0x3 NOT ADD SLT PUSH2 0x377 JUMPI PUSH1 0x20 PUSH1 0x40 MLOAD PUSH1 0x64 DUP2 MSTORE RETURN JUMPDEST CALLVALUE PUSH2 0x377 JUMPI PUSH1 0x0 CALLDATASIZE PUSH1 0x3 NOT ADD SLT PUSH2 0x377 JUMPI PUSH1 0x20 PUSH1 0x40 MLOAD PUSH3 0x93A80 DUP2 MSTORE RETURN JUMPDEST CALLVALUE PUSH2 0x377 JUMPI PUSH1 0x20 CALLDATASIZE PUSH1 0x3 NOT ADD SLT PUSH2 0x377 JUMPI PUSH1 0x1 PUSH1 0x1 PUSH1 0xA0 SHL SUB PUSH2 0xA17 PUSH2 0x2AC5 JUMP JUMPDEST AND PUSH1 0x0 MSTORE PUSH1 0x3 PUSH1 0x20 MSTORE PUSH1 0x80 PUSH1 0x40 PUSH1 0x0 KECCAK256 PUSH1 0x6 DUP2 ADD SLOAD SWAP1 PUSH1 0x7 DUP2 ADD SLOAD SWAP1 PUSH1 0x3 PUSH1 0x4 DUP3 ADD SLOAD SWAP2 ADD SLOAD SWAP2 PUSH1 0x40 MLOAD SWAP4 DUP5 MSTORE PUSH1 0x20 DUP5 ADD MSTORE PUSH1 0x40 DUP4 ADD MSTORE PUSH1 0x60 DUP3 ADD MSTORE RETURN JUMPDEST CALLVALUE PUSH2 0x377 JUMPI PUSH1 0x0 CALLDATASIZE PUSH1 0x3 NOT ADD SLT PUSH2 0x377 JUMPI PUSH1 0x20 PUSH1 0xA SLOAD PUSH1 0x40 MLOAD SWAP1 DUP2 MSTORE RETURN JUMPDEST CALLVALUE PUSH2 0x377 JUMPI PUSH1 0x20 DUP1 PUSH1 0x3 NOT CALLDATASIZE ADD SLT PUSH2 0x377 JUMPI PUSH1 0x4 CALLDATALOAD PUSH1 0x1 PUSH1 0x1 PUSH1 0x40 SHL SUB DUP2 GT PUSH2 0x377 JUMPI PUSH2 0xAA4 SWAP1 CALLDATASIZE SWAP1 PUSH1 0x4 ADD PUSH2 0x2A6F JUMP JUMPDEST CALLER PUSH1 0x0 MSTORE PUSH1 0x3 DUP3 MSTORE PUSH1 0xFF PUSH1 0x8 PUSH1 0x40 PUSH1 0x0 KECCAK256 ADD SLOAD AND PUSH2 0xC23 JUMPI DUP1 MLOAD ISZERO PUSH2 0xBE9 JUMPI PUSH2 0xB9A PUSH1 0x40 MLOAD PUSH2 0xAD2 DUP2 PUSH2 0x28AE JUMP JUMPDEST CALLER DUP2 MSTORE PUSH1 0x9 DUP4 PUSH2 0xB92 DUP4 DUP8 DUP1 DUP3 ADD TIMESTAMP DUP2 MSTORE PUSH1 0x40 DUP4 ADD PUSH1 0x0 DUP2 MSTORE PUSH1 0x60 DUP5 ADD PUSH1 0x64 DUP2 MSTORE PUSH1 0x80 DUP6 ADD SWAP1 PUSH1 0x0 DUP3 MSTORE PUSH1 0xA0 DUP7 ADD SWAP3 PUSH1 0x0 DUP5 MSTORE PUSH1 0xC0 DUP8 ADD SWAP5 PUSH1 0x0 DUP7 MSTORE PUSH1 0x3 PUSH1 0xE0 DUP10 ADD SWAP8 PUSH1 0x0 DUP10 MSTORE PUSH2 0x120 PUSH2 0x100 DUP12 ADD SWAP11 PUSH1 0x1 DUP13 MSTORE ADD SWAP12 DUP13 MSTORE CALLER PUSH1 0x0 MSTORE MSTORE PUSH1 0x40 PUSH1 0x0 KECCAK256 SWAP12 PUSH1 0x1 DUP1 PUSH1 0xA0 SHL SUB SWAP1 MLOAD AND PUSH1 0x1 PUSH1 0x1 PUSH1 0x60 SHL SUB PUSH1 0xA0 SHL DUP14 SLOAD AND OR DUP13 SSTORE MLOAD PUSH1 0x1 DUP13 ADD SSTORE MLOAD PUSH1 0x2 DUP12 ADD SSTORE MLOAD PUSH1 0x3 DUP11 ADD SSTORE MLOAD PUSH1 0x4 DUP10 ADD SSTORE MLOAD PUSH1 0x5 DUP9 ADD SSTORE MLOAD PUSH1 0x6 DUP8 ADD SSTORE MLOAD PUSH1 0x7 DUP7 ADD SSTORE MLOAD ISZERO ISZERO PUSH1 0x8 DUP6 ADD SWAP1 PUSH1 0xFF DUP1 NOT DUP4 SLOAD AND SWAP2 ISZERO ISZERO AND OR SWAP1 SSTORE JUMP JUMPDEST MLOAD SWAP2 ADD PUSH2 0x2CCF JUMP JUMPDEST PUSH1 0x8 SLOAD PUSH1 0x1 DUP2 ADD DUP1 SWAP2 GT PUSH2 0x2E2 JUMPI PUSH32 0xD4A0B090DF78A1C4F9456B377B34EF4DFAC7251637B55D4B0A731A799C84A44C SWAP2 PUSH2 0xBE4 SWAP2 PUSH1 0x8 SSTORE PUSH1 0x40 MLOAD SWAP2 DUP3 SWAP2 DUP6 DUP4 MSTORE CALLER SWAP6 DUP4 ADD SWAP1 PUSH2 0x29CF JUMP JUMPDEST SUB SWAP1 LOG2 STOP JUMPDEST PUSH1 0x40 MLOAD PUSH3 0x461BCD PUSH1 0xE5 SHL DUP2 MSTORE PUSH1 0x4 DUP2 ADD DUP4 SWAP1 MSTORE PUSH1 0x12 PUSH1 0x24 DUP3 ADD MSTORE PUSH18 0x115E1C195C9D1A5CD9481C995C5D5A5C9959 PUSH1 0x72 SHL PUSH1 0x44 DUP3 ADD MSTORE PUSH1 0x64 SWAP1 REVERT JUMPDEST PUSH1 0x40 MLOAD PUSH3 0x461BCD PUSH1 0xE5 SHL DUP2 MSTORE PUSH1 0x4 DUP2 ADD DUP4 SWAP1 MSTORE PUSH1 0x10 PUSH1 0x24 DUP3 ADD MSTORE PUSH16 0x20B63932B0B23C90309036B2B6B132B9 PUSH1 0x81 SHL PUSH1 0x44 DUP3 ADD MSTORE PUSH1 0x64 SWAP1 REVERT JUMPDEST CALLVALUE PUSH2 0x377 JUMPI PUSH1 0x0 CALLDATASIZE PUSH1 0x3 NOT ADD SLT PUSH2 0x377 JUMPI PUSH1 0x20 PUSH1 0x9 SLOAD PUSH1 0x40 MLOAD SWAP1 DUP2 MSTORE RETURN JUMPDEST CALLVALUE PUSH2 0x377 JUMPI PUSH1 0x0 CALLDATASIZE PUSH1 0x3 NOT ADD SLT PUSH2 0x377 JUMPI PUSH2 0xC92 PUSH2 0x2C14 JUMP JUMPDEST STOP JUMPDEST CALLVALUE PUSH2 0x377 JUMPI PUSH1 0x0 CALLDATASIZE PUSH1 0x3 NOT ADD SLT PUSH2 0x377 JUMPI PUSH1 0x0 SLOAD PUSH1 0x40 MLOAD PUSH1 0x1 PUSH1 0x1 PUSH1 0xA0 SHL SUB SWAP1 SWAP2 AND DUP2 MSTORE PUSH1 0x20 SWAP1 RETURN JUMPDEST CALLVALUE PUSH2 0x377 JUMPI PUSH1 0x20 CALLDATASIZE PUSH1 0x3 NOT ADD SLT PUSH2 0x377 JUMPI PUSH1 0x4 CALLDATALOAD PUSH1 0x0 SWAP1 DUP2 MSTORE PUSH1 0x6 PUSH1 0x20 MSTORE PUSH1 0x40 SWAP1 KECCAK256 DUP1 SLOAD PUSH1 0x1 DUP3 ADD SLOAD PUSH1 0x1 PUSH1 0x1 PUSH1 0xA0 SHL SUB AND SWAP2 PUSH2 0xCFC PUSH1 0x2 DUP3 ADD PUSH2 0x2906 JUMP JUMPDEST PUSH1 0x3 DUP3 ADD SLOAD SWAP2 PUSH1 0x4 DUP2 ADD SLOAD PUSH1 0x5 DUP3 ADD SLOAD PUSH1 0x7 DUP4 ADD SLOAD SWAP2 PUSH2 0xD41 PUSH1 0x9 PUSH1 0xFF PUSH1 0x8 DUP8 ADD SLOAD AND SWAP6 ADD SLOAD SWAP6 PUSH1 0x40 MLOAD SWAP10 DUP11 SWAP10 DUP11 MSTORE PUSH1 0x20 DUP11 ADD MSTORE PUSH2 0x120 DUP1 PUSH1 0x40 DUP12 ADD MSTORE DUP10 ADD SWAP1 PUSH2 0x29CF JUMP JUMPDEST SWAP6 PUSH1 0x60 DUP9 ADD MSTORE PUSH1 0x80 DUP8 ADD MSTORE PUSH1 0xA0 DUP7 ADD MSTORE PUSH1 0xC0 DUP6 ADD MSTORE ISZERO ISZERO PUSH1 0xE0 DUP5 ADD MSTORE PUSH2 0x100 DUP4 ADD MSTORE SUB SWAP1 RETURN JUMPDEST CALLVALUE PUSH2 0x377 JUMPI PUSH1 0x0 CALLDATASIZE PUSH1 0x3 NOT ADD SLT PUSH2 0x377 JUMPI PUSH1 0x20 PUSH1 0x8 SLOAD PUSH1 0x40 MLOAD SWAP1 DUP2 MSTORE RETURN JUMPDEST CALLVALUE PUSH2 0x377 JUMPI PUSH1 0xA0 CALLDATASIZE PUSH1 0x3 NOT ADD SLT PUSH2 0x377 JUMPI PUSH1 0x1 PUSH1 0x1 PUSH1 0x40 SHL SUB PUSH1 0x4 CALLDATALOAD DUP2 DUP2 GT PUSH2 0x377 JUMPI PUSH2 0xDB6 SWAP1 CALLDATASIZE SWAP1 PUSH1 0x4 ADD PUSH2 0x2A6F JUMP JUMPDEST SWAP1 PUSH1 0x84 CALLDATALOAD SWAP1 DUP2 GT PUSH2 0x377 JUMPI PUSH2 0xDCF SWAP1 CALLDATASIZE SWAP1 PUSH1 0x4 ADD PUSH2 0x2AF2 JUMP JUMPDEST PUSH2 0xDD7 PUSH2 0x2E09 JUMP JUMPDEST CALLER PUSH1 0x0 MSTORE PUSH1 0x3 PUSH1 0x20 MSTORE PUSH2 0xDF4 PUSH1 0xFF PUSH1 0x8 PUSH1 0x40 PUSH1 0x0 KECCAK256 ADD SLOAD AND PUSH2 0x2C6C JUMP JUMPDEST PUSH1 0x24 CALLDATALOAD ISZERO PUSH2 0x1322 JUMPI PUSH2 0x2710 PUSH1 0x64 CALLDATALOAD GT PUSH2 0x12DD JUMPI PUSH1 0x44 CALLDATALOAD ISZERO PUSH2 0x1298 JUMPI PUSH1 0xB SLOAD DUP2 MLOAD PUSH2 0x3E8 DUP1 PUSH1 0x24 CALLDATALOAD MUL SWAP1 PUSH1 0x24 CALLDATALOAD DUP3 DIV SUB PUSH2 0x2E2 JUMPI PUSH2 0xE34 SWAP1 PUSH1 0x44 CALLDATALOAD SWAP1 PUSH2 0x2E7A JUMP JUMPDEST DUP1 PUSH1 0x1 SHL SWAP1 DUP1 DUP3 DIV PUSH1 0x2 EQ SWAP1 ISZERO OR ISZERO PUSH2 0x2E2 JUMPI PUSH2 0x1F4 DUP1 DUP3 GT PUSH2 0x1290 JUMPI JUMPDEST POP DUP2 PUSH1 0x64 DUP2 MUL DIV PUSH1 0x64 EQ DUP3 ISZERO OR ISZERO PUSH2 0x2E2 JUMPI PUSH1 0x64 PUSH1 0x24 CALLDATALOAD DIV PUSH1 0x64 ADD PUSH1 0x64 GT PUSH2 0x2E2 JUMPI PUSH2 0xE97 PUSH1 0x64 PUSH2 0xE9C SWAP4 MUL SWAP2 PUSH2 0xE97 PUSH1 0xA PUSH1 0x64 CALLDATALOAD DIV SWAP2 PUSH1 0x64 PUSH1 0x24 CALLDATALOAD DIV PUSH1 0x64 ADD PUSH2 0x2E6D JUMP JUMPDEST PUSH2 0x2E6D JUMP JUMPDEST SWAP2 PUSH1 0x40 MLOAD SWAP4 PUSH2 0xEAA DUP6 PUSH2 0x28AE JUMP JUMPDEST DUP3 DUP6 MSTORE CALLER PUSH1 0x20 DUP7 ADD MSTORE DUP1 PUSH1 0x40 DUP7 ADD MSTORE PUSH1 0x24 CALLDATALOAD PUSH1 0x60 DUP7 ADD MSTORE PUSH1 0x44 CALLDATALOAD PUSH1 0x80 DUP7 ADD MSTORE PUSH1 0x64 CALLDATALOAD PUSH1 0xA0 DUP7 ADD MSTORE DUP2 PUSH1 0xC0 DUP7 ADD MSTORE TIMESTAMP PUSH1 0xE0 DUP7 ADD MSTORE PUSH1 0x0 PUSH2 0x100 DUP7 ADD MSTORE DUP4 PUSH2 0x120 DUP7 ADD MSTORE DUP3 PUSH1 0x0 MSTORE PUSH1 0x6 PUSH1 0x20 MSTORE PUSH1 0x40 PUSH1 0x0 KECCAK256 DUP6 MLOAD DUP2 SSTORE PUSH1 0x1 DUP2 ADD PUSH1 0x1 DUP1 PUSH1 0xA0 SHL SUB PUSH1 0x20 DUP9 ADD MLOAD AND PUSH1 0x1 PUSH1 0x1 PUSH1 0x60 SHL SUB PUSH1 0xA0 SHL DUP3 SLOAD AND OR SWAP1 SSTORE PUSH2 0xF31 PUSH1 0x40 DUP8 ADD MLOAD PUSH1 0x2 DUP4 ADD PUSH2 0x2CCF JUMP JUMPDEST PUSH1 0x60 DUP7 ADD MLOAD PUSH1 0x3 DUP3 ADD SSTORE PUSH1 0x80 DUP7 ADD MLOAD PUSH1 0x4 DUP3 ADD SSTORE PUSH1 0xA0 DUP7 ADD MLOAD PUSH1 0x5 DUP3 ADD SSTORE PUSH1 0xC0 DUP7 ADD MLOAD DUP1 MLOAD SWAP1 PUSH1 0x1 PUSH1 0x40 SHL DUP3 GT PUSH2 0x127A JUMPI PUSH1 0x6 DUP4 ADD SLOAD DUP3 PUSH1 0x6 DUP6 ADD SSTORE DUP1 DUP4 LT PUSH2 0x1201 JUMPI JUMPDEST POP PUSH1 0x20 ADD PUSH1 0x6 DUP4 ADD PUSH1 0x0 MSTORE PUSH1 0x20 PUSH1 0x0 KECCAK256 PUSH1 0x0 SWAP2 JUMPDEST DUP4 DUP4 LT PUSH2 0x11E4 JUMPI POP POP POP POP PUSH1 0x9 PUSH2 0x120 PUSH1 0xE0 DUP9 ADD MLOAD SWAP8 PUSH1 0x7 SWAP9 DUP10 DUP6 ADD SSTORE PUSH2 0xFC6 PUSH2 0x100 DUP3 ADD MLOAD ISZERO ISZERO PUSH1 0x8 DUP7 ADD SWAP1 PUSH1 0xFF DUP1 NOT DUP4 SLOAD AND SWAP2 ISZERO ISZERO AND OR SWAP1 SSTORE JUMP JUMPDEST ADD MLOAD SWAP2 ADD SSTORE CALLER PUSH1 0x0 MSTORE PUSH1 0x3 PUSH1 0x20 MSTORE PUSH1 0x6 PUSH1 0x40 PUSH1 0x0 KECCAK256 ADD SLOAD PUSH1 0x1 DUP2 ADD DUP1 SWAP2 GT PUSH2 0x2E2 JUMPI DUP6 PUSH2 0x100B SWAP2 CALLER PUSH1 0x0 MSTORE PUSH1 0x3 PUSH1 0x20 MSTORE PUSH1 0x40 PUSH1 0x0 KECCAK256 SWAP1 PUSH1 0x6 DUP3 ADD SSTORE ADD SLOAD DUP4 MLOAD SWAP1 PUSH2 0x2E6D JUMP JUMPDEST CALLER PUSH1 0x0 MSTORE PUSH1 0x3 PUSH1 0x20 MSTORE DUP6 PUSH1 0x40 PUSH1 0x0 KECCAK256 ADD SSTORE PUSH1 0x0 SWAP3 PUSH1 0x0 JUMPDEST DUP4 MLOAD DUP2 LT ISZERO PUSH2 0x10D0 JUMPI PUSH2 0x104E PUSH1 0x20 PUSH2 0x103A DUP4 DUP8 PUSH2 0x2DF5 JUMP JUMPDEST MLOAD DUP2 PUSH1 0x40 MLOAD SWAP4 DUP3 DUP6 DUP1 SWAP5 MLOAD SWAP4 DUP5 SWAP3 ADD PUSH2 0x29AC JUMP JUMPDEST DUP2 ADD DUP11 DUP2 MSTORE SUB ADD SWAP1 KECCAK256 SLOAD DUP1 PUSH2 0x106D JUMPI JUMPDEST POP PUSH2 0x1068 SWAP1 PUSH2 0x2DE6 JUMP JUMPDEST PUSH2 0x1022 JUMP JUMPDEST SWAP5 SWAP1 PUSH2 0x107C DUP7 PUSH2 0x1068 SWAP4 PUSH2 0x2E6D JUMP JUMPDEST SWAP6 PUSH32 0xF89931F71205FEFD603E8A6EA7AC08A9C5EFB228783C2C0E43566CB863ABB12B PUSH2 0x10A8 DUP4 DUP9 PUSH2 0x2DF5 JUMP JUMPDEST MLOAD PUSH2 0x10BE PUSH1 0x40 MLOAD SWAP2 PUSH1 0x40 DUP4 MSTORE PUSH1 0x40 DUP4 ADD SWAP1 PUSH2 0x29CF JUMP JUMPDEST SWAP3 PUSH1 0x20 DUP3 ADD MSTORE DUP1 CALLER SWAP4 SUB SWAP1 LOG2 SWAP1 PUSH2 0x105E JUMP JUMPDEST POP DUP5 DUP5 PUSH2 0x10DD DUP2 DUP4 PUSH2 0x2E6D JUMP JUMPDEST PUSH2 0x113D JUMPI JUMPDEST POP POP PUSH2 0x10EF PUSH1 0xB SLOAD PUSH2 0x2E5F JUMP JUMPDEST PUSH1 0xB SSTORE PUSH32 0xF03B7374ABD388963E9BAFFA797D886BD734A2AEA8B235C96C3E3BA0580EF876 PUSH2 0x1128 PUSH1 0x40 MLOAD SWAP4 PUSH1 0x40 DUP6 MSTORE PUSH1 0x40 DUP6 ADD SWAP1 PUSH2 0x29CF JUMP JUMPDEST SWAP3 PUSH1 0x64 CALLDATALOAD PUSH1 0x20 DUP3 ADD MSTORE DUP1 CALLER SWAP5 SUB SWAP1 LOG3 PUSH1 0x1 DUP1 SSTORE STOP JUMPDEST PUSH2 0x117D SWAP2 CALLER PUSH1 0x0 MSTORE PUSH1 0x3 PUSH1 0x20 MSTORE PUSH2 0x1166 PUSH1 0x4 PUSH1 0x40 PUSH1 0x0 KECCAK256 ADD SLOAD PUSH2 0x1160 DUP5 DUP5 PUSH2 0x2E6D JUMP JUMPDEST SWAP1 PUSH2 0x2E6D JUMP JUMPDEST CALLER PUSH1 0x0 MSTORE PUSH1 0x3 PUSH1 0x20 MSTORE PUSH1 0x4 PUSH1 0x40 PUSH1 0x0 KECCAK256 ADD SSTORE PUSH2 0x2E6D JUMP JUMPDEST PUSH1 0x40 MLOAD SWAP1 DUP2 MSTORE PUSH1 0x40 PUSH1 0x20 DUP3 ADD MSTORE PUSH1 0x19 PUSH1 0x40 DUP3 ADD MSTORE PUSH32 0x436F6D7075746174696F6E616C20416368696576656D656E7400000000000000 PUSH1 0x60 DUP3 ADD MSTORE PUSH32 0xC2FF8205A96F8C5C83A4B4FD0F518EFBC5496331FB7D75D13CB422D310AA44DE PUSH1 0x80 CALLER SWAP3 LOG2 DUP3 DUP1 PUSH2 0x10E2 JUMP JUMPDEST PUSH1 0x1 PUSH1 0x20 DUP3 PUSH2 0x11F5 DUP4 SWAP5 MLOAD DUP7 PUSH2 0x2CCF JUMP JUMPDEST ADD SWAP3 ADD SWAP3 ADD SWAP2 SWAP1 PUSH2 0xF89 JUMP JUMPDEST PUSH1 0x6 DUP5 ADD PUSH1 0x0 MSTORE PUSH1 0x20 PUSH1 0x0 KECCAK256 SWAP1 DUP4 DUP3 ADD JUMPDEST DUP2 DUP4 ADD DUP2 LT PUSH2 0x1222 JUMPI POP POP PUSH2 0xF75 JUMP JUMPDEST DUP1 PUSH2 0x122F PUSH1 0x1 SWAP3 SLOAD PUSH2 0x2874 JUMP JUMPDEST DUP1 PUSH2 0x123C JUMPI JUMPDEST POP ADD PUSH2 0x1212 JUMP JUMPDEST PUSH1 0x1F SWAP1 DUP2 DUP2 GT DUP5 EQ PUSH2 0x1255 JUMPI POP POP PUSH1 0x0 DUP2 SSTORE JUMPDEST DUP13 PUSH2 0x1235 JUMP JUMPDEST PUSH2 0x1271 PUSH1 0x0 SWAP3 DUP5 DUP5 MSTORE PUSH1 0x20 DUP5 KECCAK256 SWAP3 ADD PUSH1 0x5 SHR DUP3 ADD DUP6 DUP4 ADD PUSH2 0x2CB8 JUMP JUMPDEST DUP2 DUP4 SSTORE SSTORE PUSH2 0x124F JUMP JUMPDEST PUSH4 0x4E487B71 PUSH1 0xE0 SHL PUSH1 0x0 MSTORE PUSH1 0x41 PUSH1 0x4 MSTORE PUSH1 0x24 PUSH1 0x0 REVERT JUMPDEST SWAP1 POP DUP6 PUSH2 0xE52 JUMP JUMPDEST PUSH1 0x40 MLOAD PUSH3 0x461BCD PUSH1 0xE5 SHL DUP2 MSTORE PUSH1 0x20 PUSH1 0x4 DUP3 ADD MSTORE PUSH1 0x18 PUSH1 0x24 DUP3 ADD MSTORE PUSH32 0x496E76616C696420636F6D7075746174696F6E2074696D650000000000000000 PUSH1 0x44 DUP3 ADD MSTORE PUSH1 0x64 SWAP1 REVERT JUMPDEST PUSH1 0x40 MLOAD PUSH3 0x461BCD PUSH1 0xE5 SHL DUP2 MSTORE PUSH1 0x20 PUSH1 0x4 DUP3 ADD MSTORE PUSH1 0x1B PUSH1 0x24 DUP3 ADD MSTORE PUSH32 0x496E76616C69642061636375726163792070657263656E746167650000000000 PUSH1 0x44 DUP3 ADD MSTORE PUSH1 0x64 SWAP1 REVERT JUMPDEST PUSH1 0x40 MLOAD PUSH3 0x461BCD PUSH1 0xE5 SHL DUP2 MSTORE PUSH1 0x20 PUSH1 0x4 DUP3 ADD MSTORE PUSH1 0x1E PUSH1 0x24 DUP3 ADD MSTORE PUSH32 0x4D7573742070726F63657373206174206C656173742031207265636F72640000 PUSH1 0x44 DUP3 ADD MSTORE PUSH1 0x64 SWAP1 REVERT JUMPDEST CALLVALUE PUSH2 0x377 JUMPI PUSH1 0x0 CALLDATASIZE PUSH1 0x3 NOT ADD SLT PUSH2 0x377 JUMPI PUSH2 0x1380 PUSH2 0x2C14 JUMP JUMPDEST PUSH1 0x0 DUP1 SLOAD PUSH1 0x1 PUSH1 0x1 PUSH1 0xA0 SHL SUB NOT DUP2 AND DUP3 SSTORE PUSH1 0x1 PUSH1 0x1 PUSH1 0xA0 SHL SUB AND PUSH32 0x8BE0079C531659141344CD1FD0A4F28419497F9722A3DAAFE3B4186F6B6457E0 DUP3 DUP1 LOG3 STOP JUMPDEST CALLVALUE PUSH2 0x377 JUMPI PUSH1 0x0 CALLDATASIZE PUSH1 0x3 NOT ADD SLT PUSH2 0x377 JUMPI PUSH1 0xC0 PUSH1 0xC SLOAD PUSH1 0xD SLOAD PUSH1 0xE SLOAD PUSH1 0xF SLOAD PUSH1 0x10 SLOAD SWAP2 PUSH1 0x11 SLOAD SWAP4 PUSH1 0x40 MLOAD SWAP6 DUP7 MSTORE PUSH1 0x20 DUP7 ADD MSTORE PUSH1 0x40 DUP6 ADD MSTORE PUSH1 0x60 DUP5 ADD MSTORE PUSH1 0x80 DUP4 ADD MSTORE PUSH1 0xA0 DUP3 ADD MSTORE RETURN JUMPDEST CALLVALUE PUSH2 0x377 JUMPI PUSH1 0x40 CALLDATASIZE PUSH1 0x3 NOT ADD SLT PUSH2 0x377 JUMPI PUSH1 0x1 PUSH1 0x1 PUSH1 0x40 SHL SUB PUSH1 0x4 CALLDATALOAD DUP2 DUP2 GT PUSH2 0x377 JUMPI PUSH2 0x1439 SWAP1 CALLDATASIZE SWAP1 PUSH1 0x4 ADD PUSH2 0x2A6F JUMP JUMPDEST SWAP1 PUSH1 0x24 CALLDATALOAD SWAP1 DUP2 GT PUSH2 0x377 JUMPI PUSH2 0x1452 SWAP1 CALLDATASIZE SWAP1 PUSH1 0x4 ADD PUSH2 0x2A6F JUMP JUMPDEST CALLER PUSH1 0x0 MSTORE PUSH1 0x3 PUSH1 0x20 MSTORE PUSH2 0x146F PUSH1 0xFF PUSH1 0x8 PUSH1 0x40 PUSH1 0x0 KECCAK256 ADD SLOAD AND PUSH2 0x2C6C JUMP JUMPDEST CALLER PUSH1 0x0 MSTORE PUSH1 0x3 PUSH1 0x20 MSTORE PUSH2 0x148D PUSH1 0x64 PUSH1 0x3 PUSH1 0x40 PUSH1 0x0 KECCAK256 ADD SLOAD LT ISZERO PUSH2 0x2EDA JUMP JUMPDEST PUSH1 0xA SLOAD SWAP1 DUP2 PUSH1 0x0 MSTORE PUSH1 0x5 PUSH1 0x20 MSTORE PUSH2 0x14D2 PUSH1 0x40 PUSH1 0x0 KECCAK256 SWAP2 DUP4 DUP4 SSTORE PUSH1 0x1 DUP4 ADD CALLER PUSH1 0x1 PUSH1 0x1 PUSH1 0x60 SHL SUB PUSH1 0xA0 SHL DUP3 SLOAD AND OR SWAP1 SSTORE PUSH2 0x14C9 DUP6 PUSH1 0x2 DUP6 ADD PUSH2 0x2CCF JUMP JUMPDEST PUSH1 0x3 DUP4 ADD PUSH2 0x2CCF JUMP JUMPDEST PUSH3 0x93A80 TIMESTAMP ADD SWAP1 DUP2 TIMESTAMP GT PUSH2 0x2E2 JUMPI PUSH1 0x7 SWAP2 PUSH1 0x4 DUP3 ADD SSTORE PUSH1 0x0 PUSH1 0x5 DUP3 ADD SSTORE PUSH1 0x0 PUSH1 0x6 DUP3 ADD SSTORE ADD PUSH1 0xFF NOT DUP2 SLOAD AND SWAP1 SSTORE PUSH1 0xA SLOAD PUSH1 0x1 DUP2 ADD DUP1 SWAP2 GT PUSH2 0x2E2 JUMPI PUSH1 0xA SSTORE PUSH32 0x7585F467599D0F008985F231AF99293BE388626AC16CA59505C2F8F88969CD63 PUSH1 0x40 MLOAD PUSH1 0x20 DUP2 MSTORE DUP1 PUSH2 0x1548 CALLER SWAP6 PUSH1 0x20 DUP4 ADD SWAP1 PUSH2 0x29CF JUMP JUMPDEST SUB SWAP1 LOG3 STOP JUMPDEST CALLVALUE PUSH2 0x377 JUMPI PUSH1 0x40 CALLDATASIZE PUSH1 0x3 NOT ADD SLT PUSH2 0x377 JUMPI PUSH1 0x24 CALLDATALOAD PUSH1 0x4 CALLDATALOAD PUSH2 0x156C PUSH2 0x2E09 JUMP JUMPDEST PUSH2 0x1579 PUSH1 0x9 SLOAD DUP3 LT PUSH2 0x2F26 JUMP JUMPDEST DUP1 PUSH1 0x0 MSTORE PUSH1 0x20 PUSH1 0x4 DUP2 MSTORE PUSH1 0xFF PUSH1 0xA PUSH1 0x40 PUSH1 0x0 KECCAK256 ADD SLOAD AND PUSH2 0x171D JUMPI DUP3 ISZERO PUSH2 0x16D9 JUMPI DUP2 PUSH1 0x0 MSTORE PUSH1 0x4 DUP2 MSTORE PUSH1 0x40 PUSH1 0x0 KECCAK256 PUSH1 0x0 DUP1 PUSH1 0x4 DUP4 ADD DUP1 SLOAD SWAP2 JUMPDEST DUP3 DUP2 LT PUSH2 0x169B JUMPI JUMPDEST POP POP POP ISZERO PUSH2 0x1656 JUMPI SWAP1 PUSH1 0xC DUP3 PUSH1 0xB PUSH32 0xA4A91237423E0A1766A761C7CB029311D8B95D6B1B81DB1B949A70C98B4E08E SWAP5 ADD CALLER PUSH1 0x0 MSTORE DUP1 DUP5 MSTORE PUSH2 0x1600 DUP8 PUSH1 0x40 PUSH1 0x0 KECCAK256 SLOAD PUSH2 0x2E6D JUMP JUMPDEST SWAP1 CALLER PUSH1 0x0 MSTORE DUP5 MSTORE PUSH1 0x40 PUSH1 0x0 KECCAK256 SSTORE ADD DUP2 MSTORE PUSH1 0x40 PUSH1 0x0 KECCAK256 PUSH1 0x1 PUSH1 0xFF NOT DUP3 SLOAD AND OR SWAP1 SSTORE PUSH1 0x3 DUP2 MSTORE PUSH2 0x1636 DUP5 PUSH1 0x2 PUSH1 0x40 PUSH1 0x0 KECCAK256 ADD SLOAD PUSH2 0x2E6D JUMP JUMPDEST CALLER PUSH1 0x0 MSTORE PUSH1 0x3 DUP3 MSTORE PUSH1 0x2 PUSH1 0x40 PUSH1 0x0 KECCAK256 ADD SSTORE PUSH1 0x40 MLOAD SWAP4 DUP5 MSTORE CALLER SWAP4 LOG3 PUSH1 0x1 DUP1 SSTORE STOP JUMPDEST PUSH1 0x40 MLOAD PUSH3 0x461BCD PUSH1 0xE5 SHL DUP2 MSTORE PUSH1 0x4 DUP2 ADD DUP4 SWAP1 MSTORE PUSH1 0x19 PUSH1 0x24 DUP3 ADD MSTORE PUSH32 0x4E6F7420612070726F6A656374207061727469636970616E7400000000000000 PUSH1 0x44 DUP3 ADD MSTORE PUSH1 0x64 SWAP1 REVERT JUMPDEST PUSH2 0x16A5 DUP2 DUP4 PUSH2 0x2BBF JUMP JUMPDEST SWAP1 SLOAD PUSH1 0x3 SWAP2 SWAP1 SWAP2 SHL SHR PUSH1 0x1 PUSH1 0x1 PUSH1 0xA0 SHL SUB AND CALLER EQ PUSH2 0x16CB JUMPI PUSH2 0x16C6 SWAP1 PUSH2 0x2DE6 JUMP JUMPDEST PUSH2 0x15B1 JUMP JUMPDEST POP POP POP POP PUSH1 0x1 DUP6 DUP1 DUP1 PUSH2 0x15B9 JUMP JUMPDEST PUSH1 0x64 SWAP1 PUSH1 0x40 MLOAD SWAP1 PUSH3 0x461BCD PUSH1 0xE5 SHL DUP3 MSTORE PUSH1 0x4 DUP3 ADD MSTORE PUSH1 0x1D PUSH1 0x24 DUP3 ADD MSTORE PUSH32 0x436F6E747269627574696F6E206D75737420626520706F736974697665000000 PUSH1 0x44 DUP3 ADD MSTORE REVERT JUMPDEST PUSH1 0x64 SWAP1 PUSH1 0x40 MLOAD SWAP1 PUSH3 0x461BCD PUSH1 0xE5 SHL DUP3 MSTORE PUSH1 0x4 DUP3 ADD MSTORE PUSH1 0x11 PUSH1 0x24 DUP3 ADD MSTORE PUSH17 0x141C9BDA9958DD0818DBDB5C1B195D1959 PUSH1 0x7A SHL PUSH1 0x44 DUP3 ADD MSTORE REVERT JUMPDEST CALLVALUE PUSH2 0x377 JUMPI PUSH1 0x20 CALLDATASIZE PUSH1 0x3 NOT ADD SLT PUSH2 0x377 JUMPI PUSH1 0x4 CALLDATALOAD PUSH2 0x1771 PUSH2 0x2C14 JUMP JUMPDEST PUSH1 0x10 SLOAD DUP2 GT PUSH2 0x180B JUMPI PUSH1 0x2 SLOAD PUSH1 0x0 DUP1 SLOAD PUSH1 0x40 MLOAD PUSH4 0xA9059CBB PUSH1 0xE0 SHL DUP2 MSTORE PUSH1 0x1 PUSH1 0x1 PUSH1 0xA0 SHL SUB SWAP2 DUP3 AND PUSH1 0x4 DUP3 ADD MSTORE PUSH1 0x24 DUP2 ADD DUP6 SWAP1 MSTORE SWAP3 PUSH1 0x20 SWAP3 DUP5 SWAP3 PUSH1 0x44 SWAP3 DUP5 SWAP3 SWAP2 AND GAS CALL DUP1 ISZERO PUSH2 0x326 JUMPI PUSH2 0x17CB SWAP2 PUSH1 0x0 SWAP2 PUSH2 0x17ED JUMPI POP PUSH2 0x2F7F JUMP JUMPDEST PUSH1 0x10 SLOAD DUP2 DUP2 SUB SWAP1 DUP2 GT PUSH2 0x2E2 JUMPI PUSH1 0x10 SSTORE PUSH1 0xC SLOAD SWAP1 DUP2 SUB SWAP1 DUP2 GT PUSH2 0x2E2 JUMPI PUSH1 0xC SSTORE STOP JUMPDEST PUSH2 0x1805 SWAP2 POP PUSH1 0x20 RETURNDATASIZE DUP2 GT PUSH2 0x31F JUMPI PUSH2 0x311 DUP2 DUP4 PUSH2 0x28E5 JUMP JUMPDEST DUP4 PUSH2 0x244 JUMP JUMPDEST PUSH1 0x40 MLOAD PUSH3 0x461BCD PUSH1 0xE5 SHL DUP2 MSTORE PUSH1 0x20 PUSH1 0x4 DUP3 ADD MSTORE PUSH1 0x1C PUSH1 0x24 DUP3 ADD MSTORE PUSH32 0x496E73756666696369656E7420656D657267656E63792066756E647300000000 PUSH1 0x44 DUP3 ADD MSTORE PUSH1 0x64 SWAP1 REVERT JUMPDEST CALLVALUE PUSH2 0x377 JUMPI PUSH1 0x0 CALLDATASIZE PUSH1 0x3 NOT ADD SLT PUSH2 0x377 JUMPI PUSH1 0x2 SLOAD PUSH1 0x40 MLOAD PUSH1 0x1 PUSH1 0x1 PUSH1 0xA0 SHL SUB SWAP1 SWAP2 AND DUP2 MSTORE PUSH1 0x20 SWAP1 RETURN JUMPDEST CALLVALUE PUSH2 0x377 JUMPI PUSH1 0x20 CALLDATASIZE PUSH1 0x3 NOT ADD SLT PUSH2 0x377 JUMPI PUSH2 0x1892 PUSH2 0x2AC5 JUMP JUMPDEST PUSH1 0x60 PUSH2 0x120 PUSH1 0x40 MLOAD PUSH2 0x18A3 DUP2 PUSH2 0x28AE JUMP JUMPDEST PUSH1 0x0 DUP2 MSTORE PUSH1 0x0 PUSH1 0x20 DUP3 ADD MSTORE PUSH1 0x0 PUSH1 0x40 DUP3 ADD MSTORE PUSH1 0x0 DUP4 DUP3 ADD MSTORE PUSH1 0x0 PUSH1 0x80 DUP3 ADD MSTORE PUSH1 0x0 PUSH1 0xA0 DUP3 ADD MSTORE PUSH1 0x0 PUSH1 0xC0 DUP3 ADD MSTORE PUSH1 0x0 PUSH1 0xE0 DUP3 ADD MSTORE PUSH1 0x0 PUSH2 0x100 DUP3 ADD MSTORE ADD MSTORE PUSH1 0x1 DUP1 PUSH1 0xA0 SHL SUB AND PUSH1 0x0 MSTORE PUSH1 0x3 PUSH1 0x20 MSTORE PUSH2 0x120 PUSH1 0x40 PUSH1 0x0 KECCAK256 PUSH2 0x1974 PUSH1 0x9 PUSH1 0x40 MLOAD SWAP3 PUSH2 0x190B DUP5 PUSH2 0x28AE JUMP JUMPDEST DUP1 SLOAD PUSH1 0x1 PUSH1 0x1 PUSH1 0xA0 SHL SUB AND DUP5 MSTORE PUSH1 0x1 DUP2 ADD SLOAD PUSH1 0x20 DUP6 ADD MSTORE PUSH1 0x2 DUP2 ADD SLOAD PUSH1 0x40 DUP6 ADD MSTORE PUSH1 0x3 DUP2 ADD SLOAD PUSH1 0x60 DUP6 ADD MSTORE PUSH1 0x4 DUP2 ADD SLOAD PUSH1 0x80 DUP6 ADD MSTORE PUSH1 0x5 DUP2 ADD SLOAD PUSH1 0xA0 DUP6 ADD MSTORE PUSH1 0x6 DUP2 ADD SLOAD PUSH1 0xC0 DUP6 ADD MSTORE PUSH1 0x7 DUP2 ADD SLOAD PUSH1 0xE0 DUP6 ADD MSTORE PUSH1 0x8 DUP2 ADD SLOAD PUSH1 0xFF AND ISZERO ISZERO PUSH2 0x100 DUP6 ADD MSTORE ADD PUSH2 0x2906 JUMP JUMPDEST DUP3 DUP3 ADD MSTORE PUSH2 0x6AD PUSH1 0x40 MLOAD SWAP3 DUP4 SWAP3 PUSH1 0x20 DUP5 MSTORE PUSH1 0x1 DUP1 PUSH1 0xA0 SHL SUB DUP2 MLOAD AND PUSH1 0x20 DUP6 ADD MSTORE PUSH1 0x20 DUP2 ADD MLOAD PUSH1 0x40 DUP6 ADD MSTORE PUSH1 0x40 DUP2 ADD MLOAD PUSH1 0x60 DUP6 ADD MSTORE PUSH1 0x60 DUP2 ADD MLOAD PUSH1 0x80 DUP6 ADD MSTORE PUSH1 0x80 DUP2 ADD MLOAD PUSH1 0xA0 DUP6 ADD MSTORE PUSH1 0xA0 DUP2 ADD MLOAD PUSH1 0xC0 DUP6 ADD MSTORE PUSH1 0xC0 DUP2 ADD MLOAD PUSH1 0xE0 DUP6 ADD MSTORE PUSH1 0xE0 DUP2 ADD MLOAD PUSH2 0x100 DUP6 ADD MSTORE PUSH2 0x100 DUP2 ADD MLOAD ISZERO ISZERO DUP3 DUP6 ADD MSTORE ADD MLOAD PUSH2 0x140 DUP1 DUP5 ADD MSTORE PUSH2 0x160 DUP4 ADD SWAP1 PUSH2 0x29CF JUMP JUMPDEST CALLVALUE PUSH2 0x377 JUMPI PUSH1 0x0 CALLDATASIZE PUSH1 0x3 NOT ADD SLT PUSH2 0x377 JUMPI PUSH1 0x20 PUSH1 0x40 MLOAD PUSH1 0x96 DUP2 MSTORE RETURN JUMPDEST CALLVALUE PUSH2 0x377 JUMPI PUSH1 0xC0 CALLDATASIZE PUSH1 0x3 NOT ADD SLT PUSH2 0x377 JUMPI PUSH1 0x4 CALLDATALOAD PUSH1 0x1 PUSH1 0x1 PUSH1 0x40 SHL SUB DUP2 GT PUSH2 0x377 JUMPI PUSH2 0x1A47 SWAP1 CALLDATASIZE SWAP1 PUSH1 0x4 ADD PUSH2 0x2A6F JUMP JUMPDEST PUSH1 0x24 CALLDATALOAD PUSH1 0x1 PUSH1 0x1 PUSH1 0x40 SHL SUB DUP2 GT PUSH2 0x377 JUMPI PUSH2 0x1A66 SWAP1 CALLDATASIZE SWAP1 PUSH1 0x4 ADD PUSH2 0x2A6F JUMP JUMPDEST PUSH1 0x44 CALLDATALOAD PUSH1 0x1 PUSH1 0x1 PUSH1 0x40 SHL SUB DUP2 GT PUSH2 0x377 JUMPI PUSH2 0x1A85 SWAP1 CALLDATASIZE SWAP1 PUSH1 0x4 ADD PUSH2 0x2AF2 JUMP JUMPDEST PUSH1 0x1 PUSH1 0x1 PUSH1 0x40 SHL SUB PUSH1 0x64 CALLDATALOAD GT PUSH2 0x377 JUMPI CALLDATASIZE PUSH1 0x23 PUSH1 0x64 CALLDATALOAD ADD SLT ISZERO PUSH2 0x377 JUMPI PUSH1 0x64 CALLDATALOAD PUSH1 0x4 ADD CALLDATALOAD SWAP3 PUSH2 0x1AB3 DUP5 PUSH2 0x2ADB JUMP JUMPDEST SWAP3 PUSH2 0x1AC1 PUSH1 0x40 MLOAD SWAP5 DUP6 PUSH2 0x28E5 JUMP JUMPDEST DUP5 DUP5 MSTORE PUSH1 0x20 DUP5 ADD DUP1 SWAP6 CALLDATASIZE PUSH1 0x24 DUP3 PUSH1 0x5 SHL PUSH1 0x64 CALLDATALOAD ADD ADD GT PUSH2 0x377 JUMPI PUSH1 0x24 PUSH1 0x64 CALLDATALOAD ADD SWAP2 JUMPDEST PUSH1 0x24 DUP3 PUSH1 0x5 SHL PUSH1 0x64 CALLDATALOAD ADD ADD DUP4 LT PUSH2 0x1F9B JUMPI POP POP POP PUSH2 0x1AFF PUSH2 0x2E09 JUMP JUMPDEST CALLER PUSH1 0x0 MSTORE PUSH1 0x3 PUSH1 0x20 MSTORE PUSH2 0x1B1C PUSH1 0xFF PUSH1 0x8 PUSH1 0x40 PUSH1 0x0 KECCAK256 ADD SLOAD AND PUSH2 0x2C6C JUMP JUMPDEST CALLER PUSH1 0x0 MSTORE PUSH1 0x3 PUSH1 0x20 MSTORE PUSH2 0x1B3A PUSH1 0x64 PUSH1 0x3 PUSH1 0x40 PUSH1 0x0 KECCAK256 ADD SLOAD LT ISZERO PUSH2 0x2EDA JUMP JUMPDEST PUSH1 0x1 DUP5 MLOAD GT ISZERO PUSH2 0x1F3C JUMPI PUSH1 0x84 CALLDATALOAD ISZERO PUSH2 0x1EF7 JUMPI PUSH1 0xA4 CALLDATALOAD ISZERO ISZERO DUP1 PUSH2 0x1EEA JUMPI JUMPDEST ISZERO PUSH2 0x1EB0 JUMPI PUSH1 0x0 JUMPDEST DUP5 MLOAD DUP2 LT ISZERO PUSH2 0x1BE8 JUMPI PUSH1 0x1 PUSH1 0x1 PUSH1 0xA0 SHL SUB PUSH2 0x1B7A DUP3 DUP8 PUSH2 0x2DF5 JUMP JUMPDEST MLOAD AND PUSH1 0x0 MSTORE PUSH1 0x3 PUSH1 0x20 MSTORE PUSH1 0xFF PUSH1 0x8 PUSH1 0x40 PUSH1 0x0 KECCAK256 ADD SLOAD AND ISZERO PUSH2 0x1BA3 JUMPI PUSH2 0x1B9E SWAP1 PUSH2 0x2DE6 JUMP JUMPDEST PUSH2 0x1B5F JUMP JUMPDEST PUSH1 0x40 MLOAD PUSH3 0x461BCD PUSH1 0xE5 SHL DUP2 MSTORE PUSH1 0x20 PUSH1 0x4 DUP3 ADD MSTORE PUSH1 0x18 PUSH1 0x24 DUP3 ADD MSTORE PUSH32 0x5061727469636970616E74206E6F742061206D656D6265720000000000000000 PUSH1 0x44 DUP3 ADD MSTORE PUSH1 0x64 SWAP1 REVERT JUMPDEST POP DUP4 SWAP1 DUP6 PUSH1 0x9 SLOAD SWAP5 DUP6 PUSH1 0x0 MSTORE PUSH1 0x4 PUSH1 0x20 MSTORE PUSH2 0x1C1B PUSH1 0x40 PUSH1 0x0 KECCAK256 SWAP4 DUP8 DUP6 SSTORE PUSH2 0x1C12 DUP8 PUSH1 0x1 DUP8 ADD PUSH2 0x2CCF JUMP JUMPDEST PUSH1 0x2 DUP6 ADD PUSH2 0x2CCF JUMP JUMPDEST DUP1 MLOAD SWAP1 PUSH1 0x1 PUSH1 0x40 SHL DUP3 GT PUSH2 0x127A JUMPI PUSH1 0x3 DUP5 ADD SLOAD DUP3 PUSH1 0x3 DUP7 ADD SSTORE DUP1 DUP4 LT PUSH2 0x1E37 JUMPI JUMPDEST POP PUSH1 0x20 ADD PUSH1 0x3 DUP5 ADD PUSH1 0x0 MSTORE PUSH1 0x20 PUSH1 0x0 KECCAK256 PUSH1 0x0 SWAP2 JUMPDEST DUP4 DUP4 LT PUSH2 0x1E1A JUMPI POP POP POP POP PUSH1 0x4 DUP3 ADD DUP4 MLOAD SWAP2 PUSH1 0x1 PUSH1 0x1 PUSH1 0x40 SHL SUB DUP4 GT PUSH2 0x127A JUMPI PUSH1 0x1 PUSH1 0x40 SHL DUP4 GT PUSH2 0x127A JUMPI DUP2 SLOAD DUP4 DUP4 SSTORE DUP1 DUP5 LT PUSH2 0x1DFC JUMPI JUMPDEST POP SWAP1 PUSH1 0x0 MSTORE PUSH1 0x20 PUSH1 0x0 KECCAK256 PUSH1 0x0 JUMPDEST DUP4 DUP2 LT PUSH2 0x1DDF JUMPI POP POP POP POP PUSH1 0x84 CALLDATALOAD PUSH1 0x5 DUP3 ADD SSTORE PUSH1 0x0 PUSH1 0x6 DUP3 ADD SSTORE TIMESTAMP PUSH1 0x7 DUP3 ADD SSTORE PUSH1 0x0 PUSH1 0x8 DUP3 ADD SSTORE PUSH1 0xA4 CALLDATALOAD PUSH1 0x9 DUP3 ADD SSTORE PUSH1 0xA DUP2 ADD PUSH1 0xFF NOT SWAP1 DUP2 DUP2 SLOAD AND SWAP1 SSTORE PUSH1 0x0 SWAP1 PUSH1 0xB PUSH1 0xC DUP5 ADD SWAP4 ADD SWAP2 JUMPDEST DUP5 MLOAD DUP2 LT ISZERO PUSH2 0x1D7C JUMPI PUSH2 0x1D77 SWAP1 PUSH1 0x1 PUSH1 0x1 PUSH1 0xA0 SHL SUB DUP1 PUSH2 0x1CFF DUP4 DUP10 PUSH2 0x2DF5 JUMP JUMPDEST MLOAD AND PUSH1 0x0 MSTORE DUP6 PUSH1 0x20 MSTORE PUSH1 0x40 PUSH1 0x0 KECCAK256 DUP5 DUP2 SLOAD AND SWAP1 SSTORE DUP1 PUSH2 0x1D1E DUP4 DUP10 PUSH2 0x2DF5 JUMP JUMPDEST MLOAD AND PUSH1 0x0 MSTORE DUP5 PUSH1 0x20 MSTORE PUSH1 0x0 PUSH1 0x40 DUP2 KECCAK256 SSTORE DUP1 PUSH2 0x1D39 DUP4 DUP10 PUSH2 0x2DF5 JUMP JUMPDEST MLOAD AND PUSH1 0x0 MSTORE PUSH1 0x3 PUSH1 0x20 MSTORE PUSH2 0x1D54 PUSH1 0x5 PUSH1 0x40 PUSH1 0x0 KECCAK256 ADD SLOAD PUSH2 0x2E5F JUMP JUMPDEST SWAP1 PUSH2 0x1D5F DUP4 DUP10 PUSH2 0x2DF5 JUMP JUMPDEST MLOAD AND PUSH1 0x0 MSTORE PUSH1 0x3 PUSH1 0x20 MSTORE PUSH1 0x5 PUSH1 0x40 PUSH1 0x0 KECCAK256 ADD SSTORE PUSH2 0x2DE6 JUMP JUMPDEST PUSH2 0x1CDF JUMP JUMPDEST DUP7 PUSH32 0x998B9B07E791BA38D092110522ED4D3471AF4B7B3729FB284FA42DFF5992C990 PUSH2 0x1DC8 DUP9 PUSH2 0x1DD6 DUP10 PUSH2 0x1DB1 PUSH1 0x9 SLOAD PUSH2 0x2E5F JUMP JUMPDEST PUSH1 0x9 SSTORE PUSH1 0x40 MLOAD SWAP4 DUP5 SWAP4 PUSH1 0x40 DUP6 MSTORE PUSH1 0x40 DUP6 ADD SWAP1 PUSH2 0x29CF JUMP JUMPDEST SWAP1 DUP4 DUP3 SUB PUSH1 0x20 DUP6 ADD MSTORE PUSH2 0x2BD7 JUMP JUMPDEST SUB SWAP1 LOG2 PUSH1 0x1 DUP1 SSTORE STOP JUMPDEST DUP3 MLOAD PUSH1 0x1 PUSH1 0x1 PUSH1 0xA0 SHL SUB AND DUP2 DUP4 ADD SSTORE PUSH1 0x20 SWAP1 SWAP3 ADD SWAP2 PUSH1 0x1 ADD PUSH2 0x1C95 JUMP JUMPDEST PUSH2 0x1E14 SWAP1 DUP4 PUSH1 0x0 MSTORE DUP5 PUSH1 0x20 PUSH1 0x0 KECCAK256 SWAP2 DUP3 ADD SWAP2 ADD PUSH2 0x2CB8 JUMP JUMPDEST DUP8 PUSH2 0x1C88 JUMP JUMPDEST PUSH1 0x1 PUSH1 0x20 DUP3 PUSH2 0x1E2B DUP4 SWAP5 MLOAD DUP7 PUSH2 0x2CCF JUMP JUMPDEST ADD SWAP3 ADD SWAP3 ADD SWAP2 SWAP1 PUSH2 0x1C50 JUMP JUMPDEST PUSH1 0x3 DUP6 ADD PUSH1 0x0 MSTORE PUSH1 0x20 PUSH1 0x0 KECCAK256 SWAP1 DUP4 DUP3 ADD JUMPDEST DUP2 DUP4 ADD DUP2 LT PUSH2 0x1E58 JUMPI POP POP PUSH2 0x1C3C JUMP JUMPDEST DUP1 PUSH2 0x1E65 PUSH1 0x1 SWAP3 SLOAD PUSH2 0x2874 JUMP JUMPDEST DUP1 PUSH2 0x1E72 JUMPI JUMPDEST POP ADD PUSH2 0x1E48 JUMP JUMPDEST PUSH1 0x1F SWAP1 DUP2 DUP2 GT DUP5 EQ PUSH2 0x1E8B JUMPI POP POP PUSH1 0x0 DUP2 SSTORE JUMPDEST DUP12 PUSH2 0x1E6B JUMP JUMPDEST PUSH2 0x1EA7 PUSH1 0x0 SWAP3 DUP5 DUP5 MSTORE PUSH1 0x20 DUP5 KECCAK256 SWAP3 ADD PUSH1 0x5 SHR DUP3 ADD DUP6 DUP4 ADD PUSH2 0x2CB8 JUMP JUMPDEST DUP2 DUP4 SSTORE SSTORE PUSH2 0x1E85 JUMP JUMPDEST PUSH1 0x40 MLOAD PUSH3 0x461BCD PUSH1 0xE5 SHL DUP2 MSTORE PUSH1 0x20 PUSH1 0x4 DUP3 ADD MSTORE PUSH1 0x12 PUSH1 0x24 DUP3 ADD MSTORE PUSH18 0x496E76616C696420646966666963756C7479 PUSH1 0x70 SHL PUSH1 0x44 DUP3 ADD MSTORE PUSH1 0x64 SWAP1 REVERT JUMPDEST POP PUSH1 0x64 PUSH1 0xA4 CALLDATALOAD GT ISZERO PUSH2 0x1B57 JUMP JUMPDEST PUSH1 0x40 MLOAD PUSH3 0x461BCD PUSH1 0xE5 SHL DUP2 MSTORE PUSH1 0x20 PUSH1 0x4 DUP3 ADD MSTORE PUSH1 0x17 PUSH1 0x24 DUP3 ADD MSTORE PUSH32 0x427564676574206D75737420626520706F736974697665000000000000000000 PUSH1 0x44 DUP3 ADD MSTORE PUSH1 0x64 SWAP1 REVERT JUMPDEST PUSH1 0x40 MLOAD PUSH3 0x461BCD PUSH1 0xE5 SHL DUP2 MSTORE PUSH1 0x20 PUSH1 0x4 DUP3 ADD MSTORE PUSH1 0x31 PUSH1 0x24 DUP3 ADD MSTORE PUSH32 0x436F6C6C61626F7261746976652070726F6A656374206E65656473206D756C74 PUSH1 0x44 DUP3 ADD MSTORE PUSH17 0x69706C65207061727469636970616E7473 PUSH1 0x78 SHL PUSH1 0x64 DUP3 ADD MSTORE PUSH1 0x84 SWAP1 REVERT JUMPDEST DUP3 CALLDATALOAD SWAP1 PUSH1 0x1 PUSH1 0x1 PUSH1 0xA0 SHL SUB DUP3 AND DUP3 SUB PUSH2 0x377 JUMPI SWAP1 DUP2 MSTORE PUSH1 0x20 SWAP3 DUP4 ADD SWAP3 ADD PUSH2 0x1AE3 JUMP JUMPDEST CALLVALUE PUSH2 0x377 JUMPI PUSH1 0x40 CALLDATASIZE PUSH1 0x3 NOT ADD SLT PUSH2 0x377 JUMPI PUSH1 0x24 CALLDATALOAD PUSH1 0x1 PUSH1 0x1 PUSH1 0xA0 SHL SUB DUP2 AND SWAP1 DUP2 SWAP1 SUB PUSH2 0x377 JUMPI PUSH1 0x4 CALLDATALOAD PUSH1 0x0 MSTORE PUSH1 0x4 PUSH1 0x20 MSTORE PUSH1 0xB PUSH1 0x40 PUSH1 0x0 KECCAK256 ADD SWAP1 PUSH1 0x0 MSTORE PUSH1 0x20 MSTORE PUSH1 0x20 PUSH1 0x40 PUSH1 0x0 KECCAK256 SLOAD PUSH1 0x40 MLOAD SWAP1 DUP2 MSTORE RETURN JUMPDEST CALLVALUE PUSH2 0x377 JUMPI PUSH1 0x20 DUP1 PUSH1 0x3 NOT CALLDATASIZE ADD SLT PUSH2 0x377 JUMPI PUSH1 0x4 CALLDATALOAD PUSH2 0x202A PUSH2 0x2E09 JUMP JUMPDEST PUSH1 0x9 PUSH2 0x2038 DUP2 SLOAD DUP4 LT PUSH2 0x2F26 JUMP JUMPDEST DUP2 PUSH1 0x0 MSTORE PUSH1 0x4 DUP4 MSTORE PUSH1 0xFF PUSH1 0xA PUSH1 0x40 PUSH1 0x0 KECCAK256 ADD SLOAD AND PUSH2 0x22F2 JUMPI DUP2 PUSH1 0x0 MSTORE PUSH1 0x4 DUP4 MSTORE PUSH1 0x40 PUSH1 0x0 KECCAK256 SWAP2 PUSH1 0x1 DUP1 PUSH1 0xA0 SHL SUB SWAP3 DUP4 PUSH1 0x0 SLOAD AND CALLER EQ SWAP5 PUSH1 0x0 SWAP4 PUSH1 0x4 DUP4 ADD SWAP7 DUP8 SLOAD SWAP6 JUMPDEST DUP7 DUP2 LT PUSH2 0x22C0 JUMPI JUMPDEST POP ISZERO PUSH2 0x2270 JUMPI PUSH1 0x0 SWAP3 PUSH1 0x0 PUSH1 0xB DUP3 ADD SWAP7 JUMPDEST DUP9 DUP11 DUP3 DUP5 LT PUSH2 0x2236 JUMPI POP POP POP POP DUP4 ISZERO PUSH2 0x21F9 JUMPI PUSH1 0x5 DUP2 ADD SLOAD SWAP1 PUSH1 0x96 DUP3 MUL SWAP2 DUP1 DUP4 DIV PUSH1 0x96 EQ DUP2 ISZERO OR ISZERO PUSH2 0x2E2 JUMPI PUSH2 0x20CE SWAP1 PUSH1 0x64 DUP1 SWAP5 DIV SWAP1 PUSH2 0x2E6D JUMP JUMPDEST SWAP8 PUSH1 0x0 JUMPDEST DUP11 SLOAD DUP2 LT ISZERO PUSH2 0x21DD JUMPI DUP1 DUP10 DUP10 DUP8 DUP10 DUP16 DUP16 DUP9 SWAP1 DUP12 DUP16 PUSH2 0x20F4 PUSH2 0x2120 SWAP12 DUP15 SWAP7 PUSH2 0x2BBF JUMP JUMPDEST SWAP5 SWAP1 SLOAD PUSH1 0x3 SWAP6 DUP7 SHL SHR AND SWAP9 DUP10 PUSH1 0x0 MSTORE DUP7 MSTORE PUSH1 0x40 PUSH1 0x0 KECCAK256 SLOAD DUP1 PUSH2 0x2125 JUMPI JUMPDEST POP POP POP POP POP POP POP POP POP POP PUSH2 0x2DE6 JUMP JUMPDEST PUSH2 0x20D2 JUMP JUMPDEST PUSH32 0x4CBFA67F54CF0255619787991CB52AA46C0D3EE5CFABB0ABF659F2B310F47485 SWAP8 PUSH2 0x2160 PUSH2 0x2192 SWAP4 PUSH2 0x215B DUP5 PUSH2 0x21A7 SWAP9 PUSH2 0x2DD3 JUMP JUMPDEST PUSH2 0x2E7A JUMP JUMPDEST SWAP7 DUP12 PUSH1 0x0 MSTORE DUP7 DUP10 MSTORE PUSH2 0x217A DUP9 PUSH1 0x4 PUSH1 0x40 PUSH1 0x0 KECCAK256 ADD SLOAD PUSH2 0x2E6D JUMP JUMPDEST DUP13 PUSH1 0x0 MSTORE DUP8 DUP11 MSTORE PUSH1 0x4 PUSH1 0x40 PUSH1 0x0 KECCAK256 ADD SSTORE ADD SLOAD SWAP1 PUSH2 0x2DD3 JUMP JUMPDEST DIV DUP8 PUSH1 0x0 MSTORE DUP3 DUP6 MSTORE DUP3 PUSH1 0x40 PUSH1 0x0 KECCAK256 ADD SLOAD PUSH2 0x2E6D JUMP JUMPDEST SWAP1 DUP7 PUSH1 0x0 MSTORE DUP1 DUP5 MSTORE PUSH1 0x40 PUSH1 0x0 KECCAK256 ADD SSTORE PUSH1 0x6 DUP10 ADD PUSH2 0x21C5 DUP3 DUP3 SLOAD PUSH2 0x2E6D JUMP JUMPDEST SWAP1 SSTORE PUSH1 0x40 MLOAD SWAP1 DUP2 MSTORE LOG3 DUP13 DUP10 DUP8 DUP10 DUP8 DUP16 DUP1 DUP12 DUP16 DUP9 PUSH2 0x2111 JUMP JUMPDEST PUSH1 0xA DUP4 ADD DUP1 SLOAD PUSH1 0xFF NOT AND PUSH1 0x1 SWAP1 DUP2 OR SWAP1 SWAP2 SSTORE TIMESTAMP PUSH1 0x8 DUP6 ADD SSTORE DUP1 SSTORE STOP JUMPDEST PUSH1 0x40 MLOAD PUSH3 0x461BCD PUSH1 0xE5 SHL DUP2 MSTORE PUSH1 0x4 DUP2 ADD DUP5 SWAP1 MSTORE PUSH1 0x15 PUSH1 0x24 DUP3 ADD MSTORE PUSH21 0x4E6F20636F6E747269627574696F6E73206D616465 PUSH1 0x58 SHL PUSH1 0x44 DUP3 ADD MSTORE PUSH1 0x64 SWAP1 REVERT JUMPDEST SWAP7 PUSH2 0x2264 SWAP2 PUSH2 0x224A DUP6 PUSH2 0x226A SWAP6 SWAP7 SWAP11 PUSH2 0x2BBF JUMP JUMPDEST SWAP1 SLOAD SWAP1 PUSH1 0x3 SHL SHR AND PUSH1 0x0 MSTORE DUP10 DUP8 MSTORE PUSH1 0x40 PUSH1 0x0 KECCAK256 SLOAD SWAP1 PUSH2 0x2E6D JUMP JUMPDEST SWAP6 PUSH2 0x2DE6 JUMP JUMPDEST SWAP1 PUSH2 0x2093 JUMP JUMPDEST PUSH1 0x40 MLOAD PUSH3 0x461BCD PUSH1 0xE5 SHL DUP2 MSTORE PUSH1 0x4 DUP2 ADD DUP4 SWAP1 MSTORE PUSH1 0x22 PUSH1 0x24 DUP3 ADD MSTORE PUSH32 0x4E6F7420617574686F72697A656420746F20636F6D706C6574652070726F6A65 PUSH1 0x44 DUP3 ADD MSTORE PUSH2 0x18DD PUSH1 0xF2 SHL PUSH1 0x64 DUP3 ADD MSTORE PUSH1 0x84 SWAP1 REVERT JUMPDEST DUP8 PUSH2 0x22CB DUP3 DUP12 PUSH2 0x2BBF JUMP JUMPDEST SWAP2 SWAP1 SLOAD CALLER SWAP3 PUSH1 0x3 SHL SHR AND EQ PUSH2 0x22E8 JUMPI PUSH2 0x22E3 SWAP1 PUSH2 0x2DE6 JUMP JUMPDEST PUSH2 0x207A JUMP JUMPDEST POP POP PUSH1 0x1 DUP9 PUSH2 0x2082 JUMP JUMPDEST PUSH1 0x40 MLOAD PUSH3 0x461BCD PUSH1 0xE5 SHL DUP2 MSTORE PUSH1 0x4 DUP2 ADD DUP5 SWAP1 MSTORE PUSH1 0x11 PUSH1 0x24 DUP3 ADD MSTORE PUSH17 0x105B1C9958591E4818DBDB5C1B195D1959 PUSH1 0x7A SHL PUSH1 0x44 DUP3 ADD MSTORE PUSH1 0x64 SWAP1 REVERT JUMPDEST CALLVALUE PUSH2 0x377 JUMPI PUSH1 0x0 CALLDATASIZE PUSH1 0x3 NOT ADD SLT PUSH2 0x377 JUMPI PUSH1 0x12 SLOAD PUSH2 0x2348 DUP2 PUSH2 0x2ADB JUMP JUMPDEST SWAP1 PUSH2 0x2356 PUSH1 0x40 MLOAD SWAP3 DUP4 PUSH2 0x28E5 JUMP JUMPDEST DUP1 DUP3 MSTORE PUSH1 0x20 SWAP1 DUP2 DUP4 ADD PUSH1 0x12 PUSH1 0x0 MSTORE PUSH32 0xBB8A6A4669BA250D26CD7A459ECA9D215F8307E33AEBE50379BC5A3617EC3444 DUP4 PUSH1 0x0 SWAP3 JUMPDEST DUP5 DUP5 LT PUSH2 0x23A4 JUMPI PUSH1 0x40 MLOAD DUP3 DUP2 MSTORE DUP1 PUSH2 0x6AD DUP2 DUP6 ADD DUP11 PUSH2 0x2A13 JUMP JUMPDEST PUSH1 0x1 SWAP2 DUP3 SWAP2 PUSH2 0x23B2 DUP6 PUSH2 0x2906 JUMP JUMPDEST DUP2 MSTORE ADD SWAP3 ADD SWAP3 ADD SWAP2 SWAP1 DUP5 SWAP1 PUSH2 0x238A JUMP JUMPDEST CALLVALUE PUSH2 0x377 JUMPI PUSH1 0x20 CALLDATASIZE PUSH1 0x3 NOT ADD SLT PUSH2 0x377 JUMPI PUSH1 0x4 CALLDATALOAD PUSH1 0x0 MSTORE PUSH1 0x4 PUSH1 0x20 MSTORE PUSH1 0x40 PUSH1 0x0 KECCAK256 DUP1 SLOAD PUSH2 0x23F1 PUSH1 0x1 DUP4 ADD PUSH2 0x2906 JUMP JUMPDEST SWAP2 PUSH2 0x23FE PUSH1 0x2 DUP3 ADD PUSH2 0x2906 JUMP JUMPDEST PUSH1 0x5 DUP3 ADD SLOAD SWAP2 PUSH1 0x6 DUP2 ADD SLOAD PUSH1 0x7 DUP3 ADD SLOAD PUSH1 0x8 DUP4 ADD SLOAD SWAP2 PUSH2 0x244F PUSH1 0xFF PUSH1 0xA PUSH1 0x9 DUP8 ADD SLOAD SWAP7 ADD SLOAD AND SWAP6 PUSH2 0x2441 PUSH1 0x40 MLOAD SWAP11 DUP12 SWAP11 DUP12 MSTORE PUSH2 0x120 DUP1 PUSH1 0x20 DUP14 ADD MSTORE DUP12 ADD SWAP1 PUSH2 0x29CF JUMP JUMPDEST SWAP1 DUP10 DUP3 SUB PUSH1 0x40 DUP12 ADD MSTORE PUSH2 0x29CF JUMP JUMPDEST SWAP6 PUSH1 0x60 DUP9 ADD MSTORE PUSH1 0x80 DUP8 ADD MSTORE PUSH1 0xA0 DUP7 ADD MSTORE PUSH1 0xC0 DUP6 ADD MSTORE PUSH1 0xE0 DUP5 ADD MSTORE ISZERO ISZERO PUSH2 0x100 DUP4 ADD MSTORE SUB SWAP1 RETURN JUMPDEST CALLVALUE PUSH2 0x377 JUMPI PUSH1 0x20 CALLDATASIZE PUSH1 0x3 NOT ADD SLT PUSH2 0x377 JUMPI PUSH1 0x1 PUSH1 0x1 PUSH1 0xA0 SHL SUB DUP1 PUSH2 0x2497 PUSH2 0x2AC5 JUMP JUMPDEST AND PUSH1 0x0 MSTORE PUSH1 0x3 PUSH1 0x20 MSTORE PUSH1 0x40 PUSH1 0x0 KECCAK256 SWAP1 DUP2 SLOAD AND PUSH2 0x6AD PUSH1 0x1 DUP4 ADD SLOAD SWAP3 PUSH1 0x2 DUP2 ADD SLOAD SWAP1 PUSH1 0x3 DUP2 ADD SLOAD PUSH1 0x4 DUP3 ADD SLOAD PUSH1 0x5 DUP4 ADD SLOAD PUSH1 0x6 DUP5 ADD SLOAD SWAP2 PUSH1 0x7 DUP6 ADD SLOAD SWAP4 PUSH2 0x24E7 PUSH1 0x9 PUSH1 0xFF PUSH1 0x8 DUP10 ADD SLOAD AND SWAP8 ADD PUSH2 0x2906 JUMP JUMPDEST SWAP7 PUSH1 0x40 MLOAD SWAP11 DUP12 SWAP11 DUP12 MSTORE PUSH1 0x20 DUP12 ADD MSTORE PUSH1 0x40 DUP11 ADD MSTORE PUSH1 0x60 DUP10 ADD MSTORE PUSH1 0x80 DUP9 ADD MSTORE PUSH1 0xA0 DUP8 ADD MSTORE PUSH1 0xC0 DUP7 ADD MSTORE PUSH1 0xE0 DUP6 ADD MSTORE ISZERO ISZERO PUSH2 0x100 DUP5 ADD MSTORE PUSH2 0x140 DUP1 PUSH2 0x120 DUP6 ADD MSTORE DUP4 ADD SWAP1 PUSH2 0x29CF JUMP JUMPDEST CALLVALUE PUSH2 0x377 JUMPI PUSH1 0x20 CALLDATASIZE PUSH1 0x3 NOT ADD SLT PUSH2 0x377 JUMPI PUSH1 0x4 CALLDATALOAD PUSH1 0x1 PUSH1 0x1 PUSH1 0x40 SHL SUB DUP2 GT PUSH2 0x377 JUMPI PUSH2 0x255D SWAP1 CALLDATASIZE SWAP1 PUSH1 0x4 ADD PUSH2 0x2A6F JUMP JUMPDEST PUSH2 0x2565 PUSH2 0x2C14 JUMP JUMPDEST PUSH1 0x12 SLOAD PUSH1 0x1 PUSH1 0x40 SHL DUP2 LT ISZERO PUSH2 0x127A JUMPI DUP1 PUSH1 0x1 PUSH2 0x2584 SWAP3 ADD PUSH1 0x12 SSTORE PUSH2 0x2B72 JUMP JUMPDEST SWAP2 SWAP1 SWAP2 PUSH2 0x6B1 JUMPI PUSH2 0xC92 SWAP2 PUSH2 0x2CCF JUMP JUMPDEST CALLVALUE PUSH2 0x377 JUMPI PUSH1 0x20 CALLDATASIZE PUSH1 0x3 NOT ADD SLT PUSH2 0x377 JUMPI PUSH1 0x4 CALLDATALOAD PUSH2 0x25B5 PUSH1 0xB SLOAD DUP3 LT PUSH2 0x2E9A JUMP JUMPDEST PUSH1 0x0 MSTORE PUSH1 0x6 PUSH1 0x20 MSTORE PUSH1 0x40 PUSH1 0x0 KECCAK256 DUP1 SLOAD PUSH1 0x1 DUP1 PUSH1 0xA0 SHL SUB PUSH1 0x1 DUP4 ADD SLOAD AND SWAP2 PUSH1 0x3 DUP2 ADD SLOAD PUSH1 0x4 DUP3 ADD SLOAD SWAP1 PUSH2 0x2652 PUSH1 0x5 DUP5 ADD SLOAD SWAP2 PUSH1 0x7 DUP6 ADD SLOAD SWAP5 PUSH1 0xFF PUSH1 0x8 DUP3 ADD SLOAD AND SWAP4 PUSH1 0x9 DUP3 ADD SLOAD SWAP6 PUSH2 0x2635 PUSH2 0x2616 PUSH1 0x6 PUSH2 0x260F PUSH1 0x2 DUP8 ADD PUSH2 0x2906 JUMP JUMPDEST SWAP6 ADD PUSH2 0x2FBD JUMP JUMPDEST SWAP4 PUSH1 0x40 MLOAD SWAP12 DUP13 SWAP12 DUP13 MSTORE PUSH1 0x20 DUP13 ADD MSTORE PUSH2 0x140 DUP1 PUSH1 0x40 DUP14 ADD MSTORE DUP12 ADD SWAP1 PUSH2 0x29CF JUMP JUMPDEST SWAP4 PUSH1 0x60 DUP11 ADD MSTORE PUSH1 0x80 DUP10 ADD MSTORE PUSH1 0xA0 DUP9 ADD MSTORE DUP7 DUP3 SUB PUSH1 0xC0 DUP9 ADD MSTORE PUSH2 0x2A13 JUMP JUMPDEST SWAP3 PUSH1 0xE0 DUP6 ADD MSTORE ISZERO ISZERO PUSH2 0x100 DUP5 ADD MSTORE PUSH2 0x120 DUP4 ADD MSTORE SUB SWAP1 RETURN JUMPDEST CALLVALUE PUSH2 0x377 JUMPI PUSH2 0x2678 CALLDATASIZE PUSH2 0x29F4 JUMP JUMPDEST SWAP1 PUSH2 0x2681 PUSH2 0x2C14 JUMP JUMPDEST PUSH2 0x268E PUSH1 0xB SLOAD DUP3 LT PUSH2 0x2E9A JUMP JUMPDEST PUSH1 0x0 MSTORE PUSH1 0x20 SWAP1 PUSH1 0x6 DUP3 MSTORE PUSH1 0x40 PUSH1 0x0 KECCAK256 SWAP1 PUSH1 0x8 DUP3 ADD PUSH1 0xFF DUP2 SLOAD AND PUSH2 0x2789 JUMPI DUP1 SLOAD PUSH1 0xFF NOT AND PUSH1 0xFF DUP4 ISZERO ISZERO AND OR SWAP1 SSTORE PUSH2 0x26C0 JUMPI STOP JUMPDEST PUSH1 0x80 DUP2 PUSH1 0x40 PUSH1 0xA PUSH1 0x9 PUSH32 0xC2FF8205A96F8C5C83A4B4FD0F518EFBC5496331FB7D75D13CB422D310AA44DE SWAP6 ADD SLOAD DIV SWAP2 PUSH1 0x1 DUP2 ADD PUSH1 0x64 PUSH1 0x5 PUSH1 0x1 DUP1 PUSH1 0xA0 SHL SUB SWAP4 DUP5 DUP5 SLOAD AND DUP1 PUSH1 0x0 MSTORE PUSH1 0x3 DUP12 MSTORE PUSH2 0x271C DUP9 PUSH1 0x4 DUP10 PUSH1 0x0 KECCAK256 ADD SLOAD PUSH2 0x2E6D JUMP JUMPDEST SWAP1 PUSH1 0x0 MSTORE PUSH1 0x3 DUP12 MSTORE PUSH1 0x4 DUP8 PUSH1 0x0 KECCAK256 ADD SSTORE ADD SLOAD DIV PUSH2 0x2748 DUP4 DUP4 SLOAD AND SWAP2 DUP3 PUSH1 0x0 MSTORE PUSH1 0x3 DUP7 PUSH1 0x0 KECCAK256 ADD SLOAD PUSH2 0x2E6D JUMP JUMPDEST SWAP1 PUSH1 0x0 MSTORE PUSH1 0x3 DUP9 MSTORE PUSH1 0x3 DUP5 PUSH1 0x0 KECCAK256 ADD SSTORE SLOAD AND SWAP5 DUP2 MLOAD SWAP3 DUP4 MSTORE DUP3 ADD MSTORE PUSH1 0x13 PUSH1 0x40 DUP3 ADD MSTORE PUSH19 0x2932B9BAB63A102B32B934B334B1B0BA34B7B7 PUSH1 0x69 SHL PUSH1 0x60 DUP3 ADD MSTORE LOG2 STOP JUMPDEST PUSH1 0x40 MLOAD PUSH3 0x461BCD PUSH1 0xE5 SHL DUP2 MSTORE PUSH1 0x4 DUP2 ADD DUP6 SWAP1 MSTORE PUSH1 0x10 PUSH1 0x24 DUP3 ADD MSTORE PUSH16 0x105B1C9958591E481D995C9A599A5959 PUSH1 0x82 SHL PUSH1 0x44 DUP3 ADD MSTORE PUSH1 0x64 SWAP1 REVERT JUMPDEST CALLVALUE PUSH2 0x377 JUMPI PUSH1 0x20 CALLDATASIZE PUSH1 0x3 NOT ADD SLT PUSH2 0x377 JUMPI PUSH1 0x4 CALLDATALOAD PUSH1 0x0 SWAP1 DUP2 MSTORE PUSH1 0x5 PUSH1 0x20 MSTORE PUSH1 0x40 SWAP1 KECCAK256 DUP1 SLOAD PUSH1 0x1 DUP3 ADD SLOAD PUSH1 0x1 PUSH1 0x1 PUSH1 0xA0 SHL SUB AND SWAP2 PUSH2 0x2800 PUSH1 0x2 DUP3 ADD PUSH2 0x2906 JUMP JUMPDEST PUSH2 0x280C PUSH1 0x3 DUP4 ADD PUSH2 0x2906 JUMP JUMPDEST SWAP2 PUSH1 0x4 DUP2 ADD SLOAD SWAP3 PUSH2 0x2859 PUSH1 0x5 DUP4 ADD SLOAD SWAP2 PUSH2 0x284B PUSH1 0xFF PUSH1 0x7 PUSH1 0x6 DUP8 ADD SLOAD SWAP7 ADD SLOAD AND SWAP6 PUSH1 0x40 MLOAD SWAP10 DUP11 SWAP10 DUP11 MSTORE PUSH1 0x20 DUP11 ADD MSTORE PUSH2 0x100 DUP1 PUSH1 0x40 DUP12 ADD MSTORE DUP10 ADD SWAP1 PUSH2 0x29CF JUMP JUMPDEST SWAP1 DUP8 DUP3 SUB PUSH1 0x60 DUP10 ADD MSTORE PUSH2 0x29CF JUMP JUMPDEST SWAP4 PUSH1 0x80 DUP7 ADD MSTORE PUSH1 0xA0 DUP6 ADD MSTORE PUSH1 0xC0 DUP5 ADD MSTORE ISZERO ISZERO PUSH1 0xE0 DUP4 ADD MSTORE SUB SWAP1 RETURN JUMPDEST SWAP1 PUSH1 0x1 DUP3 DUP2 SHR SWAP3 AND DUP1 ISZERO PUSH2 0x28A4 JUMPI JUMPDEST PUSH1 0x20 DUP4 LT EQ PUSH2 0x288E JUMPI JUMP JUMPDEST PUSH4 0x4E487B71 PUSH1 0xE0 SHL PUSH1 0x0 MSTORE PUSH1 0x22 PUSH1 0x4 MSTORE PUSH1 0x24 PUSH1 0x0 REVERT JUMPDEST SWAP2 PUSH1 0x7F AND SWAP2 PUSH2 0x2883 JUMP JUMPDEST PUSH2 0x140 DUP2 ADD SWAP1 DUP2 LT PUSH1 0x1 PUSH1 0x1 PUSH1 0x40 SHL SUB DUP3 GT OR PUSH2 0x127A JUMPI PUSH1 0x40 MSTORE JUMP JUMPDEST PUSH1 0xC0 DUP2 ADD SWAP1 DUP2 LT PUSH1 0x1 PUSH1 0x1 PUSH1 0x40 SHL SUB DUP3 GT OR PUSH2 0x127A JUMPI PUSH1 0x40 MSTORE JUMP JUMPDEST SWAP1 PUSH1 0x1F DUP1 NOT SWAP2 ADD AND DUP2 ADD SWAP1 DUP2 LT PUSH1 0x1 PUSH1 0x1 PUSH1 0x40 SHL SUB DUP3 GT OR PUSH2 0x127A JUMPI PUSH1 0x40 MSTORE JUMP JUMPDEST SWAP1 PUSH1 0x40 MLOAD SWAP2 DUP3 PUSH1 0x0 DUP3 SLOAD SWAP3 PUSH2 0x291A DUP5 PUSH2 0x2874 JUMP JUMPDEST SWAP1 DUP2 DUP5 MSTORE PUSH1 0x1 SWAP5 DUP6 DUP2 AND SWAP1 DUP2 PUSH1 0x0 EQ PUSH2 0x2989 JUMPI POP PUSH1 0x1 EQ PUSH2 0x2946 JUMPI JUMPDEST POP POP PUSH2 0x2944 SWAP3 POP SUB DUP4 PUSH2 0x28E5 JUMP JUMPDEST JUMP JUMPDEST SWAP1 SWAP4 SWAP2 POP PUSH1 0x0 MSTORE PUSH1 0x20 SWAP1 DUP2 PUSH1 0x0 KECCAK256 SWAP4 PUSH1 0x0 SWAP2 JUMPDEST DUP2 DUP4 LT PUSH2 0x2971 JUMPI POP POP PUSH2 0x2944 SWAP4 POP DUP3 ADD ADD CODESIZE DUP1 PUSH2 0x2936 JUMP JUMPDEST DUP6 SLOAD DUP9 DUP5 ADD DUP6 ADD MSTORE SWAP5 DUP6 ADD SWAP5 DUP8 SWAP5 POP SWAP2 DUP4 ADD SWAP2 PUSH2 0x2959 JUMP JUMPDEST SWAP2 POP POP PUSH2 0x2944 SWAP5 POP PUSH1 0x20 SWAP3 POP PUSH1 0xFF NOT AND DUP3 DUP5 ADD MSTORE ISZERO ISZERO PUSH1 0x5 SHL DUP3 ADD ADD CODESIZE DUP1 PUSH2 0x2936 JUMP JUMPDEST PUSH1 0x0 JUMPDEST DUP4 DUP2 LT PUSH2 0x29BF JUMPI POP POP PUSH1 0x0 SWAP2 ADD MSTORE JUMP JUMPDEST DUP2 DUP2 ADD MLOAD DUP4 DUP3 ADD MSTORE PUSH1 0x20 ADD PUSH2 0x29AF JUMP JUMPDEST SWAP1 PUSH1 0x20 SWAP2 PUSH2 0x29E8 DUP2 MLOAD DUP1 SWAP3 DUP2 DUP6 MSTORE DUP6 DUP1 DUP7 ADD SWAP2 ADD PUSH2 0x29AC JUMP JUMPDEST PUSH1 0x1F ADD PUSH1 0x1F NOT AND ADD ADD SWAP1 JUMP JUMPDEST PUSH1 0x40 SWAP1 PUSH1 0x3 NOT ADD SLT PUSH2 0x377 JUMPI PUSH1 0x4 CALLDATALOAD SWAP1 PUSH1 0x24 CALLDATALOAD DUP1 ISZERO ISZERO DUP2 SUB PUSH2 0x377 JUMPI SWAP1 JUMP JUMPDEST SWAP1 DUP1 DUP3 MLOAD SWAP1 DUP2 DUP2 MSTORE PUSH1 0x20 DUP1 SWAP2 ADD SWAP3 DUP2 DUP1 DUP5 PUSH1 0x5 SHL DUP4 ADD ADD SWAP6 ADD SWAP4 PUSH1 0x0 SWAP2 JUMPDEST DUP5 DUP4 LT PUSH2 0x2A41 JUMPI POP POP POP POP POP POP SWAP1 JUMP JUMPDEST SWAP1 SWAP2 SWAP3 SWAP4 SWAP5 SWAP6 DUP5 DUP1 PUSH2 0x2A5F PUSH1 0x1 SWAP4 PUSH1 0x1F NOT DUP7 DUP3 SUB ADD DUP8 MSTORE DUP11 MLOAD PUSH2 0x29CF JUMP JUMPDEST SWAP9 ADD SWAP4 ADD SWAP4 ADD SWAP2 SWAP5 SWAP4 SWAP3 SWAP1 PUSH2 0x2A31 JUMP JUMPDEST DUP2 PUSH1 0x1F DUP3 ADD SLT ISZERO PUSH2 0x377 JUMPI DUP1 CALLDATALOAD SWAP1 PUSH1 0x1 PUSH1 0x1 PUSH1 0x40 SHL SUB DUP3 GT PUSH2 0x127A JUMPI PUSH1 0x40 MLOAD SWAP3 PUSH2 0x2AA3 PUSH1 0x1F DUP5 ADD PUSH1 0x1F NOT AND PUSH1 0x20 ADD DUP6 PUSH2 0x28E5 JUMP JUMPDEST DUP3 DUP5 MSTORE PUSH1 0x20 DUP4 DUP4 ADD ADD GT PUSH2 0x377 JUMPI DUP2 PUSH1 0x0 SWAP3 PUSH1 0x20 DUP1 SWAP4 ADD DUP4 DUP7 ADD CALLDATACOPY DUP4 ADD ADD MSTORE SWAP1 JUMP JUMPDEST PUSH1 0x4 CALLDATALOAD SWAP1 PUSH1 0x1 PUSH1 0x1 PUSH1 0xA0 SHL SUB DUP3 AND DUP3 SUB PUSH2 0x377 JUMPI JUMP JUMPDEST PUSH1 0x1 PUSH1 0x1 PUSH1 0x40 SHL SUB DUP2 GT PUSH2 0x127A JUMPI PUSH1 0x5 SHL PUSH1 0x20 ADD SWAP1 JUMP JUMPDEST SWAP1 DUP1 PUSH1 0x1F DUP4 ADD SLT ISZERO PUSH2 0x377 JUMPI DUP2 CALLDATALOAD SWAP1 PUSH2 0x2B0A DUP3 PUSH2 0x2ADB JUMP JUMPDEST SWAP3 PUSH2 0x2B18 PUSH1 0x40 MLOAD SWAP5 DUP6 PUSH2 0x28E5 JUMP JUMPDEST DUP3 DUP5 MSTORE PUSH1 0x20 SWAP3 DUP4 DUP1 DUP7 ADD SWAP2 PUSH1 0x5 SHL DUP4 ADD ADD SWAP3 DUP1 DUP5 GT PUSH2 0x377 JUMPI DUP5 DUP4 ADD SWAP2 JUMPDEST DUP5 DUP4 LT PUSH2 0x2B46 JUMPI POP POP POP POP POP POP SWAP1 JUMP JUMPDEST DUP3 CALLDATALOAD PUSH1 0x1 PUSH1 0x1 PUSH1 0x40 SHL SUB DUP2 GT PUSH2 0x377 JUMPI DUP7 SWAP2 PUSH2 0x2B67 DUP5 DUP5 DUP1 SWAP5 DUP10 ADD ADD PUSH2 0x2A6F JUMP JUMPDEST DUP2 MSTORE ADD SWAP3 ADD SWAP2 PUSH2 0x2B36 JUMP JUMPDEST PUSH1 0x12 SLOAD DUP2 LT ISZERO PUSH2 0x2BA9 JUMPI PUSH1 0x12 PUSH1 0x0 MSTORE PUSH32 0xBB8A6A4669BA250D26CD7A459ECA9D215F8307E33AEBE50379BC5A3617EC3444 ADD SWAP1 PUSH1 0x0 SWAP1 JUMP JUMPDEST PUSH4 0x4E487B71 PUSH1 0xE0 SHL PUSH1 0x0 MSTORE PUSH1 0x32 PUSH1 0x4 MSTORE PUSH1 0x24 PUSH1 0x0 REVERT JUMPDEST DUP1 SLOAD DUP3 LT ISZERO PUSH2 0x2BA9 JUMPI PUSH1 0x0 MSTORE PUSH1 0x20 PUSH1 0x0 KECCAK256 ADD SWAP1 PUSH1 0x0 SWAP1 JUMP JUMPDEST SWAP1 DUP2 MLOAD DUP1 DUP3 MSTORE PUSH1 0x20 DUP1 DUP1 SWAP4 ADD SWAP4 ADD SWAP2 PUSH1 0x0 JUMPDEST DUP3 DUP2 LT PUSH2 0x2BF7 JUMPI POP POP POP POP SWAP1 JUMP JUMPDEST DUP4 MLOAD PUSH1 0x1 PUSH1 0x1 PUSH1 0xA0 SHL SUB AND DUP6 MSTORE SWAP4 DUP2 ADD SWAP4 SWAP3 DUP2 ADD SWAP3 PUSH1 0x1 ADD PUSH2 0x2BE9 JUMP JUMPDEST PUSH1 0x0 SLOAD PUSH1 0x1 PUSH1 0x1 PUSH1 0xA0 SHL SUB AND CALLER SUB PUSH2 0x2C28 JUMPI JUMP JUMPDEST PUSH1 0x64 PUSH1 0x40 MLOAD PUSH3 0x461BCD PUSH1 0xE5 SHL DUP2 MSTORE PUSH1 0x20 PUSH1 0x4 DUP3 ADD MSTORE PUSH1 0x20 PUSH1 0x24 DUP3 ADD MSTORE PUSH32 0x4F776E61626C653A2063616C6C6572206973206E6F7420746865206F776E6572 PUSH1 0x44 DUP3 ADD MSTORE REVERT JUMPDEST ISZERO PUSH2 0x2C73 JUMPI JUMP JUMPDEST PUSH1 0x40 MLOAD PUSH3 0x461BCD PUSH1 0xE5 SHL DUP2 MSTORE PUSH1 0x20 PUSH1 0x4 DUP3 ADD MSTORE PUSH1 0x17 PUSH1 0x24 DUP3 ADD MSTORE PUSH32 0x4E6F74206120736F6C69646172697479206D656D626572000000000000000000 PUSH1 0x44 DUP3 ADD MSTORE PUSH1 0x64 SWAP1 REVERT JUMPDEST DUP2 DUP2 LT PUSH2 0x2CC3 JUMPI POP POP JUMP JUMPDEST PUSH1 0x0 DUP2 SSTORE PUSH1 0x1 ADD PUSH2 0x2CB8 JUMP JUMPDEST SWAP2 SWAP1 SWAP2 DUP3 MLOAD PUSH1 0x1 PUSH1 0x1 PUSH1 0x40 SHL SUB DUP2 GT PUSH2 0x127A JUMPI PUSH2 0x2CEC DUP3 SLOAD PUSH2 0x2874 JUMP JUMPDEST PUSH1 0x1F DUP2 GT PUSH2 0x2D96 JUMPI JUMPDEST POP PUSH1 0x20 DUP1 PUSH1 0x1F DUP4 GT PUSH1 0x1 EQ PUSH2 0x2D32 JUMPI POP DUP2 SWAP3 SWAP4 SWAP5 PUSH1 0x0 SWAP3 PUSH2 0x2D27 JUMPI JUMPDEST POP POP DUP2 PUSH1 0x1 SHL SWAP2 PUSH1 0x0 NOT SWAP1 PUSH1 0x3 SHL SHR NOT AND OR SWAP1 SSTORE JUMP JUMPDEST ADD MLOAD SWAP1 POP CODESIZE DUP1 PUSH2 0x2D11 JUMP JUMPDEST SWAP1 PUSH1 0x1F NOT DUP4 AND SWAP6 DUP5 PUSH1 0x0 MSTORE DUP3 PUSH1 0x0 KECCAK256 SWAP3 PUSH1 0x0 SWAP1 JUMPDEST DUP9 DUP3 LT PUSH2 0x2D7E JUMPI POP POP DUP4 PUSH1 0x1 SWAP6 SWAP7 SWAP8 LT PUSH2 0x2D65 JUMPI JUMPDEST POP POP POP DUP2 SHL ADD SWAP1 SSTORE JUMP JUMPDEST ADD MLOAD PUSH1 0x0 NOT PUSH1 0xF8 DUP5 PUSH1 0x3 SHL AND SHR NOT AND SWAP1 SSTORE CODESIZE DUP1 DUP1 PUSH2 0x2D5B JUMP JUMPDEST DUP1 PUSH1 0x1 DUP6 SWAP7 DUP3 SWAP5 SWAP7 DUP7 ADD MLOAD DUP2 SSTORE ADD SWAP6 ADD SWAP4 ADD SWAP1 PUSH2 0x2D46 JUMP JUMPDEST PUSH2 0x2DC3 SWAP1 DUP4 PUSH1 0x0 MSTORE PUSH1 0x20 PUSH1 0x0 KECCAK256 PUSH1 0x1F DUP5 ADD PUSH1 0x5 SHR DUP2 ADD SWAP2 PUSH1 0x20 DUP6 LT PUSH2 0x2DC9 JUMPI JUMPDEST PUSH1 0x1F ADD PUSH1 0x5 SHR ADD SWAP1 PUSH2 0x2CB8 JUMP JUMPDEST CODESIZE PUSH2 0x2CF5 JUMP JUMPDEST SWAP1 SWAP2 POP DUP2 SWAP1 PUSH2 0x2DB6 JUMP JUMPDEST DUP2 DUP2 MUL SWAP3 SWAP2 DUP2 ISZERO SWAP2 DUP5 DIV EQ OR ISZERO PUSH2 0x2E2 JUMPI JUMP JUMPDEST PUSH1 0x0 NOT DUP2 EQ PUSH2 0x2E2 JUMPI PUSH1 0x1 ADD SWAP1 JUMP JUMPDEST DUP1 MLOAD DUP3 LT ISZERO PUSH2 0x2BA9 JUMPI PUSH1 0x20 SWAP2 PUSH1 0x5 SHL ADD ADD SWAP1 JUMP JUMPDEST PUSH1 0x2 PUSH1 0x1 SLOAD EQ PUSH2 0x2E1A JUMPI PUSH1 0x2 PUSH1 0x1 SSTORE JUMP JUMPDEST PUSH1 0x40 MLOAD PUSH3 0x461BCD PUSH1 0xE5 SHL DUP2 MSTORE PUSH1 0x20 PUSH1 0x4 DUP3 ADD MSTORE PUSH1 0x1F PUSH1 0x24 DUP3 ADD MSTORE PUSH32 0x5265656E7472616E637947756172643A207265656E7472616E742063616C6C00 PUSH1 0x44 DUP3 ADD MSTORE PUSH1 0x64 SWAP1 REVERT JUMPDEST SWAP1 PUSH1 0x1 DUP3 ADD DUP1 SWAP3 GT PUSH2 0x2E2 JUMPI JUMP JUMPDEST SWAP2 SWAP1 DUP3 ADD DUP1 SWAP3 GT PUSH2 0x2E2 JUMPI JUMP JUMPDEST DUP2 ISZERO PUSH2 0x2E84 JUMPI DIV SWAP1 JUMP JUMPDEST PUSH4 0x4E487B71 PUSH1 0xE0 SHL PUSH1 0x0 MSTORE PUSH1 0x12 PUSH1 0x4 MSTORE PUSH1 0x24 PUSH1 0x0 REVERT JUMPDEST ISZERO PUSH2 0x2EA1 JUMPI JUMP JUMPDEST PUSH1 0x40 MLOAD PUSH3 0x461BCD PUSH1 0xE5 SHL DUP2 MSTORE PUSH1 0x20 PUSH1 0x4 DUP3 ADD MSTORE PUSH1 0x11 PUSH1 0x24 DUP3 ADD MSTORE PUSH17 0x125B9D985B1A59081C995CDD5B1D081251 PUSH1 0x7A SHL PUSH1 0x44 DUP3 ADD MSTORE PUSH1 0x64 SWAP1 REVERT JUMPDEST ISZERO PUSH2 0x2EE1 JUMPI JUMP JUMPDEST PUSH1 0x40 MLOAD PUSH3 0x461BCD PUSH1 0xE5 SHL DUP2 MSTORE PUSH1 0x20 PUSH1 0x4 DUP3 ADD MSTORE PUSH1 0x17 PUSH1 0x24 DUP3 ADD MSTORE PUSH32 0x496E73756666696369656E742072657075746174696F6E000000000000000000 PUSH1 0x44 DUP3 ADD MSTORE PUSH1 0x64 SWAP1 REVERT JUMPDEST ISZERO PUSH2 0x2F2D JUMPI JUMP JUMPDEST PUSH1 0x40 MLOAD PUSH3 0x461BCD PUSH1 0xE5 SHL DUP2 MSTORE PUSH1 0x20 PUSH1 0x4 DUP3 ADD MSTORE PUSH1 0x12 PUSH1 0x24 DUP3 ADD MSTORE PUSH18 0x125B9D985B1A59081C1C9BDA9958DD081251 PUSH1 0x72 SHL PUSH1 0x44 DUP3 ADD MSTORE PUSH1 0x64 SWAP1 REVERT JUMPDEST SWAP1 DUP2 PUSH1 0x20 SWAP2 SUB SLT PUSH2 0x377 JUMPI MLOAD DUP1 ISZERO ISZERO DUP2 SUB PUSH2 0x377 JUMPI SWAP1 JUMP JUMPDEST ISZERO PUSH2 0x2F86 JUMPI JUMP JUMPDEST PUSH1 0x40 MLOAD PUSH3 0x461BCD PUSH1 0xE5 SHL DUP2 MSTORE PUSH1 0x20 PUSH1 0x4 DUP3 ADD MSTORE PUSH1 0xF PUSH1 0x24 DUP3 ADD MSTORE PUSH15 0x151C985B9CD9995C8819985A5B1959 PUSH1 0x8A SHL PUSH1 0x44 DUP3 ADD MSTORE PUSH1 0x64 SWAP1 REVERT JUMPDEST SWAP1 DUP2 SLOAD PUSH2 0x2FC9 DUP2 PUSH2 0x2ADB JUMP JUMPDEST SWAP3 PUSH2 0x2FD7 PUSH1 0x40 MLOAD SWAP5 DUP6 PUSH2 0x28E5 JUMP JUMPDEST DUP2 DUP5 MSTORE PUSH1 0x0 SWAP1 DUP2 MSTORE PUSH1 0x20 DUP1 DUP3 KECCAK256 DUP2 DUP7 ADD JUMPDEST DUP5 DUP5 LT PUSH2 0x2FF6 JUMPI POP POP POP POP POP JUMP JUMPDEST PUSH1 0x1 DUP4 DUP2 SWAP3 PUSH2 0x3004 DUP6 PUSH2 0x2906 JUMP JUMPDEST DUP2 MSTORE ADD SWAP3 ADD SWAP4 ADD SWAP3 SWAP1 PUSH2 0x2FE8 JUMP INVALID LOG2 PUSH5 0x6970667358 0x22 SLT KECCAK256 0x1F SWAP1 0xB5 CHAINID MSIZE 0xF7 0xBC MSTORE 0xF8 0xD3 0xD9 DUP15 SWAP8 MSTORE8 SUB 0xE5 0xDC 0xCA 0x28 0xD5 PUSH5 0x16396D1FE LOG4 SWAP14 SMOD PUSH23 0x65E064736F6C6343000814003300000000000000000000 "},"methodIdentifiers":{"COLLABORATION_BONUS()":"274dce13","MIN_REPUTATION_THRESHOLD()":"b4c16a16","REPUTATION_DECAY_RATE()":"d8987642","VOTING_PERIOD()":"b1610d7e","addWorkType(string)":"05f4b26f","applyReputationDecay()":"99100bae","completeProject(uint256)":"2245f152","computationalResults(uint256)":"7a0a39bf","createProject(string,string,string[],address[],uint256,uint256)":"22d771ec","createProposal(string,string)":"65e481e2","depositToRewardPool(uint256)":"f8fbafd9","emergencyWithdraw(uint256)":"5312ea8e","getComputationalResult(uint256)":"05386140","getMember(address)":"2ada2596","getMemberComputationalStats(address)":"ae8e5b27","getPatternBonus(string)":"cd604cb1","getProject(uint256)":"f0f3f2c8","getProjectContribution(uint256,address)":"2295dd44","getRewardPoolStatus()":"cb05347a","getSupportedWorkTypes()":"1910de7a","joinSolidarity(string)":"9f61ebd3","makeContribution(uint256,uint256)":"547b9c3d","members(address)":"08ae4b0c","owner()":"8da5cb5b","patternDiscoveryBonuses(string)":"ac92eacb","productiveMinerToken()":"33cf7c9c","projects(uint256)":"107046bd","proposals(uint256)":"013cf08b","renounceOwnership()":"715018a6","rewardPool()":"66666aa9","submitComputationalResult(string,uint256,uint256,uint256,string[])":"732fb41f","supportedWorkTypes(uint256)":"ece8f1f9","totalComputationalResults()":"f240c3e5","totalMembers()":"76e92559","totalProjects()":"9c361e4e","totalProposals()":"a78d80fc","transferOwnership(address)":"f2fde38b","updateReputation(address,uint256)":"f5c91a08","verifyComputationalResult(uint256,bool)":"02129e74","vote(uint256,bool)":"c9d27afe"}}}}}