{
  "_format": "hh-sol-artifact-1",
  "contractName": "ProductiveMinerSolidarity",
  "sourceName": "contracts/ProductiveMinerSolidarity.sol",
  "abi": [
    {
      "inputs": [
        {
          "internalType": "address",
          "name": "_tokenAddress",
          "type": "address"
        }
      ],
      "stateMutability": "nonpayable",
      "type": "constructor"
    },
    {
      "anonymous": false,
      "inputs": [
        {
          "indexed": true,
          "internalType": "uint256",
          "name": "resultId",
          "type": "uint256"
        },
        {
          "indexed": true,
          "internalType": "address",
          "name": "miner",
          "type": "address"
        },
        {
          "indexed": false,
          "internalType": "string",
          "name": "workType",
          "type": "string"
        },
        {
          "indexed": false,
          "internalType": "uint256",
          "name": "accuracy",
          "type": "uint256"
        }
      ],
      "name": "ComputationalResultSubmitted",
      "type": "event"
    },
    {
      "anonymous": false,
      "inputs": [
        {
          "indexed": true,
          "internalType": "uint256",
          "name": "projectId",
          "type": "uint256"
        },
        {
          "indexed": true,
          "internalType": "address",
          "name": "contributor",
          "type": "address"
        },
        {
          "indexed": false,
          "internalType": "uint256",
          "name": "value",
          "type": "uint256"
        }
      ],
      "name": "ContributionMade",
      "type": "event"
    },
    {
      "anonymous": false,
      "inputs": [
        {
          "indexed": true,
          "internalType": "address",
          "name": "member",
          "type": "address"
        },
        {
          "indexed": false,
          "internalType": "string",
          "name": "expertise",
          "type": "string"
        }
      ],
      "name": "MemberJoined",
      "type": "event"
    },
    {
      "anonymous": false,
      "inputs": [
        {
          "indexed": true,
          "internalType": "address",
          "name": "previousOwner",
          "type": "address"
        },
        {
          "indexed": true,
          "internalType": "address",
          "name": "newOwner",
          "type": "address"
        }
      ],
      "name": "OwnershipTransferred",
      "type": "event"
    },
    {
      "anonymous": false,
      "inputs": [
        {
          "indexed": true,
          "internalType": "address",
          "name": "discoverer",
          "type": "address"
        },
        {
          "indexed": false,
          "internalType": "string",
          "name": "patternType",
          "type": "string"
        },
        {
          "indexed": false,
          "internalType": "uint256",
          "name": "bonus",
          "type": "uint256"
        }
      ],
      "name": "PatternDiscovered",
      "type": "event"
    },
    {
      "anonymous": false,
      "inputs": [
        {
          "indexed": true,
          "internalType": "uint256",
          "name": "projectId",
          "type": "uint256"
        },
        {
          "indexed": false,
          "internalType": "string",
          "name": "title",
          "type": "string"
        },
        {
          "indexed": false,
          "internalType": "address[]",
          "name": "participants",
          "type": "address[]"
        }
      ],
      "name": "ProjectCreated",
      "type": "event"
    },
    {
      "anonymous": false,
      "inputs": [
        {
          "indexed": true,
          "internalType": "uint256",
          "name": "proposalId",
          "type": "uint256"
        },
        {
          "indexed": true,
          "internalType": "address",
          "name": "proposer",
          "type": "address"
        },
        {
          "indexed": false,
          "internalType": "string",
          "name": "title",
          "type": "string"
        }
      ],
      "name": "ProposalCreated",
      "type": "event"
    },
    {
      "anonymous": false,
      "inputs": [
        {
          "indexed": true,
          "internalType": "address",
          "name": "member",
          "type": "address"
        },
        {
          "indexed": false,
          "internalType": "uint256",
          "name": "newScore",
          "type": "uint256"
        }
      ],
      "name": "ReputationUpdated",
      "type": "event"
    },
    {
      "anonymous": false,
      "inputs": [
        {
          "indexed": true,
          "internalType": "uint256",
          "name": "projectId",
          "type": "uint256"
        },
        {
          "indexed": true,
          "internalType": "address",
          "name": "recipient",
          "type": "address"
        },
        {
          "indexed": false,
          "internalType": "uint256",
          "name": "amount",
          "type": "uint256"
        }
      ],
      "name": "RewardsDistributed",
      "type": "event"
    },
    {
      "anonymous": false,
      "inputs": [
        {
          "indexed": true,
          "internalType": "address",
          "name": "recipient",
          "type": "address"
        },
        {
          "indexed": false,
          "internalType": "uint256",
          "name": "amount",
          "type": "uint256"
        },
        {
          "indexed": false,
          "internalType": "string",
          "name": "reason",
          "type": "string"
        }
      ],
      "name": "SolidarityBonusAwarded",
      "type": "event"
    },
    {
      "anonymous": false,
      "inputs": [
        {
          "indexed": true,
          "internalType": "uint256",
          "name": "proposalId",
          "type": "uint256"
        },
        {
          "indexed": true,
          "internalType": "address",
          "name": "voter",
          "type": "address"
        },
        {
          "indexed": false,
          "internalType": "bool",
          "name": "choice",
          "type": "bool"
        }
      ],
      "name": "VoteCast",
      "type": "event"
    },
    {
      "inputs": [],
      "name": "COLLABORATION_BONUS",
      "outputs": [
        {
          "internalType": "uint256",
          "name": "",
          "type": "uint256"
        }
      ],
      "stateMutability": "view",
      "type": "function"
    },
    {
      "inputs": [],
      "name": "MIN_REPUTATION_THRESHOLD",
      "outputs": [
        {
          "internalType": "uint256",
          "name": "",
          "type": "uint256"
        }
      ],
      "stateMutability": "view",
      "type": "function"
    },
    {
      "inputs": [],
      "name": "REPUTATION_DECAY_RATE",
      "outputs": [
        {
          "internalType": "uint256",
          "name": "",
          "type": "uint256"
        }
      ],
      "stateMutability": "view",
      "type": "function"
    },
    {
      "inputs": [],
      "name": "VOTING_PERIOD",
      "outputs": [
        {
          "internalType": "uint256",
          "name": "",
          "type": "uint256"
        }
      ],
      "stateMutability": "view",
      "type": "function"
    },
    {
      "inputs": [
        {
          "internalType": "string",
          "name": "_workType",
          "type": "string"
        }
      ],
      "name": "addWorkType",
      "outputs": [],
      "stateMutability": "nonpayable",
      "type": "function"
    },
    {
      "inputs": [],
      "name": "applyReputationDecay",
      "outputs": [],
      "stateMutability": "nonpayable",
      "type": "function"
    },
    {
      "inputs": [
        {
          "internalType": "uint256",
          "name": "_projectId",
          "type": "uint256"
        }
      ],
      "name": "completeProject",
      "outputs": [],
      "stateMutability": "nonpayable",
      "type": "function"
    },
    {
      "inputs": [
        {
          "internalType": "uint256",
          "name": "",
          "type": "uint256"
        }
      ],
      "name": "computationalResults",
      "outputs": [
        {
          "internalType": "uint256",
          "name": "resultId",
          "type": "uint256"
        },
        {
          "internalType": "address",
          "name": "miner",
          "type": "address"
        },
        {
          "internalType": "string",
          "name": "workType",
          "type": "string"
        },
        {
          "internalType": "uint256",
          "name": "totalRecords",
          "type": "uint256"
        },
        {
          "internalType": "uint256",
          "name": "computationTime",
          "type": "uint256"
        },
        {
          "internalType": "uint256",
          "name": "accuracy",
          "type": "uint256"
        },
        {
          "internalType": "uint256",
          "name": "timestamp",
          "type": "uint256"
        },
        {
          "internalType": "bool",
          "name": "verified",
          "type": "bool"
        },
        {
          "internalType": "uint256",
          "name": "solidarityBonus",
          "type": "uint256"
        }
      ],
      "stateMutability": "view",
      "type": "function"
    },
    {
      "inputs": [
        {
          "internalType": "string",
          "name": "_title",
          "type": "string"
        },
        {
          "internalType": "string",
          "name": "_description",
          "type": "string"
        },
        {
          "internalType": "string[]",
          "name": "_workTypes",
          "type": "string[]"
        },
        {
          "internalType": "address[]",
          "name": "_participants",
          "type": "address[]"
        },
        {
          "internalType": "uint256",
          "name": "_budget",
          "type": "uint256"
        },
        {
          "internalType": "uint256",
          "name": "_difficulty",
          "type": "uint256"
        }
      ],
      "name": "createProject",
      "outputs": [],
      "stateMutability": "nonpayable",
      "type": "function"
    },
    {
      "inputs": [
        {
          "internalType": "string",
          "name": "_title",
          "type": "string"
        },
        {
          "internalType": "string",
          "name": "_description",
          "type": "string"
        }
      ],
      "name": "createProposal",
      "outputs": [],
      "stateMutability": "nonpayable",
      "type": "function"
    },
    {
      "inputs": [
        {
          "internalType": "uint256",
          "name": "_amount",
          "type": "uint256"
        }
      ],
      "name": "depositToRewardPool",
      "outputs": [],
      "stateMutability": "nonpayable",
      "type": "function"
    },
    {
      "inputs": [
        {
          "internalType": "uint256",
          "name": "_amount",
          "type": "uint256"
        }
      ],
      "name": "emergencyWithdraw",
      "outputs": [],
      "stateMutability": "nonpayable",
      "type": "function"
    },
    {
      "inputs": [
        {
          "internalType": "uint256",
          "name": "_resultId",
          "type": "uint256"
        }
      ],
      "name": "getComputationalResult",
      "outputs": [
        {
          "internalType": "uint256",
          "name": "",
          "type": "uint256"
        },
        {
          "internalType": "address",
          "name": "",
          "type": "address"
        },
        {
          "internalType": "string",
          "name": "",
          "type": "string"
        },
        {
          "internalType": "uint256",
          "name": "",
          "type": "uint256"
        },
        {
          "internalType": "uint256",
          "name": "",
          "type": "uint256"
        },
        {
          "internalType": "uint256",
          "name": "",
          "type": "uint256"
        },
        {
          "internalType": "string[]",
          "name": "",
          "type": "string[]"
        },
        {
          "internalType": "uint256",
          "name": "",
          "type": "uint256"
        },
        {
          "internalType": "bool",
          "name": "",
          "type": "bool"
        },
        {
          "internalType": "uint256",
          "name": "",
          "type": "uint256"
        }
      ],
      "stateMutability": "view",
      "type": "function"
    },
    {
      "inputs": [
        {
          "internalType": "address",
          "name": "_member",
          "type": "address"
        }
      ],
      "name": "getMember",
      "outputs": [
        {
          "components": [
            {
              "internalType": "address",
              "name": "memberAddress",
              "type": "address"
            },
            {
              "internalType": "uint256",
              "name": "joinedAt",
              "type": "uint256"
            },
            {
              "internalType": "uint256",
              "name": "contributionScore",
              "type": "uint256"
            },
            {
              "internalType": "uint256",
              "name": "reputationScore",
              "type": "uint256"
            },
            {
              "internalType": "uint256",
              "name": "totalRewards",
              "type": "uint256"
            },
            {
              "internalType": "uint256",
              "name": "collaborativeProjects",
              "type": "uint256"
            },
            {
              "internalType": "uint256",
              "name": "computationalContributions",
              "type": "uint256"
            },
            {
              "internalType": "uint256",
              "name": "patternsDiscovered",
              "type": "uint256"
            },
            {
              "internalType": "bool",
              "name": "isActive",
              "type": "bool"
            },
            {
              "internalType": "string",
              "name": "expertise",
              "type": "string"
            }
          ],
          "internalType": "struct ProductiveMinerSolidarity.SolidarityMember",
          "name": "",
          "type": "tuple"
        }
      ],
      "stateMutability": "view",
      "type": "function"
    },
    {
      "inputs": [
        {
          "internalType": "address",
          "name": "_member",
          "type": "address"
        }
      ],
      "name": "getMemberComputationalStats",
      "outputs": [
        {
          "internalType": "uint256",
          "name": "computationalContributions",
          "type": "uint256"
        },
        {
          "internalType": "uint256",
          "name": "patternsDiscovered",
          "type": "uint256"
        },
        {
          "internalType": "uint256",
          "name": "totalRewards",
          "type": "uint256"
        },
        {
          "internalType": "uint256",
          "name": "reputationScore",
          "type": "uint256"
        }
      ],
      "stateMutability": "view",
      "type": "function"
    },
    {
      "inputs": [
        {
          "internalType": "string",
          "name": "_patternType",
          "type": "string"
        }
      ],
      "name": "getPatternBonus",
      "outputs": [
        {
          "internalType": "uint256",
          "name": "",
          "type": "uint256"
        }
      ],
      "stateMutability": "view",
      "type": "function"
    },
    {
      "inputs": [
        {
          "internalType": "uint256",
          "name": "_projectId",
          "type": "uint256"
        }
      ],
      "name": "getProject",
      "outputs": [
        {
          "internalType": "uint256",
          "name": "",
          "type": "uint256"
        },
        {
          "internalType": "string",
          "name": "",
          "type": "string"
        },
        {
          "internalType": "string",
          "name": "",
          "type": "string"
        },
        {
          "internalType": "string[]",
          "name": "",
          "type": "string[]"
        },
        {
          "internalType": "address[]",
          "name": "",
          "type": "address[]"
        },
        {
          "internalType": "uint256",
          "name": "",
          "type": "uint256"
        },
        {
          "internalType": "uint256",
          "name": "",
          "type": "uint256"
        },
        {
          "internalType": "uint256",
          "name": "",
          "type": "uint256"
        },
        {
          "internalType": "uint256",
          "name": "",
          "type": "uint256"
        },
        {
          "internalType": "uint256",
          "name": "",
          "type": "uint256"
        },
        {
          "internalType": "bool",
          "name": "",
          "type": "bool"
        }
      ],
      "stateMutability": "view",
      "type": "function"
    },
    {
      "inputs": [
        {
          "internalType": "uint256",
          "name": "_projectId",
          "type": "uint256"
        },
        {
          "internalType": "address",
          "name": "_contributor",
          "type": "address"
        }
      ],
      "name": "getProjectContribution",
      "outputs": [
        {
          "internalType": "uint256",
          "name": "",
          "type": "uint256"
        }
      ],
      "stateMutability": "view",
      "type": "function"
    },
    {
      "inputs": [],
      "name": "getRewardPoolStatus",
      "outputs": [
        {
          "components": [
            {
              "internalType": "uint256",
              "name": "totalPool",
              "type": "uint256"
            },
            {
              "internalType": "uint256",
              "name": "collaborativePool",
              "type": "uint256"
            },
            {
              "internalType": "uint256",
              "name": "individualPool",
              "type": "uint256"
            },
            {
              "internalType": "uint256",
              "name": "governancePool",
              "type": "uint256"
            },
            {
              "internalType": "uint256",
              "name": "emergencyPool",
              "type": "uint256"
            },
            {
              "internalType": "uint256",
              "name": "lastUpdate",
              "type": "uint256"
            }
          ],
          "internalType": "struct ProductiveMinerSolidarity.RewardPool",
          "name": "",
          "type": "tuple"
        }
      ],
      "stateMutability": "view",
      "type": "function"
    },
    {
      "inputs": [],
      "name": "getSupportedWorkTypes",
      "outputs": [
        {
          "internalType": "string[]",
          "name": "",
          "type": "string[]"
        }
      ],
      "stateMutability": "view",
      "type": "function"
    },
    {
      "inputs": [
        {
          "internalType": "string",
          "name": "_expertise",
          "type": "string"
        }
      ],
      "name": "joinSolidarity",
      "outputs": [],
      "stateMutability": "nonpayable",
      "type": "function"
    },
    {
      "inputs": [
        {
          "internalType": "uint256",
          "name": "_projectId",
          "type": "uint256"
        },
        {
          "internalType": "uint256",
          "name": "_contributionValue",
          "type": "uint256"
        }
      ],
      "name": "makeContribution",
      "outputs": [],
      "stateMutability": "nonpayable",
      "type": "function"
    },
    {
      "inputs": [
        {
          "internalType": "address",
          "name": "",
          "type": "address"
        }
      ],
      "name": "members",
      "outputs": [
        {
          "internalType": "address",
          "name": "memberAddress",
          "type": "address"
        },
        {
          "internalType": "uint256",
          "name": "joinedAt",
          "type": "uint256"
        },
        {
          "internalType": "uint256",
          "name": "contributionScore",
          "type": "uint256"
        },
        {
          "internalType": "uint256",
          "name": "reputationScore",
          "type": "uint256"
        },
        {
          "internalType": "uint256",
          "name": "totalRewards",
          "type": "uint256"
        },
        {
          "internalType": "uint256",
          "name": "collaborativeProjects",
          "type": "uint256"
        },
        {
          "internalType": "uint256",
          "name": "computationalContributions",
          "type": "uint256"
        },
        {
          "internalType": "uint256",
          "name": "patternsDiscovered",
          "type": "uint256"
        },
        {
          "internalType": "bool",
          "name": "isActive",
          "type": "bool"
        },
        {
          "internalType": "string",
          "name": "expertise",
          "type": "string"
        }
      ],
      "stateMutability": "view",
      "type": "function"
    },
    {
      "inputs": [],
      "name": "owner",
      "outputs": [
        {
          "internalType": "address",
          "name": "",
          "type": "address"
        }
      ],
      "stateMutability": "view",
      "type": "function"
    },
    {
      "inputs": [
        {
          "internalType": "string",
          "name": "",
          "type": "string"
        }
      ],
      "name": "patternDiscoveryBonuses",
      "outputs": [
        {
          "internalType": "uint256",
          "name": "",
          "type": "uint256"
        }
      ],
      "stateMutability": "view",
      "type": "function"
    },
    {
      "inputs": [],
      "name": "productiveMinerToken",
      "outputs": [
        {
          "internalType": "contract IERC20",
          "name": "",
          "type": "address"
        }
      ],
      "stateMutability": "view",
      "type": "function"
    },
    {
      "inputs": [
        {
          "internalType": "uint256",
          "name": "",
          "type": "uint256"
        }
      ],
      "name": "projects",
      "outputs": [
        {
          "internalType": "uint256",
          "name": "projectId",
          "type": "uint256"
        },
        {
          "internalType": "string",
          "name": "title",
          "type": "string"
        },
        {
          "internalType": "string",
          "name": "description",
          "type": "string"
        },
        {
          "internalType": "uint256",
          "name": "totalBudget",
          "type": "uint256"
        },
        {
          "internalType": "uint256",
          "name": "rewardsDistributed",
          "type": "uint256"
        },
        {
          "internalType": "uint256",
          "name": "startTime",
          "type": "uint256"
        },
        {
          "internalType": "uint256",
          "name": "endTime",
          "type": "uint256"
        },
        {
          "internalType": "uint256",
          "name": "difficulty",
          "type": "uint256"
        },
        {
          "internalType": "bool",
          "name": "isCompleted",
          "type": "bool"
        }
      ],
      "stateMutability": "view",
      "type": "function"
    },
    {
      "inputs": [
        {
          "internalType": "uint256",
          "name": "",
          "type": "uint256"
        }
      ],
      "name": "proposals",
      "outputs": [
        {
          "internalType": "uint256",
          "name": "proposalId",
          "type": "uint256"
        },
        {
          "internalType": "address",
          "name": "proposer",
          "type": "address"
        },
        {
          "internalType": "string",
          "name": "title",
          "type": "string"
        },
        {
          "internalType": "string",
          "name": "description",
          "type": "string"
        },
        {
          "internalType": "uint256",
          "name": "votingPeriod",
          "type": "uint256"
        },
        {
          "internalType": "uint256",
          "name": "yesVotes",
          "type": "uint256"
        },
        {
          "internalType": "uint256",
          "name": "noVotes",
          "type": "uint256"
        },
        {
          "internalType": "bool",
          "name": "executed",
          "type": "bool"
        }
      ],
      "stateMutability": "view",
      "type": "function"
    },
    {
      "inputs": [],
      "name": "renounceOwnership",
      "outputs": [],
      "stateMutability": "nonpayable",
      "type": "function"
    },
    {
      "inputs": [],
      "name": "rewardPool",
      "outputs": [
        {
          "internalType": "uint256",
          "name": "totalPool",
          "type": "uint256"
        },
        {
          "internalType": "uint256",
          "name": "collaborativePool",
          "type": "uint256"
        },
        {
          "internalType": "uint256",
          "name": "individualPool",
          "type": "uint256"
        },
        {
          "internalType": "uint256",
          "name": "governancePool",
          "type": "uint256"
        },
        {
          "internalType": "uint256",
          "name": "emergencyPool",
          "type": "uint256"
        },
        {
          "internalType": "uint256",
          "name": "lastUpdate",
          "type": "uint256"
        }
      ],
      "stateMutability": "view",
      "type": "function"
    },
    {
      "inputs": [
        {
          "internalType": "string",
          "name": "_workType",
          "type": "string"
        },
        {
          "internalType": "uint256",
          "name": "_totalRecords",
          "type": "uint256"
        },
        {
          "internalType": "uint256",
          "name": "_computationTime",
          "type": "uint256"
        },
        {
          "internalType": "uint256",
          "name": "_accuracy",
          "type": "uint256"
        },
        {
          "internalType": "string[]",
          "name": "_patternsDiscovered",
          "type": "string[]"
        }
      ],
      "name": "submitComputationalResult",
      "outputs": [],
      "stateMutability": "nonpayable",
      "type": "function"
    },
    {
      "inputs": [
        {
          "internalType": "uint256",
          "name": "",
          "type": "uint256"
        }
      ],
      "name": "supportedWorkTypes",
      "outputs": [
        {
          "internalType": "string",
          "name": "",
          "type": "string"
        }
      ],
      "stateMutability": "view",
      "type": "function"
    },
    {
      "inputs": [],
      "name": "totalComputationalResults",
      "outputs": [
        {
          "internalType": "uint256",
          "name": "",
          "type": "uint256"
        }
      ],
      "stateMutability": "view",
      "type": "function"
    },
    {
      "inputs": [],
      "name": "totalMembers",
      "outputs": [
        {
          "internalType": "uint256",
          "name": "",
          "type": "uint256"
        }
      ],
      "stateMutability": "view",
      "type": "function"
    },
    {
      "inputs": [],
      "name": "totalProjects",
      "outputs": [
        {
          "internalType": "uint256",
          "name": "",
          "type": "uint256"
        }
      ],
      "stateMutability": "view",
      "type": "function"
    },
    {
      "inputs": [],
      "name": "totalProposals",
      "outputs": [
        {
          "internalType": "uint256",
          "name": "",
          "type": "uint256"
        }
      ],
      "stateMutability": "view",
      "type": "function"
    },
    {
      "inputs": [
        {
          "internalType": "address",
          "name": "newOwner",
          "type": "address"
        }
      ],
      "name": "transferOwnership",
      "outputs": [],
      "stateMutability": "nonpayable",
      "type": "function"
    },
    {
      "inputs": [
        {
          "internalType": "address",
          "name": "_member",
          "type": "address"
        },
        {
          "internalType": "uint256",
          "name": "_score",
          "type": "uint256"
        }
      ],
      "name": "updateReputation",
      "outputs": [],
      "stateMutability": "nonpayable",
      "type": "function"
    },
    {
      "inputs": [
        {
          "internalType": "uint256",
          "name": "_resultId",
          "type": "uint256"
        },
        {
          "internalType": "bool",
          "name": "_verified",
          "type": "bool"
        }
      ],
      "name": "verifyComputationalResult",
      "outputs": [],
      "stateMutability": "nonpayable",
      "type": "function"
    },
    {
      "inputs": [
        {
          "internalType": "uint256",
          "name": "_proposalId",
          "type": "uint256"
        },
        {
          "internalType": "bool",
          "name": "_choice",
          "type": "bool"
        }
      ],
      "name": "vote",
      "outputs": [],
      "stateMutability": "nonpayable",
      "type": "function"
    }
  ],
  "bytecode": "0x608034620005cd57601f620036a738819003828101601f199081168501946001600160401b0393909284871184881017620005d25780849260409889528339602093849181010312620005cd57516001600160a01b03808216929091839003620005cd57600095865460018060a01b031993338583161789553391167f8be0079c531659141344cd1fd0a4f28419497f9722a3daafe3b4186f6b6457e08980a3600191828055885191610120830183811089821117620005b9578a52620000c5620005e8565b601781527f5072696d65205061747465726e20446973636f76657279000000000000000000888201528352620000fa620005e8565b601881527f5269656d616e6e205a65726f20436f6d7075746174696f6e0000000000000000888201528784015262000131620005e8565b601781527f59616e672d4d696c6c73204669656c64205468656f7279000000000000000000888201528a84015262000168620005e8565b8781527f476f6c646261636820436f6e6a65637475726520566572696669636174696f6e8882015260608401526200019f620005e8565b601881527f4e61766965722d53746f6b65732053696d756c6174696f6e0000000000000000888201526080840152620001d7620005e8565b601581527f42697263682d5377696e6e6572746f6e2d4479657200000000000000000000008882015260a08401526200020f620005e8565b601b81527f456c6c69707469632043757276652043727970746f67726170687900000000008882015260c084015262000247620005e8565b601481527f4c6174746963652043727970746f6772617068790000000000000000000000008882015260e08401526200027f620005e8565b601381527f506f696e6361726520436f6e6a656374757265000000000000000000000000008882015261010084015260125492600993846012558085106200053c575b50919060128a52878a20918a935b858510620004125750505050505050600254161760025583519160c083019083821090821117620003fe579083918552818352820152818382015281606082015281608082015260a04291015280600c5580600d5580600e5580600f55601055426011556101f4602b82516a7477696e5f7072696d657360a81b81526007600b8201522055610190602d82516c636f7573696e5f7072696d657360981b81526007600d820152205561015e602b82516a736578795f7072696d657360a81b81526007600b82015220556103e8602e82516d6d657273656e6e655f7072696d6560901b81526007600e82015220556102ee603582517f676f6c64626163685f766572696669636174696f6e000000000000000000000081526007601582015220555161304890816200065f8239f35b634e487b7160e01b84526041600452602484fd5b80519081518c8111620005285788918c918f62000430895462000608565b888111620004ed575b5083908883116001146200047e579085968362000472575b5050600019600383901b1c191690841b1787555b01940194019392620002d0565b01519050388062000451565b908783168a8352858320925b818110620004ca5750908697848895949310620004b0575b505050811b01875562000465565b015160001960f88460031b161c19169055388080620004a2565b9497939686929691938786015181550195019301928f94918d969397946200048a565b62000517908a835285832060058b808701821c8301938988106200051e575b01901c019062000645565b3862000439565b935082936200050c565b634e487b7160e01b8e52604160045260248efd5b60128b5285858a8d2092830192015b8281106200055b575050620002c2565b8c62000568825462000608565b806200057a575b50500186906200054b565b8c87808311600114620005955750505081555b8c386200056f565b620005af918585528420920160051c820185830162000645565b818355556200058d565b634e487b7160e01b8a52604160045260248afd5b600080fd5b634e487b7160e01b600052604160045260246000fd5b60408051919082016001600160401b03811183821017620005d257604052565b90600182811c921680156200063a575b60208310146200062457565b634e487b7160e01b600052602260045260246000fd5b91607f169162000618565b81811062000651575050565b600081556001016200064556fe6080604052600436101561001257600080fd5b60003560e01c8063013cf08b146127c157806302129e741461266a578063053861401461259457806305f4b26f1461252d57806308ae4b0c14612475578063107046bd146123c25780631910de7a1461232b5780632245f1521461200d5780632295dd4414611fbd57806322d771ec14611a17578063274dce13146119fb5780632ada25961461187957806333cf7c9c146118505780635312ea8e14611755578063547b9c3d1461154d57806365e481e21461140857806366666aa9146113c0578063715018a614611367578063732fb41f14610d8557806376e9255914610d675780637a0a39bf14610cbd5780638da5cb5b14610c9457806399100bae14610c795780639c361e4e14610c5b5780639f61ebd314610a73578063a78d80fc14610a55578063ac92eacb146106e3578063ae8e5b27146109f6578063b1610d7e146109d8578063b4c16a16146109bc578063c9d27afe146107ec578063cb05347a1461073f578063cd604cb1146106e3578063d8987642146106c7578063ece8f1f914610662578063f0f3f2c814610521578063f240c3e514610503578063f2fde38b1461043f578063f5c91a081461037c5763f8fbafd9146101d457600080fd5b34610377576020366003190112610377576004356101f0612e09565b8015610332576002546040516323b872dd60e01b81523360048201523060248201526044810183905290602090829060649082906000906001600160a01b03165af180156103265761024a916000916102f8575b50612f7f565b602881028181046028036102e257601e8202828104601e036102e25760148302928084046014036102e257600a810291818304600a036102e2576102d5946102bd60648096936102b18280966102a56102c999600c54612e6d565b600c5504600d54612e6d565b600d5504600e54612e6d565b600e5504600f54612e6d565b600f5504601054612e6d565b6010554260115560018055005b634e487b7160e01b600052601160045260246000fd5b610319915060203d811161031f575b61031181836128e5565b810190612f67565b38610244565b503d610307565b6040513d6000823e3d90fd5b60405162461bcd60e51b815260206004820152601760248201527f416d6f756e74206d75737420626520706f7369746976650000000000000000006044820152606490fd5b600080fd5b3461037757604036600319011261037757610395612ac5565b602435906103a1612c14565b6001600160a01b031660008181526003602052604090206008015490919060ff16156104065760207ffc577563f1b9a0461e24abef1e1fcc0d33d3d881f20b5df6dda59de4aae2c82191836000526003825280600360406000200155604051908152a2005b60405162461bcd60e51b81526020600482015260116024820152704d656d626572206e6f742061637469766560781b6044820152606490fd5b3461037757602036600319011261037757610458612ac5565b610460612c14565b6001600160a01b039081169081156104af57600054826001600160601b0360a01b821617600055167f8be0079c531659141344cd1fd0a4f28419497f9722a3daafe3b4186f6b6457e0600080a3005b60405162461bcd60e51b815260206004820152602660248201527f4f776e61626c653a206e6577206f776e657220697320746865207a65726f206160448201526564647265737360d01b6064820152608490fd5b34610377576000366003190112610377576020600b54604051908152f35b3461037757602080600319360112610377576004356000526004815260406000208054906004810190600581015491600682015460078301546008840154918760098601549460ff600a880154169661057c60018201612906565b610594600361058d60028501612906565b9301612fbd565b92604051908195869281835491828152019260005281600020916000905b82821061063e5750505050036105c890856128e5565b6040519b8c9b8c5261016080918d01528b016105e3916129cf565b8a810360408c01526105f4916129cf565b89810360608b015261060591612a13565b88810360808a015261061691612bd7565b9560a088015260c087015260e086015261010085015261012084015215156101408301520390f35b600192948380809496985060a01b0387541681520194019101918f928894936105b2565b34610377576020366003190112610377576004356012548110156103775761068990612b72565b6106b1576106996106ad91612906565b6040519182916020835260208301906129cf565b0390f35b634e487b7160e01b600052600060045260246000fd5b34610377576000366003190112610377576020604051605f8152f35b34610377576020366003190112610377576004356001600160401b0381116103775761072c602061071981933690600401612a6f565b81604051938285809451938492016129ac565b8101600781520301902054604051908152f35b3461037757600036600319011261037757600060a0604051610760816128ca565b828152826020820152826040820152826060820152826080820152015260c060405161078b816128ca565b600c5490818152600d5460208201908152600e5460408301908152600f549060608401918252601054926080850193845260a060115495019485526040519586525160208601525160408501525160608401525160808301525160a0820152f35b34610377576107fa366129f4565b90600a54811015610981573360005260206003815261082360ff60086040600020015416612c6c565b81600052600581526004604060002001544211610947578160005260058152600860406000200133600052815260ff60406000205416610913577fe71fcdac32df1877c1700e7bda2a03157e20993363a28fc35ac495cefc76e4d4908260005260058152600960406000203360005260038352600360406000200154866000146108fd576108b660058301918254612e6d565b90555b336000526008810183526040600020600160ff198254161790550181526108f08460406000209060ff801983541691151516179055565b60405193151584523393a3005b61090c60068301918254612e6d565b90556108b9565b6064906040519062461bcd60e51b82526004820152600d60248201526c105b1c9958591e481d9bdd1959609a1b6044820152fd5b6064906040519062461bcd60e51b825260048201526013602482015272159bdd1a5b99c81c195c9a5bd908195b991959606a1b6044820152fd5b60405162461bcd60e51b8152602060048201526013602482015272125b9d985b1a59081c1c9bdc1bdcd85b081251606a1b6044820152606490fd5b3461037757600036600319011261037757602060405160648152f35b3461037757600036600319011261037757602060405162093a808152f35b34610377576020366003190112610377576001600160a01b03610a17612ac5565b166000526003602052608060406000206006810154906007810154906003600482015491015491604051938452602084015260408301526060820152f35b34610377576000366003190112610377576020600a54604051908152f35b3461037757602080600319360112610377576004356001600160401b03811161037757610aa4903690600401612a6f565b336000526003825260ff60086040600020015416610c2357805115610be957610b9a604051610ad2816128ae565b338152600983610b9283878082014281526040830160008152606084016064815260808501906000825260a08601926000845260c087019460008652600360e0890197600089526101206101008b019a60018c52019b8c52336000525260406000209b60018060a01b039051166001600160601b0360a01b8d5416178c555160018c01555160028b01555160038a0155516004890155516005880155516006870155516007860155511515600885019060ff801983541691151516179055565b519101612ccf565b600854600181018091116102e2577fd4a0b090df78a1c4f9456b377b34ef4dfac7251637b55d4b0a731a799c84a44c91610be49160085560405191829185835233958301906129cf565b0390a2005b60405162461bcd60e51b8152600481018390526012602482015271115e1c195c9d1a5cd9481c995c5d5a5c995960721b6044820152606490fd5b60405162461bcd60e51b815260048101839052601060248201526f20b63932b0b23c90309036b2b6b132b960811b6044820152606490fd5b34610377576000366003190112610377576020600954604051908152f35b3461037757600036600319011261037757610c92612c14565b005b34610377576000366003190112610377576000546040516001600160a01b039091168152602090f35b34610377576020366003190112610377576004356000908152600660205260409020805460018201546001600160a01b031691610cfc60028201612906565b60038201549160048101546005820154600783015491610d41600960ff60088701541695015495604051998a998a5260208a01526101208060408b01528901906129cf565b956060880152608087015260a086015260c0850152151560e08401526101008301520390f35b34610377576000366003190112610377576020600854604051908152f35b346103775760a0366003190112610377576001600160401b0360043581811161037757610db6903690600401612a6f565b9060843590811161037757610dcf903690600401612af2565b610dd7612e09565b336000526003602052610df460ff60086040600020015416612c6c565b6024351561132257612710606435116112dd576044351561129857600b5481516103e88060243502906024358204036102e257610e349060443590612e7a565b8060011b90808204600214901517156102e2576101f4808211611290575b50816064810204606414821517156102e2576064602435046064016064116102e257610e976064610e9c930291610e97600a6064350491606460243504606401612e6d565b612e6d565b9160405193610eaa856128ae565b8285523360208601528060408601526024356060860152604435608086015260643560a08601528160c08601524260e08601526000610100860152836101208601528260005260066020526040600020855181556001810160018060a01b036020880151166001600160601b0360a01b825416179055610f31604087015160028301612ccf565b606086015160038201556080860151600482015560a0860151600582015560c0860151805190600160401b821161127a576006830154826006850155808310611201575b506020016006830160005260206000206000915b8383106111e45750505050600961012060e08801519760079889850155610fc66101008201511515600886019060ff801983541691151516179055565b0151910155336000526003602052600660406000200154600181018091116102e2578561100b9133600052600360205260406000209060068201550154835190612e6d565b336000526003602052856040600020015560009260005b83518110156110d05761104e602061103a8387612df5565b5181604051938285809451938492016129ac565b81018a815203019020548061106d575b5061106890612de6565b611022565b949061107c8661106893612e6d565b957ff89931f71205fefd603e8a6ea7ac08a9c5efb228783c2c0e43566cb863abb12b6110a88388612df5565b516110be604051916040835260408301906129cf565b9260208201528033930390a29061105e565b5084846110dd8183612e6d565b61113d575b50506110ef600b54612e5f565b600b557ff03b7374abd388963e9baffa797d886bd734a2aea8b235c96c3e3ba0580ef876611128604051936040855260408501906129cf565b9260643560208201528033940390a360018055005b61117d913360005260036020526111666004604060002001546111608484612e6d565b90612e6d565b336000526003602052600460406000200155612e6d565b60405190815260406020820152601960408201527f436f6d7075746174696f6e616c20416368696576656d656e740000000000000060608201527fc2ff8205a96f8c5c83a4b4fd0f518efbc5496331fb7d75d13cb422d310aa44de60803392a282806110e2565b60016020826111f583945186612ccf565b01920192019190610f89565b600684016000526020600020908382015b8183018110611222575050610f75565b8061122f60019254612874565b8061123c575b5001611212565b601f908181118414611255575050600081555b8c611235565b61127160009284845260208420920160051c8201858301612cb8565b8183555561124f565b634e487b7160e01b600052604160045260246000fd5b905085610e52565b60405162461bcd60e51b815260206004820152601860248201527f496e76616c696420636f6d7075746174696f6e2074696d6500000000000000006044820152606490fd5b60405162461bcd60e51b815260206004820152601b60248201527f496e76616c69642061636375726163792070657263656e7461676500000000006044820152606490fd5b60405162461bcd60e51b815260206004820152601e60248201527f4d7573742070726f63657373206174206c656173742031207265636f726400006044820152606490fd5b3461037757600036600319011261037757611380612c14565b600080546001600160a01b0319811682556001600160a01b03167f8be0079c531659141344cd1fd0a4f28419497f9722a3daafe3b4186f6b6457e08280a3005b346103775760003660031901126103775760c0600c54600d54600e54600f546010549160115493604051958652602086015260408501526060840152608083015260a0820152f35b34610377576040366003190112610377576001600160401b0360043581811161037757611439903690600401612a6f565b9060243590811161037757611452903690600401612a6f565b33600052600360205261146f60ff60086040600020015416612c6c565b33600052600360205261148d60646003604060002001541015612eda565b600a54908160005260056020526114d260406000209183835560018301336001600160601b0360a01b8254161790556114c98560028501612ccf565b60038301612ccf565b62093a804201908142116102e257600791600482015560006005820155600060068201550160ff198154169055600a54600181018091116102e257600a557f7585f467599d0f008985f231af99293be388626ac16ca59505c2f8f88969cd636040516020815280611548339560208301906129cf565b0390a3005b346103775760403660031901126103775760243560043561156c612e09565b6115796009548210612f26565b8060005260206004815260ff600a604060002001541661171d5782156116d95781600052600481526040600020600080600483018054915b82811061169b575b505050156116565790600c82600b7f0a4a91237423e0a1766a761c7cb029311d8b95d6b1b81db1b949a70c98b4e08e94013360005280845261160087604060002054612e6d565b903360005284526040600020550181526040600020600160ff198254161790556003815261163684600260406000200154612e6d565b33600052600382526002604060002001556040519384523393a360018055005b60405162461bcd60e51b815260048101839052601960248201527f4e6f7420612070726f6a656374207061727469636970616e74000000000000006044820152606490fd5b6116a58183612bbf565b905460039190911b1c6001600160a01b031633146116cb576116c690612de6565b6115b1565b5050505060018580806115b9565b6064906040519062461bcd60e51b82526004820152601d60248201527f436f6e747269627574696f6e206d75737420626520706f7369746976650000006044820152fd5b6064906040519062461bcd60e51b825260048201526011602482015270141c9bda9958dd0818dbdb5c1b195d1959607a1b6044820152fd5b3461037757602036600319011261037757600435611771612c14565b601054811161180b576002546000805460405163a9059cbb60e01b81526001600160a01b03918216600482015260248101859052926020928492604492849291165af18015610326576117cb916000916117ed5750612f7f565b6010548181039081116102e257601055600c549081039081116102e257600c55005b611805915060203d811161031f5761031181836128e5565b83610244565b60405162461bcd60e51b815260206004820152601c60248201527f496e73756666696369656e7420656d657267656e63792066756e6473000000006044820152606490fd5b34610377576000366003190112610377576002546040516001600160a01b039091168152602090f35b3461037757602036600319011261037757611892612ac5565b60606101206040516118a3816128ae565b60008152600060208201526000604082015260008382015260006080820152600060a0820152600060c0820152600060e08201526000610100820152015260018060a01b03166000526003602052610120604060002061197460096040519261190b846128ae565b80546001600160a01b0316845260018101546020850152600281015460408501526003810154606085015260048101546080850152600581015460a0850152600681015460c0850152600781015460e0850152600881015460ff16151561010085015201612906565b828201526106ad6040519283926020845260018060a01b038151166020850152602081015160408501526040810151606085015260608101516080850152608081015160a085015260a081015160c085015260c081015160e085015260e08101516101008501526101008101511515828501520151610140808401526101608301906129cf565b3461037757600036600319011261037757602060405160968152f35b346103775760c0366003190112610377576004356001600160401b03811161037757611a47903690600401612a6f565b6024356001600160401b03811161037757611a66903690600401612a6f565b6044356001600160401b03811161037757611a85903690600401612af2565b6001600160401b036064351161037757366023606435011215610377576064356004013592611ab384612adb565b92611ac160405194856128e5565b8484526020840180953660248260051b60643501011161037757602460643501915b60248260051b60643501018310611f9b57505050611aff612e09565b336000526003602052611b1c60ff60086040600020015416612c6c565b336000526003602052611b3a60646003604060002001541015612eda565b600184511115611f3c5760843515611ef75760a435151580611eea575b15611eb05760005b8451811015611be8576001600160a01b03611b7a8287612df5565b5116600052600360205260ff6008604060002001541615611ba357611b9e90612de6565b611b5f565b60405162461bcd60e51b815260206004820152601860248201527f5061727469636970616e74206e6f742061206d656d62657200000000000000006044820152606490fd5b5083908560095494856000526004602052611c1b604060002093878555611c128760018701612ccf565b60028501612ccf565b805190600160401b821161127a576003840154826003860155808310611e37575b506020016003840160005260206000206000915b838310611e1a5750505050600482018351916001600160401b03831161127a57600160401b831161127a578154838355808410611dfc575b5090600052602060002060005b838110611ddf57505050506084356005820155600060068201554260078201556000600882015560a4356009820155600a810160ff1990818154169055600090600b600c84019301915b8451811015611d7c57611d77906001600160a01b0380611cff8389612df5565b511660005285602052604060002084815416905580611d1e8389612df5565b5116600052846020526000604081205580611d398389612df5565b51166000526003602052611d54600560406000200154612e5f565b90611d5f8389612df5565b51166000526003602052600560406000200155612de6565b611cdf565b867f998b9b07e791ba38d092110522ed4d3471af4b7b3729fb284fa42dff5992c990611dc888611dd689611db1600954612e5f565b6009556040519384936040855260408501906129cf565b908382036020850152612bd7565b0390a260018055005b82516001600160a01b031681830155602090920191600101611c95565b611e1490836000528460206000209182019101612cb8565b87611c88565b6001602082611e2b83945186612ccf565b01920192019190611c50565b600385016000526020600020908382015b8183018110611e58575050611c3c565b80611e6560019254612874565b80611e72575b5001611e48565b601f908181118414611e8b575050600081555b8b611e6b565b611ea760009284845260208420920160051c8201858301612cb8565b81835555611e85565b60405162461bcd60e51b8152602060048201526012602482015271496e76616c696420646966666963756c747960701b6044820152606490fd5b50606460a4351115611b57565b60405162461bcd60e51b815260206004820152601760248201527f427564676574206d75737420626520706f7369746976650000000000000000006044820152606490fd5b60405162461bcd60e51b815260206004820152603160248201527f436f6c6c61626f7261746976652070726f6a656374206e65656473206d756c7460448201527069706c65207061727469636970616e747360781b6064820152608490fd5b8235906001600160a01b03821682036103775790815260209283019201611ae3565b34610377576040366003190112610377576024356001600160a01b03811690819003610377576004356000526004602052600b604060002001906000526020526020604060002054604051908152f35b34610377576020806003193601126103775760043561202a612e09565b600961203881548310612f26565b816000526004835260ff600a60406000200154166122f257816000526004835260406000209160018060a01b0392836000541633149460009360048301968754955b8681106122c0575b5015612270576000926000600b8201965b888a828410612236575050505083156121f9576005810154906096820291808304609614811517156102e2576120ce90606480940490612e6d565b9760005b8a548110156121dd5780898987898f8f88908b8f6120f46121209b8e96612bbf565b949054600395861b1c169889600052865260406000205480612125575b50505050505050505050612de6565b6120d2565b7f4cbfa67f54cf0255619787991cb52aa46c0d3ee5cfabb0abf659f2b310f47485976121606121929361215b846121a798612dd3565b612e7a565b968b60005286895261217a88600460406000200154612e6d565b8c600052878a52600460406000200155015490612dd3565b04876000528285528260406000200154612e6d565b908660005280845260406000200155600689016121c5828254612e6d565b9055604051908152a38c898789878f808b8f88612111565b600a8301805460ff191660019081179091554260088501558055005b60405162461bcd60e51b81526004810184905260156024820152744e6f20636f6e747269627574696f6e73206d61646560581b6044820152606490fd5b966122649161224a8561226a95969a612bbf565b90549060031b1c1660005289875260406000205490612e6d565b95612de6565b90612093565b60405162461bcd60e51b815260048101839052602260248201527f4e6f7420617574686f72697a656420746f20636f6d706c6574652070726f6a6560448201526118dd60f21b6064820152608490fd5b876122cb828b612bbf565b919054339260031b1c16146122e8576122e390612de6565b61207a565b5050600188612082565b60405162461bcd60e51b8152600481018490526011602482015270105b1c9958591e4818dbdb5c1b195d1959607a1b6044820152606490fd5b346103775760003660031901126103775760125461234881612adb565b9061235660405192836128e5565b80825260209081830160126000527fbb8a6a4669ba250d26cd7a459eca9d215f8307e33aebe50379bc5a3617ec3444836000925b8484106123a457604051828152806106ad8185018a612a13565b60019182916123b285612906565b815201920192019190849061238a565b34610377576020366003190112610377576004356000526004602052604060002080546123f160018301612906565b916123fe60028201612906565b6005820154916006810154600782015460088301549161244f60ff600a600987015496015416956124416040519a8b9a8b526101208060208d01528b01906129cf565b9089820360408b01526129cf565b956060880152608087015260a086015260c085015260e084015215156101008301520390f35b34610377576020366003190112610377576001600160a01b0380612497612ac5565b1660005260036020526040600020908154166106ad6001830154926002810154906003810154600482015460058301546006840154916007850154936124e7600960ff6008890154169701612906565b966040519a8b9a8b5260208b015260408a01526060890152608088015260a087015260c086015260e08501521515610100840152610140806101208501528301906129cf565b34610377576020366003190112610377576004356001600160401b0381116103775761255d903690600401612a6f565b612565612c14565b601254600160401b81101561127a578060016125849201601255612b72565b9190916106b157610c9291612ccf565b34610377576020366003190112610377576004356125b5600b548210612e9a565b60005260066020526040600020805460018060a01b0360018301541691600381015460048201549061265260058401549160078501549460ff60088201541693600982015495612635612616600661260f60028701612906565b9501612fbd565b936040519b8c9b8c5260208c01526101408060408d01528b01906129cf565b9360608a0152608089015260a088015286820360c0880152612a13565b9260e085015215156101008401526101208301520390f35b3461037757612678366129f4565b90612681612c14565b61268e600b548210612e9a565b600052602090600682526040600020906008820160ff81541661278957805460ff191660ff831515161790556126c057005b6080816040600a60097fc2ff8205a96f8c5c83a4b4fd0f518efbc5496331fb7d75d13cb422d310aa44de9501540491600181016064600560018060a01b0393848454168060005260038b5261271c886004896000200154612e6d565b9060005260038b5260048760002001550154046127488383541691826000526003866000200154612e6d565b90600052600388526003846000200155541694815192835282015260136040820152722932b9bab63a102b32b934b334b1b0ba34b7b760691b6060820152a2005b60405162461bcd60e51b815260048101859052601060248201526f105b1c9958591e481d995c9a599a595960821b6044820152606490fd5b34610377576020366003190112610377576004356000908152600560205260409020805460018201546001600160a01b03169161280060028201612906565b61280c60038301612906565b9160048101549261285960058301549161284b60ff600760068701549601541695604051998a998a5260208a01526101008060408b01528901906129cf565b9087820360608901526129cf565b93608086015260a085015260c0840152151560e08301520390f35b90600182811c921680156128a4575b602083101461288e57565b634e487b7160e01b600052602260045260246000fd5b91607f1691612883565b61014081019081106001600160401b0382111761127a57604052565b60c081019081106001600160401b0382111761127a57604052565b90601f801991011681019081106001600160401b0382111761127a57604052565b906040519182600082549261291a84612874565b9081845260019485811690816000146129895750600114612946575b5050612944925003836128e5565b565b9093915060005260209081600020936000915b81831061297157505061294493508201013880612936565b85548884018501529485019487945091830191612959565b91505061294494506020925060ff191682840152151560051b8201013880612936565b60005b8381106129bf5750506000910152565b81810151838201526020016129af565b906020916129e8815180928185528580860191016129ac565b601f01601f1916010190565b6040906003190112610377576004359060243580151581036103775790565b908082519081815260208091019281808460051b8301019501936000915b848310612a415750505050505090565b9091929394958480612a5f600193601f198682030187528a516129cf565b9801930193019194939290612a31565b81601f82011215610377578035906001600160401b03821161127a5760405192612aa3601f8401601f1916602001856128e5565b8284526020838301011161037757816000926020809301838601378301015290565b600435906001600160a01b038216820361037757565b6001600160401b03811161127a5760051b60200190565b9080601f8301121561037757813590612b0a82612adb565b92612b1860405194856128e5565b828452602092838086019160051b8301019280841161037757848301915b848310612b465750505050505090565b82356001600160401b038111610377578691612b6784848094890101612a6f565b815201920191612b36565b601254811015612ba95760126000527fbb8a6a4669ba250d26cd7a459eca9d215f8307e33aebe50379bc5a3617ec34440190600090565b634e487b7160e01b600052603260045260246000fd5b8054821015612ba95760005260206000200190600090565b90815180825260208080930193019160005b828110612bf7575050505090565b83516001600160a01b031685529381019392810192600101612be9565b6000546001600160a01b03163303612c2857565b606460405162461bcd60e51b815260206004820152602060248201527f4f776e61626c653a2063616c6c6572206973206e6f7420746865206f776e65726044820152fd5b15612c7357565b60405162461bcd60e51b815260206004820152601760248201527f4e6f74206120736f6c69646172697479206d656d6265720000000000000000006044820152606490fd5b818110612cc3575050565b60008155600101612cb8565b91909182516001600160401b03811161127a57612cec8254612874565b601f8111612d96575b50602080601f8311600114612d32575081929394600092612d27575b50508160011b916000199060031b1c1916179055565b015190503880612d11565b90601f198316958460005282600020926000905b888210612d7e57505083600195969710612d65575b505050811b019055565b015160001960f88460031b161c19169055388080612d5b565b80600185968294968601518155019501930190612d46565b612dc390836000526020600020601f840160051c81019160208510612dc9575b601f0160051c0190612cb8565b38612cf5565b9091508190612db6565b818102929181159184041417156102e257565b60001981146102e25760010190565b8051821015612ba95760209160051b010190565b600260015414612e1a576002600155565b60405162461bcd60e51b815260206004820152601f60248201527f5265656e7472616e637947756172643a207265656e7472616e742063616c6c006044820152606490fd5b90600182018092116102e257565b919082018092116102e257565b8115612e84570490565b634e487b7160e01b600052601260045260246000fd5b15612ea157565b60405162461bcd60e51b8152602060048201526011602482015270125b9d985b1a59081c995cdd5b1d081251607a1b6044820152606490fd5b15612ee157565b60405162461bcd60e51b815260206004820152601760248201527f496e73756666696369656e742072657075746174696f6e0000000000000000006044820152606490fd5b15612f2d57565b60405162461bcd60e51b8152602060048201526012602482015271125b9d985b1a59081c1c9bda9958dd08125160721b6044820152606490fd5b90816020910312610377575180151581036103775790565b15612f8657565b60405162461bcd60e51b815260206004820152600f60248201526e151c985b9cd9995c8819985a5b1959608a1b6044820152606490fd5b908154612fc981612adb565b92612fd760405194856128e5565b818452600090815260208082208186015b848410612ff6575050505050565b600183819261300485612906565b815201920193019290612fe856fea26469706673582212201f90b54659f7bc52f8d3d98e975303e5dcca28d564016396d1fea49d077665e064736f6c63430008140033",
  "linkReferences": {},
  "deployedLinkReferences": {}
}